{
  "address": "0xe7f1725E7734CE288F8367e1Bb143E90bb3F0512",
  "abi": [
    {
      "inputs": [],
      "stateMutability": "nonpayable",
      "type": "constructor"
    },
    {
      "inputs": [],
      "name": "CollectionCreator__InsufficientAmount",
      "type": "error"
    },
    {
      "inputs": [],
      "name": "CollectionCreator__TransactionFailed",
      "type": "error"
    },
    {
      "anonymous": false,
      "inputs": [],
      "name": "Name",
      "type": "event"
    },
    {
      "anonymous": false,
      "inputs": [
        {
          "indexed": false,
          "internalType": "address",
          "name": "requestCollectionFrom",
          "type": "address"
        },
        {
          "indexed": false,
          "internalType": "address",
          "name": "contractAddress",
          "type": "address"
        }
      ],
      "name": "NewCollection",
      "type": "event"
    },
    {
      "anonymous": false,
      "inputs": [],
      "name": "Withdraw",
      "type": "event"
    },
    {
      "inputs": [
        {
          "internalType": "uint256",
          "name": "_price",
          "type": "uint256"
        },
        {
          "internalType": "uint256",
          "name": "_maxSupply",
          "type": "uint256"
        },
        {
          "internalType": "string",
          "name": "_name",
          "type": "string"
        },
        {
          "internalType": "string",
          "name": "_symbol",
          "type": "string"
        },
        {
          "internalType": "address",
          "name": "_requsetFrom",
          "type": "address"
        },
        {
          "internalType": "string",
          "name": "_uri",
          "type": "string"
        }
      ],
      "name": "createCollection",
      "outputs": [],
      "stateMutability": "payable",
      "type": "function"
    },
    {
      "inputs": [],
      "name": "createSingleNft",
      "outputs": [],
      "stateMutability": "nonpayable",
      "type": "function"
    },
    {
      "inputs": [
        {
          "internalType": "address",
          "name": "userAddress",
          "type": "address"
        }
      ],
      "name": "getBalance",
      "outputs": [
        {
          "internalType": "uint256",
          "name": "",
          "type": "uint256"
        }
      ],
      "stateMutability": "view",
      "type": "function"
    },
    {
      "inputs": [
        {
          "internalType": "address",
          "name": "collectionAddress",
          "type": "address"
        }
      ],
      "name": "mint",
      "outputs": [],
      "stateMutability": "payable",
      "type": "function"
    },
    {
      "inputs": [],
      "name": "withdraw",
      "outputs": [],
      "stateMutability": "payable",
      "type": "function"
    }
  ],
  "transactionHash": "0x56aeecd6d55665e12896f1ef3382e212c7a5767a6fb9bf95dcaccfb0ad1a336e",
  "args": [],
  "numDeployments": 1,
  "solcInputHash": "5c947efd525c5c4ec61c7df43e9066e8",
  "bytecode": "0x60a060405234801561001057600080fd5b503373ffffffffffffffffffffffffffffffffffffffff1660808173ffffffffffffffffffffffffffffffffffffffff16815250506080516140e561005d600039600050506140e56000f3fe608060405260043610620000505760003560e01c8063074acc7314620000555780633ccfd60b146200006f5780636a627842146200007b578063e0949961146200009b578063f8b2cb4f14620000bb575b600080fd5b3480156200006257600080fd5b506200006d620000ff565b005b6200007962000101565b005b6200009960048036038101906200009391906200064a565b620002cf565b005b620000b96004803603810190620000b3919062000819565b6200040c565b005b348015620000c857600080fd5b50620000e76004803603810190620000e191906200064a565b6200057a565b604051620000f6919062000923565b60405180910390f35b565b6000600260003373ffffffffffffffffffffffffffffffffffffffff1673ffffffffffffffffffffffffffffffffffffffff16815260200190815260200160002054036200017b576040517f06455ef600000000000000000000000000000000000000000000000000000000815260040160405180910390fd5b60003373ffffffffffffffffffffffffffffffffffffffff166103e86103e3600260003373ffffffffffffffffffffffffffffffffffffffff1673ffffffffffffffffffffffffffffffffffffffff16815260200190815260200160002054620001e691906200096f565b620001f29190620009e9565b604051620002009062000a56565b60006040518083038185875af1925050503d80600081146200023f576040519150601f19603f3d011682016040523d82523d6000602084013e62000244565b606091505b50509050600015158115150362000287576040517fb1fb6a8800000000000000000000000000000000000000000000000000000000815260040160405180910390fd5b6000600260003373ffffffffffffffffffffffffffffffffffffffff1673ffffffffffffffffffffffffffffffffffffffff1681526020019081526020016000208190555050565b8073ffffffffffffffffffffffffffffffffffffffff1663c27df5c833346040518363ffffffff1660e01b81526004016200030c92919062000a7e565b600060405180830381600087803b1580156200032757600080fd5b505af11580156200033c573d6000803e3d6000fd5b5050505034600260008373ffffffffffffffffffffffffffffffffffffffff1663df727d3b6040518163ffffffff1660e01b8152600401602060405180830381865afa15801562000391573d6000803e3d6000fd5b505050506040513d601f19601f82011682018060405250810190620003b7919062000ac2565b73ffffffffffffffffffffffffffffffffffffffff1673ffffffffffffffffffffffffffffffffffffffff168152602001908152602001600020600082825462000402919062000af4565b9250508190555050565b60005434101562000449576040517f06455ef600000000000000000000000000000000000000000000000000000000815260040160405180910390fd5b60008484888886866040516200045f90620005c3565b620004709695949392919062000bb8565b604051809103906000f0801580156200048d573d6000803e3d6000fd5b5090506000819050600160008573ffffffffffffffffffffffffffffffffffffffff1673ffffffffffffffffffffffffffffffffffffffff168152602001908152602001600020819080600181540180825580915050600190039060005260206000200160009091909190916101000a81548173ffffffffffffffffffffffffffffffffffffffff021916908373ffffffffffffffffffffffffffffffffffffffff1602179055507f5b84d9550adb7000df7bee717735ecd3af48ea3f66c6886d52e8227548fb228c84826040516200056892919062000c3a565b60405180910390a15050505050505050565b6000600260008373ffffffffffffffffffffffffffffffffffffffff1673ffffffffffffffffffffffffffffffffffffffff168152602001908152602001600020549050919050565b6134488062000c6883390190565b6000604051905090565b600080fd5b600080fd5b600073ffffffffffffffffffffffffffffffffffffffff82169050919050565b60006200061282620005e5565b9050919050565b620006248162000605565b81146200063057600080fd5b50565b600081359050620006448162000619565b92915050565b600060208284031215620006635762000662620005db565b5b6000620006738482850162000633565b91505092915050565b6000819050919050565b62000691816200067c565b81146200069d57600080fd5b50565b600081359050620006b18162000686565b92915050565b600080fd5b600080fd5b6000601f19601f8301169050919050565b7f4e487b7100000000000000000000000000000000000000000000000000000000600052604160045260246000fd5b6200070c82620006c1565b810181811067ffffffffffffffff821117156200072e576200072d620006d2565b5b80604052505050565b600062000743620005d1565b905062000751828262000701565b919050565b600067ffffffffffffffff821115620007745762000773620006d2565b5b6200077f82620006c1565b9050602081019050919050565b82818337600083830152505050565b6000620007b2620007ac8462000756565b62000737565b905082815260208101848484011115620007d157620007d0620006bc565b5b620007de8482856200078c565b509392505050565b600082601f830112620007fe57620007fd620006b7565b5b8135620008108482602086016200079b565b91505092915050565b60008060008060008060c08789031215620008395762000838620005db565b5b60006200084989828a01620006a0565b96505060206200085c89828a01620006a0565b955050604087013567ffffffffffffffff81111562000880576200087f620005e0565b5b6200088e89828a01620007e6565b945050606087013567ffffffffffffffff811115620008b257620008b1620005e0565b5b620008c089828a01620007e6565b9350506080620008d389828a0162000633565b92505060a087013567ffffffffffffffff811115620008f757620008f6620005e0565b5b6200090589828a01620007e6565b9150509295509295509295565b6200091d816200067c565b82525050565b60006020820190506200093a600083018462000912565b92915050565b7f4e487b7100000000000000000000000000000000000000000000000000000000600052601160045260246000fd5b60006200097c826200067c565b915062000989836200067c565b925082820262000999816200067c565b91508282048414831517620009b357620009b262000940565b5b5092915050565b7f4e487b7100000000000000000000000000000000000000000000000000000000600052601260045260246000fd5b6000620009f6826200067c565b915062000a03836200067c565b92508262000a165762000a15620009ba565b5b828204905092915050565b600081905092915050565b50565b600062000a3e60008362000a21565b915062000a4b8262000a2c565b600082019050919050565b600062000a638262000a2f565b9150819050919050565b62000a788162000605565b82525050565b600060408201905062000a95600083018562000a6d565b62000aa4602083018462000912565b9392505050565b60008151905062000abc8162000619565b92915050565b60006020828403121562000adb5762000ada620005db565b5b600062000aeb8482850162000aab565b91505092915050565b600062000b01826200067c565b915062000b0e836200067c565b925082820190508082111562000b295762000b2862000940565b5b92915050565b600081519050919050565b600082825260208201905092915050565b60005b8381101562000b6b57808201518184015260208101905062000b4e565b60008484015250505050565b600062000b848262000b2f565b62000b90818562000b3a565b935062000ba281856020860162000b4b565b62000bad81620006c1565b840191505092915050565b600060c082019050818103600083015262000bd4818962000b77565b9050818103602083015262000bea818862000b77565b905062000bfb604083018762000912565b62000c0a606083018662000912565b62000c19608083018562000a6d565b81810360a083015262000c2d818462000b77565b9050979650505050505050565b600060408201905062000c51600083018562000a6d565b62000c60602083018462000a6d565b939250505056fe61010060405260006007553480156200001757600080fd5b50604051620034483803806200344883398181016040528101906200003d91906200032e565b8585816000908162000050919062000668565b50806001908162000062919062000668565b5050503373ffffffffffffffffffffffffffffffffffffffff1660808173ffffffffffffffffffffffffffffffffffffffff16815250508360c081815250508260e081815250508173ffffffffffffffffffffffffffffffffffffffff1660a08173ffffffffffffffffffffffffffffffffffffffff16815250508060089081620000ee919062000668565b505050505050506200074f565b6000604051905090565b600080fd5b600080fd5b600080fd5b600080fd5b6000601f19601f8301169050919050565b7f4e487b7100000000000000000000000000000000000000000000000000000000600052604160045260246000fd5b620001648262000119565b810181811067ffffffffffffffff821117156200018657620001856200012a565b5b80604052505050565b60006200019b620000fb565b9050620001a9828262000159565b919050565b600067ffffffffffffffff821115620001cc57620001cb6200012a565b5b620001d78262000119565b9050602081019050919050565b60005b8381101562000204578082015181840152602081019050620001e7565b60008484015250505050565b6000620002276200022184620001ae565b6200018f565b90508281526020810184848401111562000246576200024562000114565b5b62000253848285620001e4565b509392505050565b600082601f8301126200027357620002726200010f565b5b81516200028584826020860162000210565b91505092915050565b6000819050919050565b620002a3816200028e565b8114620002af57600080fd5b50565b600081519050620002c38162000298565b92915050565b600073ffffffffffffffffffffffffffffffffffffffff82169050919050565b6000620002f682620002c9565b9050919050565b6200030881620002e9565b81146200031457600080fd5b50565b6000815190506200032881620002fd565b92915050565b60008060008060008060c087890312156200034e576200034d62000105565b5b600087015167ffffffffffffffff8111156200036f576200036e6200010a565b5b6200037d89828a016200025b565b965050602087015167ffffffffffffffff811115620003a157620003a06200010a565b5b620003af89828a016200025b565b9550506040620003c289828a01620002b2565b9450506060620003d589828a01620002b2565b9350506080620003e889828a0162000317565b92505060a087015167ffffffffffffffff8111156200040c576200040b6200010a565b5b6200041a89828a016200025b565b9150509295509295509295565b600081519050919050565b7f4e487b7100000000000000000000000000000000000000000000000000000000600052602260045260246000fd5b600060028204905060018216806200047a57607f821691505b60208210810362000490576200048f62000432565b5b50919050565b60008190508160005260206000209050919050565b60006020601f8301049050919050565b600082821b905092915050565b600060088302620004fa7fffffffffffffffffffffffffffffffffffffffffffffffffffffffffffffffff82620004bb565b620005068683620004bb565b95508019841693508086168417925050509392505050565b6000819050919050565b600062000549620005436200053d846200028e565b6200051e565b6200028e565b9050919050565b6000819050919050565b620005658362000528565b6200057d620005748262000550565b848454620004c8565b825550505050565b600090565b6200059462000585565b620005a18184846200055a565b505050565b5b81811015620005c957620005bd6000826200058a565b600181019050620005a7565b5050565b601f8211156200061857620005e28162000496565b620005ed84620004ab565b81016020851015620005fd578190505b620006156200060c85620004ab565b830182620005a6565b50505b505050565b600082821c905092915050565b60006200063d600019846008026200061d565b1980831691505092915050565b60006200065883836200062a565b9150826002028217905092915050565b620006738262000427565b67ffffffffffffffff8111156200068f576200068e6200012a565b5b6200069b825462000461565b620006a8828285620005cd565b600060209050601f831160018114620006e05760008415620006cb578287015190505b620006d785826200064a565b86555062000747565b601f198416620006f08662000496565b60005b828110156200071a57848901518255600182019150602085019450602081019050620006f3565b868310156200073a578489015162000736601f8916826200062a565b8355505b6001600288020188555050505b505050505050565b60805160a05160c05160e051612ca3620007a560003960008181610a3801528181610a610152610c490152600081816108ec01526109dd015260008181610c710152610d2b0152600061098a0152612ca36000f3fe608060405234801561001057600080fd5b50600436106101215760003560e01c806395d89b41116100ad578063c87b56dd11610071578063c87b56dd14610306578063d5abeb0114610336578063df727d3b14610354578063e985e9c514610372578063eb1f9f6e146103a257610121565b806395d89b4114610276578063a035b1fe14610294578063a22cb465146102b2578063b88d4fde146102ce578063c27df5c8146102ea57610121565b8063095ea7b3116100f4578063095ea7b3146101c257806323b872dd146101de57806342842e0e146101fa5780636352211e1461021657806370a082311461024657610121565b806301ffc9a71461012657806306661abd1461015657806306fdde0314610174578063081812fc14610192575b600080fd5b610140600480360381019061013b9190611b55565b6103be565b60405161014d9190611b9d565b60405180910390f35b61015e6104a0565b60405161016b9190611bd1565b60405180910390f35b61017c6104aa565b6040516101899190611c7c565b60405180910390f35b6101ac60048036038101906101a79190611cca565b61053c565b6040516101b99190611d38565b60405180910390f35b6101dc60048036038101906101d79190611d7f565b610582565b005b6101f860048036038101906101f39190611dbf565b610699565b005b610214600480360381019061020f9190611dbf565b6106f9565b005b610230600480360381019061022b9190611cca565b610719565b60405161023d9190611d38565b60405180910390f35b610260600480360381019061025b9190611e12565b61079f565b60405161026d9190611bd1565b60405180910390f35b61027e610856565b60405161028b9190611c7c565b60405180910390f35b61029c6108e8565b6040516102a99190611bd1565b60405180910390f35b6102cc60048036038101906102c79190611e6b565b610910565b005b6102e860048036038101906102e39190611fe0565b610926565b005b61030460048036038101906102ff9190611d7f565b610988565b005b610320600480360381019061031b9190611cca565b610bb1565b60405161032d9190611c7c565b60405180910390f35b61033e610c45565b60405161034b9190611bd1565b60405180910390f35b61035c610c6d565b6040516103699190611d38565b60405180910390f35b61038c60048036038101906103879190612063565b610c95565b6040516103999190611b9d565b60405180910390f35b6103bc60048036038101906103b79190612144565b610d29565b005b60007f80ac58cd000000000000000000000000000000000000000000000000000000007bffffffffffffffffffffffffffffffffffffffffffffffffffffffff1916827bffffffffffffffffffffffffffffffffffffffffffffffffffffffff1916148061048957507f5b5e139f000000000000000000000000000000000000000000000000000000007bffffffffffffffffffffffffffffffffffffffffffffffffffffffff1916827bffffffffffffffffffffffffffffffffffffffffffffffffffffffff1916145b80610499575061049882610dc6565b5b9050919050565b6000600754905090565b6060600080546104b9906121bc565b80601f01602080910402602001604051908101604052809291908181526020018280546104e5906121bc565b80156105325780601f1061050757610100808354040283529160200191610532565b820191906000526020600020905b81548152906001019060200180831161051557829003601f168201915b5050505050905090565b600061054782610e30565b6004600083815260200190815260200160002060009054906101000a900473ffffffffffffffffffffffffffffffffffffffff169050919050565b600061058d82610719565b90508073ffffffffffffffffffffffffffffffffffffffff168373ffffffffffffffffffffffffffffffffffffffff16036105fd576040517f08c379a00000000000000000000000000000000000000000000000000000000081526004016105f49061225f565b60405180910390fd5b8073ffffffffffffffffffffffffffffffffffffffff1661061c610e7b565b73ffffffffffffffffffffffffffffffffffffffff16148061064b575061064a81610645610e7b565b610c95565b5b61068a576040517f08c379a0000000000000000000000000000000000000000000000000000000008152600401610681906122f1565b60405180910390fd5b6106948383610e83565b505050565b6106aa6106a4610e7b565b82610f3c565b6106e9576040517f08c379a00000000000000000000000000000000000000000000000000000000081526004016106e090612383565b60405180910390fd5b6106f4838383610fd1565b505050565b61071483838360405180602001604052806000815250610926565b505050565b600080610725836112ca565b9050600073ffffffffffffffffffffffffffffffffffffffff168173ffffffffffffffffffffffffffffffffffffffff1603610796576040517f08c379a000000000000000000000000000000000000000000000000000000000815260040161078d906123ef565b60405180910390fd5b80915050919050565b60008073ffffffffffffffffffffffffffffffffffffffff168273ffffffffffffffffffffffffffffffffffffffff160361080f576040517f08c379a000000000000000000000000000000000000000000000000000000000815260040161080690612481565b60405180910390fd5b600360008373ffffffffffffffffffffffffffffffffffffffff1673ffffffffffffffffffffffffffffffffffffffff168152602001908152602001600020549050919050565b606060018054610865906121bc565b80601f0160208091040260200160405190810160405280929190818152602001828054610891906121bc565b80156108de5780601f106108b3576101008083540402835291602001916108de565b820191906000526020600020905b8154815290600101906020018083116108c157829003601f168201915b5050505050905090565b60007f0000000000000000000000000000000000000000000000000000000000000000905090565b61092261091b610e7b565b8383611307565b5050565b610937610931610e7b565b83610f3c565b610976576040517f08c379a000000000000000000000000000000000000000000000000000000000815260040161096d90612383565b60405180910390fd5b61098284848484611473565b50505050565b7f000000000000000000000000000000000000000000000000000000000000000073ffffffffffffffffffffffffffffffffffffffff163373ffffffffffffffffffffffffffffffffffffffff1603610b7b577f00000000000000000000000000000000000000000000000000000000000000008111610a34576040517fe748f71800000000000000000000000000000000000000000000000000000000815260040160405180910390fd5b60007f0000000000000000000000000000000000000000000000000000000000000000118015610a8557507f0000000000000000000000000000000000000000000000000000000000000000600754115b15610abc576040517f1014e77600000000000000000000000000000000000000000000000000000000815260040160405180910390fd5b610ac8826007546114cf565b610b5e60075460088054610adb906121bc565b80601f0160208091040260200160405190810160405280929190818152602001828054610b07906121bc565b8015610b545780601f10610b2957610100808354040283529160200191610b54565b820191906000526020600020905b815481529060010190602001808311610b3757829003601f168201915b50505050506114ed565b60076000815480929190610b71906124d0565b9190505550610bad565b6040517f1b42611800000000000000000000000000000000000000000000000000000000815260040160405180910390fd5b5050565b606060088054610bc0906121bc565b80601f0160208091040260200160405190810160405280929190818152602001828054610bec906121bc565b8015610c395780601f10610c0e57610100808354040283529160200191610c39565b820191906000526020600020905b815481529060010190602001808311610c1c57829003601f168201915b50505050509050919050565b60007f0000000000000000000000000000000000000000000000000000000000000000905090565b60007f0000000000000000000000000000000000000000000000000000000000000000905090565b6000600560008473ffffffffffffffffffffffffffffffffffffffff1673ffffffffffffffffffffffffffffffffffffffff16815260200190815260200160002060008373ffffffffffffffffffffffffffffffffffffffff1673ffffffffffffffffffffffffffffffffffffffff16815260200190815260200160002060009054906101000a900460ff16905092915050565b7f000000000000000000000000000000000000000000000000000000000000000073ffffffffffffffffffffffffffffffffffffffff163373ffffffffffffffffffffffffffffffffffffffff1603610d91578060089081610d8b91906126c4565b50610dc3565b6040517f1b42611800000000000000000000000000000000000000000000000000000000815260040160405180910390fd5b50565b60007f01ffc9a7000000000000000000000000000000000000000000000000000000007bffffffffffffffffffffffffffffffffffffffffffffffffffffffff1916827bffffffffffffffffffffffffffffffffffffffffffffffffffffffff1916149050919050565b610e398161155a565b610e78576040517f08c379a0000000000000000000000000000000000000000000000000000000008152600401610e6f906123ef565b60405180910390fd5b50565b600033905090565b816004600083815260200190815260200160002060006101000a81548173ffffffffffffffffffffffffffffffffffffffff021916908373ffffffffffffffffffffffffffffffffffffffff160217905550808273ffffffffffffffffffffffffffffffffffffffff16610ef683610719565b73ffffffffffffffffffffffffffffffffffffffff167f8c5be1e5ebec7d5bd14f71427d1e84f3dd0314c0f7b2291e5b200ac8c7c3b92560405160405180910390a45050565b600080610f4883610719565b90508073ffffffffffffffffffffffffffffffffffffffff168473ffffffffffffffffffffffffffffffffffffffff161480610f8a5750610f898185610c95565b5b80610fc857508373ffffffffffffffffffffffffffffffffffffffff16610fb08461053c565b73ffffffffffffffffffffffffffffffffffffffff16145b91505092915050565b8273ffffffffffffffffffffffffffffffffffffffff16610ff182610719565b73ffffffffffffffffffffffffffffffffffffffff1614611047576040517f08c379a000000000000000000000000000000000000000000000000000000000815260040161103e90612808565b60405180910390fd5b600073ffffffffffffffffffffffffffffffffffffffff168273ffffffffffffffffffffffffffffffffffffffff16036110b6576040517f08c379a00000000000000000000000000000000000000000000000000000000081526004016110ad9061289a565b60405180910390fd5b6110c3838383600161159b565b8273ffffffffffffffffffffffffffffffffffffffff166110e382610719565b73ffffffffffffffffffffffffffffffffffffffff1614611139576040517f08c379a000000000000000000000000000000000000000000000000000000000815260040161113090612808565b60405180910390fd5b6004600082815260200190815260200160002060006101000a81549073ffffffffffffffffffffffffffffffffffffffff02191690556001600360008573ffffffffffffffffffffffffffffffffffffffff1673ffffffffffffffffffffffffffffffffffffffff168152602001908152602001600020600082825403925050819055506001600360008473ffffffffffffffffffffffffffffffffffffffff1673ffffffffffffffffffffffffffffffffffffffff16815260200190815260200160002060008282540192505081905550816002600083815260200190815260200160002060006101000a81548173ffffffffffffffffffffffffffffffffffffffff021916908373ffffffffffffffffffffffffffffffffffffffff160217905550808273ffffffffffffffffffffffffffffffffffffffff168473ffffffffffffffffffffffffffffffffffffffff167fddf252ad1be2c89b69c2b068fc378daa952ba7f163c4a11628f55a4df523b3ef60405160405180910390a46112c583838360016116c1565b505050565b60006002600083815260200190815260200160002060009054906101000a900473ffffffffffffffffffffffffffffffffffffffff169050919050565b8173ffffffffffffffffffffffffffffffffffffffff168373ffffffffffffffffffffffffffffffffffffffff1603611375576040517f08c379a000000000000000000000000000000000000000000000000000000000815260040161136c90612906565b60405180910390fd5b80600560008573ffffffffffffffffffffffffffffffffffffffff1673ffffffffffffffffffffffffffffffffffffffff16815260200190815260200160002060008473ffffffffffffffffffffffffffffffffffffffff1673ffffffffffffffffffffffffffffffffffffffff16815260200190815260200160002060006101000a81548160ff0219169083151502179055508173ffffffffffffffffffffffffffffffffffffffff168373ffffffffffffffffffffffffffffffffffffffff167f17307eab39ab6107e8899845ad3d59bd9653f200f220920489ca2b5937696c31836040516114669190611b9d565b60405180910390a3505050565b61147e848484610fd1565b61148a848484846116c7565b6114c9576040517f08c379a00000000000000000000000000000000000000000000000000000000081526004016114c090612998565b60405180910390fd5b50505050565b6114e982826040518060200160405280600081525061184e565b5050565b6114f68261155a565b611535576040517f08c379a000000000000000000000000000000000000000000000000000000000815260040161152c90612a2a565b60405180910390fd5b8060066000848152602001908152602001600020908161155591906126c4565b505050565b60008073ffffffffffffffffffffffffffffffffffffffff1661157c836112ca565b73ffffffffffffffffffffffffffffffffffffffff1614159050919050565b60018111156116bb57600073ffffffffffffffffffffffffffffffffffffffff168473ffffffffffffffffffffffffffffffffffffffff161461162f5780600360008673ffffffffffffffffffffffffffffffffffffffff1673ffffffffffffffffffffffffffffffffffffffff16815260200190815260200160002060008282546116279190612a4a565b925050819055505b600073ffffffffffffffffffffffffffffffffffffffff168373ffffffffffffffffffffffffffffffffffffffff16146116ba5780600360008573ffffffffffffffffffffffffffffffffffffffff1673ffffffffffffffffffffffffffffffffffffffff16815260200190815260200160002060008282546116b29190612a7e565b925050819055505b5b50505050565b50505050565b60006116e88473ffffffffffffffffffffffffffffffffffffffff166118a9565b15611841578373ffffffffffffffffffffffffffffffffffffffff1663150b7a02611711610e7b565b8786866040518563ffffffff1660e01b81526004016117339493929190612b07565b6020604051808303816000875af192505050801561176f57506040513d601f19601f8201168201806040525081019061176c9190612b68565b60015b6117f1573d806000811461179f576040519150601f19603f3d011682016040523d82523d6000602084013e6117a4565b606091505b5060008151036117e9576040517f08c379a00000000000000000000000000000000000000000000000000000000081526004016117e090612998565b60405180910390fd5b805181602001fd5b63150b7a0260e01b7bffffffffffffffffffffffffffffffffffffffffffffffffffffffff1916817bffffffffffffffffffffffffffffffffffffffffffffffffffffffff191614915050611846565b600190505b949350505050565b61185883836118cc565b61186560008484846116c7565b6118a4576040517f08c379a000000000000000000000000000000000000000000000000000000000815260040161189b90612998565b60405180910390fd5b505050565b6000808273ffffffffffffffffffffffffffffffffffffffff163b119050919050565b600073ffffffffffffffffffffffffffffffffffffffff168273ffffffffffffffffffffffffffffffffffffffff160361193b576040517f08c379a000000000000000000000000000000000000000000000000000000000815260040161193290612be1565b60405180910390fd5b6119448161155a565b15611984576040517f08c379a000000000000000000000000000000000000000000000000000000000815260040161197b90612c4d565b60405180910390fd5b61199260008383600161159b565b61199b8161155a565b156119db576040517f08c379a00000000000000000000000000000000000000000000000000000000081526004016119d290612c4d565b60405180910390fd5b6001600360008473ffffffffffffffffffffffffffffffffffffffff1673ffffffffffffffffffffffffffffffffffffffff16815260200190815260200160002060008282540192505081905550816002600083815260200190815260200160002060006101000a81548173ffffffffffffffffffffffffffffffffffffffff021916908373ffffffffffffffffffffffffffffffffffffffff160217905550808273ffffffffffffffffffffffffffffffffffffffff16600073ffffffffffffffffffffffffffffffffffffffff167fddf252ad1be2c89b69c2b068fc378daa952ba7f163c4a11628f55a4df523b3ef60405160405180910390a4611ae56000838360016116c1565b5050565b6000604051905090565b600080fd5b600080fd5b60007fffffffff0000000000000000000000000000000000000000000000000000000082169050919050565b611b3281611afd565b8114611b3d57600080fd5b50565b600081359050611b4f81611b29565b92915050565b600060208284031215611b6b57611b6a611af3565b5b6000611b7984828501611b40565b91505092915050565b60008115159050919050565b611b9781611b82565b82525050565b6000602082019050611bb26000830184611b8e565b92915050565b6000819050919050565b611bcb81611bb8565b82525050565b6000602082019050611be66000830184611bc2565b92915050565b600081519050919050565b600082825260208201905092915050565b60005b83811015611c26578082015181840152602081019050611c0b565b60008484015250505050565b6000601f19601f8301169050919050565b6000611c4e82611bec565b611c588185611bf7565b9350611c68818560208601611c08565b611c7181611c32565b840191505092915050565b60006020820190508181036000830152611c968184611c43565b905092915050565b611ca781611bb8565b8114611cb257600080fd5b50565b600081359050611cc481611c9e565b92915050565b600060208284031215611ce057611cdf611af3565b5b6000611cee84828501611cb5565b91505092915050565b600073ffffffffffffffffffffffffffffffffffffffff82169050919050565b6000611d2282611cf7565b9050919050565b611d3281611d17565b82525050565b6000602082019050611d4d6000830184611d29565b92915050565b611d5c81611d17565b8114611d6757600080fd5b50565b600081359050611d7981611d53565b92915050565b60008060408385031215611d9657611d95611af3565b5b6000611da485828601611d6a565b9250506020611db585828601611cb5565b9150509250929050565b600080600060608486031215611dd857611dd7611af3565b5b6000611de686828701611d6a565b9350506020611df786828701611d6a565b9250506040611e0886828701611cb5565b9150509250925092565b600060208284031215611e2857611e27611af3565b5b6000611e3684828501611d6a565b91505092915050565b611e4881611b82565b8114611e5357600080fd5b50565b600081359050611e6581611e3f565b92915050565b60008060408385031215611e8257611e81611af3565b5b6000611e9085828601611d6a565b9250506020611ea185828601611e56565b9150509250929050565b600080fd5b600080fd5b7f4e487b7100000000000000000000000000000000000000000000000000000000600052604160045260246000fd5b611eed82611c32565b810181811067ffffffffffffffff82111715611f0c57611f0b611eb5565b5b80604052505050565b6000611f1f611ae9565b9050611f2b8282611ee4565b919050565b600067ffffffffffffffff821115611f4b57611f4a611eb5565b5b611f5482611c32565b9050602081019050919050565b82818337600083830152505050565b6000611f83611f7e84611f30565b611f15565b905082815260208101848484011115611f9f57611f9e611eb0565b5b611faa848285611f61565b509392505050565b600082601f830112611fc757611fc6611eab565b5b8135611fd7848260208601611f70565b91505092915050565b60008060008060808587031215611ffa57611ff9611af3565b5b600061200887828801611d6a565b945050602061201987828801611d6a565b935050604061202a87828801611cb5565b925050606085013567ffffffffffffffff81111561204b5761204a611af8565b5b61205787828801611fb2565b91505092959194509250565b6000806040838503121561207a57612079611af3565b5b600061208885828601611d6a565b925050602061209985828601611d6a565b9150509250929050565b600067ffffffffffffffff8211156120be576120bd611eb5565b5b6120c782611c32565b9050602081019050919050565b60006120e76120e2846120a3565b611f15565b90508281526020810184848401111561210357612102611eb0565b5b61210e848285611f61565b509392505050565b600082601f83011261212b5761212a611eab565b5b813561213b8482602086016120d4565b91505092915050565b60006020828403121561215a57612159611af3565b5b600082013567ffffffffffffffff81111561217857612177611af8565b5b61218484828501612116565b91505092915050565b7f4e487b7100000000000000000000000000000000000000000000000000000000600052602260045260246000fd5b600060028204905060018216806121d457607f821691505b6020821081036121e7576121e661218d565b5b50919050565b7f4552433732313a20617070726f76616c20746f2063757272656e74206f776e6560008201527f7200000000000000000000000000000000000000000000000000000000000000602082015250565b6000612249602183611bf7565b9150612254826121ed565b604082019050919050565b600060208201905081810360008301526122788161223c565b9050919050565b7f4552433732313a20617070726f76652063616c6c6572206973206e6f7420746f60008201527f6b656e206f776e6572206f7220617070726f76656420666f7220616c6c000000602082015250565b60006122db603d83611bf7565b91506122e68261227f565b604082019050919050565b6000602082019050818103600083015261230a816122ce565b9050919050565b7f4552433732313a2063616c6c6572206973206e6f7420746f6b656e206f776e6560008201527f72206f7220617070726f76656400000000000000000000000000000000000000602082015250565b600061236d602d83611bf7565b915061237882612311565b604082019050919050565b6000602082019050818103600083015261239c81612360565b9050919050565b7f4552433732313a20696e76616c696420746f6b656e2049440000000000000000600082015250565b60006123d9601883611bf7565b91506123e4826123a3565b602082019050919050565b60006020820190508181036000830152612408816123cc565b9050919050565b7f4552433732313a2061646472657373207a65726f206973206e6f74206120766160008201527f6c6964206f776e65720000000000000000000000000000000000000000000000602082015250565b600061246b602983611bf7565b91506124768261240f565b604082019050919050565b6000602082019050818103600083015261249a8161245e565b9050919050565b7f4e487b7100000000000000000000000000000000000000000000000000000000600052601160045260246000fd5b60006124db82611bb8565b91507fffffffffffffffffffffffffffffffffffffffffffffffffffffffffffffffff820361250d5761250c6124a1565b5b600182019050919050565b60008190508160005260206000209050919050565b60006020601f8301049050919050565b600082821b905092915050565b60006008830261257a7fffffffffffffffffffffffffffffffffffffffffffffffffffffffffffffffff8261253d565b612584868361253d565b95508019841693508086168417925050509392505050565b6000819050919050565b60006125c16125bc6125b784611bb8565b61259c565b611bb8565b9050919050565b6000819050919050565b6125db836125a6565b6125ef6125e7826125c8565b84845461254a565b825550505050565b600090565b6126046125f7565b61260f8184846125d2565b505050565b5b81811015612633576126286000826125fc565b600181019050612615565b5050565b601f8211156126785761264981612518565b6126528461252d565b81016020851015612661578190505b61267561266d8561252d565b830182612614565b50505b505050565b600082821c905092915050565b600061269b6000198460080261267d565b1980831691505092915050565b60006126b4838361268a565b9150826002028217905092915050565b6126cd82611bec565b67ffffffffffffffff8111156126e6576126e5611eb5565b5b6126f082546121bc565b6126fb828285612637565b600060209050601f83116001811461272e576000841561271c578287015190505b61272685826126a8565b86555061278e565b601f19841661273c86612518565b60005b828110156127645784890151825560018201915060208501945060208101905061273f565b86831015612781578489015161277d601f89168261268a565b8355505b6001600288020188555050505b505050505050565b7f4552433732313a207472616e736665722066726f6d20696e636f72726563742060008201527f6f776e6572000000000000000000000000000000000000000000000000000000602082015250565b60006127f2602583611bf7565b91506127fd82612796565b604082019050919050565b60006020820190508181036000830152612821816127e5565b9050919050565b7f4552433732313a207472616e7366657220746f20746865207a65726f2061646460008201527f7265737300000000000000000000000000000000000000000000000000000000602082015250565b6000612884602483611bf7565b915061288f82612828565b604082019050919050565b600060208201905081810360008301526128b381612877565b9050919050565b7f4552433732313a20617070726f766520746f2063616c6c657200000000000000600082015250565b60006128f0601983611bf7565b91506128fb826128ba565b602082019050919050565b6000602082019050818103600083015261291f816128e3565b9050919050565b7f4552433732313a207472616e7366657220746f206e6f6e20455243373231526560008201527f63656976657220696d706c656d656e7465720000000000000000000000000000602082015250565b6000612982603283611bf7565b915061298d82612926565b604082019050919050565b600060208201905081810360008301526129b181612975565b9050919050565b7f45524337323155524953746f726167653a2055524920736574206f66206e6f6e60008201527f6578697374656e7420746f6b656e000000000000000000000000000000000000602082015250565b6000612a14602e83611bf7565b9150612a1f826129b8565b604082019050919050565b60006020820190508181036000830152612a4381612a07565b9050919050565b6000612a5582611bb8565b9150612a6083611bb8565b9250828203905081811115612a7857612a776124a1565b5b92915050565b6000612a8982611bb8565b9150612a9483611bb8565b9250828201905080821115612aac57612aab6124a1565b5b92915050565b600081519050919050565b600082825260208201905092915050565b6000612ad982612ab2565b612ae38185612abd565b9350612af3818560208601611c08565b612afc81611c32565b840191505092915050565b6000608082019050612b1c6000830187611d29565b612b296020830186611d29565b612b366040830185611bc2565b8181036060830152612b488184612ace565b905095945050505050565b600081519050612b6281611b29565b92915050565b600060208284031215612b7e57612b7d611af3565b5b6000612b8c84828501612b53565b91505092915050565b7f4552433732313a206d696e7420746f20746865207a65726f2061646472657373600082015250565b6000612bcb602083611bf7565b9150612bd682612b95565b602082019050919050565b60006020820190508181036000830152612bfa81612bbe565b9050919050565b7f4552433732313a20746f6b656e20616c7265616479206d696e74656400000000600082015250565b6000612c37601c83611bf7565b9150612c4282612c01565b602082019050919050565b60006020820190508181036000830152612c6681612c2a565b905091905056fea26469706673582212201d87ce4948fd1d99ac52e937ef9b8e3096a36779160b1ef7c9fa6f1fc99de56964736f6c63430008110033a2646970667358221220aa06ea4aed4d282e691cc88e37b57c856947d75fef0de74340afe1c2ba4755ff64736f6c63430008110033",
  "devdoc": {
    "kind": "dev",
    "methods": {},
    "version": 1
  },
  "userdoc": {
    "kind": "user",
    "methods": {},
    "version": 1
  },
  "storageLayout": {
    "storage": [
      {
        "astId": 2729,
        "contract": "contracts/CollectionCreator.sol:CollectionCreator",
        "label": "s_createFee",
        "offset": 0,
        "slot": "0",
        "type": "t_uint256"
      },
      {
        "astId": 2743,
        "contract": "contracts/CollectionCreator.sol:CollectionCreator",
        "label": "ownerToCollection",
        "offset": 0,
        "slot": "1",
        "type": "t_mapping(t_address,t_array(t_address)dyn_storage)"
      },
      {
        "astId": 2747,
        "contract": "contracts/CollectionCreator.sol:CollectionCreator",
        "label": "balances",
        "offset": 0,
        "slot": "2",
        "type": "t_mapping(t_address,t_uint256)"
      }
    ],
    "types": {
      "t_address": {
        "encoding": "inplace",
        "label": "address",
        "numberOfBytes": "20"
      },
      "t_array(t_address)dyn_storage": {
        "base": "t_address",
        "encoding": "dynamic_array",
        "label": "address[]",
        "numberOfBytes": "32"
      },
      "t_mapping(t_address,t_array(t_address)dyn_storage)": {
        "encoding": "mapping",
        "key": "t_address",
        "label": "mapping(address => address[])",
        "numberOfBytes": "32",
        "value": "t_array(t_address)dyn_storage"
      },
      "t_mapping(t_address,t_uint256)": {
        "encoding": "mapping",
        "key": "t_address",
        "label": "mapping(address => uint256)",
        "numberOfBytes": "32",
        "value": "t_uint256"
      },
      "t_uint256": {
        "encoding": "inplace",
        "label": "uint256",
        "numberOfBytes": "32"
      }
    }
  }
}