{
  "address": "0xe7f1725E7734CE288F8367e1Bb143E90bb3F0512",
  "abi": [
    {
      "inputs": [],
      "stateMutability": "nonpayable",
      "type": "constructor"
    },
    {
      "anonymous": false,
      "inputs": [
        {
          "indexed": true,
          "internalType": "address",
          "name": "contractAddress",
          "type": "address"
        },
        {
          "indexed": true,
          "internalType": "address",
          "name": "owner",
          "type": "address"
        },
        {
          "indexed": false,
          "internalType": "string",
          "name": "symbol",
          "type": "string"
        }
      ],
      "name": "ERC721Create",
      "type": "event"
    },
    {
      "inputs": [
        {
          "internalType": "string",
          "name": "name",
          "type": "string"
        },
        {
          "internalType": "string",
          "name": "symbol",
          "type": "string"
        },
        {
          "internalType": "uint256",
          "name": "mintFee",
          "type": "uint256"
        },
        {
          "internalType": "uint256",
          "name": "maxSupply",
          "type": "uint256"
        },
        {
          "internalType": "string",
          "name": "imageURL",
          "type": "string"
        }
      ],
      "name": "createERC721",
      "outputs": [
        {
          "internalType": "address",
          "name": "",
          "type": "address"
        }
      ],
      "stateMutability": "payable",
      "type": "function"
    },
    {
      "inputs": [],
      "name": "getBalance",
      "outputs": [
        {
          "internalType": "uint256",
          "name": "",
          "type": "uint256"
        }
      ],
      "stateMutability": "view",
      "type": "function"
    },
    {
      "inputs": [
        {
          "internalType": "address",
          "name": "user",
          "type": "address"
        }
      ],
      "name": "getUserContracts",
      "outputs": [
        {
          "internalType": "address[]",
          "name": "",
          "type": "address[]"
        }
      ],
      "stateMutability": "view",
      "type": "function"
    }
  ],
  "transactionHash": "0xa5715bd6b255237a52264e04f902736dffec7c977e88cabe3db3f24396b35980",
  "args": [],
  "numDeployments": 1,
  "solcInputHash": "53344debbbc353893ef81480cfa65590",
  "bytecode": "0x608060405234801561001057600080fd5b50336000806101000a81548173ffffffffffffffffffffffffffffffffffffffff021916908373ffffffffffffffffffffffffffffffffffffffff1602179055506142a0806100606000396000f3fe608060405260043610620000385760003560e01c806312065fe0146200003d57806334c925f0146200006d5780633649a9bd14620000b1575b600080fd5b3480156200004a57600080fd5b5062000055620000e7565b604051620000649190620002ec565b60405180910390f35b3480156200007a57600080fd5b5062000099600480360381019062000093919062000382565b620000ef565b604051620000a8919062000482565b60405180910390f35b620000cf6004803603810190620000c9919062000639565b620001be565b604051620000de91906200072f565b60405180910390f35b600047905090565b6060600260008373ffffffffffffffffffffffffffffffffffffffff1673ffffffffffffffffffffffffffffffffffffffff168152602001908152602001600020805480602002602001604051908101604052809291908181526020018280548015620001b257602002820191906000526020600020905b8160009054906101000a900473ffffffffffffffffffffffffffffffffffffffff1673ffffffffffffffffffffffffffffffffffffffff168152602001906001019080831162000167575b50505050509050919050565b600060015434101562000208576040517f08c379a0000000000000000000000000000000000000000000000000000000008152600401620001ff90620007ad565b60405180910390fd5b60008686868633876040516200021e90620002c3565b6200022f9695949392919062000847565b604051809103906000f0801580156200024c573d6000803e3d6000fd5b5090503373ffffffffffffffffffffffffffffffffffffffff168173ffffffffffffffffffffffffffffffffffffffff167f885ff2ac72301279f7111fa8a37e1d3752db502e4301372f8b411cff87b4060288604051620002ae9190620008c9565b60405180910390a38091505095945050505050565b61397d80620008ee83390190565b6000819050919050565b620002e681620002d1565b82525050565b6000602082019050620003036000830184620002db565b92915050565b6000604051905090565b600080fd5b600080fd5b600073ffffffffffffffffffffffffffffffffffffffff82169050919050565b60006200034a826200031d565b9050919050565b6200035c816200033d565b81146200036857600080fd5b50565b6000813590506200037c8162000351565b92915050565b6000602082840312156200039b576200039a62000313565b5b6000620003ab848285016200036b565b91505092915050565b600081519050919050565b600082825260208201905092915050565b6000819050602082019050919050565b620003eb816200033d565b82525050565b6000620003ff8383620003e0565b60208301905092915050565b6000602082019050919050565b60006200042582620003b4565b620004318185620003bf565b93506200043e83620003d0565b8060005b8381101562000475578151620004598882620003f1565b975062000466836200040b565b92505060018101905062000442565b5085935050505092915050565b600060208201905081810360008301526200049e818462000418565b905092915050565b600080fd5b600080fd5b6000601f19601f8301169050919050565b7f4e487b7100000000000000000000000000000000000000000000000000000000600052604160045260246000fd5b620004fb82620004b0565b810181811067ffffffffffffffff821117156200051d576200051c620004c1565b5b80604052505050565b60006200053262000309565b9050620005408282620004f0565b919050565b600067ffffffffffffffff821115620005635762000562620004c1565b5b6200056e82620004b0565b9050602081019050919050565b82818337600083830152505050565b6000620005a16200059b8462000545565b62000526565b905082815260208101848484011115620005c057620005bf620004ab565b5b620005cd8482856200057b565b509392505050565b600082601f830112620005ed57620005ec620004a6565b5b8135620005ff8482602086016200058a565b91505092915050565b6200061381620002d1565b81146200061f57600080fd5b50565b600081359050620006338162000608565b92915050565b600080600080600060a0868803121562000658576200065762000313565b5b600086013567ffffffffffffffff81111562000679576200067862000318565b5b6200068788828901620005d5565b955050602086013567ffffffffffffffff811115620006ab57620006aa62000318565b5b620006b988828901620005d5565b9450506040620006cc8882890162000622565b9350506060620006df8882890162000622565b925050608086013567ffffffffffffffff81111562000703576200070262000318565b5b6200071188828901620005d5565b9150509295509295909350565b62000729816200033d565b82525050565b60006020820190506200074660008301846200071e565b92915050565b600082825260208201905092915050565b7f6372656174652065786365656473206665650000000000000000000000000000600082015250565b6000620007956012836200074c565b9150620007a2826200075d565b602082019050919050565b60006020820190508181036000830152620007c88162000786565b9050919050565b600081519050919050565b60005b83811015620007fa578082015181840152602081019050620007dd565b60008484015250505050565b60006200081382620007cf565b6200081f81856200074c565b935062000831818560208601620007da565b6200083c81620004b0565b840191505092915050565b600060c082019050818103600083015262000863818962000806565b9050818103602083015262000879818862000806565b90506200088a6040830187620002db565b620008996060830186620002db565b620008a860808301856200071e565b81810360a0830152620008bc818462000806565b9050979650505050505050565b60006020820190508181036000830152620008e5818462000806565b90509291505056fe60a06040523480156200001157600080fd5b506040516200397d3803806200397d833981810160405281019062000037919062000448565b60068054620000469062000570565b80601f0160208091040260200160405190810160405280929190818152602001828054620000749062000570565b8015620000c55780601f106200009957610100808354040283529160200191620000c5565b820191906000526020600020905b815481529060010190602001808311620000a757829003601f168201915b505050505060078054620000d99062000570565b80601f0160208091040260200160405190810160405280929190818152602001828054620001079062000570565b8015620001585780601f106200012c5761010080835404028352916020019162000158565b820191906000526020600020905b8154815290600101906020018083116200013a57829003601f168201915b505050505081600090816200016e919062000782565b50806001908162000180919062000782565b505050856006908162000194919062000782565b508460079081620001a6919062000782565b5083600b81905550826080818152505081600960006101000a81548173ffffffffffffffffffffffffffffffffffffffff021916908373ffffffffffffffffffffffffffffffffffffffff160217905550806008908162000208919062000782565b5050505050505062000869565b6000604051905090565b600080fd5b600080fd5b600080fd5b600080fd5b6000601f19601f8301169050919050565b7f4e487b7100000000000000000000000000000000000000000000000000000000600052604160045260246000fd5b6200027e8262000233565b810181811067ffffffffffffffff82111715620002a0576200029f62000244565b5b80604052505050565b6000620002b562000215565b9050620002c3828262000273565b919050565b600067ffffffffffffffff821115620002e657620002e562000244565b5b620002f18262000233565b9050602081019050919050565b60005b838110156200031e57808201518184015260208101905062000301565b60008484015250505050565b6000620003416200033b84620002c8565b620002a9565b90508281526020810184848401111562000360576200035f6200022e565b5b6200036d848285620002fe565b509392505050565b600082601f8301126200038d576200038c62000229565b5b81516200039f8482602086016200032a565b91505092915050565b6000819050919050565b620003bd81620003a8565b8114620003c957600080fd5b50565b600081519050620003dd81620003b2565b92915050565b600073ffffffffffffffffffffffffffffffffffffffff82169050919050565b60006200041082620003e3565b9050919050565b620004228162000403565b81146200042e57600080fd5b50565b600081519050620004428162000417565b92915050565b60008060008060008060c087890312156200046857620004676200021f565b5b600087015167ffffffffffffffff81111562000489576200048862000224565b5b6200049789828a0162000375565b965050602087015167ffffffffffffffff811115620004bb57620004ba62000224565b5b620004c989828a0162000375565b9550506040620004dc89828a01620003cc565b9450506060620004ef89828a01620003cc565b93505060806200050289828a0162000431565b92505060a087015167ffffffffffffffff81111562000526576200052562000224565b5b6200053489828a0162000375565b9150509295509295509295565b7f4e487b7100000000000000000000000000000000000000000000000000000000600052602260045260246000fd5b600060028204905060018216806200058957607f821691505b6020821081036200059f576200059e62000541565b5b50919050565b600081519050919050565b60008190508160005260206000209050919050565b60006020601f8301049050919050565b600082821b905092915050565b600060088302620006147fffffffffffffffffffffffffffffffffffffffffffffffffffffffffffffffff82620005d5565b620006208683620005d5565b95508019841693508086168417925050509392505050565b6000819050919050565b6000620006636200065d6200065784620003a8565b62000638565b620003a8565b9050919050565b6000819050919050565b6200067f8362000642565b620006976200068e826200066a565b848454620005e2565b825550505050565b600090565b620006ae6200069f565b620006bb81848462000674565b505050565b5b81811015620006e357620006d7600082620006a4565b600181019050620006c1565b5050565b601f8211156200073257620006fc81620005b0565b6200070784620005c5565b8101602085101562000717578190505b6200072f6200072685620005c5565b830182620006c0565b50505b505050565b600082821c905092915050565b6000620007576000198460080262000737565b1980831691505092915050565b600062000772838362000744565b9150826002028217905092915050565b6200078d82620005a5565b67ffffffffffffffff811115620007a957620007a862000244565b5b620007b5825462000570565b620007c2828285620006e7565b600060209050601f831160018114620007fa5760008415620007e5578287015190505b620007f1858262000764565b86555062000861565b601f1984166200080a86620005b0565b60005b8281101562000834578489015182556001820191506020850194506020810190506200080d565b8683101562000854578489015162000850601f89168262000744565b8355505b6001600288020188555050505b505050505050565b6080516130f862000885600039600061105d01526130f86000f3fe6080604052600436106101145760003560e01c80636352211e116100a0578063a22cb46511610064578063a22cb4651461036f578063b88d4fde14610398578063c87b56dd146103c1578063e985e9c5146103fe578063f2fde38b1461043b57610114565b80636352211e146102785780636a1db1bf146102b557806370a08231146102de57806395d89b411461031b5780639b642de11461034657610114565b806312065fe0116100e757806312065fe0146101e75780631249c58b1461021257806323b872dd1461021c5780633ccfd60b1461024557806342842e0e1461024f57610114565b806301ffc9a71461011957806306fdde0314610156578063081812fc14610181578063095ea7b3146101be575b600080fd5b34801561012557600080fd5b50610140600480360381019061013b9190611dec565b610464565b60405161014d9190611e34565b60405180910390f35b34801561016257600080fd5b5061016b610546565b6040516101789190611edf565b60405180910390f35b34801561018d57600080fd5b506101a860048036038101906101a39190611f37565b6105d8565b6040516101b59190611fa5565b60405180910390f35b3480156101ca57600080fd5b506101e560048036038101906101e09190611fec565b61061e565b005b3480156101f357600080fd5b506101fc610735565b604051610209919061203b565b60405180910390f35b61021a61073d565b005b34801561022857600080fd5b50610243600480360381019061023e9190612056565b6107a8565b005b61024d610808565b005b34801561025b57600080fd5b5061027660048036038101906102719190612056565b6108b9565b005b34801561028457600080fd5b5061029f600480360381019061029a9190611f37565b6108d9565b6040516102ac9190611fa5565b60405180910390f35b3480156102c157600080fd5b506102dc60048036038101906102d79190611f37565b61095f565b005b3480156102ea57600080fd5b50610305600480360381019061030091906120a9565b6109f9565b604051610312919061203b565b60405180910390f35b34801561032757600080fd5b50610330610ab0565b60405161033d9190611edf565b60405180910390f35b34801561035257600080fd5b5061036d6004803603810190610368919061220b565b610b42565b005b34801561037b57600080fd5b5061039660048036038101906103919190612280565b610be5565b005b3480156103a457600080fd5b506103bf60048036038101906103ba9190612361565b610bfb565b005b3480156103cd57600080fd5b506103e860048036038101906103e39190611f37565b610c5d565b6040516103f59190611edf565b60405180910390f35b34801561040a57600080fd5b50610425600480360381019061042091906123e4565b610cc5565b6040516104329190611e34565b60405180910390f35b34801561044757600080fd5b50610462600480360381019061045d91906120a9565b610d59565b005b60007f80ac58cd000000000000000000000000000000000000000000000000000000007bffffffffffffffffffffffffffffffffffffffffffffffffffffffff1916827bffffffffffffffffffffffffffffffffffffffffffffffffffffffff1916148061052f57507f5b5e139f000000000000000000000000000000000000000000000000000000007bffffffffffffffffffffffffffffffffffffffffffffffffffffffff1916827bffffffffffffffffffffffffffffffffffffffffffffffffffffffff1916145b8061053f575061053e82610e2d565b5b9050919050565b60606000805461055590612453565b80601f016020809104026020016040519081016040528092919081815260200182805461058190612453565b80156105ce5780601f106105a3576101008083540402835291602001916105ce565b820191906000526020600020905b8154815290600101906020018083116105b157829003601f168201915b5050505050905090565b60006105e382610e97565b6004600083815260200190815260200160002060009054906101000a900473ffffffffffffffffffffffffffffffffffffffff169050919050565b6000610629826108d9565b90508073ffffffffffffffffffffffffffffffffffffffff168373ffffffffffffffffffffffffffffffffffffffff1603610699576040517f08c379a0000000000000000000000000000000000000000000000000000000008152600401610690906124f6565b60405180910390fd5b8073ffffffffffffffffffffffffffffffffffffffff166106b8610ee2565b73ffffffffffffffffffffffffffffffffffffffff1614806106e757506106e6816106e1610ee2565b610cc5565b5b610726576040517f08c379a000000000000000000000000000000000000000000000000000000000815260040161071d90612588565b60405180910390fd5b6107308383610eea565b505050565b600047905090565b600b54341015610782576040517f08c379a0000000000000000000000000000000000000000000000000000000008152600401610779906125f4565b60405180910390fd5b61078e33600a54610fa3565b600a60008154809291906107a190612643565b9190505550565b6107b96107b3610ee2565b82611223565b6107f8576040517f08c379a00000000000000000000000000000000000000000000000000000000081526004016107ef906126fd565b60405180910390fd5b6108038383836112b8565b505050565b60003373ffffffffffffffffffffffffffffffffffffffff164760405161082e9061274e565b60006040518083038185875af1925050503d806000811461086b576040519150601f19603f3d011682016040523d82523d6000602084013e610870565b606091505b5050905080156108b6577f9b1bfa7fa9ee420a16e124f794c35ac9f90472acc99140eb2f6447c714cad8eb3330476040516108ad93929190612763565b60405180910390a15b50565b6108d483838360405180602001604052806000815250610bfb565b505050565b6000806108e5836115b1565b9050600073ffffffffffffffffffffffffffffffffffffffff168173ffffffffffffffffffffffffffffffffffffffff1603610956576040517f08c379a000000000000000000000000000000000000000000000000000000000815260040161094d906127e6565b60405180910390fd5b80915050919050565b600960009054906101000a900473ffffffffffffffffffffffffffffffffffffffff1673ffffffffffffffffffffffffffffffffffffffff163373ffffffffffffffffffffffffffffffffffffffff16146109ef576040517f08c379a00000000000000000000000000000000000000000000000000000000081526004016109e690612852565b60405180910390fd5b80600b8190555050565b60008073ffffffffffffffffffffffffffffffffffffffff168273ffffffffffffffffffffffffffffffffffffffff1603610a69576040517f08c379a0000000000000000000000000000000000000000000000000000000008152600401610a60906128e4565b60405180910390fd5b600360008373ffffffffffffffffffffffffffffffffffffffff1673ffffffffffffffffffffffffffffffffffffffff168152602001908152602001600020549050919050565b606060018054610abf90612453565b80601f0160208091040260200160405190810160405280929190818152602001828054610aeb90612453565b8015610b385780601f10610b0d57610100808354040283529160200191610b38565b820191906000526020600020905b815481529060010190602001808311610b1b57829003601f168201915b5050505050905090565b600960009054906101000a900473ffffffffffffffffffffffffffffffffffffffff1673ffffffffffffffffffffffffffffffffffffffff163373ffffffffffffffffffffffffffffffffffffffff1614610bd2576040517f08c379a0000000000000000000000000000000000000000000000000000000008152600401610bc990612852565b60405180910390fd5b8060089081610be19190612ab0565b5050565b610bf7610bf0610ee2565b83836115ee565b5050565b610c0c610c06610ee2565b83611223565b610c4b576040517f08c379a0000000000000000000000000000000000000000000000000000000008152600401610c42906126fd565b60405180910390fd5b610c578484848461175a565b50505050565b6060610c6882610e97565b6000610c726117b6565b90506000815111610c925760405180602001604052806000815250610cbd565b80610c9c84611848565b604051602001610cad929190612bbe565b6040516020818303038152906040525b915050919050565b6000600560008473ffffffffffffffffffffffffffffffffffffffff1673ffffffffffffffffffffffffffffffffffffffff16815260200190815260200160002060008373ffffffffffffffffffffffffffffffffffffffff1673ffffffffffffffffffffffffffffffffffffffff16815260200190815260200160002060009054906101000a900460ff16905092915050565b600960009054906101000a900473ffffffffffffffffffffffffffffffffffffffff1673ffffffffffffffffffffffffffffffffffffffff163373ffffffffffffffffffffffffffffffffffffffff1614610de9576040517f08c379a0000000000000000000000000000000000000000000000000000000008152600401610de090612852565b60405180910390fd5b80600960006101000a81548173ffffffffffffffffffffffffffffffffffffffff021916908373ffffffffffffffffffffffffffffffffffffffff16021790555050565b60007f01ffc9a7000000000000000000000000000000000000000000000000000000007bffffffffffffffffffffffffffffffffffffffffffffffffffffffff1916827bffffffffffffffffffffffffffffffffffffffffffffffffffffffff1916149050919050565b610ea081611916565b610edf576040517f08c379a0000000000000000000000000000000000000000000000000000000008152600401610ed6906127e6565b60405180910390fd5b50565b600033905090565b816004600083815260200190815260200160002060006101000a81548173ffffffffffffffffffffffffffffffffffffffff021916908373ffffffffffffffffffffffffffffffffffffffff160217905550808273ffffffffffffffffffffffffffffffffffffffff16610f5d836108d9565b73ffffffffffffffffffffffffffffffffffffffff167f8c5be1e5ebec7d5bd14f71427d1e84f3dd0314c0f7b2291e5b200ac8c7c3b92560405160405180910390a45050565b600073ffffffffffffffffffffffffffffffffffffffff168273ffffffffffffffffffffffffffffffffffffffff1603611012576040517f08c379a000000000000000000000000000000000000000000000000000000000815260040161100990612c2e565b60405180910390fd5b61101b81611916565b1561105b576040517f08c379a000000000000000000000000000000000000000000000000000000000815260040161105290612c9a565b60405180910390fd5b7f00000000000000000000000000000000000000000000000000000000000000008111156110be576040517f08c379a00000000000000000000000000000000000000000000000000000000081526004016110b590612d06565b60405180910390fd5b6110cc600083836001611957565b6110d581611916565b15611115576040517f08c379a000000000000000000000000000000000000000000000000000000000815260040161110c90612c9a565b60405180910390fd5b6001600d60008473ffffffffffffffffffffffffffffffffffffffff1673ffffffffffffffffffffffffffffffffffffffff1681526020019081526020016000206000828254019250508190555081600c600083815260200190815260200160002060006101000a81548173ffffffffffffffffffffffffffffffffffffffff021916908373ffffffffffffffffffffffffffffffffffffffff160217905550808273ffffffffffffffffffffffffffffffffffffffff16600073ffffffffffffffffffffffffffffffffffffffff167fddf252ad1be2c89b69c2b068fc378daa952ba7f163c4a11628f55a4df523b3ef60405160405180910390a461121f600083836001611a7d565b5050565b60008061122f836108d9565b90508073ffffffffffffffffffffffffffffffffffffffff168473ffffffffffffffffffffffffffffffffffffffff16148061127157506112708185610cc5565b5b806112af57508373ffffffffffffffffffffffffffffffffffffffff16611297846105d8565b73ffffffffffffffffffffffffffffffffffffffff16145b91505092915050565b8273ffffffffffffffffffffffffffffffffffffffff166112d8826108d9565b73ffffffffffffffffffffffffffffffffffffffff161461132e576040517f08c379a000000000000000000000000000000000000000000000000000000000815260040161132590612d98565b60405180910390fd5b600073ffffffffffffffffffffffffffffffffffffffff168273ffffffffffffffffffffffffffffffffffffffff160361139d576040517f08c379a000000000000000000000000000000000000000000000000000000000815260040161139490612e2a565b60405180910390fd5b6113aa8383836001611957565b8273ffffffffffffffffffffffffffffffffffffffff166113ca826108d9565b73ffffffffffffffffffffffffffffffffffffffff1614611420576040517f08c379a000000000000000000000000000000000000000000000000000000000815260040161141790612d98565b60405180910390fd5b6004600082815260200190815260200160002060006101000a81549073ffffffffffffffffffffffffffffffffffffffff02191690556001600360008573ffffffffffffffffffffffffffffffffffffffff1673ffffffffffffffffffffffffffffffffffffffff168152602001908152602001600020600082825403925050819055506001600360008473ffffffffffffffffffffffffffffffffffffffff1673ffffffffffffffffffffffffffffffffffffffff16815260200190815260200160002060008282540192505081905550816002600083815260200190815260200160002060006101000a81548173ffffffffffffffffffffffffffffffffffffffff021916908373ffffffffffffffffffffffffffffffffffffffff160217905550808273ffffffffffffffffffffffffffffffffffffffff168473ffffffffffffffffffffffffffffffffffffffff167fddf252ad1be2c89b69c2b068fc378daa952ba7f163c4a11628f55a4df523b3ef60405160405180910390a46115ac8383836001611a7d565b505050565b60006002600083815260200190815260200160002060009054906101000a900473ffffffffffffffffffffffffffffffffffffffff169050919050565b8173ffffffffffffffffffffffffffffffffffffffff168373ffffffffffffffffffffffffffffffffffffffff160361165c576040517f08c379a000000000000000000000000000000000000000000000000000000000815260040161165390612e96565b60405180910390fd5b80600560008573ffffffffffffffffffffffffffffffffffffffff1673ffffffffffffffffffffffffffffffffffffffff16815260200190815260200160002060008473ffffffffffffffffffffffffffffffffffffffff1673ffffffffffffffffffffffffffffffffffffffff16815260200190815260200160002060006101000a81548160ff0219169083151502179055508173ffffffffffffffffffffffffffffffffffffffff168373ffffffffffffffffffffffffffffffffffffffff167f17307eab39ab6107e8899845ad3d59bd9653f200f220920489ca2b5937696c318360405161174d9190611e34565b60405180910390a3505050565b6117658484846112b8565b61177184848484611a83565b6117b0576040517f08c379a00000000000000000000000000000000000000000000000000000000081526004016117a790612f28565b60405180910390fd5b50505050565b6060600880546117c590612453565b80601f01602080910402602001604051908101604052809291908181526020018280546117f190612453565b801561183e5780601f106118135761010080835404028352916020019161183e565b820191906000526020600020905b81548152906001019060200180831161182157829003601f168201915b5050505050905090565b60606000600161185784611c0a565b01905060008167ffffffffffffffff811115611876576118756120e0565b5b6040519080825280601f01601f1916602001820160405280156118a85781602001600182028036833780820191505090505b509050600082602001820190505b60011561190b578080600190039150507f3031323334353637383961626364656600000000000000000000000000000000600a86061a8153600a85816118ff576118fe612f48565b5b049450600085036118b6575b819350505050919050565b60008073ffffffffffffffffffffffffffffffffffffffff16611938836115b1565b73ffffffffffffffffffffffffffffffffffffffff1614159050919050565b6001811115611a7757600073ffffffffffffffffffffffffffffffffffffffff168473ffffffffffffffffffffffffffffffffffffffff16146119eb5780600360008673ffffffffffffffffffffffffffffffffffffffff1673ffffffffffffffffffffffffffffffffffffffff16815260200190815260200160002060008282546119e39190612f77565b925050819055505b600073ffffffffffffffffffffffffffffffffffffffff168373ffffffffffffffffffffffffffffffffffffffff1614611a765780600360008573ffffffffffffffffffffffffffffffffffffffff1673ffffffffffffffffffffffffffffffffffffffff1681526020019081526020016000206000828254611a6e9190612fab565b925050819055505b5b50505050565b50505050565b6000611aa48473ffffffffffffffffffffffffffffffffffffffff16611d5d565b15611bfd578373ffffffffffffffffffffffffffffffffffffffff1663150b7a02611acd610ee2565b8786866040518563ffffffff1660e01b8152600401611aef9493929190613034565b6020604051808303816000875af1925050508015611b2b57506040513d601f19601f82011682018060405250810190611b289190613095565b60015b611bad573d8060008114611b5b576040519150601f19603f3d011682016040523d82523d6000602084013e611b60565b606091505b506000815103611ba5576040517f08c379a0000000000000000000000000000000000000000000000000000000008152600401611b9c90612f28565b60405180910390fd5b805181602001fd5b63150b7a0260e01b7bffffffffffffffffffffffffffffffffffffffffffffffffffffffff1916817bffffffffffffffffffffffffffffffffffffffffffffffffffffffff191614915050611c02565b600190505b949350505050565b600080600090507a184f03e93ff9f4daa797ed6e38ed64bf6a1f0100000000000000008310611c68577a184f03e93ff9f4daa797ed6e38ed64bf6a1f0100000000000000008381611c5e57611c5d612f48565b5b0492506040810190505b6d04ee2d6d415b85acef81000000008310611ca5576d04ee2d6d415b85acef81000000008381611c9b57611c9a612f48565b5b0492506020810190505b662386f26fc100008310611cd457662386f26fc100008381611cca57611cc9612f48565b5b0492506010810190505b6305f5e1008310611cfd576305f5e1008381611cf357611cf2612f48565b5b0492506008810190505b6127108310611d22576127108381611d1857611d17612f48565b5b0492506004810190505b60648310611d455760648381611d3b57611d3a612f48565b5b0492506002810190505b600a8310611d54576001810190505b80915050919050565b6000808273ffffffffffffffffffffffffffffffffffffffff163b119050919050565b6000604051905090565b600080fd5b600080fd5b60007fffffffff0000000000000000000000000000000000000000000000000000000082169050919050565b611dc981611d94565b8114611dd457600080fd5b50565b600081359050611de681611dc0565b92915050565b600060208284031215611e0257611e01611d8a565b5b6000611e1084828501611dd7565b91505092915050565b60008115159050919050565b611e2e81611e19565b82525050565b6000602082019050611e496000830184611e25565b92915050565b600081519050919050565b600082825260208201905092915050565b60005b83811015611e89578082015181840152602081019050611e6e565b60008484015250505050565b6000601f19601f8301169050919050565b6000611eb182611e4f565b611ebb8185611e5a565b9350611ecb818560208601611e6b565b611ed481611e95565b840191505092915050565b60006020820190508181036000830152611ef98184611ea6565b905092915050565b6000819050919050565b611f1481611f01565b8114611f1f57600080fd5b50565b600081359050611f3181611f0b565b92915050565b600060208284031215611f4d57611f4c611d8a565b5b6000611f5b84828501611f22565b91505092915050565b600073ffffffffffffffffffffffffffffffffffffffff82169050919050565b6000611f8f82611f64565b9050919050565b611f9f81611f84565b82525050565b6000602082019050611fba6000830184611f96565b92915050565b611fc981611f84565b8114611fd457600080fd5b50565b600081359050611fe681611fc0565b92915050565b6000806040838503121561200357612002611d8a565b5b600061201185828601611fd7565b925050602061202285828601611f22565b9150509250929050565b61203581611f01565b82525050565b6000602082019050612050600083018461202c565b92915050565b60008060006060848603121561206f5761206e611d8a565b5b600061207d86828701611fd7565b935050602061208e86828701611fd7565b925050604061209f86828701611f22565b9150509250925092565b6000602082840312156120bf576120be611d8a565b5b60006120cd84828501611fd7565b91505092915050565b600080fd5b600080fd5b7f4e487b7100000000000000000000000000000000000000000000000000000000600052604160045260246000fd5b61211882611e95565b810181811067ffffffffffffffff82111715612137576121366120e0565b5b80604052505050565b600061214a611d80565b9050612156828261210f565b919050565b600067ffffffffffffffff821115612176576121756120e0565b5b61217f82611e95565b9050602081019050919050565b82818337600083830152505050565b60006121ae6121a98461215b565b612140565b9050828152602081018484840111156121ca576121c96120db565b5b6121d584828561218c565b509392505050565b600082601f8301126121f2576121f16120d6565b5b813561220284826020860161219b565b91505092915050565b60006020828403121561222157612220611d8a565b5b600082013567ffffffffffffffff81111561223f5761223e611d8f565b5b61224b848285016121dd565b91505092915050565b61225d81611e19565b811461226857600080fd5b50565b60008135905061227a81612254565b92915050565b6000806040838503121561229757612296611d8a565b5b60006122a585828601611fd7565b92505060206122b68582860161226b565b9150509250929050565b600067ffffffffffffffff8211156122db576122da6120e0565b5b6122e482611e95565b9050602081019050919050565b60006123046122ff846122c0565b612140565b9050828152602081018484840111156123205761231f6120db565b5b61232b84828561218c565b509392505050565b600082601f830112612348576123476120d6565b5b81356123588482602086016122f1565b91505092915050565b6000806000806080858703121561237b5761237a611d8a565b5b600061238987828801611fd7565b945050602061239a87828801611fd7565b93505060406123ab87828801611f22565b925050606085013567ffffffffffffffff8111156123cc576123cb611d8f565b5b6123d887828801612333565b91505092959194509250565b600080604083850312156123fb576123fa611d8a565b5b600061240985828601611fd7565b925050602061241a85828601611fd7565b9150509250929050565b7f4e487b7100000000000000000000000000000000000000000000000000000000600052602260045260246000fd5b6000600282049050600182168061246b57607f821691505b60208210810361247e5761247d612424565b5b50919050565b7f4552433732313a20617070726f76616c20746f2063757272656e74206f776e6560008201527f7200000000000000000000000000000000000000000000000000000000000000602082015250565b60006124e0602183611e5a565b91506124eb82612484565b604082019050919050565b6000602082019050818103600083015261250f816124d3565b9050919050565b7f4552433732313a20617070726f76652063616c6c6572206973206e6f7420746f60008201527f6b656e206f776e6572206f7220617070726f76656420666f7220616c6c000000602082015250565b6000612572603d83611e5a565b915061257d82612516565b604082019050919050565b600060208201905081810360008301526125a181612565565b9050919050565b7f4d73672e76616c7565206c657373207468616e204e4654207072696365000000600082015250565b60006125de601d83611e5a565b91506125e9826125a8565b602082019050919050565b6000602082019050818103600083015261260d816125d1565b9050919050565b7f4e487b7100000000000000000000000000000000000000000000000000000000600052601160045260246000fd5b600061264e82611f01565b91507fffffffffffffffffffffffffffffffffffffffffffffffffffffffffffffffff82036126805761267f612614565b5b600182019050919050565b7f4552433732313a2063616c6c6572206973206e6f7420746f6b656e206f776e6560008201527f72206f7220617070726f76656400000000000000000000000000000000000000602082015250565b60006126e7602d83611e5a565b91506126f28261268b565b604082019050919050565b60006020820190508181036000830152612716816126da565b9050919050565b600081905092915050565b50565b600061273860008361271d565b915061274382612728565b600082019050919050565b60006127598261272b565b9150819050919050565b60006060820190506127786000830186611f96565b6127856020830185611f96565b612792604083018461202c565b949350505050565b7f4552433732313a20696e76616c696420746f6b656e2049440000000000000000600082015250565b60006127d0601883611e5a565b91506127db8261279a565b602082019050919050565b600060208201905081810360008301526127ff816127c3565b9050919050565b7f4f6e6c79206f776e657200000000000000000000000000000000000000000000600082015250565b600061283c600a83611e5a565b915061284782612806565b602082019050919050565b6000602082019050818103600083015261286b8161282f565b9050919050565b7f4552433732313a2061646472657373207a65726f206973206e6f74206120766160008201527f6c6964206f776e65720000000000000000000000000000000000000000000000602082015250565b60006128ce602983611e5a565b91506128d982612872565b604082019050919050565b600060208201905081810360008301526128fd816128c1565b9050919050565b60008190508160005260206000209050919050565b60006020601f8301049050919050565b600082821b905092915050565b6000600883026129667fffffffffffffffffffffffffffffffffffffffffffffffffffffffffffffffff82612929565b6129708683612929565b95508019841693508086168417925050509392505050565b6000819050919050565b60006129ad6129a86129a384611f01565b612988565b611f01565b9050919050565b6000819050919050565b6129c783612992565b6129db6129d3826129b4565b848454612936565b825550505050565b600090565b6129f06129e3565b6129fb8184846129be565b505050565b5b81811015612a1f57612a146000826129e8565b600181019050612a01565b5050565b601f821115612a6457612a3581612904565b612a3e84612919565b81016020851015612a4d578190505b612a61612a5985612919565b830182612a00565b50505b505050565b600082821c905092915050565b6000612a8760001984600802612a69565b1980831691505092915050565b6000612aa08383612a76565b9150826002028217905092915050565b612ab982611e4f565b67ffffffffffffffff811115612ad257612ad16120e0565b5b612adc8254612453565b612ae7828285612a23565b600060209050601f831160018114612b1a5760008415612b08578287015190505b612b128582612a94565b865550612b7a565b601f198416612b2886612904565b60005b82811015612b5057848901518255600182019150602085019450602081019050612b2b565b86831015612b6d5784890151612b69601f891682612a76565b8355505b6001600288020188555050505b505050505050565b600081905092915050565b6000612b9882611e4f565b612ba28185612b82565b9350612bb2818560208601611e6b565b80840191505092915050565b6000612bca8285612b8d565b9150612bd68284612b8d565b91508190509392505050565b7f4552433732313a206d696e7420746f20746865207a65726f2061646472657373600082015250565b6000612c18602083611e5a565b9150612c2382612be2565b602082019050919050565b60006020820190508181036000830152612c4781612c0b565b9050919050565b7f4552433732313a20746f6b656e20616c7265616479206d696e74656400000000600082015250565b6000612c84601c83611e5a565b9150612c8f82612c4e565b602082019050919050565b60006020820190508181036000830152612cb381612c77565b9050919050565b7f4d6178206e756d626572206d696e746564000000000000000000000000000000600082015250565b6000612cf0601183611e5a565b9150612cfb82612cba565b602082019050919050565b60006020820190508181036000830152612d1f81612ce3565b9050919050565b7f4552433732313a207472616e736665722066726f6d20696e636f72726563742060008201527f6f776e6572000000000000000000000000000000000000000000000000000000602082015250565b6000612d82602583611e5a565b9150612d8d82612d26565b604082019050919050565b60006020820190508181036000830152612db181612d75565b9050919050565b7f4552433732313a207472616e7366657220746f20746865207a65726f2061646460008201527f7265737300000000000000000000000000000000000000000000000000000000602082015250565b6000612e14602483611e5a565b9150612e1f82612db8565b604082019050919050565b60006020820190508181036000830152612e4381612e07565b9050919050565b7f4552433732313a20617070726f766520746f2063616c6c657200000000000000600082015250565b6000612e80601983611e5a565b9150612e8b82612e4a565b602082019050919050565b60006020820190508181036000830152612eaf81612e73565b9050919050565b7f4552433732313a207472616e7366657220746f206e6f6e20455243373231526560008201527f63656976657220696d706c656d656e7465720000000000000000000000000000602082015250565b6000612f12603283611e5a565b9150612f1d82612eb6565b604082019050919050565b60006020820190508181036000830152612f4181612f05565b9050919050565b7f4e487b7100000000000000000000000000000000000000000000000000000000600052601260045260246000fd5b6000612f8282611f01565b9150612f8d83611f01565b9250828203905081811115612fa557612fa4612614565b5b92915050565b6000612fb682611f01565b9150612fc183611f01565b9250828201905080821115612fd957612fd8612614565b5b92915050565b600081519050919050565b600082825260208201905092915050565b600061300682612fdf565b6130108185612fea565b9350613020818560208601611e6b565b61302981611e95565b840191505092915050565b60006080820190506130496000830187611f96565b6130566020830186611f96565b613063604083018561202c565b81810360608301526130758184612ffb565b905095945050505050565b60008151905061308f81611dc0565b92915050565b6000602082840312156130ab576130aa611d8a565b5b60006130b984828501613080565b9150509291505056fea26469706673582212202dbf4a768f551c130fcbcacf4238d20b5e4a62fded412859aa6bc5674f882cb364736f6c63430008110033a2646970667358221220e9e5ad82429f85aec50b0e7821e48cd718b2ef7196325422027b65f76212b80564736f6c63430008110033",
  "devdoc": {
    "kind": "dev",
    "methods": {},
    "version": 1
  },
  "userdoc": {
    "kind": "user",
    "methods": {},
    "version": 1
  },
  "storageLayout": {
    "storage": [
      {
        "astId": 6117,
        "contract": "contracts/Creator.sol:Creator",
        "label": "s_owner",
        "offset": 0,
        "slot": "0",
        "type": "t_address"
      },
      {
        "astId": 6119,
        "contract": "contracts/Creator.sol:Creator",
        "label": "s_ERC721Fee",
        "offset": 0,
        "slot": "1",
        "type": "t_uint256"
      },
      {
        "astId": 6124,
        "contract": "contracts/Creator.sol:Creator",
        "label": "addressToContracts",
        "offset": 0,
        "slot": "2",
        "type": "t_mapping(t_address,t_array(t_address)dyn_storage)"
      }
    ],
    "types": {
      "t_address": {
        "encoding": "inplace",
        "label": "address",
        "numberOfBytes": "20"
      },
      "t_array(t_address)dyn_storage": {
        "base": "t_address",
        "encoding": "dynamic_array",
        "label": "address[]",
        "numberOfBytes": "32"
      },
      "t_mapping(t_address,t_array(t_address)dyn_storage)": {
        "encoding": "mapping",
        "key": "t_address",
        "label": "mapping(address => address[])",
        "numberOfBytes": "32",
        "value": "t_array(t_address)dyn_storage"
      },
      "t_uint256": {
        "encoding": "inplace",
        "label": "uint256",
        "numberOfBytes": "32"
      }
    }
  }
}