{
  "address": "0x5FbDB2315678afecb367f032d93F642f64180aa3",
  "abi": [
    {
      "inputs": [],
      "stateMutability": "nonpayable",
      "type": "constructor"
    },
    {
      "anonymous": false,
      "inputs": [
        {
          "indexed": true,
          "internalType": "address",
          "name": "contractAddress",
          "type": "address"
        },
        {
          "indexed": true,
          "internalType": "address",
          "name": "owner",
          "type": "address"
        },
        {
          "indexed": false,
          "internalType": "string",
          "name": "symbol",
          "type": "string"
        }
      ],
      "name": "ERC721Create",
      "type": "event"
    },
    {
      "inputs": [
        {
          "internalType": "string",
          "name": "name",
          "type": "string"
        },
        {
          "internalType": "string",
          "name": "symbol",
          "type": "string"
        },
        {
          "internalType": "uint256",
          "name": "mintFee",
          "type": "uint256"
        },
        {
          "internalType": "uint256",
          "name": "maxSupply",
          "type": "uint256"
        },
        {
          "internalType": "string",
          "name": "imageURL",
          "type": "string"
        }
      ],
      "name": "createERC721",
      "outputs": [
        {
          "internalType": "address",
          "name": "",
          "type": "address"
        }
      ],
      "stateMutability": "payable",
      "type": "function"
    },
    {
      "inputs": [],
      "name": "getBalance",
      "outputs": [
        {
          "internalType": "uint256",
          "name": "",
          "type": "uint256"
        }
      ],
      "stateMutability": "view",
      "type": "function"
    },
    {
      "inputs": [
        {
          "internalType": "address",
          "name": "user",
          "type": "address"
        }
      ],
      "name": "getUserContracts",
      "outputs": [
        {
          "internalType": "address[]",
          "name": "",
          "type": "address[]"
        }
      ],
      "stateMutability": "view",
      "type": "function"
    },
    {
      "inputs": [
        {
          "internalType": "address",
          "name": "nftContractAddress",
          "type": "address"
        }
      ],
      "name": "mint",
      "outputs": [],
      "stateMutability": "payable",
      "type": "function"
    }
  ],
  "transactionHash": "0xfd25a8527bdb4d9372aa3343588076b14bf755bbab76d4b91610111169d01ffa",
  "args": [],
  "numDeployments": 1,
  "solcInputHash": "c63a38b941daa23c6e857433dd22150a",
  "bytecode": "0x608060405234801561001057600080fd5b50336000806101000a81548173ffffffffffffffffffffffffffffffffffffffff021916908373ffffffffffffffffffffffffffffffffffffffff16021790555061462d806100606000396000f3fe608060405260043610620000445760003560e01c806312065fe0146200004957806334c925f014620000795780633649a9bd14620000bd5780636a62784214620000f3575b600080fd5b3480156200005657600080fd5b506200006162000113565b60405162000070919062000408565b60405180910390f35b3480156200008657600080fd5b50620000a560048036038101906200009f91906200049e565b6200011b565b604051620000b491906200059e565b60405180910390f35b620000db6004803603810190620000d5919062000755565b620001ea565b604051620000ea91906200084b565b60405180910390f35b6200011160048036038101906200010b91906200049e565b620002ef565b005b600047905090565b6060600360008373ffffffffffffffffffffffffffffffffffffffff1673ffffffffffffffffffffffffffffffffffffffff168152602001908152602001600020805480602002602001604051908101604052809291908181526020018280548015620001de57602002820191906000526020600020905b8160009054906101000a900473ffffffffffffffffffffffffffffffffffffffff1673ffffffffffffffffffffffffffffffffffffffff168152602001906001019080831162000193575b50505050509050919050565b600060015434101562000234576040517f08c379a00000000000000000000000000000000000000000000000000000000081526004016200022b90620008c9565b60405180910390fd5b60008686868633876040516200024a90620003df565b6200025b9695949392919062000963565b604051809103906000f08015801562000278573d6000803e3d6000fd5b5090503373ffffffffffffffffffffffffffffffffffffffff168173ffffffffffffffffffffffffffffffffffffffff167f885ff2ac72301279f7111fa8a37e1d3752db502e4301372f8b411cff87b4060288604051620002da9190620009e5565b60405180910390a38091505095945050505050565b600081905060008173ffffffffffffffffffffffffffffffffffffffff166398d5fdca6040518163ffffffff1660e01b8152600401602060405180830381865afa15801562000342573d6000803e3d6000fd5b505050506040513d601f19601f8201168201806040525081019062000368919062000a20565b9050803410156200037857600080fd5b8173ffffffffffffffffffffffffffffffffffffffff16631249c58b6040518163ffffffff1660e01b8152600401600060405180830381600087803b158015620003c157600080fd5b505af1158015620003d6573d6000803e3d6000fd5b50505050505050565b613ba58062000a5383390190565b6000819050919050565b6200040281620003ed565b82525050565b60006020820190506200041f6000830184620003f7565b92915050565b6000604051905090565b600080fd5b600080fd5b600073ffffffffffffffffffffffffffffffffffffffff82169050919050565b6000620004668262000439565b9050919050565b620004788162000459565b81146200048457600080fd5b50565b60008135905062000498816200046d565b92915050565b600060208284031215620004b757620004b66200042f565b5b6000620004c78482850162000487565b91505092915050565b600081519050919050565b600082825260208201905092915050565b6000819050602082019050919050565b620005078162000459565b82525050565b60006200051b8383620004fc565b60208301905092915050565b6000602082019050919050565b60006200054182620004d0565b6200054d8185620004db565b93506200055a83620004ec565b8060005b83811015620005915781516200057588826200050d565b9750620005828362000527565b9250506001810190506200055e565b5085935050505092915050565b60006020820190508181036000830152620005ba818462000534565b905092915050565b600080fd5b600080fd5b6000601f19601f8301169050919050565b7f4e487b7100000000000000000000000000000000000000000000000000000000600052604160045260246000fd5b6200061782620005cc565b810181811067ffffffffffffffff82111715620006395762000638620005dd565b5b80604052505050565b60006200064e62000425565b90506200065c82826200060c565b919050565b600067ffffffffffffffff8211156200067f576200067e620005dd565b5b6200068a82620005cc565b9050602081019050919050565b82818337600083830152505050565b6000620006bd620006b78462000661565b62000642565b905082815260208101848484011115620006dc57620006db620005c7565b5b620006e984828562000697565b509392505050565b600082601f830112620007095762000708620005c2565b5b81356200071b848260208601620006a6565b91505092915050565b6200072f81620003ed565b81146200073b57600080fd5b50565b6000813590506200074f8162000724565b92915050565b600080600080600060a086880312156200077457620007736200042f565b5b600086013567ffffffffffffffff81111562000795576200079462000434565b5b620007a388828901620006f1565b955050602086013567ffffffffffffffff811115620007c757620007c662000434565b5b620007d588828901620006f1565b9450506040620007e8888289016200073e565b9350506060620007fb888289016200073e565b925050608086013567ffffffffffffffff8111156200081f576200081e62000434565b5b6200082d88828901620006f1565b9150509295509295909350565b620008458162000459565b82525050565b60006020820190506200086260008301846200083a565b92915050565b600082825260208201905092915050565b7f6372656174652065786365656473206665650000000000000000000000000000600082015250565b6000620008b160128362000868565b9150620008be8262000879565b602082019050919050565b60006020820190508181036000830152620008e481620008a2565b9050919050565b600081519050919050565b60005b8381101562000916578082015181840152602081019050620008f9565b60008484015250505050565b60006200092f82620008eb565b6200093b818562000868565b93506200094d818560208601620008f6565b6200095881620005cc565b840191505092915050565b600060c08201905081810360008301526200097f818962000922565b9050818103602083015262000995818862000922565b9050620009a66040830187620003f7565b620009b56060830186620003f7565b620009c460808301856200083a565b81810360a0830152620009d8818462000922565b9050979650505050505050565b6000602082019050818103600083015262000a01818462000922565b905092915050565b60008151905062000a1a8162000724565b92915050565b60006020828403121562000a395762000a386200042f565b5b600062000a498482850162000a09565b9150509291505056fe60a06040523480156200001157600080fd5b5060405162003ba538038062003ba5833981810160405281019062000037919062000448565b60068054620000469062000570565b80601f0160208091040260200160405190810160405280929190818152602001828054620000749062000570565b8015620000c55780601f106200009957610100808354040283529160200191620000c5565b820191906000526020600020905b815481529060010190602001808311620000a757829003601f168201915b505050505060078054620000d99062000570565b80601f0160208091040260200160405190810160405280929190818152602001828054620001079062000570565b8015620001585780601f106200012c5761010080835404028352916020019162000158565b820191906000526020600020905b8154815290600101906020018083116200013a57829003601f168201915b505050505081600090816200016e919062000782565b50806001908162000180919062000782565b505050856006908162000194919062000782565b508460079081620001a6919062000782565b5083600b81905550826080818152505081600960006101000a81548173ffffffffffffffffffffffffffffffffffffffff021916908373ffffffffffffffffffffffffffffffffffffffff160217905550806008908162000208919062000782565b5050505050505062000869565b6000604051905090565b600080fd5b600080fd5b600080fd5b600080fd5b6000601f19601f8301169050919050565b7f4e487b7100000000000000000000000000000000000000000000000000000000600052604160045260246000fd5b6200027e8262000233565b810181811067ffffffffffffffff82111715620002a0576200029f62000244565b5b80604052505050565b6000620002b562000215565b9050620002c3828262000273565b919050565b600067ffffffffffffffff821115620002e657620002e562000244565b5b620002f18262000233565b9050602081019050919050565b60005b838110156200031e57808201518184015260208101905062000301565b60008484015250505050565b6000620003416200033b84620002c8565b620002a9565b90508281526020810184848401111562000360576200035f6200022e565b5b6200036d848285620002fe565b509392505050565b600082601f8301126200038d576200038c62000229565b5b81516200039f8482602086016200032a565b91505092915050565b6000819050919050565b620003bd81620003a8565b8114620003c957600080fd5b50565b600081519050620003dd81620003b2565b92915050565b600073ffffffffffffffffffffffffffffffffffffffff82169050919050565b60006200041082620003e3565b9050919050565b620004228162000403565b81146200042e57600080fd5b50565b600081519050620004428162000417565b92915050565b60008060008060008060c087890312156200046857620004676200021f565b5b600087015167ffffffffffffffff81111562000489576200048862000224565b5b6200049789828a0162000375565b965050602087015167ffffffffffffffff811115620004bb57620004ba62000224565b5b620004c989828a0162000375565b9550506040620004dc89828a01620003cc565b9450506060620004ef89828a01620003cc565b93505060806200050289828a0162000431565b92505060a087015167ffffffffffffffff81111562000526576200052562000224565b5b6200053489828a0162000375565b9150509295509295509295565b7f4e487b7100000000000000000000000000000000000000000000000000000000600052602260045260246000fd5b600060028204905060018216806200058957607f821691505b6020821081036200059f576200059e62000541565b5b50919050565b600081519050919050565b60008190508160005260206000209050919050565b60006020601f8301049050919050565b600082821b905092915050565b600060088302620006147fffffffffffffffffffffffffffffffffffffffffffffffffffffffffffffffff82620005d5565b620006208683620005d5565b95508019841693508086168417925050509392505050565b6000819050919050565b6000620006636200065d6200065784620003a8565b62000638565b620003a8565b9050919050565b6000819050919050565b6200067f8362000642565b620006976200068e826200066a565b848454620005e2565b825550505050565b600090565b620006ae6200069f565b620006bb81848462000674565b505050565b5b81811015620006e357620006d7600082620006a4565b600181019050620006c1565b5050565b601f8211156200073257620006fc81620005b0565b6200070784620005c5565b8101602085101562000717578190505b6200072f6200072685620005c5565b830182620006c0565b50505b505050565b600082821c905092915050565b6000620007576000198460080262000737565b1980831691505092915050565b600062000772838362000744565b9150826002028217905092915050565b6200078d82620005a5565b67ffffffffffffffff811115620007a957620007a862000244565b5b620007b5825462000570565b620007c2828285620006e7565b600060209050601f831160018114620007fa5760008415620007e5578287015190505b620007f1858262000764565b86555062000861565b601f1984166200080a86620005b0565b60005b8281101562000834578489015182556001820191506020850194506020810190506200080d565b8683101562000854578489015162000850601f89168262000744565b8355505b6001600288020188555050505b505050505050565b6080516133196200088c600039600081816107ba01526111e101526133196000f3fe60806040526004361061011f5760003560e01c80636a1db1bf116100a0578063a22cb46511610064578063a22cb465146103a5578063b88d4fde146103ce578063c87b56dd146103f7578063e985e9c514610434578063f2fde38b146104715761011f565b80636a1db1bf146102c057806370a08231146102e957806395d89b411461032657806398d5fdca146103515780639b642de11461037c5761011f565b80631249c58b116100e75780631249c58b1461021d57806323b872dd146102275780633ccfd60b1461025057806342842e0e1461025a5780636352211e146102835761011f565b806301ffc9a71461012457806306fdde0314610161578063081812fc1461018c578063095ea7b3146101c957806312065fe0146101f2575b600080fd5b34801561013057600080fd5b5061014b60048036038101906101469190611f70565b61049a565b6040516101589190611fb8565b60405180910390f35b34801561016d57600080fd5b5061017661057c565b6040516101839190612063565b60405180910390f35b34801561019857600080fd5b506101b360048036038101906101ae91906120bb565b61060e565b6040516101c09190612129565b60405180910390f35b3480156101d557600080fd5b506101f060048036038101906101eb9190612170565b610654565b005b3480156101fe57600080fd5b5061020761076b565b60405161021491906121bf565b60405180910390f35b610225610773565b005b34801561023357600080fd5b5061024e600480360381019061024991906121da565b610922565b005b610258610982565b005b34801561026657600080fd5b50610281600480360381019061027c91906121da565b610a33565b005b34801561028f57600080fd5b506102aa60048036038101906102a591906120bb565b610a53565b6040516102b79190612129565b60405180910390f35b3480156102cc57600080fd5b506102e760048036038101906102e291906120bb565b610ad9565b005b3480156102f557600080fd5b50610310600480360381019061030b919061222d565b610b73565b60405161031d91906121bf565b60405180910390f35b34801561033257600080fd5b5061033b610c2a565b6040516103489190612063565b60405180910390f35b34801561035d57600080fd5b50610366610cbc565b60405161037391906121bf565b60405180910390f35b34801561038857600080fd5b506103a3600480360381019061039e919061238f565b610cc6565b005b3480156103b157600080fd5b506103cc60048036038101906103c79190612404565b610d69565b005b3480156103da57600080fd5b506103f560048036038101906103f091906124e5565b610d7f565b005b34801561040357600080fd5b5061041e600480360381019061041991906120bb565b610de1565b60405161042b9190612063565b60405180910390f35b34801561044057600080fd5b5061045b60048036038101906104569190612568565b610e49565b6040516104689190611fb8565b60405180910390f35b34801561047d57600080fd5b506104986004803603810190610493919061222d565b610edd565b005b60007f80ac58cd000000000000000000000000000000000000000000000000000000007bffffffffffffffffffffffffffffffffffffffffffffffffffffffff1916827bffffffffffffffffffffffffffffffffffffffffffffffffffffffff1916148061056557507f5b5e139f000000000000000000000000000000000000000000000000000000007bffffffffffffffffffffffffffffffffffffffffffffffffffffffff1916827bffffffffffffffffffffffffffffffffffffffffffffffffffffffff1916145b80610575575061057482610fb1565b5b9050919050565b60606000805461058b906125d7565b80601f01602080910402602001604051908101604052809291908181526020018280546105b7906125d7565b80156106045780601f106105d957610100808354040283529160200191610604565b820191906000526020600020905b8154815290600101906020018083116105e757829003601f168201915b5050505050905090565b60006106198261101b565b6004600083815260200190815260200160002060009054906101000a900473ffffffffffffffffffffffffffffffffffffffff169050919050565b600061065f82610a53565b90508073ffffffffffffffffffffffffffffffffffffffff168373ffffffffffffffffffffffffffffffffffffffff16036106cf576040517f08c379a00000000000000000000000000000000000000000000000000000000081526004016106c69061267a565b60405180910390fd5b8073ffffffffffffffffffffffffffffffffffffffff166106ee611066565b73ffffffffffffffffffffffffffffffffffffffff16148061071d575061071c81610717611066565b610e49565b5b61075c576040517f08c379a00000000000000000000000000000000000000000000000000000000081526004016107539061270c565b60405180910390fd5b610766838361106e565b505050565b600047905090565b600b543410156107b8576040517f08c379a00000000000000000000000000000000000000000000000000000000081526004016107af90612778565b60405180910390fd5b7f0000000000000000000000000000000000000000000000000000000000000000600a54111561081d576040517f08c379a0000000000000000000000000000000000000000000000000000000008152600401610814906127e4565b60405180910390fd5b6000600c60009054906101000a900473ffffffffffffffffffffffffffffffffffffffff1673ffffffffffffffffffffffffffffffffffffffff166064346108659190612862565b604051610871906128c4565b60006040518083038185875af1925050503d80600081146108ae576040519150601f19603f3d011682016040523d82523d6000602084013e6108b3565b606091505b5050905080156108e2576108c933600a54611127565b600a60008154809291906108dc906128d9565b91905055505b7fab8530f87dc9b59234c4623bf917212bb2536d647574c8e7e5da92c2ede0c9f83330600a5460405161091793929190612921565b60405180910390a150565b61093361092d611066565b826113a7565b610972576040517f08c379a0000000000000000000000000000000000000000000000000000000008152600401610969906129ca565b60405180910390fd5b61097d83838361143c565b505050565b60003373ffffffffffffffffffffffffffffffffffffffff16476040516109a8906128c4565b60006040518083038185875af1925050503d80600081146109e5576040519150601f19603f3d011682016040523d82523d6000602084013e6109ea565b606091505b505090508015610a30577f9b1bfa7fa9ee420a16e124f794c35ac9f90472acc99140eb2f6447c714cad8eb333047604051610a2793929190612921565b60405180910390a15b50565b610a4e83838360405180602001604052806000815250610d7f565b505050565b600080610a5f83611735565b9050600073ffffffffffffffffffffffffffffffffffffffff168173ffffffffffffffffffffffffffffffffffffffff1603610ad0576040517f08c379a0000000000000000000000000000000000000000000000000000000008152600401610ac790612a36565b60405180910390fd5b80915050919050565b600960009054906101000a900473ffffffffffffffffffffffffffffffffffffffff1673ffffffffffffffffffffffffffffffffffffffff163373ffffffffffffffffffffffffffffffffffffffff1614610b69576040517f08c379a0000000000000000000000000000000000000000000000000000000008152600401610b6090612aa2565b60405180910390fd5b80600b8190555050565b60008073ffffffffffffffffffffffffffffffffffffffff168273ffffffffffffffffffffffffffffffffffffffff1603610be3576040517f08c379a0000000000000000000000000000000000000000000000000000000008152600401610bda90612b34565b60405180910390fd5b600360008373ffffffffffffffffffffffffffffffffffffffff1673ffffffffffffffffffffffffffffffffffffffff168152602001908152602001600020549050919050565b606060018054610c39906125d7565b80601f0160208091040260200160405190810160405280929190818152602001828054610c65906125d7565b8015610cb25780601f10610c8757610100808354040283529160200191610cb2565b820191906000526020600020905b815481529060010190602001808311610c9557829003601f168201915b5050505050905090565b6000600b54905090565b600960009054906101000a900473ffffffffffffffffffffffffffffffffffffffff1673ffffffffffffffffffffffffffffffffffffffff163373ffffffffffffffffffffffffffffffffffffffff1614610d56576040517f08c379a0000000000000000000000000000000000000000000000000000000008152600401610d4d90612aa2565b60405180910390fd5b8060089081610d659190612d00565b5050565b610d7b610d74611066565b8383611772565b5050565b610d90610d8a611066565b836113a7565b610dcf576040517f08c379a0000000000000000000000000000000000000000000000000000000008152600401610dc6906129ca565b60405180910390fd5b610ddb848484846118de565b50505050565b6060610dec8261101b565b6000610df661193a565b90506000815111610e165760405180602001604052806000815250610e41565b80610e20846119cc565b604051602001610e31929190612e0e565b6040516020818303038152906040525b915050919050565b6000600560008473ffffffffffffffffffffffffffffffffffffffff1673ffffffffffffffffffffffffffffffffffffffff16815260200190815260200160002060008373ffffffffffffffffffffffffffffffffffffffff1673ffffffffffffffffffffffffffffffffffffffff16815260200190815260200160002060009054906101000a900460ff16905092915050565b600960009054906101000a900473ffffffffffffffffffffffffffffffffffffffff1673ffffffffffffffffffffffffffffffffffffffff163373ffffffffffffffffffffffffffffffffffffffff1614610f6d576040517f08c379a0000000000000000000000000000000000000000000000000000000008152600401610f6490612aa2565b60405180910390fd5b80600960006101000a81548173ffffffffffffffffffffffffffffffffffffffff021916908373ffffffffffffffffffffffffffffffffffffffff16021790555050565b60007f01ffc9a7000000000000000000000000000000000000000000000000000000007bffffffffffffffffffffffffffffffffffffffffffffffffffffffff1916827bffffffffffffffffffffffffffffffffffffffffffffffffffffffff1916149050919050565b61102481611a9a565b611063576040517f08c379a000000000000000000000000000000000000000000000000000000000815260040161105a90612a36565b60405180910390fd5b50565b600033905090565b816004600083815260200190815260200160002060006101000a81548173ffffffffffffffffffffffffffffffffffffffff021916908373ffffffffffffffffffffffffffffffffffffffff160217905550808273ffffffffffffffffffffffffffffffffffffffff166110e183610a53565b73ffffffffffffffffffffffffffffffffffffffff167f8c5be1e5ebec7d5bd14f71427d1e84f3dd0314c0f7b2291e5b200ac8c7c3b92560405160405180910390a45050565b600073ffffffffffffffffffffffffffffffffffffffff168273ffffffffffffffffffffffffffffffffffffffff1603611196576040517f08c379a000000000000000000000000000000000000000000000000000000000815260040161118d90612e7e565b60405180910390fd5b61119f81611a9a565b156111df576040517f08c379a00000000000000000000000000000000000000000000000000000000081526004016111d690612eea565b60405180910390fd5b7f0000000000000000000000000000000000000000000000000000000000000000811115611242576040517f08c379a000000000000000000000000000000000000000000000000000000000815260040161123990612f56565b60405180910390fd5b611250600083836001611adb565b61125981611a9a565b15611299576040517f08c379a000000000000000000000000000000000000000000000000000000000815260040161129090612eea565b60405180910390fd5b6001600e60008473ffffffffffffffffffffffffffffffffffffffff1673ffffffffffffffffffffffffffffffffffffffff1681526020019081526020016000206000828254019250508190555081600d600083815260200190815260200160002060006101000a81548173ffffffffffffffffffffffffffffffffffffffff021916908373ffffffffffffffffffffffffffffffffffffffff160217905550808273ffffffffffffffffffffffffffffffffffffffff16600073ffffffffffffffffffffffffffffffffffffffff167fddf252ad1be2c89b69c2b068fc378daa952ba7f163c4a11628f55a4df523b3ef60405160405180910390a46113a3600083836001611c01565b5050565b6000806113b383610a53565b90508073ffffffffffffffffffffffffffffffffffffffff168473ffffffffffffffffffffffffffffffffffffffff1614806113f557506113f48185610e49565b5b8061143357508373ffffffffffffffffffffffffffffffffffffffff1661141b8461060e565b73ffffffffffffffffffffffffffffffffffffffff16145b91505092915050565b8273ffffffffffffffffffffffffffffffffffffffff1661145c82610a53565b73ffffffffffffffffffffffffffffffffffffffff16146114b2576040517f08c379a00000000000000000000000000000000000000000000000000000000081526004016114a990612fe8565b60405180910390fd5b600073ffffffffffffffffffffffffffffffffffffffff168273ffffffffffffffffffffffffffffffffffffffff1603611521576040517f08c379a00000000000000000000000000000000000000000000000000000000081526004016115189061307a565b60405180910390fd5b61152e8383836001611adb565b8273ffffffffffffffffffffffffffffffffffffffff1661154e82610a53565b73ffffffffffffffffffffffffffffffffffffffff16146115a4576040517f08c379a000000000000000000000000000000000000000000000000000000000815260040161159b90612fe8565b60405180910390fd5b6004600082815260200190815260200160002060006101000a81549073ffffffffffffffffffffffffffffffffffffffff02191690556001600360008573ffffffffffffffffffffffffffffffffffffffff1673ffffffffffffffffffffffffffffffffffffffff168152602001908152602001600020600082825403925050819055506001600360008473ffffffffffffffffffffffffffffffffffffffff1673ffffffffffffffffffffffffffffffffffffffff16815260200190815260200160002060008282540192505081905550816002600083815260200190815260200160002060006101000a81548173ffffffffffffffffffffffffffffffffffffffff021916908373ffffffffffffffffffffffffffffffffffffffff160217905550808273ffffffffffffffffffffffffffffffffffffffff168473ffffffffffffffffffffffffffffffffffffffff167fddf252ad1be2c89b69c2b068fc378daa952ba7f163c4a11628f55a4df523b3ef60405160405180910390a46117308383836001611c01565b505050565b60006002600083815260200190815260200160002060009054906101000a900473ffffffffffffffffffffffffffffffffffffffff169050919050565b8173ffffffffffffffffffffffffffffffffffffffff168373ffffffffffffffffffffffffffffffffffffffff16036117e0576040517f08c379a00000000000000000000000000000000000000000000000000000000081526004016117d7906130e6565b60405180910390fd5b80600560008573ffffffffffffffffffffffffffffffffffffffff1673ffffffffffffffffffffffffffffffffffffffff16815260200190815260200160002060008473ffffffffffffffffffffffffffffffffffffffff1673ffffffffffffffffffffffffffffffffffffffff16815260200190815260200160002060006101000a81548160ff0219169083151502179055508173ffffffffffffffffffffffffffffffffffffffff168373ffffffffffffffffffffffffffffffffffffffff167f17307eab39ab6107e8899845ad3d59bd9653f200f220920489ca2b5937696c31836040516118d19190611fb8565b60405180910390a3505050565b6118e984848461143c565b6118f584848484611c07565b611934576040517f08c379a000000000000000000000000000000000000000000000000000000000815260040161192b90613178565b60405180910390fd5b50505050565b606060088054611949906125d7565b80601f0160208091040260200160405190810160405280929190818152602001828054611975906125d7565b80156119c25780601f10611997576101008083540402835291602001916119c2565b820191906000526020600020905b8154815290600101906020018083116119a557829003601f168201915b5050505050905090565b6060600060016119db84611d8e565b01905060008167ffffffffffffffff8111156119fa576119f9612264565b5b6040519080825280601f01601f191660200182016040528015611a2c5781602001600182028036833780820191505090505b509050600082602001820190505b600115611a8f578080600190039150507f3031323334353637383961626364656600000000000000000000000000000000600a86061a8153600a8581611a8357611a82612804565b5b04945060008503611a3a575b819350505050919050565b60008073ffffffffffffffffffffffffffffffffffffffff16611abc83611735565b73ffffffffffffffffffffffffffffffffffffffff1614159050919050565b6001811115611bfb57600073ffffffffffffffffffffffffffffffffffffffff168473ffffffffffffffffffffffffffffffffffffffff1614611b6f5780600360008673ffffffffffffffffffffffffffffffffffffffff1673ffffffffffffffffffffffffffffffffffffffff1681526020019081526020016000206000828254611b679190613198565b925050819055505b600073ffffffffffffffffffffffffffffffffffffffff168373ffffffffffffffffffffffffffffffffffffffff1614611bfa5780600360008573ffffffffffffffffffffffffffffffffffffffff1673ffffffffffffffffffffffffffffffffffffffff1681526020019081526020016000206000828254611bf291906131cc565b925050819055505b5b50505050565b50505050565b6000611c288473ffffffffffffffffffffffffffffffffffffffff16611ee1565b15611d81578373ffffffffffffffffffffffffffffffffffffffff1663150b7a02611c51611066565b8786866040518563ffffffff1660e01b8152600401611c739493929190613255565b6020604051808303816000875af1925050508015611caf57506040513d601f19601f82011682018060405250810190611cac91906132b6565b60015b611d31573d8060008114611cdf576040519150601f19603f3d011682016040523d82523d6000602084013e611ce4565b606091505b506000815103611d29576040517f08c379a0000000000000000000000000000000000000000000000000000000008152600401611d2090613178565b60405180910390fd5b805181602001fd5b63150b7a0260e01b7bffffffffffffffffffffffffffffffffffffffffffffffffffffffff1916817bffffffffffffffffffffffffffffffffffffffffffffffffffffffff191614915050611d86565b600190505b949350505050565b600080600090507a184f03e93ff9f4daa797ed6e38ed64bf6a1f0100000000000000008310611dec577a184f03e93ff9f4daa797ed6e38ed64bf6a1f0100000000000000008381611de257611de1612804565b5b0492506040810190505b6d04ee2d6d415b85acef81000000008310611e29576d04ee2d6d415b85acef81000000008381611e1f57611e1e612804565b5b0492506020810190505b662386f26fc100008310611e5857662386f26fc100008381611e4e57611e4d612804565b5b0492506010810190505b6305f5e1008310611e81576305f5e1008381611e7757611e76612804565b5b0492506008810190505b6127108310611ea6576127108381611e9c57611e9b612804565b5b0492506004810190505b60648310611ec95760648381611ebf57611ebe612804565b5b0492506002810190505b600a8310611ed8576001810190505b80915050919050565b6000808273ffffffffffffffffffffffffffffffffffffffff163b119050919050565b6000604051905090565b600080fd5b600080fd5b60007fffffffff0000000000000000000000000000000000000000000000000000000082169050919050565b611f4d81611f18565b8114611f5857600080fd5b50565b600081359050611f6a81611f44565b92915050565b600060208284031215611f8657611f85611f0e565b5b6000611f9484828501611f5b565b91505092915050565b60008115159050919050565b611fb281611f9d565b82525050565b6000602082019050611fcd6000830184611fa9565b92915050565b600081519050919050565b600082825260208201905092915050565b60005b8381101561200d578082015181840152602081019050611ff2565b60008484015250505050565b6000601f19601f8301169050919050565b600061203582611fd3565b61203f8185611fde565b935061204f818560208601611fef565b61205881612019565b840191505092915050565b6000602082019050818103600083015261207d818461202a565b905092915050565b6000819050919050565b61209881612085565b81146120a357600080fd5b50565b6000813590506120b58161208f565b92915050565b6000602082840312156120d1576120d0611f0e565b5b60006120df848285016120a6565b91505092915050565b600073ffffffffffffffffffffffffffffffffffffffff82169050919050565b6000612113826120e8565b9050919050565b61212381612108565b82525050565b600060208201905061213e600083018461211a565b92915050565b61214d81612108565b811461215857600080fd5b50565b60008135905061216a81612144565b92915050565b6000806040838503121561218757612186611f0e565b5b60006121958582860161215b565b92505060206121a6858286016120a6565b9150509250929050565b6121b981612085565b82525050565b60006020820190506121d460008301846121b0565b92915050565b6000806000606084860312156121f3576121f2611f0e565b5b60006122018682870161215b565b93505060206122128682870161215b565b9250506040612223868287016120a6565b9150509250925092565b60006020828403121561224357612242611f0e565b5b60006122518482850161215b565b91505092915050565b600080fd5b600080fd5b7f4e487b7100000000000000000000000000000000000000000000000000000000600052604160045260246000fd5b61229c82612019565b810181811067ffffffffffffffff821117156122bb576122ba612264565b5b80604052505050565b60006122ce611f04565b90506122da8282612293565b919050565b600067ffffffffffffffff8211156122fa576122f9612264565b5b61230382612019565b9050602081019050919050565b82818337600083830152505050565b600061233261232d846122df565b6122c4565b90508281526020810184848401111561234e5761234d61225f565b5b612359848285612310565b509392505050565b600082601f8301126123765761237561225a565b5b813561238684826020860161231f565b91505092915050565b6000602082840312156123a5576123a4611f0e565b5b600082013567ffffffffffffffff8111156123c3576123c2611f13565b5b6123cf84828501612361565b91505092915050565b6123e181611f9d565b81146123ec57600080fd5b50565b6000813590506123fe816123d8565b92915050565b6000806040838503121561241b5761241a611f0e565b5b60006124298582860161215b565b925050602061243a858286016123ef565b9150509250929050565b600067ffffffffffffffff82111561245f5761245e612264565b5b61246882612019565b9050602081019050919050565b600061248861248384612444565b6122c4565b9050828152602081018484840111156124a4576124a361225f565b5b6124af848285612310565b509392505050565b600082601f8301126124cc576124cb61225a565b5b81356124dc848260208601612475565b91505092915050565b600080600080608085870312156124ff576124fe611f0e565b5b600061250d8782880161215b565b945050602061251e8782880161215b565b935050604061252f878288016120a6565b925050606085013567ffffffffffffffff8111156125505761254f611f13565b5b61255c878288016124b7565b91505092959194509250565b6000806040838503121561257f5761257e611f0e565b5b600061258d8582860161215b565b925050602061259e8582860161215b565b9150509250929050565b7f4e487b7100000000000000000000000000000000000000000000000000000000600052602260045260246000fd5b600060028204905060018216806125ef57607f821691505b602082108103612602576126016125a8565b5b50919050565b7f4552433732313a20617070726f76616c20746f2063757272656e74206f776e6560008201527f7200000000000000000000000000000000000000000000000000000000000000602082015250565b6000612664602183611fde565b915061266f82612608565b604082019050919050565b6000602082019050818103600083015261269381612657565b9050919050565b7f4552433732313a20617070726f76652063616c6c6572206973206e6f7420746f60008201527f6b656e206f776e6572206f7220617070726f76656420666f7220616c6c000000602082015250565b60006126f6603d83611fde565b91506127018261269a565b604082019050919050565b60006020820190508181036000830152612725816126e9565b9050919050565b7f4d73672e76616c7565206c657373207468616e204e4654207072696365000000600082015250565b6000612762601d83611fde565b915061276d8261272c565b602082019050919050565b6000602082019050818103600083015261279181612755565b9050919050565b7f4d6178696d756e206e756d62657220776173206d696e74656400000000000000600082015250565b60006127ce601983611fde565b91506127d982612798565b602082019050919050565b600060208201905081810360008301526127fd816127c1565b9050919050565b7f4e487b7100000000000000000000000000000000000000000000000000000000600052601260045260246000fd5b7f4e487b7100000000000000000000000000000000000000000000000000000000600052601160045260246000fd5b600061286d82612085565b915061287883612085565b92508261288857612887612804565b5b828204905092915050565b600081905092915050565b50565b60006128ae600083612893565b91506128b98261289e565b600082019050919050565b60006128cf826128a1565b9150819050919050565b60006128e482612085565b91507fffffffffffffffffffffffffffffffffffffffffffffffffffffffffffffffff820361291657612915612833565b5b600182019050919050565b6000606082019050612936600083018661211a565b612943602083018561211a565b61295060408301846121b0565b949350505050565b7f4552433732313a2063616c6c6572206973206e6f7420746f6b656e206f776e6560008201527f72206f7220617070726f76656400000000000000000000000000000000000000602082015250565b60006129b4602d83611fde565b91506129bf82612958565b604082019050919050565b600060208201905081810360008301526129e3816129a7565b9050919050565b7f4552433732313a20696e76616c696420746f6b656e2049440000000000000000600082015250565b6000612a20601883611fde565b9150612a2b826129ea565b602082019050919050565b60006020820190508181036000830152612a4f81612a13565b9050919050565b7f4f6e6c79206f776e657200000000000000000000000000000000000000000000600082015250565b6000612a8c600a83611fde565b9150612a9782612a56565b602082019050919050565b60006020820190508181036000830152612abb81612a7f565b9050919050565b7f4552433732313a2061646472657373207a65726f206973206e6f74206120766160008201527f6c6964206f776e65720000000000000000000000000000000000000000000000602082015250565b6000612b1e602983611fde565b9150612b2982612ac2565b604082019050919050565b60006020820190508181036000830152612b4d81612b11565b9050919050565b60008190508160005260206000209050919050565b60006020601f8301049050919050565b600082821b905092915050565b600060088302612bb67fffffffffffffffffffffffffffffffffffffffffffffffffffffffffffffffff82612b79565b612bc08683612b79565b95508019841693508086168417925050509392505050565b6000819050919050565b6000612bfd612bf8612bf384612085565b612bd8565b612085565b9050919050565b6000819050919050565b612c1783612be2565b612c2b612c2382612c04565b848454612b86565b825550505050565b600090565b612c40612c33565b612c4b818484612c0e565b505050565b5b81811015612c6f57612c64600082612c38565b600181019050612c51565b5050565b601f821115612cb457612c8581612b54565b612c8e84612b69565b81016020851015612c9d578190505b612cb1612ca985612b69565b830182612c50565b50505b505050565b600082821c905092915050565b6000612cd760001984600802612cb9565b1980831691505092915050565b6000612cf08383612cc6565b9150826002028217905092915050565b612d0982611fd3565b67ffffffffffffffff811115612d2257612d21612264565b5b612d2c82546125d7565b612d37828285612c73565b600060209050601f831160018114612d6a5760008415612d58578287015190505b612d628582612ce4565b865550612dca565b601f198416612d7886612b54565b60005b82811015612da057848901518255600182019150602085019450602081019050612d7b565b86831015612dbd5784890151612db9601f891682612cc6565b8355505b6001600288020188555050505b505050505050565b600081905092915050565b6000612de882611fd3565b612df28185612dd2565b9350612e02818560208601611fef565b80840191505092915050565b6000612e1a8285612ddd565b9150612e268284612ddd565b91508190509392505050565b7f4552433732313a206d696e7420746f20746865207a65726f2061646472657373600082015250565b6000612e68602083611fde565b9150612e7382612e32565b602082019050919050565b60006020820190508181036000830152612e9781612e5b565b9050919050565b7f4552433732313a20746f6b656e20616c7265616479206d696e74656400000000600082015250565b6000612ed4601c83611fde565b9150612edf82612e9e565b602082019050919050565b60006020820190508181036000830152612f0381612ec7565b9050919050565b7f4d6178206e756d626572206d696e746564000000000000000000000000000000600082015250565b6000612f40601183611fde565b9150612f4b82612f0a565b602082019050919050565b60006020820190508181036000830152612f6f81612f33565b9050919050565b7f4552433732313a207472616e736665722066726f6d20696e636f72726563742060008201527f6f776e6572000000000000000000000000000000000000000000000000000000602082015250565b6000612fd2602583611fde565b9150612fdd82612f76565b604082019050919050565b6000602082019050818103600083015261300181612fc5565b9050919050565b7f4552433732313a207472616e7366657220746f20746865207a65726f2061646460008201527f7265737300000000000000000000000000000000000000000000000000000000602082015250565b6000613064602483611fde565b915061306f82613008565b604082019050919050565b6000602082019050818103600083015261309381613057565b9050919050565b7f4552433732313a20617070726f766520746f2063616c6c657200000000000000600082015250565b60006130d0601983611fde565b91506130db8261309a565b602082019050919050565b600060208201905081810360008301526130ff816130c3565b9050919050565b7f4552433732313a207472616e7366657220746f206e6f6e20455243373231526560008201527f63656976657220696d706c656d656e7465720000000000000000000000000000602082015250565b6000613162603283611fde565b915061316d82613106565b604082019050919050565b6000602082019050818103600083015261319181613155565b9050919050565b60006131a382612085565b91506131ae83612085565b92508282039050818111156131c6576131c5612833565b5b92915050565b60006131d782612085565b91506131e283612085565b92508282019050808211156131fa576131f9612833565b5b92915050565b600081519050919050565b600082825260208201905092915050565b600061322782613200565b613231818561320b565b9350613241818560208601611fef565b61324a81612019565b840191505092915050565b600060808201905061326a600083018761211a565b613277602083018661211a565b61328460408301856121b0565b8181036060830152613296818461321c565b905095945050505050565b6000815190506132b081611f44565b92915050565b6000602082840312156132cc576132cb611f0e565b5b60006132da848285016132a1565b9150509291505056fea2646970667358221220869ec88b9a9971a7acbf64d6de2b0aa496c55fc7836448698de34d44964fea0c64736f6c63430008110033a2646970667358221220e6eb6cc2e83feb38d74df7b3b5e2655b42a1eb89ad01dcb1ad6e17384e7ca14364736f6c63430008110033",
  "devdoc": {
    "kind": "dev",
    "methods": {},
    "version": 1
  },
  "userdoc": {
    "kind": "user",
    "methods": {},
    "version": 1
  },
  "storageLayout": {
    "storage": [
      {
        "astId": 6116,
        "contract": "contracts/Creator.sol:Creator",
        "label": "s_owner",
        "offset": 0,
        "slot": "0",
        "type": "t_address"
      },
      {
        "astId": 6118,
        "contract": "contracts/Creator.sol:Creator",
        "label": "s_ERC721Fee",
        "offset": 0,
        "slot": "1",
        "type": "t_uint256"
      },
      {
        "astId": 6122,
        "contract": "contracts/Creator.sol:Creator",
        "label": "balances",
        "offset": 0,
        "slot": "2",
        "type": "t_mapping(t_address,t_uint256)"
      },
      {
        "astId": 6127,
        "contract": "contracts/Creator.sol:Creator",
        "label": "addressToContracts",
        "offset": 0,
        "slot": "3",
        "type": "t_mapping(t_address,t_array(t_address)dyn_storage)"
      }
    ],
    "types": {
      "t_address": {
        "encoding": "inplace",
        "label": "address",
        "numberOfBytes": "20"
      },
      "t_array(t_address)dyn_storage": {
        "base": "t_address",
        "encoding": "dynamic_array",
        "label": "address[]",
        "numberOfBytes": "32"
      },
      "t_mapping(t_address,t_array(t_address)dyn_storage)": {
        "encoding": "mapping",
        "key": "t_address",
        "label": "mapping(address => address[])",
        "numberOfBytes": "32",
        "value": "t_array(t_address)dyn_storage"
      },
      "t_mapping(t_address,t_uint256)": {
        "encoding": "mapping",
        "key": "t_address",
        "label": "mapping(address => uint256)",
        "numberOfBytes": "32",
        "value": "t_uint256"
      },
      "t_uint256": {
        "encoding": "inplace",
        "label": "uint256",
        "numberOfBytes": "32"
      }
    }
  }
}