{
  "address": "0x5FbDB2315678afecb367f032d93F642f64180aa3",
  "abi": [
    {
      "inputs": [],
      "stateMutability": "nonpayable",
      "type": "constructor"
    },
    {
      "anonymous": false,
      "inputs": [
        {
          "indexed": true,
          "internalType": "address",
          "name": "contractAddress",
          "type": "address"
        },
        {
          "indexed": true,
          "internalType": "address",
          "name": "owner",
          "type": "address"
        },
        {
          "indexed": false,
          "internalType": "string",
          "name": "symbol",
          "type": "string"
        }
      ],
      "name": "ERC721Create",
      "type": "event"
    },
    {
      "anonymous": false,
      "inputs": [
        {
          "indexed": true,
          "internalType": "address",
          "name": "previousOwner",
          "type": "address"
        },
        {
          "indexed": true,
          "internalType": "address",
          "name": "newOwner",
          "type": "address"
        }
      ],
      "name": "OwnershipTransferred",
      "type": "event"
    },
    {
      "inputs": [],
      "name": "balance",
      "outputs": [
        {
          "internalType": "uint256",
          "name": "",
          "type": "uint256"
        }
      ],
      "stateMutability": "view",
      "type": "function"
    },
    {
      "inputs": [
        {
          "internalType": "string",
          "name": "name",
          "type": "string"
        },
        {
          "internalType": "string",
          "name": "symbol",
          "type": "string"
        },
        {
          "internalType": "uint256",
          "name": "price",
          "type": "uint256"
        },
        {
          "internalType": "uint256",
          "name": "maxSupply",
          "type": "uint256"
        },
        {
          "internalType": "string",
          "name": "imageURL",
          "type": "string"
        }
      ],
      "name": "createERC721",
      "outputs": [
        {
          "internalType": "address",
          "name": "",
          "type": "address"
        }
      ],
      "stateMutability": "payable",
      "type": "function"
    },
    {
      "inputs": [
        {
          "internalType": "address",
          "name": "who",
          "type": "address"
        }
      ],
      "name": "getUserBalance",
      "outputs": [
        {
          "internalType": "uint256",
          "name": "",
          "type": "uint256"
        }
      ],
      "stateMutability": "view",
      "type": "function"
    },
    {
      "inputs": [
        {
          "internalType": "address",
          "name": "user",
          "type": "address"
        }
      ],
      "name": "getUserContracts",
      "outputs": [
        {
          "internalType": "address[]",
          "name": "",
          "type": "address[]"
        }
      ],
      "stateMutability": "view",
      "type": "function"
    },
    {
      "inputs": [],
      "name": "owner",
      "outputs": [
        {
          "internalType": "address",
          "name": "",
          "type": "address"
        }
      ],
      "stateMutability": "view",
      "type": "function"
    },
    {
      "inputs": [],
      "name": "renounceOwnership",
      "outputs": [],
      "stateMutability": "nonpayable",
      "type": "function"
    },
    {
      "inputs": [
        {
          "internalType": "uint256",
          "name": "index",
          "type": "uint256"
        },
        {
          "internalType": "uint256",
          "name": "feeAmount",
          "type": "uint256"
        }
      ],
      "name": "setFee",
      "outputs": [],
      "stateMutability": "nonpayable",
      "type": "function"
    },
    {
      "inputs": [
        {
          "internalType": "address",
          "name": "newOwner",
          "type": "address"
        }
      ],
      "name": "transferOwnership",
      "outputs": [],
      "stateMutability": "nonpayable",
      "type": "function"
    },
    {
      "inputs": [
        {
          "internalType": "uint256",
          "name": "amount",
          "type": "uint256"
        }
      ],
      "name": "withdraw",
      "outputs": [],
      "stateMutability": "payable",
      "type": "function"
    },
    {
      "stateMutability": "payable",
      "type": "receive"
    }
  ],
  "transactionHash": "0x6cf3810bd75467e03ab3a15420984f1ceb7618622e07b2100fdbe3d08b373dac",
  "args": [],
  "numDeployments": 1,
  "solcInputHash": "c9a6ead500a95169f087ecf251831b5d",
  "bytecode": "0x608060405234801561001057600080fd5b5061002d61002261007360201b60201c565b61007b60201b60201c565b33600160006101000a81548173ffffffffffffffffffffffffffffffffffffffff021916908373ffffffffffffffffffffffffffffffffffffffff16021790555061013f565b600033905090565b60008060009054906101000a900473ffffffffffffffffffffffffffffffffffffffff169050816000806101000a81548173ffffffffffffffffffffffffffffffffffffffff021916908373ffffffffffffffffffffffffffffffffffffffff1602179055508173ffffffffffffffffffffffffffffffffffffffff168173ffffffffffffffffffffffffffffffffffffffff167f8be0079c531659141344cd1fd0a4f28419497f9722a3daafe3b4186f6b6457e060405160405180910390a35050565b6151068061014e6000396000f3fe608060405260043610620000975760003560e01c806352f7c988116200006157806352f7c9881462000182578063715018a614620001b05780638da5cb5b14620001ca578063b69ef8a814620001fa578063f2fde38b146200022a576200009f565b80632e1a7d4d14620000a457806334c925f014620000c45780633649a9bd146200010857806347734892146200013e576200009f565b366200009f57005b600080fd5b620000c26004803603810190620000bc91906200080d565b62000258565b005b348015620000d157600080fd5b50620000f06004803603810190620000ea9190620008a4565b6200032b565b604051620000ff9190620009a4565b60405180910390f35b62000126600480360381019062000120919062000b93565b620003fa565b60405162000135919062000c8c565b60405180910390f35b3480156200014b57600080fd5b506200016a6004803603810190620001649190620008a4565b62000502565b60405162000179919062000cba565b60405180910390f35b3480156200018f57600080fd5b50620001ae6004803603810190620001a8919062000cd7565b6200054b565b005b348015620001bd57600080fd5b50620001c86200058c565b005b348015620001d757600080fd5b50620001e2620005a4565b604051620001f1919062000c8c565b60405180910390f35b3480156200020757600080fd5b5062000212620005cd565b60405162000221919062000cba565b60405180910390f35b3480156200023757600080fd5b50620002566004803603810190620002509190620008a4565b620005d5565b005b620002626200065f565b4781116200032857600062000276620006e4565b73ffffffffffffffffffffffffffffffffffffffff16826040516200029b9062000d53565b60006040518083038185875af1925050503d8060008114620002da576040519150601f19603f3d011682016040523d82523d6000602084013e620002df565b606091505b505090508062000326576040517f08c379a00000000000000000000000000000000000000000000000000000000081526004016200031d9062000dcb565b60405180910390fd5b505b50565b6060600660008373ffffffffffffffffffffffffffffffffffffffff1673ffffffffffffffffffffffffffffffffffffffff168152602001908152602001600020805480602002602001604051908101604052809291908181526020018280548015620003ee57602002820191906000526020600020905b8160009054906101000a900473ffffffffffffffffffffffffffffffffffffffff1673ffffffffffffffffffffffffffffffffffffffff1681526020019060010190808311620003a3575b50505050509050919050565b600060025434101562000444576040517f08c379a00000000000000000000000000000000000000000000000000000000081526004016200043b9062000e3d565b60405180910390fd5b6000878787873388886040516200045b90620007b0565b6200046d979695949392919062000f0a565b604051809103906000f0801580156200048a573d6000803e3d6000fd5b5090503373ffffffffffffffffffffffffffffffffffffffff168173ffffffffffffffffffffffffffffffffffffffff167f885ff2ac72301279f7111fa8a37e1d3752db502e4301372f8b411cff87b4060289604051620004ec919062000f8e565b60405180910390a3809150509695505050505050565b6000600560008373ffffffffffffffffffffffffffffffffffffffff1673ffffffffffffffffffffffffffffffffffffffff168152602001908152602001600020549050919050565b620005556200065f565b600082036200056657806002819055505b600182036200057757806003819055505b600282036200058857806004819055505b5050565b620005966200065f565b620005a26000620006ec565b565b60008060009054906101000a900473ffffffffffffffffffffffffffffffffffffffff16905090565b600047905090565b620005df6200065f565b600073ffffffffffffffffffffffffffffffffffffffff168173ffffffffffffffffffffffffffffffffffffffff160362000651576040517f08c379a0000000000000000000000000000000000000000000000000000000008152600401620006489062001028565b60405180910390fd5b6200065c81620006ec565b50565b62000669620006e4565b73ffffffffffffffffffffffffffffffffffffffff1662000689620005a4565b73ffffffffffffffffffffffffffffffffffffffff1614620006e2576040517f08c379a0000000000000000000000000000000000000000000000000000000008152600401620006d9906200109a565b60405180910390fd5b565b600033905090565b60008060009054906101000a900473ffffffffffffffffffffffffffffffffffffffff169050816000806101000a81548173ffffffffffffffffffffffffffffffffffffffff021916908373ffffffffffffffffffffffffffffffffffffffff1602179055508173ffffffffffffffffffffffffffffffffffffffff168173ffffffffffffffffffffffffffffffffffffffff167f8be0079c531659141344cd1fd0a4f28419497f9722a3daafe3b4186f6b6457e060405160405180910390a35050565b61401480620010bd83390190565b6000604051905090565b600080fd5b600080fd5b6000819050919050565b620007e781620007d2565b8114620007f357600080fd5b50565b6000813590506200080781620007dc565b92915050565b600060208284031215620008265762000825620007c8565b5b60006200083684828501620007f6565b91505092915050565b600073ffffffffffffffffffffffffffffffffffffffff82169050919050565b60006200086c826200083f565b9050919050565b6200087e816200085f565b81146200088a57600080fd5b50565b6000813590506200089e8162000873565b92915050565b600060208284031215620008bd57620008bc620007c8565b5b6000620008cd848285016200088d565b91505092915050565b600081519050919050565b600082825260208201905092915050565b6000819050602082019050919050565b6200090d816200085f565b82525050565b600062000921838362000902565b60208301905092915050565b6000602082019050919050565b60006200094782620008d6565b620009538185620008e1565b93506200096083620008f2565b8060005b83811015620009975781516200097b888262000913565b975062000988836200092d565b92505060018101905062000964565b5085935050505092915050565b60006020820190508181036000830152620009c081846200093a565b905092915050565b600080fd5b600080fd5b6000601f19601f8301169050919050565b7f4e487b7100000000000000000000000000000000000000000000000000000000600052604160045260246000fd5b62000a1d82620009d2565b810181811067ffffffffffffffff8211171562000a3f5762000a3e620009e3565b5b80604052505050565b600062000a54620007be565b905062000a62828262000a12565b919050565b600067ffffffffffffffff82111562000a855762000a84620009e3565b5b62000a9082620009d2565b9050602081019050919050565b82818337600083830152505050565b600062000ac362000abd8462000a67565b62000a48565b90508281526020810184848401111562000ae25762000ae1620009cd565b5b62000aef84828562000a9d565b509392505050565b600082601f83011262000b0f5762000b0e620009c8565b5b813562000b2184826020860162000aac565b91505092915050565b600080fd5b600080fd5b60008083601f84011262000b4d5762000b4c620009c8565b5b8235905067ffffffffffffffff81111562000b6d5762000b6c62000b2a565b5b60208301915083600182028301111562000b8c5762000b8b62000b2f565b5b9250929050565b60008060008060008060a0878903121562000bb35762000bb2620007c8565b5b600087013567ffffffffffffffff81111562000bd45762000bd3620007cd565b5b62000be289828a0162000af7565b965050602087013567ffffffffffffffff81111562000c065762000c05620007cd565b5b62000c1489828a0162000af7565b955050604062000c2789828a01620007f6565b945050606062000c3a89828a01620007f6565b935050608087013567ffffffffffffffff81111562000c5e5762000c5d620007cd565b5b62000c6c89828a0162000b34565b92509250509295509295509295565b62000c86816200085f565b82525050565b600060208201905062000ca3600083018462000c7b565b92915050565b62000cb481620007d2565b82525050565b600060208201905062000cd1600083018462000ca9565b92915050565b6000806040838503121562000cf15762000cf0620007c8565b5b600062000d0185828601620007f6565b925050602062000d1485828601620007f6565b9150509250929050565b600081905092915050565b50565b600062000d3b60008362000d1e565b915062000d488262000d29565b600082019050919050565b600062000d608262000d2c565b9150819050919050565b600082825260208201905092915050565b7f43616c6c206661696c6564000000000000000000000000000000000000000000600082015250565b600062000db3600b8362000d6a565b915062000dc08262000d7b565b602082019050919050565b6000602082019050818103600083015262000de68162000da4565b9050919050565b7f6372656174652072657175697265732066656500000000000000000000000000600082015250565b600062000e2560138362000d6a565b915062000e328262000ded565b602082019050919050565b6000602082019050818103600083015262000e588162000e16565b9050919050565b600081519050919050565b60005b8381101562000e8a57808201518184015260208101905062000e6d565b60008484015250505050565b600062000ea38262000e5f565b62000eaf818562000d6a565b935062000ec181856020860162000e6a565b62000ecc81620009d2565b840191505092915050565b600062000ee5838562000d6a565b935062000ef483858462000a9d565b62000eff83620009d2565b840190509392505050565b600060c082019050818103600083015262000f26818a62000e96565b9050818103602083015262000f3c818962000e96565b905062000f4d604083018862000ca9565b62000f5c606083018762000ca9565b62000f6b608083018662000c7b565b81810360a083015262000f8081848662000ed7565b905098975050505050505050565b6000602082019050818103600083015262000faa818462000e96565b905092915050565b7f4f776e61626c653a206e6577206f776e657220697320746865207a65726f206160008201527f6464726573730000000000000000000000000000000000000000000000000000602082015250565b60006200101060268362000d6a565b91506200101d8262000fb2565b604082019050919050565b60006020820190508181036000830152620010438162001001565b9050919050565b7f4f776e61626c653a2063616c6c6572206973206e6f7420746865206f776e6572600082015250565b60006200108260208362000d6a565b91506200108f826200104a565b602082019050919050565b60006020820190508181036000830152620010b58162001073565b905091905056fe60a060405260016009553480156200001657600080fd5b50604051620040143803806200401483398181016040528101906200003c919062000346565b858581600090816200004f919062000680565b50806001908162000061919062000680565b50505083600a81905550826080818152505081600860006101000a81548173ffffffffffffffffffffffffffffffffffffffff021916908373ffffffffffffffffffffffffffffffffffffffff1602179055508060079081620000c5919062000680565b5033600b60006101000a81548173ffffffffffffffffffffffffffffffffffffffff021916908373ffffffffffffffffffffffffffffffffffffffff16021790555050505050505062000767565b6000604051905090565b600080fd5b600080fd5b600080fd5b600080fd5b6000601f19601f8301169050919050565b7f4e487b7100000000000000000000000000000000000000000000000000000000600052604160045260246000fd5b6200017c8262000131565b810181811067ffffffffffffffff821117156200019e576200019d62000142565b5b80604052505050565b6000620001b362000113565b9050620001c1828262000171565b919050565b600067ffffffffffffffff821115620001e457620001e362000142565b5b620001ef8262000131565b9050602081019050919050565b60005b838110156200021c578082015181840152602081019050620001ff565b60008484015250505050565b60006200023f6200023984620001c6565b620001a7565b9050828152602081018484840111156200025e576200025d6200012c565b5b6200026b848285620001fc565b509392505050565b600082601f8301126200028b576200028a62000127565b5b81516200029d84826020860162000228565b91505092915050565b6000819050919050565b620002bb81620002a6565b8114620002c757600080fd5b50565b600081519050620002db81620002b0565b92915050565b600073ffffffffffffffffffffffffffffffffffffffff82169050919050565b60006200030e82620002e1565b9050919050565b620003208162000301565b81146200032c57600080fd5b50565b600081519050620003408162000315565b92915050565b60008060008060008060c087890312156200036657620003656200011d565b5b600087015167ffffffffffffffff81111562000387576200038662000122565b5b6200039589828a0162000273565b965050602087015167ffffffffffffffff811115620003b957620003b862000122565b5b620003c789828a0162000273565b9550506040620003da89828a01620002ca565b9450506060620003ed89828a01620002ca565b93505060806200040089828a016200032f565b92505060a087015167ffffffffffffffff81111562000424576200042362000122565b5b6200043289828a0162000273565b9150509295509295509295565b600081519050919050565b7f4e487b7100000000000000000000000000000000000000000000000000000000600052602260045260246000fd5b600060028204905060018216806200049257607f821691505b602082108103620004a857620004a76200044a565b5b50919050565b60008190508160005260206000209050919050565b60006020601f8301049050919050565b600082821b905092915050565b600060088302620005127fffffffffffffffffffffffffffffffffffffffffffffffffffffffffffffffff82620004d3565b6200051e8683620004d3565b95508019841693508086168417925050509392505050565b6000819050919050565b6000620005616200055b6200055584620002a6565b62000536565b620002a6565b9050919050565b6000819050919050565b6200057d8362000540565b620005956200058c8262000568565b848454620004e0565b825550505050565b600090565b620005ac6200059d565b620005b981848462000572565b505050565b5b81811015620005e157620005d5600082620005a2565b600181019050620005bf565b5050565b601f8211156200063057620005fa81620004ae565b6200060584620004c3565b8101602085101562000615578190505b6200062d6200062485620004c3565b830182620005be565b50505b505050565b600082821c905092915050565b6000620006556000198460080262000635565b1980831691505092915050565b600062000670838362000642565b9150826002028217905092915050565b6200068b826200043f565b67ffffffffffffffff811115620006a757620006a662000142565b5b620006b3825462000479565b620006c0828285620005e5565b600060209050601f831160018114620006f85760008415620006e3578287015190505b620006ef858262000662565b8655506200075f565b601f1984166200070886620004ae565b60005b8281101562000732578489015182556001820191506020850194506020810190506200070b565b868310156200075257848901516200074e601f89168262000642565b8355505b6001600288020188555050505b505050505050565b6080516138916200078360003960006108e401526138916000f3fe60806040526004361061019c5760003560e01c806370a08231116100ec578063b88d4fde1161008a578063da0544aa11610064578063da0544aa1461059a578063e985e9c5146105d7578063f117771214610614578063f2fde38b1461063f5761019c565b8063b88d4fde14610509578063c87b56dd14610532578063c99fe3991461056f5761019c565b806398d5fdca116100c657806398d5fdca146104615780639b642de11461048c578063a22cb465146104b5578063b69ef8a8146104de5761019c565b806370a08231146103ce578063893d20e81461040b57806395d89b41146104365761019c565b806323b872dd1161015957806342842e0e1161013357806342842e0e146103145780636352211e1461033d5780636a1db1bf1461037a5780636c0360eb146103a35761019c565b806323b872dd146102a457806325f9d0e5146102cd5780633ccfd60b1461030a5761019c565b806301ffc9a7146101a157806306fdde03146101de578063081812fc14610209578063095ea7b3146102465780630ee2cb101461026f5780631249c58b1461029a575b600080fd5b3480156101ad57600080fd5b506101c860048036038101906101c391906121d9565b610668565b6040516101d59190612221565b60405180910390f35b3480156101ea57600080fd5b506101f36106c9565b60405161020091906122cc565b60405180910390f35b34801561021557600080fd5b50610230600480360381019061022b9190612324565b61075b565b60405161023d9190612392565b60405180910390f35b34801561025257600080fd5b5061026d600480360381019061026891906123d9565b6107a1565b005b34801561027b57600080fd5b506102846108b8565b6040516102919190612392565b60405180910390f35b6102a26108e2565b005b3480156102b057600080fd5b506102cb60048036038101906102c69190612419565b610ab9565b005b3480156102d957600080fd5b506102f460048036038101906102ef919061246c565b610b19565b60405161030191906124a8565b60405180910390f35b610312610b62565b005b34801561032057600080fd5b5061033b60048036038101906103369190612419565b610c13565b005b34801561034957600080fd5b50610364600480360381019061035f9190612324565b610c33565b6040516103719190612392565b60405180910390f35b34801561038657600080fd5b506103a1600480360381019061039c9190612324565b610cb9565b005b3480156103af57600080fd5b506103b8610d53565b6040516103c591906122cc565b60405180910390f35b3480156103da57600080fd5b506103f560048036038101906103f0919061246c565b610de5565b60405161040291906124a8565b60405180910390f35b34801561041757600080fd5b50610420610e9c565b60405161042d9190612392565b60405180910390f35b34801561044257600080fd5b5061044b610ec6565b60405161045891906122cc565b60405180910390f35b34801561046d57600080fd5b50610476610f58565b60405161048391906124a8565b60405180910390f35b34801561049857600080fd5b506104b360048036038101906104ae91906125f8565b610f62565b005b3480156104c157600080fd5b506104dc60048036038101906104d7919061266d565b611005565b005b3480156104ea57600080fd5b506104f361101b565b60405161050091906124a8565b60405180910390f35b34801561051557600080fd5b50610530600480360381019061052b919061274e565b611023565b005b34801561053e57600080fd5b5061055960048036038101906105549190612324565b611085565b60405161056691906122cc565b60405180910390f35b34801561057b57600080fd5b50610584611127565b60405161059191906124a8565b60405180910390f35b3480156105a657600080fd5b506105c160048036038101906105bc9190612324565b611131565b6040516105ce91906122cc565b60405180910390f35b3480156105e357600080fd5b506105fe60048036038101906105f991906127d1565b611143565b60405161060b9190612221565b60405180910390f35b34801561062057600080fd5b506106296111d7565b6040516106369190612392565b60405180910390f35b34801561064b57600080fd5b506106666004803603810190610661919061246c565b611201565b005b6000634906490660e01b7bffffffffffffffffffffffffffffffffffffffffffffffffffffffff1916827bffffffffffffffffffffffffffffffffffffffffffffffffffffffff191614806106c257506106c1826112d5565b5b9050919050565b6060600080546106d890612840565b80601f016020809104026020016040519081016040528092919081815260200182805461070490612840565b80156107515780601f1061072657610100808354040283529160200191610751565b820191906000526020600020905b81548152906001019060200180831161073457829003601f168201915b5050505050905090565b6000610766826113b7565b6004600083815260200190815260200160002060009054906101000a900473ffffffffffffffffffffffffffffffffffffffff169050919050565b60006107ac82610c33565b90508073ffffffffffffffffffffffffffffffffffffffff168373ffffffffffffffffffffffffffffffffffffffff160361081c576040517f08c379a0000000000000000000000000000000000000000000000000000000008152600401610813906128e3565b60405180910390fd5b8073ffffffffffffffffffffffffffffffffffffffff1661083b611402565b73ffffffffffffffffffffffffffffffffffffffff16148061086a575061086981610864611402565b611143565b5b6108a9576040517f08c379a00000000000000000000000000000000000000000000000000000000081526004016108a090612975565b60405180910390fd5b6108b3838361140a565b505050565b6000600b60009054906101000a900473ffffffffffffffffffffffffffffffffffffffff16905090565b7f00000000000000000000000000000000000000000000000000000000000000006009541115610947576040517f08c379a000000000000000000000000000000000000000000000000000000000815260040161093e906129e1565b60405180910390fd5b600a5434101561098c576040517f08c379a000000000000000000000000000000000000000000000000000000000815260040161098390612a4d565b60405180910390fd5b6000600b60009054906101000a900473ffffffffffffffffffffffffffffffffffffffff1673ffffffffffffffffffffffffffffffffffffffff166108fc6064600a546109d99190612acb565b9081150290604051600060405180830381858888f1935050505090508015610ab657610a07336009546114c3565b610a9d60095460078054610a1a90612840565b80601f0160208091040260200160405190810160405280929190818152602001828054610a4690612840565b8015610a935780601f10610a6857610100808354040283529160200191610a93565b820191906000526020600020905b815481529060010190602001808311610a7657829003601f168201915b50505050506116e0565b60096000815480929190610ab090612afc565b91905055505b50565b610aca610ac4611402565b82611784565b610b09576040517f08c379a0000000000000000000000000000000000000000000000000000000008152600401610b0090612bb6565b60405180910390fd5b610b14838383611819565b505050565b6000601160008373ffffffffffffffffffffffffffffffffffffffff1673ffffffffffffffffffffffffffffffffffffffff168152602001908152602001600020549050919050565b60003373ffffffffffffffffffffffffffffffffffffffff1647604051610b8890612c07565b60006040518083038185875af1925050503d8060008114610bc5576040519150601f19603f3d011682016040523d82523d6000602084013e610bca565b606091505b505090508015610c10577f9b1bfa7fa9ee420a16e124f794c35ac9f90472acc99140eb2f6447c714cad8eb333047604051610c0793929190612c1c565b60405180910390a15b50565b610c2e83838360405180602001604052806000815250611023565b505050565b600080610c3f83611b12565b9050600073ffffffffffffffffffffffffffffffffffffffff168173ffffffffffffffffffffffffffffffffffffffff1603610cb0576040517f08c379a0000000000000000000000000000000000000000000000000000000008152600401610ca790612c9f565b60405180910390fd5b80915050919050565b600860009054906101000a900473ffffffffffffffffffffffffffffffffffffffff1673ffffffffffffffffffffffffffffffffffffffff163373ffffffffffffffffffffffffffffffffffffffff1614610d49576040517f08c379a0000000000000000000000000000000000000000000000000000000008152600401610d4090612d0b565b60405180910390fd5b80600a8190555050565b606060078054610d6290612840565b80601f0160208091040260200160405190810160405280929190818152602001828054610d8e90612840565b8015610ddb5780601f10610db057610100808354040283529160200191610ddb565b820191906000526020600020905b815481529060010190602001808311610dbe57829003601f168201915b5050505050905090565b60008073ffffffffffffffffffffffffffffffffffffffff168273ffffffffffffffffffffffffffffffffffffffff1603610e55576040517f08c379a0000000000000000000000000000000000000000000000000000000008152600401610e4c90612d9d565b60405180910390fd5b600360008373ffffffffffffffffffffffffffffffffffffffff1673ffffffffffffffffffffffffffffffffffffffff168152602001908152602001600020549050919050565b6000600860009054906101000a900473ffffffffffffffffffffffffffffffffffffffff16905090565b606060018054610ed590612840565b80601f0160208091040260200160405190810160405280929190818152602001828054610f0190612840565b8015610f4e5780601f10610f2357610100808354040283529160200191610f4e565b820191906000526020600020905b815481529060010190602001808311610f3157829003601f168201915b5050505050905090565b6000600a54905090565b600860009054906101000a900473ffffffffffffffffffffffffffffffffffffffff1673ffffffffffffffffffffffffffffffffffffffff163373ffffffffffffffffffffffffffffffffffffffff1614610ff2576040517f08c379a0000000000000000000000000000000000000000000000000000000008152600401610fe990612d0b565b60405180910390fd5b80600790816110019190612f69565b5050565b611017611010611402565b8383611b4f565b5050565b600047905090565b61103461102e611402565b83611784565b611073576040517f08c379a000000000000000000000000000000000000000000000000000000000815260040161106a90612bb6565b60405180910390fd5b61107f84848484611cbb565b50505050565b606061109082611d17565b6110c6576040517f6df5edae00000000000000000000000000000000000000000000000000000000815260040160405180910390fd5b6110ce611d58565b6111006110d96106c9565b60076040516020016110ec9291906132c2565b604051602081830303815290604052611dea565b604051602001611111929190613312565b6040516020818303038152906040529050919050565b6000600c54905090565b606061113c82611085565b9050919050565b6000600560008473ffffffffffffffffffffffffffffffffffffffff1673ffffffffffffffffffffffffffffffffffffffff16815260200190815260200160002060008373ffffffffffffffffffffffffffffffffffffffff1673ffffffffffffffffffffffffffffffffffffffff16815260200190815260200160002060009054906101000a900460ff16905092915050565b6000600b60009054906101000a900473ffffffffffffffffffffffffffffffffffffffff16905090565b600860009054906101000a900473ffffffffffffffffffffffffffffffffffffffff1673ffffffffffffffffffffffffffffffffffffffff163373ffffffffffffffffffffffffffffffffffffffff1614611291576040517f08c379a000000000000000000000000000000000000000000000000000000000815260040161128890612d0b565b60405180910390fd5b80600860006101000a81548173ffffffffffffffffffffffffffffffffffffffff021916908373ffffffffffffffffffffffffffffffffffffffff16021790555050565b60007f80ac58cd000000000000000000000000000000000000000000000000000000007bffffffffffffffffffffffffffffffffffffffffffffffffffffffff1916827bffffffffffffffffffffffffffffffffffffffffffffffffffffffff191614806113a057507f5b5e139f000000000000000000000000000000000000000000000000000000007bffffffffffffffffffffffffffffffffffffffffffffffffffffffff1916827bffffffffffffffffffffffffffffffffffffffffffffffffffffffff1916145b806113b057506113af82611f4d565b5b9050919050565b6113c081611d17565b6113ff576040517f08c379a00000000000000000000000000000000000000000000000000000000081526004016113f690612c9f565b60405180910390fd5b50565b600033905090565b816004600083815260200190815260200160002060006101000a81548173ffffffffffffffffffffffffffffffffffffffff021916908373ffffffffffffffffffffffffffffffffffffffff160217905550808273ffffffffffffffffffffffffffffffffffffffff1661147d83610c33565b73ffffffffffffffffffffffffffffffffffffffff167f8c5be1e5ebec7d5bd14f71427d1e84f3dd0314c0f7b2291e5b200ac8c7c3b92560405160405180910390a45050565b600073ffffffffffffffffffffffffffffffffffffffff168273ffffffffffffffffffffffffffffffffffffffff1603611532576040517f08c379a000000000000000000000000000000000000000000000000000000000815260040161152990613382565b60405180910390fd5b61153b81611d17565b1561157b576040517f08c379a0000000000000000000000000000000000000000000000000000000008152600401611572906133ee565b60405180910390fd5b611589600083836001611fb7565b61159281611d17565b156115d2576040517f08c379a00000000000000000000000000000000000000000000000000000000081526004016115c9906133ee565b60405180910390fd5b6001600360008473ffffffffffffffffffffffffffffffffffffffff1673ffffffffffffffffffffffffffffffffffffffff16815260200190815260200160002060008282540192505081905550816002600083815260200190815260200160002060006101000a81548173ffffffffffffffffffffffffffffffffffffffff021916908373ffffffffffffffffffffffffffffffffffffffff160217905550808273ffffffffffffffffffffffffffffffffffffffff16600073ffffffffffffffffffffffffffffffffffffffff167fddf252ad1be2c89b69c2b068fc378daa952ba7f163c4a11628f55a4df523b3ef60405160405180910390a46116dc600083836001611fbd565b5050565b6116e982611d17565b611728576040517f08c379a000000000000000000000000000000000000000000000000000000000815260040161171f90613480565b60405180910390fd5b806006600084815260200190815260200160002090816117489190612f69565b507ff8e1a15aba9398e019f0b49df1a4fde98ee17ae345cb5f6b5e2c27f5033e8ce78260405161177891906124a8565b60405180910390a15050565b60008061179083610c33565b90508073ffffffffffffffffffffffffffffffffffffffff168473ffffffffffffffffffffffffffffffffffffffff1614806117d257506117d18185611143565b5b8061181057508373ffffffffffffffffffffffffffffffffffffffff166117f88461075b565b73ffffffffffffffffffffffffffffffffffffffff16145b91505092915050565b8273ffffffffffffffffffffffffffffffffffffffff1661183982610c33565b73ffffffffffffffffffffffffffffffffffffffff161461188f576040517f08c379a000000000000000000000000000000000000000000000000000000000815260040161188690613512565b60405180910390fd5b600073ffffffffffffffffffffffffffffffffffffffff168273ffffffffffffffffffffffffffffffffffffffff16036118fe576040517f08c379a00000000000000000000000000000000000000000000000000000000081526004016118f5906135a4565b60405180910390fd5b61190b8383836001611fb7565b8273ffffffffffffffffffffffffffffffffffffffff1661192b82610c33565b73ffffffffffffffffffffffffffffffffffffffff1614611981576040517f08c379a000000000000000000000000000000000000000000000000000000000815260040161197890613512565b60405180910390fd5b6004600082815260200190815260200160002060006101000a81549073ffffffffffffffffffffffffffffffffffffffff02191690556001600360008573ffffffffffffffffffffffffffffffffffffffff1673ffffffffffffffffffffffffffffffffffffffff168152602001908152602001600020600082825403925050819055506001600360008473ffffffffffffffffffffffffffffffffffffffff1673ffffffffffffffffffffffffffffffffffffffff16815260200190815260200160002060008282540192505081905550816002600083815260200190815260200160002060006101000a81548173ffffffffffffffffffffffffffffffffffffffff021916908373ffffffffffffffffffffffffffffffffffffffff160217905550808273ffffffffffffffffffffffffffffffffffffffff168473ffffffffffffffffffffffffffffffffffffffff167fddf252ad1be2c89b69c2b068fc378daa952ba7f163c4a11628f55a4df523b3ef60405160405180910390a4611b0d8383836001611fbd565b505050565b60006002600083815260200190815260200160002060009054906101000a900473ffffffffffffffffffffffffffffffffffffffff169050919050565b8173ffffffffffffffffffffffffffffffffffffffff168373ffffffffffffffffffffffffffffffffffffffff1603611bbd576040517f08c379a0000000000000000000000000000000000000000000000000000000008152600401611bb490613610565b60405180910390fd5b80600560008573ffffffffffffffffffffffffffffffffffffffff1673ffffffffffffffffffffffffffffffffffffffff16815260200190815260200160002060008473ffffffffffffffffffffffffffffffffffffffff1673ffffffffffffffffffffffffffffffffffffffff16815260200190815260200160002060006101000a81548160ff0219169083151502179055508173ffffffffffffffffffffffffffffffffffffffff168373ffffffffffffffffffffffffffffffffffffffff167f17307eab39ab6107e8899845ad3d59bd9653f200f220920489ca2b5937696c3183604051611cae9190612221565b60405180910390a3505050565b611cc6848484611819565b611cd284848484611fc3565b611d11576040517f08c379a0000000000000000000000000000000000000000000000000000000008152600401611d08906136a2565b60405180910390fd5b50505050565b60008073ffffffffffffffffffffffffffffffffffffffff16611d3983611b12565b73ffffffffffffffffffffffffffffffffffffffff1614159050919050565b606060078054611d6790612840565b80601f0160208091040260200160405190810160405280929190818152602001828054611d9390612840565b8015611de05780601f10611db557610100808354040283529160200191611de0565b820191906000526020600020905b815481529060010190602001808311611dc357829003601f168201915b5050505050905090565b60606000825103611e0c57604051806020016040528060008152509050611f48565b600060405180606001604052806040815260200161381c6040913990506000600360028551611e3b91906136c2565b611e459190612acb565b6004611e5191906136f6565b67ffffffffffffffff811115611e6a57611e696124cd565b5b6040519080825280601f01601f191660200182016040528015611e9c5781602001600182028036833780820191505090505b509050600182016020820185865187015b80821015611f08576003820191508151603f8160121c168501518453600184019350603f81600c1c168501518453600184019350603f8160061c168501518453600184019350603f8116850151845360018401935050611ead565b5050600386510660018114611f245760028114611f3757611f3f565b603d6001830353603d6002830353611f3f565b603d60018303535b50505080925050505b919050565b60007f01ffc9a7000000000000000000000000000000000000000000000000000000007bffffffffffffffffffffffffffffffffffffffffffffffffffffffff1916827bffffffffffffffffffffffffffffffffffffffffffffffffffffffff1916149050919050565b50505050565b50505050565b6000611fe48473ffffffffffffffffffffffffffffffffffffffff1661214a565b1561213d578373ffffffffffffffffffffffffffffffffffffffff1663150b7a0261200d611402565b8786866040518563ffffffff1660e01b815260040161202f949392919061378d565b6020604051808303816000875af192505050801561206b57506040513d601f19601f8201168201806040525081019061206891906137ee565b60015b6120ed573d806000811461209b576040519150601f19603f3d011682016040523d82523d6000602084013e6120a0565b606091505b5060008151036120e5576040517f08c379a00000000000000000000000000000000000000000000000000000000081526004016120dc906136a2565b60405180910390fd5b805181602001fd5b63150b7a0260e01b7bffffffffffffffffffffffffffffffffffffffffffffffffffffffff1916817bffffffffffffffffffffffffffffffffffffffffffffffffffffffff191614915050612142565b600190505b949350505050565b6000808273ffffffffffffffffffffffffffffffffffffffff163b119050919050565b6000604051905090565b600080fd5b600080fd5b60007fffffffff0000000000000000000000000000000000000000000000000000000082169050919050565b6121b681612181565b81146121c157600080fd5b50565b6000813590506121d3816121ad565b92915050565b6000602082840312156121ef576121ee612177565b5b60006121fd848285016121c4565b91505092915050565b60008115159050919050565b61221b81612206565b82525050565b60006020820190506122366000830184612212565b92915050565b600081519050919050565b600082825260208201905092915050565b60005b8381101561227657808201518184015260208101905061225b565b60008484015250505050565b6000601f19601f8301169050919050565b600061229e8261223c565b6122a88185612247565b93506122b8818560208601612258565b6122c181612282565b840191505092915050565b600060208201905081810360008301526122e68184612293565b905092915050565b6000819050919050565b612301816122ee565b811461230c57600080fd5b50565b60008135905061231e816122f8565b92915050565b60006020828403121561233a57612339612177565b5b60006123488482850161230f565b91505092915050565b600073ffffffffffffffffffffffffffffffffffffffff82169050919050565b600061237c82612351565b9050919050565b61238c81612371565b82525050565b60006020820190506123a76000830184612383565b92915050565b6123b681612371565b81146123c157600080fd5b50565b6000813590506123d3816123ad565b92915050565b600080604083850312156123f0576123ef612177565b5b60006123fe858286016123c4565b925050602061240f8582860161230f565b9150509250929050565b60008060006060848603121561243257612431612177565b5b6000612440868287016123c4565b9350506020612451868287016123c4565b92505060406124628682870161230f565b9150509250925092565b60006020828403121561248257612481612177565b5b6000612490848285016123c4565b91505092915050565b6124a2816122ee565b82525050565b60006020820190506124bd6000830184612499565b92915050565b600080fd5b600080fd5b7f4e487b7100000000000000000000000000000000000000000000000000000000600052604160045260246000fd5b61250582612282565b810181811067ffffffffffffffff82111715612524576125236124cd565b5b80604052505050565b600061253761216d565b905061254382826124fc565b919050565b600067ffffffffffffffff821115612563576125626124cd565b5b61256c82612282565b9050602081019050919050565b82818337600083830152505050565b600061259b61259684612548565b61252d565b9050828152602081018484840111156125b7576125b66124c8565b5b6125c2848285612579565b509392505050565b600082601f8301126125df576125de6124c3565b5b81356125ef848260208601612588565b91505092915050565b60006020828403121561260e5761260d612177565b5b600082013567ffffffffffffffff81111561262c5761262b61217c565b5b612638848285016125ca565b91505092915050565b61264a81612206565b811461265557600080fd5b50565b60008135905061266781612641565b92915050565b6000806040838503121561268457612683612177565b5b6000612692858286016123c4565b92505060206126a385828601612658565b9150509250929050565b600067ffffffffffffffff8211156126c8576126c76124cd565b5b6126d182612282565b9050602081019050919050565b60006126f16126ec846126ad565b61252d565b90508281526020810184848401111561270d5761270c6124c8565b5b612718848285612579565b509392505050565b600082601f830112612735576127346124c3565b5b81356127458482602086016126de565b91505092915050565b6000806000806080858703121561276857612767612177565b5b6000612776878288016123c4565b9450506020612787878288016123c4565b93505060406127988782880161230f565b925050606085013567ffffffffffffffff8111156127b9576127b861217c565b5b6127c587828801612720565b91505092959194509250565b600080604083850312156127e8576127e7612177565b5b60006127f6858286016123c4565b9250506020612807858286016123c4565b9150509250929050565b7f4e487b7100000000000000000000000000000000000000000000000000000000600052602260045260246000fd5b6000600282049050600182168061285857607f821691505b60208210810361286b5761286a612811565b5b50919050565b7f4552433732313a20617070726f76616c20746f2063757272656e74206f776e6560008201527f7200000000000000000000000000000000000000000000000000000000000000602082015250565b60006128cd602183612247565b91506128d882612871565b604082019050919050565b600060208201905081810360008301526128fc816128c0565b9050919050565b7f4552433732313a20617070726f76652063616c6c6572206973206e6f7420746f60008201527f6b656e206f776e6572206f7220617070726f76656420666f7220616c6c000000602082015250565b600061295f603d83612247565b915061296a82612903565b604082019050919050565b6000602082019050818103600083015261298e81612952565b9050919050565b7f4d6178696d756e206e756d62657220776173206d696e74656400000000000000600082015250565b60006129cb601983612247565b91506129d682612995565b602082019050919050565b600060208201905081810360008301526129fa816129be565b9050919050565b7f496e73756666696369656e74206d696e74206665650000000000000000000000600082015250565b6000612a37601583612247565b9150612a4282612a01565b602082019050919050565b60006020820190508181036000830152612a6681612a2a565b9050919050565b7f4e487b7100000000000000000000000000000000000000000000000000000000600052601260045260246000fd5b7f4e487b7100000000000000000000000000000000000000000000000000000000600052601160045260246000fd5b6000612ad6826122ee565b9150612ae1836122ee565b925082612af157612af0612a6d565b5b828204905092915050565b6000612b07826122ee565b91507fffffffffffffffffffffffffffffffffffffffffffffffffffffffffffffffff8203612b3957612b38612a9c565b5b600182019050919050565b7f4552433732313a2063616c6c6572206973206e6f7420746f6b656e206f776e6560008201527f72206f7220617070726f76656400000000000000000000000000000000000000602082015250565b6000612ba0602d83612247565b9150612bab82612b44565b604082019050919050565b60006020820190508181036000830152612bcf81612b93565b9050919050565b600081905092915050565b50565b6000612bf1600083612bd6565b9150612bfc82612be1565b600082019050919050565b6000612c1282612be4565b9150819050919050565b6000606082019050612c316000830186612383565b612c3e6020830185612383565b612c4b6040830184612499565b949350505050565b7f4552433732313a20696e76616c696420746f6b656e2049440000000000000000600082015250565b6000612c89601883612247565b9150612c9482612c53565b602082019050919050565b60006020820190508181036000830152612cb881612c7c565b9050919050565b7f4f6e6c79206f776e657200000000000000000000000000000000000000000000600082015250565b6000612cf5600a83612247565b9150612d0082612cbf565b602082019050919050565b60006020820190508181036000830152612d2481612ce8565b9050919050565b7f4552433732313a2061646472657373207a65726f206973206e6f74206120766160008201527f6c6964206f776e65720000000000000000000000000000000000000000000000602082015250565b6000612d87602983612247565b9150612d9282612d2b565b604082019050919050565b60006020820190508181036000830152612db681612d7a565b9050919050565b60008190508160005260206000209050919050565b60006020601f8301049050919050565b600082821b905092915050565b600060088302612e1f7fffffffffffffffffffffffffffffffffffffffffffffffffffffffffffffffff82612de2565b612e298683612de2565b95508019841693508086168417925050509392505050565b6000819050919050565b6000612e66612e61612e5c846122ee565b612e41565b6122ee565b9050919050565b6000819050919050565b612e8083612e4b565b612e94612e8c82612e6d565b848454612def565b825550505050565b600090565b612ea9612e9c565b612eb4818484612e77565b505050565b5b81811015612ed857612ecd600082612ea1565b600181019050612eba565b5050565b601f821115612f1d57612eee81612dbd565b612ef784612dd2565b81016020851015612f06578190505b612f1a612f1285612dd2565b830182612eb9565b50505b505050565b600082821c905092915050565b6000612f4060001984600802612f22565b1980831691505092915050565b6000612f598383612f2f565b9150826002028217905092915050565b612f728261223c565b67ffffffffffffffff811115612f8b57612f8a6124cd565b5b612f958254612840565b612fa0828285612edc565b600060209050601f831160018114612fd35760008415612fc1578287015190505b612fcb8582612f4d565b865550613033565b601f198416612fe186612dbd565b60005b8281101561300957848901518255600182019150602085019450602081019050612fe4565b868310156130265784890151613022601f891682612f2f565b8355505b6001600288020188555050505b505050505050565b600081905092915050565b7f7b226e616d65223a220000000000000000000000000000000000000000000000600082015250565b600061307c60098361303b565b915061308782613046565b600982019050919050565b600061309d8261223c565b6130a7818561303b565b93506130b7818560208601612258565b80840191505092915050565b7f222c20226465736372697074696f6e223a22416e204e465420736d617274206360008201527f6f6e747261637420746861742067656e65726174656420627920494e5645535760208201527f45455420736d61727420636f6e7472616374222c200000000000000000000000604082015250565b600061314560558361303b565b9150613150826130c3565b605582019050919050565b7f2261747472696275746573223a205b7b2274726169745f74797065223a20226360008201527f6f6f6c6e657373222c202276616c7565223a203130307d5d2c2022696d61676560208201527f223a220000000000000000000000000000000000000000000000000000000000604082015250565b60006131dd60438361303b565b91506131e88261315b565b604382019050919050565b6000815461320081612840565b61320a818661303b565b94506001821660008114613225576001811461323a5761326d565b60ff198316865281151582028601935061326d565b61324385612dbd565b60005b8381101561326557815481890152600182019150602081019050613246565b838801955050505b50505092915050565b7f227d000000000000000000000000000000000000000000000000000000000000600082015250565b60006132ac60028361303b565b91506132b782613276565b600282019050919050565b60006132cd8261306f565b91506132d98285613092565b91506132e482613138565b91506132ef826131d0565b91506132fb82846131f3565b91506133068261329f565b91508190509392505050565b600061331e8285613092565b915061332a8284613092565b91508190509392505050565b7f4552433732313a206d696e7420746f20746865207a65726f2061646472657373600082015250565b600061336c602083612247565b915061337782613336565b602082019050919050565b6000602082019050818103600083015261339b8161335f565b9050919050565b7f4552433732313a20746f6b656e20616c7265616479206d696e74656400000000600082015250565b60006133d8601c83612247565b91506133e3826133a2565b602082019050919050565b60006020820190508181036000830152613407816133cb565b9050919050565b7f45524337323155524953746f726167653a2055524920736574206f66206e6f6e60008201527f6578697374656e7420746f6b656e000000000000000000000000000000000000602082015250565b600061346a602e83612247565b91506134758261340e565b604082019050919050565b600060208201905081810360008301526134998161345d565b9050919050565b7f4552433732313a207472616e736665722066726f6d20696e636f72726563742060008201527f6f776e6572000000000000000000000000000000000000000000000000000000602082015250565b60006134fc602583612247565b9150613507826134a0565b604082019050919050565b6000602082019050818103600083015261352b816134ef565b9050919050565b7f4552433732313a207472616e7366657220746f20746865207a65726f2061646460008201527f7265737300000000000000000000000000000000000000000000000000000000602082015250565b600061358e602483612247565b915061359982613532565b604082019050919050565b600060208201905081810360008301526135bd81613581565b9050919050565b7f4552433732313a20617070726f766520746f2063616c6c657200000000000000600082015250565b60006135fa601983612247565b9150613605826135c4565b602082019050919050565b60006020820190508181036000830152613629816135ed565b9050919050565b7f4552433732313a207472616e7366657220746f206e6f6e20455243373231526560008201527f63656976657220696d706c656d656e7465720000000000000000000000000000602082015250565b600061368c603283612247565b915061369782613630565b604082019050919050565b600060208201905081810360008301526136bb8161367f565b9050919050565b60006136cd826122ee565b91506136d8836122ee565b92508282019050808211156136f0576136ef612a9c565b5b92915050565b6000613701826122ee565b915061370c836122ee565b925082820261371a816122ee565b9150828204841483151761373157613730612a9c565b5b5092915050565b600081519050919050565b600082825260208201905092915050565b600061375f82613738565b6137698185613743565b9350613779818560208601612258565b61378281612282565b840191505092915050565b60006080820190506137a26000830187612383565b6137af6020830186612383565b6137bc6040830185612499565b81810360608301526137ce8184613754565b905095945050505050565b6000815190506137e8816121ad565b92915050565b60006020828403121561380457613803612177565b5b6000613812848285016137d9565b9150509291505056fe4142434445464748494a4b4c4d4e4f505152535455565758595a6162636465666768696a6b6c6d6e6f707172737475767778797a303132333435363738392b2fa26469706673582212200450640929eefaa8f6f6c78f586945d1f3f6fd3756f4dd658b885bfea93e96bb64736f6c63430008110033a2646970667358221220aad3a1b08b595793ee7114cdaa9d640a5abf57e2140e0d33debee19aca9293d064736f6c63430008110033",
  "devdoc": {
    "kind": "dev",
    "methods": {
      "owner()": {
        "details": "Returns the address of the current owner."
      },
      "renounceOwnership()": {
        "details": "Leaves the contract without owner. It will not be possible to call `onlyOwner` functions. Can only be called by the current owner. NOTE: Renouncing ownership will leave the contract without an owner, thereby disabling any functionality that is only available to the owner."
      },
      "transferOwnership(address)": {
        "details": "Transfers ownership of the contract to a new account (`newOwner`). Can only be called by the current owner."
      }
    },
    "version": 1
  },
  "userdoc": {
    "kind": "user",
    "methods": {},
    "version": 1
  },
  "storageLayout": {
    "storage": [
      {
        "astId": 7,
        "contract": "contracts/Creator.sol:Creator",
        "label": "_owner",
        "offset": 0,
        "slot": "0",
        "type": "t_address"
      },
      {
        "astId": 3035,
        "contract": "contracts/Creator.sol:Creator",
        "label": "s_owner",
        "offset": 0,
        "slot": "1",
        "type": "t_address"
      },
      {
        "astId": 3037,
        "contract": "contracts/Creator.sol:Creator",
        "label": "deployCost",
        "offset": 0,
        "slot": "2",
        "type": "t_uint256"
      },
      {
        "astId": 3039,
        "contract": "contracts/Creator.sol:Creator",
        "label": "mintFee",
        "offset": 0,
        "slot": "3",
        "type": "t_uint256"
      },
      {
        "astId": 3041,
        "contract": "contracts/Creator.sol:Creator",
        "label": "withdrawalFee",
        "offset": 0,
        "slot": "4",
        "type": "t_uint256"
      },
      {
        "astId": 3045,
        "contract": "contracts/Creator.sol:Creator",
        "label": "balances",
        "offset": 0,
        "slot": "5",
        "type": "t_mapping(t_address,t_uint256)"
      },
      {
        "astId": 3050,
        "contract": "contracts/Creator.sol:Creator",
        "label": "addressToContracts",
        "offset": 0,
        "slot": "6",
        "type": "t_mapping(t_address,t_array(t_address)dyn_storage)"
      }
    ],
    "types": {
      "t_address": {
        "encoding": "inplace",
        "label": "address",
        "numberOfBytes": "20"
      },
      "t_array(t_address)dyn_storage": {
        "base": "t_address",
        "encoding": "dynamic_array",
        "label": "address[]",
        "numberOfBytes": "32"
      },
      "t_mapping(t_address,t_array(t_address)dyn_storage)": {
        "encoding": "mapping",
        "key": "t_address",
        "label": "mapping(address => address[])",
        "numberOfBytes": "32",
        "value": "t_array(t_address)dyn_storage"
      },
      "t_mapping(t_address,t_uint256)": {
        "encoding": "mapping",
        "key": "t_address",
        "label": "mapping(address => uint256)",
        "numberOfBytes": "32",
        "value": "t_uint256"
      },
      "t_uint256": {
        "encoding": "inplace",
        "label": "uint256",
        "numberOfBytes": "32"
      }
    }
  }
}