{
  "address": "0x5FbDB2315678afecb367f032d93F642f64180aa3",
  "abi": [
    {
      "inputs": [],
      "stateMutability": "nonpayable",
      "type": "constructor"
    },
    {
      "inputs": [
        {
          "internalType": "string",
          "name": "name",
          "type": "string"
        },
        {
          "internalType": "string",
          "name": "symbol",
          "type": "string"
        },
        {
          "internalType": "uint256",
          "name": "maxSupply",
          "type": "uint256"
        },
        {
          "internalType": "uint256",
          "name": "firstSupply",
          "type": "uint256"
        },
        {
          "internalType": "uint256",
          "name": "mineReward",
          "type": "uint256"
        },
        {
          "internalType": "uint256",
          "name": "decimals",
          "type": "uint256"
        }
      ],
      "name": "create",
      "outputs": [],
      "stateMutability": "nonpayable",
      "type": "function"
    }
  ],
  "transactionHash": "0x873e28d2a3027b4f0ec876638fc8860b0dd138457f8a3cb015970499276c45dd",
  "args": [],
  "numDeployments": 1,
  "solcInputHash": "25e53f80eb776a0fa7133691752eb1f2",
  "bytecode": "0x60a060405234801561001057600080fd5b503373ffffffffffffffffffffffffffffffffffffffff1660808173ffffffffffffffffffffffffffffffffffffffff16815250506080516102df61005d600039600050506102df6000f3fe608060405234801561001057600080fd5b506004361061002b5760003560e01c80639478f9e714610030575b600080fd5b61004a600480360381019061004591906101e4565b61004c565b005b505050505050565b6000604051905090565b600080fd5b600080fd5b600080fd5b600080fd5b6000601f19601f8301169050919050565b7f4e487b7100000000000000000000000000000000000000000000000000000000600052604160045260246000fd5b6100bb82610072565b810181811067ffffffffffffffff821117156100da576100d9610083565b5b80604052505050565b60006100ed610054565b90506100f982826100b2565b919050565b600067ffffffffffffffff82111561011957610118610083565b5b61012282610072565b9050602081019050919050565b82818337600083830152505050565b600061015161014c846100fe565b6100e3565b90508281526020810184848401111561016d5761016c61006d565b5b61017884828561012f565b509392505050565b600082601f83011261019557610194610068565b5b81356101a584826020860161013e565b91505092915050565b6000819050919050565b6101c1816101ae565b81146101cc57600080fd5b50565b6000813590506101de816101b8565b92915050565b60008060008060008060c087890312156102015761020061005e565b5b600087013567ffffffffffffffff81111561021f5761021e610063565b5b61022b89828a01610180565b965050602087013567ffffffffffffffff81111561024c5761024b610063565b5b61025889828a01610180565b955050604061026989828a016101cf565b945050606061027a89828a016101cf565b935050608061028b89828a016101cf565b92505060a061029c89828a016101cf565b915050929550929550929556fea264697066735822122040ba465505d916dfb6a8cc63d821753f6afa8d87bd3f2f24f8dd648c1f22abc264736f6c63430008110033",
  "devdoc": {
    "kind": "dev",
    "methods": {},
    "version": 1
  },
  "userdoc": {
    "kind": "user",
    "methods": {},
    "version": 1
  },
  "storageLayout": {
    "storage": [],
    "types": null
  }
}