{
  "address": "0xe7f1725E7734CE288F8367e1Bb143E90bb3F0512",
  "abi": [
    {
      "inputs": [
        {
          "internalType": "string",
          "name": "name",
          "type": "string"
        },
        {
          "internalType": "string",
          "name": "symbol",
          "type": "string"
        },
        {
          "internalType": "uint256",
          "name": "fee",
          "type": "uint256"
        },
        {
          "internalType": "uint256",
          "name": "maxSupply",
          "type": "uint256"
        },
        {
          "internalType": "address",
          "name": "owner",
          "type": "address"
        },
        {
          "internalType": "string",
          "name": "imgUrl",
          "type": "string"
        }
      ],
      "stateMutability": "nonpayable",
      "type": "constructor"
    },
    {
      "anonymous": false,
      "inputs": [
        {
          "indexed": true,
          "internalType": "address",
          "name": "owner",
          "type": "address"
        },
        {
          "indexed": true,
          "internalType": "address",
          "name": "approved",
          "type": "address"
        },
        {
          "indexed": true,
          "internalType": "uint256",
          "name": "tokenId",
          "type": "uint256"
        }
      ],
      "name": "Approval",
      "type": "event"
    },
    {
      "anonymous": false,
      "inputs": [
        {
          "indexed": true,
          "internalType": "address",
          "name": "owner",
          "type": "address"
        },
        {
          "indexed": true,
          "internalType": "address",
          "name": "operator",
          "type": "address"
        },
        {
          "indexed": false,
          "internalType": "bool",
          "name": "approved",
          "type": "bool"
        }
      ],
      "name": "ApprovalForAll",
      "type": "event"
    },
    {
      "anonymous": false,
      "inputs": [
        {
          "indexed": false,
          "internalType": "address",
          "name": "user",
          "type": "address"
        },
        {
          "indexed": false,
          "internalType": "address",
          "name": "nftContract",
          "type": "address"
        },
        {
          "indexed": false,
          "internalType": "uint256",
          "name": "tokenId",
          "type": "uint256"
        }
      ],
      "name": "Mint",
      "type": "event"
    },
    {
      "anonymous": false,
      "inputs": [
        {
          "indexed": true,
          "internalType": "address",
          "name": "from",
          "type": "address"
        },
        {
          "indexed": true,
          "internalType": "address",
          "name": "to",
          "type": "address"
        },
        {
          "indexed": true,
          "internalType": "uint256",
          "name": "tokenId",
          "type": "uint256"
        }
      ],
      "name": "Transfer",
      "type": "event"
    },
    {
      "anonymous": false,
      "inputs": [
        {
          "indexed": false,
          "internalType": "address",
          "name": "user",
          "type": "address"
        },
        {
          "indexed": false,
          "internalType": "address",
          "name": "contractAddress",
          "type": "address"
        },
        {
          "indexed": false,
          "internalType": "uint256",
          "name": "value",
          "type": "uint256"
        }
      ],
      "name": "Withdraw",
      "type": "event"
    },
    {
      "inputs": [
        {
          "internalType": "address",
          "name": "to",
          "type": "address"
        },
        {
          "internalType": "uint256",
          "name": "tokenId",
          "type": "uint256"
        }
      ],
      "name": "approve",
      "outputs": [],
      "stateMutability": "nonpayable",
      "type": "function"
    },
    {
      "inputs": [
        {
          "internalType": "address",
          "name": "owner",
          "type": "address"
        }
      ],
      "name": "balanceOf",
      "outputs": [
        {
          "internalType": "uint256",
          "name": "",
          "type": "uint256"
        }
      ],
      "stateMutability": "view",
      "type": "function"
    },
    {
      "inputs": [
        {
          "internalType": "uint256",
          "name": "newFee",
          "type": "uint256"
        }
      ],
      "name": "changeFee",
      "outputs": [],
      "stateMutability": "nonpayable",
      "type": "function"
    },
    {
      "inputs": [
        {
          "internalType": "uint256",
          "name": "tokenId",
          "type": "uint256"
        }
      ],
      "name": "getApproved",
      "outputs": [
        {
          "internalType": "address",
          "name": "",
          "type": "address"
        }
      ],
      "stateMutability": "view",
      "type": "function"
    },
    {
      "inputs": [],
      "name": "getBalance",
      "outputs": [
        {
          "internalType": "uint256",
          "name": "",
          "type": "uint256"
        }
      ],
      "stateMutability": "view",
      "type": "function"
    },
    {
      "inputs": [],
      "name": "getOwner",
      "outputs": [
        {
          "internalType": "address",
          "name": "",
          "type": "address"
        }
      ],
      "stateMutability": "view",
      "type": "function"
    },
    {
      "inputs": [],
      "name": "getPrice",
      "outputs": [
        {
          "internalType": "uint256",
          "name": "",
          "type": "uint256"
        }
      ],
      "stateMutability": "view",
      "type": "function"
    },
    {
      "inputs": [
        {
          "internalType": "address",
          "name": "owner",
          "type": "address"
        },
        {
          "internalType": "address",
          "name": "operator",
          "type": "address"
        }
      ],
      "name": "isApprovedForAll",
      "outputs": [
        {
          "internalType": "bool",
          "name": "",
          "type": "bool"
        }
      ],
      "stateMutability": "view",
      "type": "function"
    },
    {
      "inputs": [],
      "name": "mint",
      "outputs": [],
      "stateMutability": "payable",
      "type": "function"
    },
    {
      "inputs": [],
      "name": "mintDirectly",
      "outputs": [],
      "stateMutability": "payable",
      "type": "function"
    },
    {
      "inputs": [],
      "name": "name",
      "outputs": [
        {
          "internalType": "string",
          "name": "",
          "type": "string"
        }
      ],
      "stateMutability": "view",
      "type": "function"
    },
    {
      "inputs": [
        {
          "internalType": "uint256",
          "name": "tokenId",
          "type": "uint256"
        }
      ],
      "name": "ownerOf",
      "outputs": [
        {
          "internalType": "address",
          "name": "",
          "type": "address"
        }
      ],
      "stateMutability": "view",
      "type": "function"
    },
    {
      "inputs": [
        {
          "internalType": "address",
          "name": "from",
          "type": "address"
        },
        {
          "internalType": "address",
          "name": "to",
          "type": "address"
        },
        {
          "internalType": "uint256",
          "name": "tokenId",
          "type": "uint256"
        }
      ],
      "name": "safeTransferFrom",
      "outputs": [],
      "stateMutability": "nonpayable",
      "type": "function"
    },
    {
      "inputs": [
        {
          "internalType": "address",
          "name": "from",
          "type": "address"
        },
        {
          "internalType": "address",
          "name": "to",
          "type": "address"
        },
        {
          "internalType": "uint256",
          "name": "tokenId",
          "type": "uint256"
        },
        {
          "internalType": "bytes",
          "name": "data",
          "type": "bytes"
        }
      ],
      "name": "safeTransferFrom",
      "outputs": [],
      "stateMutability": "nonpayable",
      "type": "function"
    },
    {
      "inputs": [
        {
          "internalType": "address",
          "name": "operator",
          "type": "address"
        },
        {
          "internalType": "bool",
          "name": "approved",
          "type": "bool"
        }
      ],
      "name": "setApprovalForAll",
      "outputs": [],
      "stateMutability": "nonpayable",
      "type": "function"
    },
    {
      "inputs": [
        {
          "internalType": "string",
          "name": "newUri",
          "type": "string"
        }
      ],
      "name": "setUri",
      "outputs": [],
      "stateMutability": "nonpayable",
      "type": "function"
    },
    {
      "inputs": [
        {
          "internalType": "bytes4",
          "name": "interfaceId",
          "type": "bytes4"
        }
      ],
      "name": "supportsInterface",
      "outputs": [
        {
          "internalType": "bool",
          "name": "",
          "type": "bool"
        }
      ],
      "stateMutability": "view",
      "type": "function"
    },
    {
      "inputs": [],
      "name": "symbol",
      "outputs": [
        {
          "internalType": "string",
          "name": "",
          "type": "string"
        }
      ],
      "stateMutability": "view",
      "type": "function"
    },
    {
      "inputs": [
        {
          "internalType": "uint256",
          "name": "tokenId",
          "type": "uint256"
        }
      ],
      "name": "tokenURI",
      "outputs": [
        {
          "internalType": "string",
          "name": "",
          "type": "string"
        }
      ],
      "stateMutability": "view",
      "type": "function"
    },
    {
      "inputs": [
        {
          "internalType": "address",
          "name": "from",
          "type": "address"
        },
        {
          "internalType": "address",
          "name": "to",
          "type": "address"
        },
        {
          "internalType": "uint256",
          "name": "tokenId",
          "type": "uint256"
        }
      ],
      "name": "transferFrom",
      "outputs": [],
      "stateMutability": "nonpayable",
      "type": "function"
    },
    {
      "inputs": [
        {
          "internalType": "address",
          "name": "newOwner",
          "type": "address"
        }
      ],
      "name": "transferOwnership",
      "outputs": [],
      "stateMutability": "nonpayable",
      "type": "function"
    },
    {
      "inputs": [],
      "name": "withdraw",
      "outputs": [],
      "stateMutability": "payable",
      "type": "function"
    }
  ],
  "transactionHash": "0x4b5399b1ac9c91691451e79a4082e868bda5619377120b919137d06be07cd3e9",
  "args": [
    "test",
    "tst",
    1,
    1000,
    "0xf39Fd6e51aad88F6F4ce6aB8827279cffFb92266",
    "someURI"
  ],
  "numDeployments": 1,
  "solcInputHash": "cc4661321adb7b80f7407d4f449cc355",
  "bytecode": "0x60a06040523480156200001157600080fd5b5060405162003d4c38038062003d4c833981810160405281019062000037919062000489565b600680546200004690620005b1565b80601f01602080910402602001604051908101604052809291908181526020018280546200007490620005b1565b8015620000c55780601f106200009957610100808354040283529160200191620000c5565b820191906000526020600020905b815481529060010190602001808311620000a757829003601f168201915b505050505060078054620000d990620005b1565b80601f01602080910402602001604051908101604052809291908181526020018280546200010790620005b1565b8015620001585780601f106200012c5761010080835404028352916020019162000158565b820191906000526020600020905b8154815290600101906020018083116200013a57829003601f168201915b505050505081600090816200016e9190620007c3565b508060019081620001809190620007c3565b5050508560069081620001949190620007c3565b508460079081620001a69190620007c3565b5083600b81905550826080818152505081600960006101000a81548173ffffffffffffffffffffffffffffffffffffffff021916908373ffffffffffffffffffffffffffffffffffffffff1602179055508060089081620002089190620007c3565b5033600c60006101000a81548173ffffffffffffffffffffffffffffffffffffffff021916908373ffffffffffffffffffffffffffffffffffffffff160217905550505050505050620008aa565b6000604051905090565b600080fd5b600080fd5b600080fd5b600080fd5b6000601f19601f8301169050919050565b7f4e487b7100000000000000000000000000000000000000000000000000000000600052604160045260246000fd5b620002bf8262000274565b810181811067ffffffffffffffff82111715620002e157620002e062000285565b5b80604052505050565b6000620002f662000256565b9050620003048282620002b4565b919050565b600067ffffffffffffffff82111562000327576200032662000285565b5b620003328262000274565b9050602081019050919050565b60005b838110156200035f57808201518184015260208101905062000342565b60008484015250505050565b6000620003826200037c8462000309565b620002ea565b905082815260208101848484011115620003a157620003a06200026f565b5b620003ae8482856200033f565b509392505050565b600082601f830112620003ce57620003cd6200026a565b5b8151620003e08482602086016200036b565b91505092915050565b6000819050919050565b620003fe81620003e9565b81146200040a57600080fd5b50565b6000815190506200041e81620003f3565b92915050565b600073ffffffffffffffffffffffffffffffffffffffff82169050919050565b6000620004518262000424565b9050919050565b620004638162000444565b81146200046f57600080fd5b50565b600081519050620004838162000458565b92915050565b60008060008060008060c08789031215620004a957620004a862000260565b5b600087015167ffffffffffffffff811115620004ca57620004c962000265565b5b620004d889828a01620003b6565b965050602087015167ffffffffffffffff811115620004fc57620004fb62000265565b5b6200050a89828a01620003b6565b95505060406200051d89828a016200040d565b94505060606200053089828a016200040d565b93505060806200054389828a0162000472565b92505060a087015167ffffffffffffffff81111562000567576200056662000265565b5b6200057589828a01620003b6565b9150509295509295509295565b7f4e487b7100000000000000000000000000000000000000000000000000000000600052602260045260246000fd5b60006002820490506001821680620005ca57607f821691505b602082108103620005e057620005df62000582565b5b50919050565b600081519050919050565b60008190508160005260206000209050919050565b60006020601f8301049050919050565b600082821b905092915050565b600060088302620006557fffffffffffffffffffffffffffffffffffffffffffffffffffffffffffffffff8262000616565b62000661868362000616565b95508019841693508086168417925050509392505050565b6000819050919050565b6000620006a46200069e6200069884620003e9565b62000679565b620003e9565b9050919050565b6000819050919050565b620006c08362000683565b620006d8620006cf82620006ab565b84845462000623565b825550505050565b600090565b620006ef620006e0565b620006fc818484620006b5565b505050565b5b81811015620007245762000718600082620006e5565b60018101905062000702565b5050565b601f82111562000773576200073d81620005f1565b620007488462000606565b8101602085101562000758578190505b62000770620007678562000606565b83018262000701565b50505b505050565b600082821c905092915050565b6000620007986000198460080262000778565b1980831691505092915050565b6000620007b3838362000785565b9150826002028217905092915050565b620007ce82620005e6565b67ffffffffffffffff811115620007ea57620007e962000285565b5b620007f68254620005b1565b6200080382828562000728565b600060209050601f8311600181146200083b576000841562000826578287015190505b620008328582620007a5565b865550620008a2565b601f1984166200084b86620005f1565b60005b8281101562000875578489015182556001820191506020850194506020810190506200084e565b8683101562000895578489015162000891601f89168262000785565b8355505b6001600288020188555050505b505050505050565b608051613478620008d46000396000818161085001528181610efd015261137101526134786000f3fe6080604052600436106101355760003560e01c806370a08231116100ab578063a22cb4651161006f578063a22cb465146103e6578063b88d4fde1461040f578063c87b56dd14610438578063e985e9c514610475578063eab7611e146104b2578063f2fde38b146104bc57610135565b806370a08231146102ff578063893d20e81461033c57806395d89b411461036757806398d5fdca146103925780639b642de1146103bd57610135565b80631249c58b116100fd5780631249c58b1461023357806323b872dd1461023d5780633ccfd60b1461026657806342842e0e146102705780636352211e146102995780636a1db1bf146102d657610135565b806301ffc9a71461013a57806306fdde0314610177578063081812fc146101a2578063095ea7b3146101df57806312065fe014610208575b600080fd5b34801561014657600080fd5b50610161600480360381019061015c9190612100565b6104e5565b60405161016e9190612148565b60405180910390f35b34801561018357600080fd5b5061018c6105c7565b60405161019991906121f3565b60405180910390f35b3480156101ae57600080fd5b506101c960048036038101906101c4919061224b565b610659565b6040516101d691906122b9565b60405180910390f35b3480156101eb57600080fd5b5061020660048036038101906102019190612300565b61069f565b005b34801561021457600080fd5b5061021d6107b6565b60405161022a919061234f565b60405180910390f35b61023b6107be565b005b34801561024957600080fd5b50610264600480360381019061025f919061236a565b610916565b005b61026e610976565b005b34801561027c57600080fd5b506102976004803603810190610292919061236a565b610a27565b005b3480156102a557600080fd5b506102c060048036038101906102bb919061224b565b610a47565b6040516102cd91906122b9565b60405180910390f35b3480156102e257600080fd5b506102fd60048036038101906102f8919061224b565b610acd565b005b34801561030b57600080fd5b50610326600480360381019061032191906123bd565b610b67565b604051610333919061234f565b60405180910390f35b34801561034857600080fd5b50610351610c1e565b60405161035e91906122b9565b60405180910390f35b34801561037357600080fd5b5061037c610c48565b60405161038991906121f3565b60405180910390f35b34801561039e57600080fd5b506103a7610cda565b6040516103b4919061234f565b60405180910390f35b3480156103c957600080fd5b506103e460048036038101906103df919061251f565b610ce4565b005b3480156103f257600080fd5b5061040d60048036038101906104089190612594565b610d87565b005b34801561041b57600080fd5b5061043660048036038101906104319190612675565b610d9d565b005b34801561044457600080fd5b5061045f600480360381019061045a919061224b565b610dff565b60405161046c91906121f3565b60405180910390f35b34801561048157600080fd5b5061049c600480360381019061049791906126f8565b610e67565b6040516104a99190612148565b60405180910390f35b6104ba610efb565b005b3480156104c857600080fd5b506104e360048036038101906104de91906123bd565b61106d565b005b60007f80ac58cd000000000000000000000000000000000000000000000000000000007bffffffffffffffffffffffffffffffffffffffffffffffffffffffff1916827bffffffffffffffffffffffffffffffffffffffffffffffffffffffff191614806105b057507f5b5e139f000000000000000000000000000000000000000000000000000000007bffffffffffffffffffffffffffffffffffffffffffffffffffffffff1916827bffffffffffffffffffffffffffffffffffffffffffffffffffffffff1916145b806105c057506105bf82611141565b5b9050919050565b6060600080546105d690612767565b80601f016020809104026020016040519081016040528092919081815260200182805461060290612767565b801561064f5780601f106106245761010080835404028352916020019161064f565b820191906000526020600020905b81548152906001019060200180831161063257829003601f168201915b5050505050905090565b6000610664826111ab565b6004600083815260200190815260200160002060009054906101000a900473ffffffffffffffffffffffffffffffffffffffff169050919050565b60006106aa82610a47565b90508073ffffffffffffffffffffffffffffffffffffffff168373ffffffffffffffffffffffffffffffffffffffff160361071a576040517f08c379a00000000000000000000000000000000000000000000000000000000081526004016107119061280a565b60405180910390fd5b8073ffffffffffffffffffffffffffffffffffffffff166107396111f6565b73ffffffffffffffffffffffffffffffffffffffff1614806107685750610767816107626111f6565b610e67565b5b6107a7576040517f08c379a000000000000000000000000000000000000000000000000000000000815260040161079e9061289c565b60405180910390fd5b6107b183836111fe565b505050565b600047905090565b600c60009054906101000a900473ffffffffffffffffffffffffffffffffffffffff1673ffffffffffffffffffffffffffffffffffffffff163373ffffffffffffffffffffffffffffffffffffffff161461084e576040517f08c379a000000000000000000000000000000000000000000000000000000000815260040161084590612908565b60405180910390fd5b7f0000000000000000000000000000000000000000000000000000000000000000600a5411156108b3576040517f08c379a00000000000000000000000000000000000000000000000000000000081526004016108aa90612974565b60405180910390fd5b6108bf33600a546112b7565b600a60008154809291906108d2906129c3565b91905055507fab8530f87dc9b59234c4623bf917212bb2536d647574c8e7e5da92c2ede0c9f83330600a5460405161090c93929190612a0b565b60405180910390a1565b6109276109216111f6565b82611537565b610966576040517f08c379a000000000000000000000000000000000000000000000000000000000815260040161095d90612ab4565b60405180910390fd5b6109718383836115cc565b505050565b60003373ffffffffffffffffffffffffffffffffffffffff164760405161099c90612b05565b60006040518083038185875af1925050503d80600081146109d9576040519150601f19603f3d011682016040523d82523d6000602084013e6109de565b606091505b505090508015610a24577f9b1bfa7fa9ee420a16e124f794c35ac9f90472acc99140eb2f6447c714cad8eb333047604051610a1b93929190612a0b565b60405180910390a15b50565b610a4283838360405180602001604052806000815250610d9d565b505050565b600080610a53836118c5565b9050600073ffffffffffffffffffffffffffffffffffffffff168173ffffffffffffffffffffffffffffffffffffffff1603610ac4576040517f08c379a0000000000000000000000000000000000000000000000000000000008152600401610abb90612b66565b60405180910390fd5b80915050919050565b600960009054906101000a900473ffffffffffffffffffffffffffffffffffffffff1673ffffffffffffffffffffffffffffffffffffffff163373ffffffffffffffffffffffffffffffffffffffff1614610b5d576040517f08c379a0000000000000000000000000000000000000000000000000000000008152600401610b5490612908565b60405180910390fd5b80600b8190555050565b60008073ffffffffffffffffffffffffffffffffffffffff168273ffffffffffffffffffffffffffffffffffffffff1603610bd7576040517f08c379a0000000000000000000000000000000000000000000000000000000008152600401610bce90612bf8565b60405180910390fd5b600360008373ffffffffffffffffffffffffffffffffffffffff1673ffffffffffffffffffffffffffffffffffffffff168152602001908152602001600020549050919050565b6000600960009054906101000a900473ffffffffffffffffffffffffffffffffffffffff16905090565b606060018054610c5790612767565b80601f0160208091040260200160405190810160405280929190818152602001828054610c8390612767565b8015610cd05780601f10610ca557610100808354040283529160200191610cd0565b820191906000526020600020905b815481529060010190602001808311610cb357829003601f168201915b5050505050905090565b6000600b54905090565b600960009054906101000a900473ffffffffffffffffffffffffffffffffffffffff1673ffffffffffffffffffffffffffffffffffffffff163373ffffffffffffffffffffffffffffffffffffffff1614610d74576040517f08c379a0000000000000000000000000000000000000000000000000000000008152600401610d6b90612908565b60405180910390fd5b8060089081610d839190612dc4565b5050565b610d99610d926111f6565b8383611902565b5050565b610dae610da86111f6565b83611537565b610ded576040517f08c379a0000000000000000000000000000000000000000000000000000000008152600401610de490612ab4565b60405180910390fd5b610df984848484611a6e565b50505050565b6060610e0a826111ab565b6000610e14611aca565b90506000815111610e345760405180602001604052806000815250610e5f565b80610e3e84611b5c565b604051602001610e4f929190612ed2565b6040516020818303038152906040525b915050919050565b6000600560008473ffffffffffffffffffffffffffffffffffffffff1673ffffffffffffffffffffffffffffffffffffffff16815260200190815260200160002060008373ffffffffffffffffffffffffffffffffffffffff1673ffffffffffffffffffffffffffffffffffffffff16815260200190815260200160002060009054906101000a900460ff16905092915050565b7f0000000000000000000000000000000000000000000000000000000000000000600a541115610f60576040517f08c379a0000000000000000000000000000000000000000000000000000000008152600401610f5790612974565b60405180910390fd5b600b54341015610fa5576040517f08c379a0000000000000000000000000000000000000000000000000000000008152600401610f9c90612f42565b60405180910390fd5b6000600c60009054906101000a900473ffffffffffffffffffffffffffffffffffffffff1673ffffffffffffffffffffffffffffffffffffffff166108fc600b549081150290604051600060405180830381858888f193505050509050801561102d5761101433600a546112b7565b600a6000815480929190611027906129c3565b91905055505b7fab8530f87dc9b59234c4623bf917212bb2536d647574c8e7e5da92c2ede0c9f83330600a5460405161106293929190612a0b565b60405180910390a150565b600960009054906101000a900473ffffffffffffffffffffffffffffffffffffffff1673ffffffffffffffffffffffffffffffffffffffff163373ffffffffffffffffffffffffffffffffffffffff16146110fd576040517f08c379a00000000000000000000000000000000000000000000000000000000081526004016110f490612908565b60405180910390fd5b80600960006101000a81548173ffffffffffffffffffffffffffffffffffffffff021916908373ffffffffffffffffffffffffffffffffffffffff16021790555050565b60007f01ffc9a7000000000000000000000000000000000000000000000000000000007bffffffffffffffffffffffffffffffffffffffffffffffffffffffff1916827bffffffffffffffffffffffffffffffffffffffffffffffffffffffff1916149050919050565b6111b481611c2a565b6111f3576040517f08c379a00000000000000000000000000000000000000000000000000000000081526004016111ea90612b66565b60405180910390fd5b50565b600033905090565b816004600083815260200190815260200160002060006101000a81548173ffffffffffffffffffffffffffffffffffffffff021916908373ffffffffffffffffffffffffffffffffffffffff160217905550808273ffffffffffffffffffffffffffffffffffffffff1661127183610a47565b73ffffffffffffffffffffffffffffffffffffffff167f8c5be1e5ebec7d5bd14f71427d1e84f3dd0314c0f7b2291e5b200ac8c7c3b92560405160405180910390a45050565b600073ffffffffffffffffffffffffffffffffffffffff168273ffffffffffffffffffffffffffffffffffffffff1603611326576040517f08c379a000000000000000000000000000000000000000000000000000000000815260040161131d90612fae565b60405180910390fd5b61132f81611c2a565b1561136f576040517f08c379a00000000000000000000000000000000000000000000000000000000081526004016113669061301a565b60405180910390fd5b7f00000000000000000000000000000000000000000000000000000000000000008111156113d2576040517f08c379a00000000000000000000000000000000000000000000000000000000081526004016113c990613086565b60405180910390fd5b6113e0600083836001611c6b565b6113e981611c2a565b15611429576040517f08c379a00000000000000000000000000000000000000000000000000000000081526004016114209061301a565b60405180910390fd5b6001600e60008473ffffffffffffffffffffffffffffffffffffffff1673ffffffffffffffffffffffffffffffffffffffff1681526020019081526020016000206000828254019250508190555081600d600083815260200190815260200160002060006101000a81548173ffffffffffffffffffffffffffffffffffffffff021916908373ffffffffffffffffffffffffffffffffffffffff160217905550808273ffffffffffffffffffffffffffffffffffffffff16600073ffffffffffffffffffffffffffffffffffffffff167fddf252ad1be2c89b69c2b068fc378daa952ba7f163c4a11628f55a4df523b3ef60405160405180910390a4611533600083836001611d91565b5050565b60008061154383610a47565b90508073ffffffffffffffffffffffffffffffffffffffff168473ffffffffffffffffffffffffffffffffffffffff16148061158557506115848185610e67565b5b806115c357508373ffffffffffffffffffffffffffffffffffffffff166115ab84610659565b73ffffffffffffffffffffffffffffffffffffffff16145b91505092915050565b8273ffffffffffffffffffffffffffffffffffffffff166115ec82610a47565b73ffffffffffffffffffffffffffffffffffffffff1614611642576040517f08c379a000000000000000000000000000000000000000000000000000000000815260040161163990613118565b60405180910390fd5b600073ffffffffffffffffffffffffffffffffffffffff168273ffffffffffffffffffffffffffffffffffffffff16036116b1576040517f08c379a00000000000000000000000000000000000000000000000000000000081526004016116a8906131aa565b60405180910390fd5b6116be8383836001611c6b565b8273ffffffffffffffffffffffffffffffffffffffff166116de82610a47565b73ffffffffffffffffffffffffffffffffffffffff1614611734576040517f08c379a000000000000000000000000000000000000000000000000000000000815260040161172b90613118565b60405180910390fd5b6004600082815260200190815260200160002060006101000a81549073ffffffffffffffffffffffffffffffffffffffff02191690556001600360008573ffffffffffffffffffffffffffffffffffffffff1673ffffffffffffffffffffffffffffffffffffffff168152602001908152602001600020600082825403925050819055506001600360008473ffffffffffffffffffffffffffffffffffffffff1673ffffffffffffffffffffffffffffffffffffffff16815260200190815260200160002060008282540192505081905550816002600083815260200190815260200160002060006101000a81548173ffffffffffffffffffffffffffffffffffffffff021916908373ffffffffffffffffffffffffffffffffffffffff160217905550808273ffffffffffffffffffffffffffffffffffffffff168473ffffffffffffffffffffffffffffffffffffffff167fddf252ad1be2c89b69c2b068fc378daa952ba7f163c4a11628f55a4df523b3ef60405160405180910390a46118c08383836001611d91565b505050565b60006002600083815260200190815260200160002060009054906101000a900473ffffffffffffffffffffffffffffffffffffffff169050919050565b8173ffffffffffffffffffffffffffffffffffffffff168373ffffffffffffffffffffffffffffffffffffffff1603611970576040517f08c379a000000000000000000000000000000000000000000000000000000000815260040161196790613216565b60405180910390fd5b80600560008573ffffffffffffffffffffffffffffffffffffffff1673ffffffffffffffffffffffffffffffffffffffff16815260200190815260200160002060008473ffffffffffffffffffffffffffffffffffffffff1673ffffffffffffffffffffffffffffffffffffffff16815260200190815260200160002060006101000a81548160ff0219169083151502179055508173ffffffffffffffffffffffffffffffffffffffff168373ffffffffffffffffffffffffffffffffffffffff167f17307eab39ab6107e8899845ad3d59bd9653f200f220920489ca2b5937696c3183604051611a619190612148565b60405180910390a3505050565b611a798484846115cc565b611a8584848484611d97565b611ac4576040517f08c379a0000000000000000000000000000000000000000000000000000000008152600401611abb906132a8565b60405180910390fd5b50505050565b606060088054611ad990612767565b80601f0160208091040260200160405190810160405280929190818152602001828054611b0590612767565b8015611b525780601f10611b2757610100808354040283529160200191611b52565b820191906000526020600020905b815481529060010190602001808311611b3557829003601f168201915b5050505050905090565b606060006001611b6b84611f1e565b01905060008167ffffffffffffffff811115611b8a57611b896123f4565b5b6040519080825280601f01601f191660200182016040528015611bbc5781602001600182028036833780820191505090505b509050600082602001820190505b600115611c1f578080600190039150507f3031323334353637383961626364656600000000000000000000000000000000600a86061a8153600a8581611c1357611c126132c8565b5b04945060008503611bca575b819350505050919050565b60008073ffffffffffffffffffffffffffffffffffffffff16611c4c836118c5565b73ffffffffffffffffffffffffffffffffffffffff1614159050919050565b6001811115611d8b57600073ffffffffffffffffffffffffffffffffffffffff168473ffffffffffffffffffffffffffffffffffffffff1614611cff5780600360008673ffffffffffffffffffffffffffffffffffffffff1673ffffffffffffffffffffffffffffffffffffffff1681526020019081526020016000206000828254611cf791906132f7565b925050819055505b600073ffffffffffffffffffffffffffffffffffffffff168373ffffffffffffffffffffffffffffffffffffffff1614611d8a5780600360008573ffffffffffffffffffffffffffffffffffffffff1673ffffffffffffffffffffffffffffffffffffffff1681526020019081526020016000206000828254611d82919061332b565b925050819055505b5b50505050565b50505050565b6000611db88473ffffffffffffffffffffffffffffffffffffffff16612071565b15611f11578373ffffffffffffffffffffffffffffffffffffffff1663150b7a02611de16111f6565b8786866040518563ffffffff1660e01b8152600401611e0394939291906133b4565b6020604051808303816000875af1925050508015611e3f57506040513d601f19601f82011682018060405250810190611e3c9190613415565b60015b611ec1573d8060008114611e6f576040519150601f19603f3d011682016040523d82523d6000602084013e611e74565b606091505b506000815103611eb9576040517f08c379a0000000000000000000000000000000000000000000000000000000008152600401611eb0906132a8565b60405180910390fd5b805181602001fd5b63150b7a0260e01b7bffffffffffffffffffffffffffffffffffffffffffffffffffffffff1916817bffffffffffffffffffffffffffffffffffffffffffffffffffffffff191614915050611f16565b600190505b949350505050565b600080600090507a184f03e93ff9f4daa797ed6e38ed64bf6a1f0100000000000000008310611f7c577a184f03e93ff9f4daa797ed6e38ed64bf6a1f0100000000000000008381611f7257611f716132c8565b5b0492506040810190505b6d04ee2d6d415b85acef81000000008310611fb9576d04ee2d6d415b85acef81000000008381611faf57611fae6132c8565b5b0492506020810190505b662386f26fc100008310611fe857662386f26fc100008381611fde57611fdd6132c8565b5b0492506010810190505b6305f5e1008310612011576305f5e1008381612007576120066132c8565b5b0492506008810190505b612710831061203657612710838161202c5761202b6132c8565b5b0492506004810190505b60648310612059576064838161204f5761204e6132c8565b5b0492506002810190505b600a8310612068576001810190505b80915050919050565b6000808273ffffffffffffffffffffffffffffffffffffffff163b119050919050565b6000604051905090565b600080fd5b600080fd5b60007fffffffff0000000000000000000000000000000000000000000000000000000082169050919050565b6120dd816120a8565b81146120e857600080fd5b50565b6000813590506120fa816120d4565b92915050565b6000602082840312156121165761211561209e565b5b6000612124848285016120eb565b91505092915050565b60008115159050919050565b6121428161212d565b82525050565b600060208201905061215d6000830184612139565b92915050565b600081519050919050565b600082825260208201905092915050565b60005b8381101561219d578082015181840152602081019050612182565b60008484015250505050565b6000601f19601f8301169050919050565b60006121c582612163565b6121cf818561216e565b93506121df81856020860161217f565b6121e8816121a9565b840191505092915050565b6000602082019050818103600083015261220d81846121ba565b905092915050565b6000819050919050565b61222881612215565b811461223357600080fd5b50565b6000813590506122458161221f565b92915050565b6000602082840312156122615761226061209e565b5b600061226f84828501612236565b91505092915050565b600073ffffffffffffffffffffffffffffffffffffffff82169050919050565b60006122a382612278565b9050919050565b6122b381612298565b82525050565b60006020820190506122ce60008301846122aa565b92915050565b6122dd81612298565b81146122e857600080fd5b50565b6000813590506122fa816122d4565b92915050565b600080604083850312156123175761231661209e565b5b6000612325858286016122eb565b925050602061233685828601612236565b9150509250929050565b61234981612215565b82525050565b60006020820190506123646000830184612340565b92915050565b6000806000606084860312156123835761238261209e565b5b6000612391868287016122eb565b93505060206123a2868287016122eb565b92505060406123b386828701612236565b9150509250925092565b6000602082840312156123d3576123d261209e565b5b60006123e1848285016122eb565b91505092915050565b600080fd5b600080fd5b7f4e487b7100000000000000000000000000000000000000000000000000000000600052604160045260246000fd5b61242c826121a9565b810181811067ffffffffffffffff8211171561244b5761244a6123f4565b5b80604052505050565b600061245e612094565b905061246a8282612423565b919050565b600067ffffffffffffffff82111561248a576124896123f4565b5b612493826121a9565b9050602081019050919050565b82818337600083830152505050565b60006124c26124bd8461246f565b612454565b9050828152602081018484840111156124de576124dd6123ef565b5b6124e98482856124a0565b509392505050565b600082601f830112612506576125056123ea565b5b81356125168482602086016124af565b91505092915050565b6000602082840312156125355761253461209e565b5b600082013567ffffffffffffffff811115612553576125526120a3565b5b61255f848285016124f1565b91505092915050565b6125718161212d565b811461257c57600080fd5b50565b60008135905061258e81612568565b92915050565b600080604083850312156125ab576125aa61209e565b5b60006125b9858286016122eb565b92505060206125ca8582860161257f565b9150509250929050565b600067ffffffffffffffff8211156125ef576125ee6123f4565b5b6125f8826121a9565b9050602081019050919050565b6000612618612613846125d4565b612454565b905082815260208101848484011115612634576126336123ef565b5b61263f8482856124a0565b509392505050565b600082601f83011261265c5761265b6123ea565b5b813561266c848260208601612605565b91505092915050565b6000806000806080858703121561268f5761268e61209e565b5b600061269d878288016122eb565b94505060206126ae878288016122eb565b93505060406126bf87828801612236565b925050606085013567ffffffffffffffff8111156126e0576126df6120a3565b5b6126ec87828801612647565b91505092959194509250565b6000806040838503121561270f5761270e61209e565b5b600061271d858286016122eb565b925050602061272e858286016122eb565b9150509250929050565b7f4e487b7100000000000000000000000000000000000000000000000000000000600052602260045260246000fd5b6000600282049050600182168061277f57607f821691505b60208210810361279257612791612738565b5b50919050565b7f4552433732313a20617070726f76616c20746f2063757272656e74206f776e6560008201527f7200000000000000000000000000000000000000000000000000000000000000602082015250565b60006127f460218361216e565b91506127ff82612798565b604082019050919050565b60006020820190508181036000830152612823816127e7565b9050919050565b7f4552433732313a20617070726f76652063616c6c6572206973206e6f7420746f60008201527f6b656e206f776e6572206f7220617070726f76656420666f7220616c6c000000602082015250565b6000612886603d8361216e565b91506128918261282a565b604082019050919050565b600060208201905081810360008301526128b581612879565b9050919050565b7f4f6e6c79206f776e657200000000000000000000000000000000000000000000600082015250565b60006128f2600a8361216e565b91506128fd826128bc565b602082019050919050565b60006020820190508181036000830152612921816128e5565b9050919050565b7f4d6178696d756e206e756d62657220776173206d696e74656400000000000000600082015250565b600061295e60198361216e565b915061296982612928565b602082019050919050565b6000602082019050818103600083015261298d81612951565b9050919050565b7f4e487b7100000000000000000000000000000000000000000000000000000000600052601160045260246000fd5b60006129ce82612215565b91507fffffffffffffffffffffffffffffffffffffffffffffffffffffffffffffffff8203612a00576129ff612994565b5b600182019050919050565b6000606082019050612a2060008301866122aa565b612a2d60208301856122aa565b612a3a6040830184612340565b949350505050565b7f4552433732313a2063616c6c6572206973206e6f7420746f6b656e206f776e6560008201527f72206f7220617070726f76656400000000000000000000000000000000000000602082015250565b6000612a9e602d8361216e565b9150612aa982612a42565b604082019050919050565b60006020820190508181036000830152612acd81612a91565b9050919050565b600081905092915050565b50565b6000612aef600083612ad4565b9150612afa82612adf565b600082019050919050565b6000612b1082612ae2565b9150819050919050565b7f4552433732313a20696e76616c696420746f6b656e2049440000000000000000600082015250565b6000612b5060188361216e565b9150612b5b82612b1a565b602082019050919050565b60006020820190508181036000830152612b7f81612b43565b9050919050565b7f4552433732313a2061646472657373207a65726f206973206e6f74206120766160008201527f6c6964206f776e65720000000000000000000000000000000000000000000000602082015250565b6000612be260298361216e565b9150612bed82612b86565b604082019050919050565b60006020820190508181036000830152612c1181612bd5565b9050919050565b60008190508160005260206000209050919050565b60006020601f8301049050919050565b600082821b905092915050565b600060088302612c7a7fffffffffffffffffffffffffffffffffffffffffffffffffffffffffffffffff82612c3d565b612c848683612c3d565b95508019841693508086168417925050509392505050565b6000819050919050565b6000612cc1612cbc612cb784612215565b612c9c565b612215565b9050919050565b6000819050919050565b612cdb83612ca6565b612cef612ce782612cc8565b848454612c4a565b825550505050565b600090565b612d04612cf7565b612d0f818484612cd2565b505050565b5b81811015612d3357612d28600082612cfc565b600181019050612d15565b5050565b601f821115612d7857612d4981612c18565b612d5284612c2d565b81016020851015612d61578190505b612d75612d6d85612c2d565b830182612d14565b50505b505050565b600082821c905092915050565b6000612d9b60001984600802612d7d565b1980831691505092915050565b6000612db48383612d8a565b9150826002028217905092915050565b612dcd82612163565b67ffffffffffffffff811115612de657612de56123f4565b5b612df08254612767565b612dfb828285612d37565b600060209050601f831160018114612e2e5760008415612e1c578287015190505b612e268582612da8565b865550612e8e565b601f198416612e3c86612c18565b60005b82811015612e6457848901518255600182019150602085019450602081019050612e3f565b86831015612e815784890151612e7d601f891682612d8a565b8355505b6001600288020188555050505b505050505050565b600081905092915050565b6000612eac82612163565b612eb68185612e96565b9350612ec681856020860161217f565b80840191505092915050565b6000612ede8285612ea1565b9150612eea8284612ea1565b91508190509392505050565b7f666565206578636565647320656e746572656420616d6f756e74000000000000600082015250565b6000612f2c601a8361216e565b9150612f3782612ef6565b602082019050919050565b60006020820190508181036000830152612f5b81612f1f565b9050919050565b7f4552433732313a206d696e7420746f20746865207a65726f2061646472657373600082015250565b6000612f9860208361216e565b9150612fa382612f62565b602082019050919050565b60006020820190508181036000830152612fc781612f8b565b9050919050565b7f4552433732313a20746f6b656e20616c7265616479206d696e74656400000000600082015250565b6000613004601c8361216e565b915061300f82612fce565b602082019050919050565b6000602082019050818103600083015261303381612ff7565b9050919050565b7f4d6178206e756d626572206d696e746564000000000000000000000000000000600082015250565b600061307060118361216e565b915061307b8261303a565b602082019050919050565b6000602082019050818103600083015261309f81613063565b9050919050565b7f4552433732313a207472616e736665722066726f6d20696e636f72726563742060008201527f6f776e6572000000000000000000000000000000000000000000000000000000602082015250565b600061310260258361216e565b915061310d826130a6565b604082019050919050565b60006020820190508181036000830152613131816130f5565b9050919050565b7f4552433732313a207472616e7366657220746f20746865207a65726f2061646460008201527f7265737300000000000000000000000000000000000000000000000000000000602082015250565b600061319460248361216e565b915061319f82613138565b604082019050919050565b600060208201905081810360008301526131c381613187565b9050919050565b7f4552433732313a20617070726f766520746f2063616c6c657200000000000000600082015250565b600061320060198361216e565b915061320b826131ca565b602082019050919050565b6000602082019050818103600083015261322f816131f3565b9050919050565b7f4552433732313a207472616e7366657220746f206e6f6e20455243373231526560008201527f63656976657220696d706c656d656e7465720000000000000000000000000000602082015250565b600061329260328361216e565b915061329d82613236565b604082019050919050565b600060208201905081810360008301526132c181613285565b9050919050565b7f4e487b7100000000000000000000000000000000000000000000000000000000600052601260045260246000fd5b600061330282612215565b915061330d83612215565b925082820390508181111561332557613324612994565b5b92915050565b600061333682612215565b915061334183612215565b925082820190508082111561335957613358612994565b5b92915050565b600081519050919050565b600082825260208201905092915050565b60006133868261335f565b613390818561336a565b93506133a081856020860161217f565b6133a9816121a9565b840191505092915050565b60006080820190506133c960008301876122aa565b6133d660208301866122aa565b6133e36040830185612340565b81810360608301526133f5818461337b565b905095945050505050565b60008151905061340f816120d4565b92915050565b60006020828403121561342b5761342a61209e565b5b600061343984828501613400565b9150509291505056fea26469706673582212205f6865348315c6f36bd2976ae33a91f994b984bf74c5b5c87cefc69bccaf997b64736f6c63430008110033",
  "devdoc": {
    "kind": "dev",
    "methods": {
      "approve(address,uint256)": {
        "details": "See {IERC721-approve}."
      },
      "balanceOf(address)": {
        "details": "See {IERC721-balanceOf}."
      },
      "getApproved(uint256)": {
        "details": "See {IERC721-getApproved}."
      },
      "isApprovedForAll(address,address)": {
        "details": "See {IERC721-isApprovedForAll}."
      },
      "name()": {
        "details": "See {IERC721Metadata-name}."
      },
      "ownerOf(uint256)": {
        "details": "See {IERC721-ownerOf}."
      },
      "safeTransferFrom(address,address,uint256)": {
        "details": "See {IERC721-safeTransferFrom}."
      },
      "safeTransferFrom(address,address,uint256,bytes)": {
        "details": "See {IERC721-safeTransferFrom}."
      },
      "setApprovalForAll(address,bool)": {
        "details": "See {IERC721-setApprovalForAll}."
      },
      "supportsInterface(bytes4)": {
        "details": "See {IERC165-supportsInterface}."
      },
      "symbol()": {
        "details": "See {IERC721Metadata-symbol}."
      },
      "tokenURI(uint256)": {
        "details": "See {IERC721Metadata-tokenURI}."
      },
      "transferFrom(address,address,uint256)": {
        "details": "See {IERC721-transferFrom}."
      }
    },
    "version": 1
  },
  "userdoc": {
    "kind": "user",
    "methods": {},
    "version": 1
  },
  "storageLayout": {
    "storage": [
      {
        "astId": 138,
        "contract": "contracts/ERC721V1.sol:ERC721V1",
        "label": "_name",
        "offset": 0,
        "slot": "0",
        "type": "t_string_storage"
      },
      {
        "astId": 140,
        "contract": "contracts/ERC721V1.sol:ERC721V1",
        "label": "_symbol",
        "offset": 0,
        "slot": "1",
        "type": "t_string_storage"
      },
      {
        "astId": 144,
        "contract": "contracts/ERC721V1.sol:ERC721V1",
        "label": "_owners",
        "offset": 0,
        "slot": "2",
        "type": "t_mapping(t_uint256,t_address)"
      },
      {
        "astId": 148,
        "contract": "contracts/ERC721V1.sol:ERC721V1",
        "label": "_balances",
        "offset": 0,
        "slot": "3",
        "type": "t_mapping(t_address,t_uint256)"
      },
      {
        "astId": 152,
        "contract": "contracts/ERC721V1.sol:ERC721V1",
        "label": "_tokenApprovals",
        "offset": 0,
        "slot": "4",
        "type": "t_mapping(t_uint256,t_address)"
      },
      {
        "astId": 158,
        "contract": "contracts/ERC721V1.sol:ERC721V1",
        "label": "_operatorApprovals",
        "offset": 0,
        "slot": "5",
        "type": "t_mapping(t_address,t_mapping(t_address,t_bool))"
      },
      {
        "astId": 2936,
        "contract": "contracts/ERC721V1.sol:ERC721V1",
        "label": "s_name",
        "offset": 0,
        "slot": "6",
        "type": "t_string_storage"
      },
      {
        "astId": 2938,
        "contract": "contracts/ERC721V1.sol:ERC721V1",
        "label": "s_symbol",
        "offset": 0,
        "slot": "7",
        "type": "t_string_storage"
      },
      {
        "astId": 2940,
        "contract": "contracts/ERC721V1.sol:ERC721V1",
        "label": "s_url",
        "offset": 0,
        "slot": "8",
        "type": "t_string_storage"
      },
      {
        "astId": 2942,
        "contract": "contracts/ERC721V1.sol:ERC721V1",
        "label": "_owner",
        "offset": 0,
        "slot": "9",
        "type": "t_address"
      },
      {
        "astId": 2944,
        "contract": "contracts/ERC721V1.sol:ERC721V1",
        "label": "counterTokenID",
        "offset": 0,
        "slot": "10",
        "type": "t_uint256"
      },
      {
        "astId": 2946,
        "contract": "contracts/ERC721V1.sol:ERC721V1",
        "label": "s_fee",
        "offset": 0,
        "slot": "11",
        "type": "t_uint256"
      },
      {
        "astId": 2950,
        "contract": "contracts/ERC721V1.sol:ERC721V1",
        "label": "parentContract",
        "offset": 0,
        "slot": "12",
        "type": "t_address_payable"
      },
      {
        "astId": 2954,
        "contract": "contracts/ERC721V1.sol:ERC721V1",
        "label": "_owners",
        "offset": 0,
        "slot": "13",
        "type": "t_mapping(t_uint256,t_address)"
      },
      {
        "astId": 2958,
        "contract": "contracts/ERC721V1.sol:ERC721V1",
        "label": "_balances",
        "offset": 0,
        "slot": "14",
        "type": "t_mapping(t_address,t_uint256)"
      }
    ],
    "types": {
      "t_address": {
        "encoding": "inplace",
        "label": "address",
        "numberOfBytes": "20"
      },
      "t_address_payable": {
        "encoding": "inplace",
        "label": "address payable",
        "numberOfBytes": "20"
      },
      "t_bool": {
        "encoding": "inplace",
        "label": "bool",
        "numberOfBytes": "1"
      },
      "t_mapping(t_address,t_bool)": {
        "encoding": "mapping",
        "key": "t_address",
        "label": "mapping(address => bool)",
        "numberOfBytes": "32",
        "value": "t_bool"
      },
      "t_mapping(t_address,t_mapping(t_address,t_bool))": {
        "encoding": "mapping",
        "key": "t_address",
        "label": "mapping(address => mapping(address => bool))",
        "numberOfBytes": "32",
        "value": "t_mapping(t_address,t_bool)"
      },
      "t_mapping(t_address,t_uint256)": {
        "encoding": "mapping",
        "key": "t_address",
        "label": "mapping(address => uint256)",
        "numberOfBytes": "32",
        "value": "t_uint256"
      },
      "t_mapping(t_uint256,t_address)": {
        "encoding": "mapping",
        "key": "t_uint256",
        "label": "mapping(uint256 => address)",
        "numberOfBytes": "32",
        "value": "t_address"
      },
      "t_string_storage": {
        "encoding": "bytes",
        "label": "string",
        "numberOfBytes": "32"
      },
      "t_uint256": {
        "encoding": "inplace",
        "label": "uint256",
        "numberOfBytes": "32"
      }
    }
  }
}