{
  "address": "0xe7f1725E7734CE288F8367e1Bb143E90bb3F0512",
  "abi": [
    {
      "inputs": [],
      "stateMutability": "nonpayable",
      "type": "constructor"
    },
    {
      "inputs": [],
      "name": "CollectionCreator__InsufficientAmount",
      "type": "error"
    },
    {
      "inputs": [],
      "name": "CollectionCreator__TransactionFailed",
      "type": "error"
    },
    {
      "anonymous": false,
      "inputs": [],
      "name": "Name",
      "type": "event"
    },
    {
      "anonymous": false,
      "inputs": [
        {
          "indexed": false,
          "internalType": "address",
          "name": "requestCollectionFrom",
          "type": "address"
        },
        {
          "indexed": false,
          "internalType": "address",
          "name": "contractAddress",
          "type": "address"
        }
      ],
      "name": "NewCollection",
      "type": "event"
    },
    {
      "anonymous": false,
      "inputs": [],
      "name": "Withdraw",
      "type": "event"
    },
    {
      "inputs": [
        {
          "internalType": "string",
          "name": "_name",
          "type": "string"
        },
        {
          "internalType": "string",
          "name": "_symbol",
          "type": "string"
        },
        {
          "internalType": "uint256",
          "name": "_price",
          "type": "uint256"
        },
        {
          "internalType": "uint256",
          "name": "_maxSupply",
          "type": "uint256"
        },
        {
          "internalType": "string",
          "name": "_uri",
          "type": "string"
        }
      ],
      "name": "createCollection",
      "outputs": [
        {
          "internalType": "address",
          "name": "",
          "type": "address"
        }
      ],
      "stateMutability": "payable",
      "type": "function"
    },
    {
      "inputs": [],
      "name": "createSingleNft",
      "outputs": [],
      "stateMutability": "nonpayable",
      "type": "function"
    },
    {
      "inputs": [
        {
          "internalType": "bytes",
          "name": "byteCode",
          "type": "bytes"
        },
        {
          "internalType": "uint256",
          "name": "_salt",
          "type": "uint256"
        }
      ],
      "name": "getAddressOfDeployedContract",
      "outputs": [
        {
          "internalType": "address",
          "name": "",
          "type": "address"
        }
      ],
      "stateMutability": "view",
      "type": "function"
    },
    {
      "inputs": [
        {
          "internalType": "address",
          "name": "userAddress",
          "type": "address"
        }
      ],
      "name": "getBalance",
      "outputs": [
        {
          "internalType": "uint256",
          "name": "",
          "type": "uint256"
        }
      ],
      "stateMutability": "view",
      "type": "function"
    },
    {
      "inputs": [
        {
          "internalType": "address",
          "name": "collectionAddress",
          "type": "address"
        }
      ],
      "name": "mint",
      "outputs": [],
      "stateMutability": "payable",
      "type": "function"
    },
    {
      "inputs": [
        {
          "internalType": "address",
          "name": "contractAddress",
          "type": "address"
        }
      ],
      "name": "returnCode",
      "outputs": [
        {
          "internalType": "bytes",
          "name": "",
          "type": "bytes"
        }
      ],
      "stateMutability": "view",
      "type": "function"
    },
    {
      "inputs": [],
      "name": "withdraw",
      "outputs": [],
      "stateMutability": "payable",
      "type": "function"
    }
  ],
  "transactionHash": "0x554d756a7038f10a1d9f9227f19176c815faa825de337ddf546a8af609336edd",
  "args": [],
  "numDeployments": 1,
  "solcInputHash": "59805b91c4d391f088f83a695ad96460",
  "bytecode": "0x60a060405234801561001057600080fd5b503373ffffffffffffffffffffffffffffffffffffffff1660808173ffffffffffffffffffffffffffffffffffffffff16815250506080516145a161005d600039600050506145a16000f3fe6080604052600436106200007a5760003560e01c806341855c3e116200005557806341855c3e14620000db5780636a627842146200011f5780636d6a63f9146200013f578063f8b2cb4f1462000183576200007a565b8063074acc73146200007f578063286be4fa14620000995780633ccfd60b14620000cf575b600080fd5b3480156200008c57600080fd5b5062000097620001c7565b005b620000b76004803603810190620000b19190620008d7565b620001c9565b604051620000c6919062000a01565b60405180910390f35b620000d96200033c565b005b348015620000e857600080fd5b5062000107600480360381019062000101919062000ad2565b6200050a565b60405162000116919062000a01565b60405180910390f35b6200013d600480360381019062000137919062000b69565b62000556565b005b3480156200014c57600080fd5b506200016b600480360381019062000165919062000b69565b62000693565b6040516200017a919062000c24565b60405180910390f35b3480156200019057600080fd5b50620001af6004803603810190620001a9919062000b69565b620006cf565b604051620001be919062000c59565b60405180910390f35b565b6000805434101562000207576040517f06455ef600000000000000000000000000000000000000000000000000000000815260040160405180910390fd5b60008686868633876040516200021d9062000718565b6200022e9695949392919062000cd3565b604051809103906000f0801580156200024b573d6000803e3d6000fd5b5090506000819050600160003373ffffffffffffffffffffffffffffffffffffffff1673ffffffffffffffffffffffffffffffffffffffff168152602001908152602001600020819080600181540180825580915050600190039060005260206000200160009091909190916101000a81548173ffffffffffffffffffffffffffffffffffffffff021916908373ffffffffffffffffffffffffffffffffffffffff1602179055507f5b84d9550adb7000df7bee717735ecd3af48ea3f66c6886d52e8227548fb228c33826040516200032692919062000d55565b60405180910390a1809250505095945050505050565b6000600260003373ffffffffffffffffffffffffffffffffffffffff1673ffffffffffffffffffffffffffffffffffffffff1681526020019081526020016000205403620003b6576040517f06455ef600000000000000000000000000000000000000000000000000000000815260040160405180910390fd5b60003373ffffffffffffffffffffffffffffffffffffffff166103e86103e3600260003373ffffffffffffffffffffffffffffffffffffffff1673ffffffffffffffffffffffffffffffffffffffff1681526020019081526020016000205462000421919062000db1565b6200042d919062000e2b565b6040516200043b9062000e98565b60006040518083038185875af1925050503d80600081146200047a576040519150601f19603f3d011682016040523d82523d6000602084013e6200047f565b606091505b505090506000151581151503620004c2576040517fb1fb6a8800000000000000000000000000000000000000000000000000000000815260040160405180910390fd5b6000600260003373ffffffffffffffffffffffffffffffffffffffff1673ffffffffffffffffffffffffffffffffffffffff1681526020019081526020016000208190555050565b60008060ff60f81b3084868051906020012060405160200162000531949392919062000fa4565b6040516020818303038152906040528051906020012090508060001c91505092915050565b8073ffffffffffffffffffffffffffffffffffffffff1663c27df5c833346040518363ffffffff1660e01b81526004016200059392919062000ffa565b600060405180830381600087803b158015620005ae57600080fd5b505af1158015620005c3573d6000803e3d6000fd5b5050505034600260008373ffffffffffffffffffffffffffffffffffffffff1663df727d3b6040518163ffffffff1660e01b8152600401602060405180830381865afa15801562000618573d6000803e3d6000fd5b505050506040513d601f19601f820116820180604052508101906200063e91906200103e565b73ffffffffffffffffffffffffffffffffffffffff1673ffffffffffffffffffffffffffffffffffffffff168152602001908152602001600020600082825462000689919062001070565b9250508190555050565b60608173ffffffffffffffffffffffffffffffffffffffff16803b806020016040519081016040528181526000908060200190933c9050919050565b6000600260008373ffffffffffffffffffffffffffffffffffffffff1673ffffffffffffffffffffffffffffffffffffffff168152602001908152602001600020549050919050565b6134c080620010ac83390190565b6000604051905090565b600080fd5b600080fd5b600080fd5b600080fd5b6000601f19601f8301169050919050565b7f4e487b7100000000000000000000000000000000000000000000000000000000600052604160045260246000fd5b6200078f8262000744565b810181811067ffffffffffffffff82111715620007b157620007b062000755565b5b80604052505050565b6000620007c662000726565b9050620007d4828262000784565b919050565b600067ffffffffffffffff821115620007f757620007f662000755565b5b620008028262000744565b9050602081019050919050565b82818337600083830152505050565b6000620008356200082f84620007d9565b620007ba565b9050828152602081018484840111156200085457620008536200073f565b5b620008618482856200080f565b509392505050565b600082601f8301126200088157620008806200073a565b5b8135620008938482602086016200081e565b91505092915050565b6000819050919050565b620008b1816200089c565b8114620008bd57600080fd5b50565b600081359050620008d181620008a6565b92915050565b600080600080600060a08688031215620008f657620008f562000730565b5b600086013567ffffffffffffffff81111562000917576200091662000735565b5b620009258882890162000869565b955050602086013567ffffffffffffffff81111562000949576200094862000735565b5b620009578882890162000869565b94505060406200096a88828901620008c0565b93505060606200097d88828901620008c0565b925050608086013567ffffffffffffffff811115620009a157620009a062000735565b5b620009af8882890162000869565b9150509295509295909350565b600073ffffffffffffffffffffffffffffffffffffffff82169050919050565b6000620009e982620009bc565b9050919050565b620009fb81620009dc565b82525050565b600060208201905062000a186000830184620009f0565b92915050565b600067ffffffffffffffff82111562000a3c5762000a3b62000755565b5b62000a478262000744565b9050602081019050919050565b600062000a6b62000a658462000a1e565b620007ba565b90508281526020810184848401111562000a8a5762000a896200073f565b5b62000a978482856200080f565b509392505050565b600082601f83011262000ab75762000ab66200073a565b5b813562000ac984826020860162000a54565b91505092915050565b6000806040838503121562000aec5762000aeb62000730565b5b600083013567ffffffffffffffff81111562000b0d5762000b0c62000735565b5b62000b1b8582860162000a9f565b925050602062000b2e85828601620008c0565b9150509250929050565b62000b4381620009dc565b811462000b4f57600080fd5b50565b60008135905062000b638162000b38565b92915050565b60006020828403121562000b825762000b8162000730565b5b600062000b928482850162000b52565b91505092915050565b600081519050919050565b600082825260208201905092915050565b60005b8381101562000bd757808201518184015260208101905062000bba565b60008484015250505050565b600062000bf08262000b9b565b62000bfc818562000ba6565b935062000c0e81856020860162000bb7565b62000c198162000744565b840191505092915050565b6000602082019050818103600083015262000c40818462000be3565b905092915050565b62000c53816200089c565b82525050565b600060208201905062000c70600083018462000c48565b92915050565b600081519050919050565b600082825260208201905092915050565b600062000c9f8262000c76565b62000cab818562000c81565b935062000cbd81856020860162000bb7565b62000cc88162000744565b840191505092915050565b600060c082019050818103600083015262000cef818962000c92565b9050818103602083015262000d05818862000c92565b905062000d16604083018762000c48565b62000d25606083018662000c48565b62000d346080830185620009f0565b81810360a083015262000d48818462000c92565b9050979650505050505050565b600060408201905062000d6c6000830185620009f0565b62000d7b6020830184620009f0565b9392505050565b7f4e487b7100000000000000000000000000000000000000000000000000000000600052601160045260246000fd5b600062000dbe826200089c565b915062000dcb836200089c565b925082820262000ddb816200089c565b9150828204841483151762000df55762000df462000d82565b5b5092915050565b7f4e487b7100000000000000000000000000000000000000000000000000000000600052601260045260246000fd5b600062000e38826200089c565b915062000e45836200089c565b92508262000e585762000e5762000dfc565b5b828204905092915050565b600081905092915050565b50565b600062000e8060008362000e63565b915062000e8d8262000e6e565b600082019050919050565b600062000ea58262000e71565b9150819050919050565b60007fff0000000000000000000000000000000000000000000000000000000000000082169050919050565b6000819050919050565b62000efa62000ef48262000eaf565b62000edb565b82525050565b60008160601b9050919050565b600062000f1a8262000f00565b9050919050565b600062000f2e8262000f0d565b9050919050565b62000f4a62000f4482620009dc565b62000f21565b82525050565b6000819050919050565b62000f6f62000f69826200089c565b62000f50565b82525050565b6000819050919050565b6000819050919050565b62000f9e62000f988262000f75565b62000f7f565b82525050565b600062000fb2828762000ee5565b60018201915062000fc4828662000f35565b60148201915062000fd6828562000f5a565b60208201915062000fe8828462000f89565b60208201915081905095945050505050565b6000604082019050620010116000830185620009f0565b62001020602083018462000c48565b9392505050565b600081519050620010388162000b38565b92915050565b60006020828403121562001057576200105662000730565b5b6000620010678482850162001027565b91505092915050565b60006200107d826200089c565b91506200108a836200089c565b9250828201905080821115620010a557620010a462000d82565b5b9291505056fe61010060405260006007553480156200001757600080fd5b50604051620034c0380380620034c083398181016040528101906200003d91906200032e565b8585816000908162000050919062000668565b50806001908162000062919062000668565b5050503373ffffffffffffffffffffffffffffffffffffffff1660808173ffffffffffffffffffffffffffffffffffffffff16815250508360c081815250508260e081815250508173ffffffffffffffffffffffffffffffffffffffff1660a08173ffffffffffffffffffffffffffffffffffffffff16815250508060089081620000ee919062000668565b505050505050506200074f565b6000604051905090565b600080fd5b600080fd5b600080fd5b600080fd5b6000601f19601f8301169050919050565b7f4e487b7100000000000000000000000000000000000000000000000000000000600052604160045260246000fd5b620001648262000119565b810181811067ffffffffffffffff821117156200018657620001856200012a565b5b80604052505050565b60006200019b620000fb565b9050620001a9828262000159565b919050565b600067ffffffffffffffff821115620001cc57620001cb6200012a565b5b620001d78262000119565b9050602081019050919050565b60005b8381101562000204578082015181840152602081019050620001e7565b60008484015250505050565b6000620002276200022184620001ae565b6200018f565b90508281526020810184848401111562000246576200024562000114565b5b62000253848285620001e4565b509392505050565b600082601f8301126200027357620002726200010f565b5b81516200028584826020860162000210565b91505092915050565b6000819050919050565b620002a3816200028e565b8114620002af57600080fd5b50565b600081519050620002c38162000298565b92915050565b600073ffffffffffffffffffffffffffffffffffffffff82169050919050565b6000620002f682620002c9565b9050919050565b6200030881620002e9565b81146200031457600080fd5b50565b6000815190506200032881620002fd565b92915050565b60008060008060008060c087890312156200034e576200034d62000105565b5b600087015167ffffffffffffffff8111156200036f576200036e6200010a565b5b6200037d89828a016200025b565b965050602087015167ffffffffffffffff811115620003a157620003a06200010a565b5b620003af89828a016200025b565b9550506040620003c289828a01620002b2565b9450506060620003d589828a01620002b2565b9350506080620003e889828a0162000317565b92505060a087015167ffffffffffffffff8111156200040c576200040b6200010a565b5b6200041a89828a016200025b565b9150509295509295509295565b600081519050919050565b7f4e487b7100000000000000000000000000000000000000000000000000000000600052602260045260246000fd5b600060028204905060018216806200047a57607f821691505b60208210810362000490576200048f62000432565b5b50919050565b60008190508160005260206000209050919050565b60006020601f8301049050919050565b600082821b905092915050565b600060088302620004fa7fffffffffffffffffffffffffffffffffffffffffffffffffffffffffffffffff82620004bb565b620005068683620004bb565b95508019841693508086168417925050509392505050565b6000819050919050565b600062000549620005436200053d846200028e565b6200051e565b6200028e565b9050919050565b6000819050919050565b620005658362000528565b6200057d620005748262000550565b848454620004c8565b825550505050565b600090565b6200059462000585565b620005a18184846200055a565b505050565b5b81811015620005c957620005bd6000826200058a565b600181019050620005a7565b5050565b601f8211156200061857620005e28162000496565b620005ed84620004ab565b81016020851015620005fd578190505b620006156200060c85620004ab565b830182620005a6565b50505b505050565b600082821c905092915050565b60006200063d600019846008026200061d565b1980831691505092915050565b60006200065883836200062a565b9150826002028217905092915050565b620006738262000427565b67ffffffffffffffff8111156200068f576200068e6200012a565b5b6200069b825462000461565b620006a8828285620005cd565b600060209050601f831160018114620006e05760008415620006cb578287015190505b620006d785826200064a565b86555062000747565b601f198416620006f08662000496565b60005b828110156200071a57848901518255600182019150602085019450602081019050620006f3565b868310156200073a578489015162000736601f8916826200062a565b8355505b6001600288020188555050505b505050505050565b60805160a05160c05160e051612d1b620007a560003960008181610a7301528181610a9c0152610cc10152600081816109270152610a18015260008181610ce90152610da3015260006109c50152612d1b6000f3fe608060405234801561001057600080fd5b506004361061012c5760003560e01c8063a035b1fe116100ad578063c87b56dd11610071578063c87b56dd14610341578063d5abeb0114610371578063df727d3b1461038f578063e985e9c5146103ad578063eb1f9f6e146103dd5761012c565b8063a035b1fe1461029f578063a22cb465146102bd578063b88d4fde146102d9578063c27df5c8146102f5578063c41a360a146103115761012c565b806323b872dd116100f457806323b872dd146101e957806342842e0e146102055780636352211e1461022157806370a082311461025157806395d89b41146102815761012c565b806301ffc9a71461013157806306661abd1461016157806306fdde031461017f578063081812fc1461019d578063095ea7b3146101cd575b600080fd5b61014b60048036038101906101469190611bcd565b6103f9565b6040516101589190611c15565b60405180910390f35b6101696104db565b6040516101769190611c49565b60405180910390f35b6101876104e5565b6040516101949190611cf4565b60405180910390f35b6101b760048036038101906101b29190611d42565b610577565b6040516101c49190611db0565b60405180910390f35b6101e760048036038101906101e29190611df7565b6105bd565b005b61020360048036038101906101fe9190611e37565b6106d4565b005b61021f600480360381019061021a9190611e37565b610734565b005b61023b60048036038101906102369190611d42565b610754565b6040516102489190611db0565b60405180910390f35b61026b60048036038101906102669190611e8a565b6107da565b6040516102789190611c49565b60405180910390f35b610289610891565b6040516102969190611cf4565b60405180910390f35b6102a7610923565b6040516102b49190611c49565b60405180910390f35b6102d760048036038101906102d29190611ee3565b61094b565b005b6102f360048036038101906102ee9190612058565b610961565b005b61030f600480360381019061030a9190611df7565b6109c3565b005b61032b60048036038101906103269190611d42565b610bec565b6040516103389190611db0565b60405180910390f35b61035b60048036038101906103569190611d42565b610c29565b6040516103689190611cf4565b60405180910390f35b610379610cbd565b6040516103869190611c49565b60405180910390f35b610397610ce5565b6040516103a49190611db0565b60405180910390f35b6103c760048036038101906103c291906120db565b610d0d565b6040516103d49190611c15565b60405180910390f35b6103f760048036038101906103f291906121bc565b610da1565b005b60007f80ac58cd000000000000000000000000000000000000000000000000000000007bffffffffffffffffffffffffffffffffffffffffffffffffffffffff1916827bffffffffffffffffffffffffffffffffffffffffffffffffffffffff191614806104c457507f5b5e139f000000000000000000000000000000000000000000000000000000007bffffffffffffffffffffffffffffffffffffffffffffffffffffffff1916827bffffffffffffffffffffffffffffffffffffffffffffffffffffffff1916145b806104d457506104d382610e3e565b5b9050919050565b6000600754905090565b6060600080546104f490612234565b80601f016020809104026020016040519081016040528092919081815260200182805461052090612234565b801561056d5780601f106105425761010080835404028352916020019161056d565b820191906000526020600020905b81548152906001019060200180831161055057829003601f168201915b5050505050905090565b600061058282610ea8565b6004600083815260200190815260200160002060009054906101000a900473ffffffffffffffffffffffffffffffffffffffff169050919050565b60006105c882610754565b90508073ffffffffffffffffffffffffffffffffffffffff168373ffffffffffffffffffffffffffffffffffffffff1603610638576040517f08c379a000000000000000000000000000000000000000000000000000000000815260040161062f906122d7565b60405180910390fd5b8073ffffffffffffffffffffffffffffffffffffffff16610657610ef3565b73ffffffffffffffffffffffffffffffffffffffff161480610686575061068581610680610ef3565b610d0d565b5b6106c5576040517f08c379a00000000000000000000000000000000000000000000000000000000081526004016106bc90612369565b60405180910390fd5b6106cf8383610efb565b505050565b6106e56106df610ef3565b82610fb4565b610724576040517f08c379a000000000000000000000000000000000000000000000000000000000815260040161071b906123fb565b60405180910390fd5b61072f838383611049565b505050565b61074f83838360405180602001604052806000815250610961565b505050565b60008061076083611342565b9050600073ffffffffffffffffffffffffffffffffffffffff168173ffffffffffffffffffffffffffffffffffffffff16036107d1576040517f08c379a00000000000000000000000000000000000000000000000000000000081526004016107c890612467565b60405180910390fd5b80915050919050565b60008073ffffffffffffffffffffffffffffffffffffffff168273ffffffffffffffffffffffffffffffffffffffff160361084a576040517f08c379a0000000000000000000000000000000000000000000000000000000008152600401610841906124f9565b60405180910390fd5b600360008373ffffffffffffffffffffffffffffffffffffffff1673ffffffffffffffffffffffffffffffffffffffff168152602001908152602001600020549050919050565b6060600180546108a090612234565b80601f01602080910402602001604051908101604052809291908181526020018280546108cc90612234565b80156109195780601f106108ee57610100808354040283529160200191610919565b820191906000526020600020905b8154815290600101906020018083116108fc57829003601f168201915b5050505050905090565b60007f0000000000000000000000000000000000000000000000000000000000000000905090565b61095d610956610ef3565b838361137f565b5050565b61097261096c610ef3565b83610fb4565b6109b1576040517f08c379a00000000000000000000000000000000000000000000000000000000081526004016109a8906123fb565b60405180910390fd5b6109bd848484846114eb565b50505050565b7f000000000000000000000000000000000000000000000000000000000000000073ffffffffffffffffffffffffffffffffffffffff163373ffffffffffffffffffffffffffffffffffffffff1603610bb6577f00000000000000000000000000000000000000000000000000000000000000008111610a6f576040517fe748f71800000000000000000000000000000000000000000000000000000000815260040160405180910390fd5b60007f0000000000000000000000000000000000000000000000000000000000000000118015610ac057507f0000000000000000000000000000000000000000000000000000000000000000600754115b15610af7576040517f1014e77600000000000000000000000000000000000000000000000000000000815260040160405180910390fd5b610b0382600754611547565b610b9960075460088054610b1690612234565b80601f0160208091040260200160405190810160405280929190818152602001828054610b4290612234565b8015610b8f5780601f10610b6457610100808354040283529160200191610b8f565b820191906000526020600020905b815481529060010190602001808311610b7257829003601f168201915b5050505050611565565b60076000815480929190610bac90612548565b9190505550610be8565b6040517f1b42611800000000000000000000000000000000000000000000000000000000815260040160405180910390fd5b5050565b60006009600083815260200190815260200160002060009054906101000a900473ffffffffffffffffffffffffffffffffffffffff169050919050565b606060088054610c3890612234565b80601f0160208091040260200160405190810160405280929190818152602001828054610c6490612234565b8015610cb15780601f10610c8657610100808354040283529160200191610cb1565b820191906000526020600020905b815481529060010190602001808311610c9457829003601f168201915b50505050509050919050565b60007f0000000000000000000000000000000000000000000000000000000000000000905090565b60007f0000000000000000000000000000000000000000000000000000000000000000905090565b6000600560008473ffffffffffffffffffffffffffffffffffffffff1673ffffffffffffffffffffffffffffffffffffffff16815260200190815260200160002060008373ffffffffffffffffffffffffffffffffffffffff1673ffffffffffffffffffffffffffffffffffffffff16815260200190815260200160002060009054906101000a900460ff16905092915050565b7f000000000000000000000000000000000000000000000000000000000000000073ffffffffffffffffffffffffffffffffffffffff163373ffffffffffffffffffffffffffffffffffffffff1603610e09578060089081610e03919061273c565b50610e3b565b6040517f1b42611800000000000000000000000000000000000000000000000000000000815260040160405180910390fd5b50565b60007f01ffc9a7000000000000000000000000000000000000000000000000000000007bffffffffffffffffffffffffffffffffffffffffffffffffffffffff1916827bffffffffffffffffffffffffffffffffffffffffffffffffffffffff1916149050919050565b610eb1816115d2565b610ef0576040517f08c379a0000000000000000000000000000000000000000000000000000000008152600401610ee790612467565b60405180910390fd5b50565b600033905090565b816004600083815260200190815260200160002060006101000a81548173ffffffffffffffffffffffffffffffffffffffff021916908373ffffffffffffffffffffffffffffffffffffffff160217905550808273ffffffffffffffffffffffffffffffffffffffff16610f6e83610754565b73ffffffffffffffffffffffffffffffffffffffff167f8c5be1e5ebec7d5bd14f71427d1e84f3dd0314c0f7b2291e5b200ac8c7c3b92560405160405180910390a45050565b600080610fc083610754565b90508073ffffffffffffffffffffffffffffffffffffffff168473ffffffffffffffffffffffffffffffffffffffff16148061100257506110018185610d0d565b5b8061104057508373ffffffffffffffffffffffffffffffffffffffff1661102884610577565b73ffffffffffffffffffffffffffffffffffffffff16145b91505092915050565b8273ffffffffffffffffffffffffffffffffffffffff1661106982610754565b73ffffffffffffffffffffffffffffffffffffffff16146110bf576040517f08c379a00000000000000000000000000000000000000000000000000000000081526004016110b690612880565b60405180910390fd5b600073ffffffffffffffffffffffffffffffffffffffff168273ffffffffffffffffffffffffffffffffffffffff160361112e576040517f08c379a000000000000000000000000000000000000000000000000000000000815260040161112590612912565b60405180910390fd5b61113b8383836001611613565b8273ffffffffffffffffffffffffffffffffffffffff1661115b82610754565b73ffffffffffffffffffffffffffffffffffffffff16146111b1576040517f08c379a00000000000000000000000000000000000000000000000000000000081526004016111a890612880565b60405180910390fd5b6004600082815260200190815260200160002060006101000a81549073ffffffffffffffffffffffffffffffffffffffff02191690556001600360008573ffffffffffffffffffffffffffffffffffffffff1673ffffffffffffffffffffffffffffffffffffffff168152602001908152602001600020600082825403925050819055506001600360008473ffffffffffffffffffffffffffffffffffffffff1673ffffffffffffffffffffffffffffffffffffffff16815260200190815260200160002060008282540192505081905550816002600083815260200190815260200160002060006101000a81548173ffffffffffffffffffffffffffffffffffffffff021916908373ffffffffffffffffffffffffffffffffffffffff160217905550808273ffffffffffffffffffffffffffffffffffffffff168473ffffffffffffffffffffffffffffffffffffffff167fddf252ad1be2c89b69c2b068fc378daa952ba7f163c4a11628f55a4df523b3ef60405160405180910390a461133d8383836001611739565b505050565b60006002600083815260200190815260200160002060009054906101000a900473ffffffffffffffffffffffffffffffffffffffff169050919050565b8173ffffffffffffffffffffffffffffffffffffffff168373ffffffffffffffffffffffffffffffffffffffff16036113ed576040517f08c379a00000000000000000000000000000000000000000000000000000000081526004016113e49061297e565b60405180910390fd5b80600560008573ffffffffffffffffffffffffffffffffffffffff1673ffffffffffffffffffffffffffffffffffffffff16815260200190815260200160002060008473ffffffffffffffffffffffffffffffffffffffff1673ffffffffffffffffffffffffffffffffffffffff16815260200190815260200160002060006101000a81548160ff0219169083151502179055508173ffffffffffffffffffffffffffffffffffffffff168373ffffffffffffffffffffffffffffffffffffffff167f17307eab39ab6107e8899845ad3d59bd9653f200f220920489ca2b5937696c31836040516114de9190611c15565b60405180910390a3505050565b6114f6848484611049565b6115028484848461173f565b611541576040517f08c379a000000000000000000000000000000000000000000000000000000000815260040161153890612a10565b60405180910390fd5b50505050565b6115618282604051806020016040528060008152506118c6565b5050565b61156e826115d2565b6115ad576040517f08c379a00000000000000000000000000000000000000000000000000000000081526004016115a490612aa2565b60405180910390fd5b806006600084815260200190815260200160002090816115cd919061273c565b505050565b60008073ffffffffffffffffffffffffffffffffffffffff166115f483611342565b73ffffffffffffffffffffffffffffffffffffffff1614159050919050565b600181111561173357600073ffffffffffffffffffffffffffffffffffffffff168473ffffffffffffffffffffffffffffffffffffffff16146116a75780600360008673ffffffffffffffffffffffffffffffffffffffff1673ffffffffffffffffffffffffffffffffffffffff168152602001908152602001600020600082825461169f9190612ac2565b925050819055505b600073ffffffffffffffffffffffffffffffffffffffff168373ffffffffffffffffffffffffffffffffffffffff16146117325780600360008573ffffffffffffffffffffffffffffffffffffffff1673ffffffffffffffffffffffffffffffffffffffff168152602001908152602001600020600082825461172a9190612af6565b925050819055505b5b50505050565b50505050565b60006117608473ffffffffffffffffffffffffffffffffffffffff16611921565b156118b9578373ffffffffffffffffffffffffffffffffffffffff1663150b7a02611789610ef3565b8786866040518563ffffffff1660e01b81526004016117ab9493929190612b7f565b6020604051808303816000875af19250505080156117e757506040513d601f19601f820116820180604052508101906117e49190612be0565b60015b611869573d8060008114611817576040519150601f19603f3d011682016040523d82523d6000602084013e61181c565b606091505b506000815103611861576040517f08c379a000000000000000000000000000000000000000000000000000000000815260040161185890612a10565b60405180910390fd5b805181602001fd5b63150b7a0260e01b7bffffffffffffffffffffffffffffffffffffffffffffffffffffffff1916817bffffffffffffffffffffffffffffffffffffffffffffffffffffffff1916149150506118be565b600190505b949350505050565b6118d08383611944565b6118dd600084848461173f565b61191c576040517f08c379a000000000000000000000000000000000000000000000000000000000815260040161191390612a10565b60405180910390fd5b505050565b6000808273ffffffffffffffffffffffffffffffffffffffff163b119050919050565b600073ffffffffffffffffffffffffffffffffffffffff168273ffffffffffffffffffffffffffffffffffffffff16036119b3576040517f08c379a00000000000000000000000000000000000000000000000000000000081526004016119aa90612c59565b60405180910390fd5b6119bc816115d2565b156119fc576040517f08c379a00000000000000000000000000000000000000000000000000000000081526004016119f390612cc5565b60405180910390fd5b611a0a600083836001611613565b611a13816115d2565b15611a53576040517f08c379a0000000000000000000000000000000000000000000000000000000008152600401611a4a90612cc5565b60405180910390fd5b6001600360008473ffffffffffffffffffffffffffffffffffffffff1673ffffffffffffffffffffffffffffffffffffffff16815260200190815260200160002060008282540192505081905550816002600083815260200190815260200160002060006101000a81548173ffffffffffffffffffffffffffffffffffffffff021916908373ffffffffffffffffffffffffffffffffffffffff160217905550808273ffffffffffffffffffffffffffffffffffffffff16600073ffffffffffffffffffffffffffffffffffffffff167fddf252ad1be2c89b69c2b068fc378daa952ba7f163c4a11628f55a4df523b3ef60405160405180910390a4611b5d600083836001611739565b5050565b6000604051905090565b600080fd5b600080fd5b60007fffffffff0000000000000000000000000000000000000000000000000000000082169050919050565b611baa81611b75565b8114611bb557600080fd5b50565b600081359050611bc781611ba1565b92915050565b600060208284031215611be357611be2611b6b565b5b6000611bf184828501611bb8565b91505092915050565b60008115159050919050565b611c0f81611bfa565b82525050565b6000602082019050611c2a6000830184611c06565b92915050565b6000819050919050565b611c4381611c30565b82525050565b6000602082019050611c5e6000830184611c3a565b92915050565b600081519050919050565b600082825260208201905092915050565b60005b83811015611c9e578082015181840152602081019050611c83565b60008484015250505050565b6000601f19601f8301169050919050565b6000611cc682611c64565b611cd08185611c6f565b9350611ce0818560208601611c80565b611ce981611caa565b840191505092915050565b60006020820190508181036000830152611d0e8184611cbb565b905092915050565b611d1f81611c30565b8114611d2a57600080fd5b50565b600081359050611d3c81611d16565b92915050565b600060208284031215611d5857611d57611b6b565b5b6000611d6684828501611d2d565b91505092915050565b600073ffffffffffffffffffffffffffffffffffffffff82169050919050565b6000611d9a82611d6f565b9050919050565b611daa81611d8f565b82525050565b6000602082019050611dc56000830184611da1565b92915050565b611dd481611d8f565b8114611ddf57600080fd5b50565b600081359050611df181611dcb565b92915050565b60008060408385031215611e0e57611e0d611b6b565b5b6000611e1c85828601611de2565b9250506020611e2d85828601611d2d565b9150509250929050565b600080600060608486031215611e5057611e4f611b6b565b5b6000611e5e86828701611de2565b9350506020611e6f86828701611de2565b9250506040611e8086828701611d2d565b9150509250925092565b600060208284031215611ea057611e9f611b6b565b5b6000611eae84828501611de2565b91505092915050565b611ec081611bfa565b8114611ecb57600080fd5b50565b600081359050611edd81611eb7565b92915050565b60008060408385031215611efa57611ef9611b6b565b5b6000611f0885828601611de2565b9250506020611f1985828601611ece565b9150509250929050565b600080fd5b600080fd5b7f4e487b7100000000000000000000000000000000000000000000000000000000600052604160045260246000fd5b611f6582611caa565b810181811067ffffffffffffffff82111715611f8457611f83611f2d565b5b80604052505050565b6000611f97611b61565b9050611fa38282611f5c565b919050565b600067ffffffffffffffff821115611fc357611fc2611f2d565b5b611fcc82611caa565b9050602081019050919050565b82818337600083830152505050565b6000611ffb611ff684611fa8565b611f8d565b90508281526020810184848401111561201757612016611f28565b5b612022848285611fd9565b509392505050565b600082601f83011261203f5761203e611f23565b5b813561204f848260208601611fe8565b91505092915050565b6000806000806080858703121561207257612071611b6b565b5b600061208087828801611de2565b945050602061209187828801611de2565b93505060406120a287828801611d2d565b925050606085013567ffffffffffffffff8111156120c3576120c2611b70565b5b6120cf8782880161202a565b91505092959194509250565b600080604083850312156120f2576120f1611b6b565b5b600061210085828601611de2565b925050602061211185828601611de2565b9150509250929050565b600067ffffffffffffffff82111561213657612135611f2d565b5b61213f82611caa565b9050602081019050919050565b600061215f61215a8461211b565b611f8d565b90508281526020810184848401111561217b5761217a611f28565b5b612186848285611fd9565b509392505050565b600082601f8301126121a3576121a2611f23565b5b81356121b384826020860161214c565b91505092915050565b6000602082840312156121d2576121d1611b6b565b5b600082013567ffffffffffffffff8111156121f0576121ef611b70565b5b6121fc8482850161218e565b91505092915050565b7f4e487b7100000000000000000000000000000000000000000000000000000000600052602260045260246000fd5b6000600282049050600182168061224c57607f821691505b60208210810361225f5761225e612205565b5b50919050565b7f4552433732313a20617070726f76616c20746f2063757272656e74206f776e6560008201527f7200000000000000000000000000000000000000000000000000000000000000602082015250565b60006122c1602183611c6f565b91506122cc82612265565b604082019050919050565b600060208201905081810360008301526122f0816122b4565b9050919050565b7f4552433732313a20617070726f76652063616c6c6572206973206e6f7420746f60008201527f6b656e206f776e6572206f7220617070726f76656420666f7220616c6c000000602082015250565b6000612353603d83611c6f565b915061235e826122f7565b604082019050919050565b6000602082019050818103600083015261238281612346565b9050919050565b7f4552433732313a2063616c6c6572206973206e6f7420746f6b656e206f776e6560008201527f72206f7220617070726f76656400000000000000000000000000000000000000602082015250565b60006123e5602d83611c6f565b91506123f082612389565b604082019050919050565b60006020820190508181036000830152612414816123d8565b9050919050565b7f4552433732313a20696e76616c696420746f6b656e2049440000000000000000600082015250565b6000612451601883611c6f565b915061245c8261241b565b602082019050919050565b6000602082019050818103600083015261248081612444565b9050919050565b7f4552433732313a2061646472657373207a65726f206973206e6f74206120766160008201527f6c6964206f776e65720000000000000000000000000000000000000000000000602082015250565b60006124e3602983611c6f565b91506124ee82612487565b604082019050919050565b60006020820190508181036000830152612512816124d6565b9050919050565b7f4e487b7100000000000000000000000000000000000000000000000000000000600052601160045260246000fd5b600061255382611c30565b91507fffffffffffffffffffffffffffffffffffffffffffffffffffffffffffffffff820361258557612584612519565b5b600182019050919050565b60008190508160005260206000209050919050565b60006020601f8301049050919050565b600082821b905092915050565b6000600883026125f27fffffffffffffffffffffffffffffffffffffffffffffffffffffffffffffffff826125b5565b6125fc86836125b5565b95508019841693508086168417925050509392505050565b6000819050919050565b600061263961263461262f84611c30565b612614565b611c30565b9050919050565b6000819050919050565b6126538361261e565b61266761265f82612640565b8484546125c2565b825550505050565b600090565b61267c61266f565b61268781848461264a565b505050565b5b818110156126ab576126a0600082612674565b60018101905061268d565b5050565b601f8211156126f0576126c181612590565b6126ca846125a5565b810160208510156126d9578190505b6126ed6126e5856125a5565b83018261268c565b50505b505050565b600082821c905092915050565b6000612713600019846008026126f5565b1980831691505092915050565b600061272c8383612702565b9150826002028217905092915050565b61274582611c64565b67ffffffffffffffff81111561275e5761275d611f2d565b5b6127688254612234565b6127738282856126af565b600060209050601f8311600181146127a65760008415612794578287015190505b61279e8582612720565b865550612806565b601f1984166127b486612590565b60005b828110156127dc578489015182556001820191506020850194506020810190506127b7565b868310156127f957848901516127f5601f891682612702565b8355505b6001600288020188555050505b505050505050565b7f4552433732313a207472616e736665722066726f6d20696e636f72726563742060008201527f6f776e6572000000000000000000000000000000000000000000000000000000602082015250565b600061286a602583611c6f565b91506128758261280e565b604082019050919050565b600060208201905081810360008301526128998161285d565b9050919050565b7f4552433732313a207472616e7366657220746f20746865207a65726f2061646460008201527f7265737300000000000000000000000000000000000000000000000000000000602082015250565b60006128fc602483611c6f565b9150612907826128a0565b604082019050919050565b6000602082019050818103600083015261292b816128ef565b9050919050565b7f4552433732313a20617070726f766520746f2063616c6c657200000000000000600082015250565b6000612968601983611c6f565b915061297382612932565b602082019050919050565b600060208201905081810360008301526129978161295b565b9050919050565b7f4552433732313a207472616e7366657220746f206e6f6e20455243373231526560008201527f63656976657220696d706c656d656e7465720000000000000000000000000000602082015250565b60006129fa603283611c6f565b9150612a058261299e565b604082019050919050565b60006020820190508181036000830152612a29816129ed565b9050919050565b7f45524337323155524953746f726167653a2055524920736574206f66206e6f6e60008201527f6578697374656e7420746f6b656e000000000000000000000000000000000000602082015250565b6000612a8c602e83611c6f565b9150612a9782612a30565b604082019050919050565b60006020820190508181036000830152612abb81612a7f565b9050919050565b6000612acd82611c30565b9150612ad883611c30565b9250828203905081811115612af057612aef612519565b5b92915050565b6000612b0182611c30565b9150612b0c83611c30565b9250828201905080821115612b2457612b23612519565b5b92915050565b600081519050919050565b600082825260208201905092915050565b6000612b5182612b2a565b612b5b8185612b35565b9350612b6b818560208601611c80565b612b7481611caa565b840191505092915050565b6000608082019050612b946000830187611da1565b612ba16020830186611da1565b612bae6040830185611c3a565b8181036060830152612bc08184612b46565b905095945050505050565b600081519050612bda81611ba1565b92915050565b600060208284031215612bf657612bf5611b6b565b5b6000612c0484828501612bcb565b91505092915050565b7f4552433732313a206d696e7420746f20746865207a65726f2061646472657373600082015250565b6000612c43602083611c6f565b9150612c4e82612c0d565b602082019050919050565b60006020820190508181036000830152612c7281612c36565b9050919050565b7f4552433732313a20746f6b656e20616c7265616479206d696e74656400000000600082015250565b6000612caf601c83611c6f565b9150612cba82612c79565b602082019050919050565b60006020820190508181036000830152612cde81612ca2565b905091905056fea2646970667358221220c0126703d28874d2c890a649509e8a054eccecd2130b9c8a59f10658cb9184bf64736f6c63430008110033a26469706673582212207e42ca50f16eddf9cb5682dedc8f0e059768a6dfc84c5d56615ebedd7b09eaf564736f6c63430008110033",
  "devdoc": {
    "kind": "dev",
    "methods": {},
    "version": 1
  },
  "userdoc": {
    "kind": "user",
    "methods": {},
    "version": 1
  },
  "storageLayout": {
    "storage": [
      {
        "astId": 2938,
        "contract": "contracts/ERC721Creator.sol:ERC721Creator",
        "label": "s_createFee",
        "offset": 0,
        "slot": "0",
        "type": "t_uint256"
      },
      {
        "astId": 2952,
        "contract": "contracts/ERC721Creator.sol:ERC721Creator",
        "label": "ownerToCollection",
        "offset": 0,
        "slot": "1",
        "type": "t_mapping(t_address,t_array(t_address)dyn_storage)"
      },
      {
        "astId": 2956,
        "contract": "contracts/ERC721Creator.sol:ERC721Creator",
        "label": "balances",
        "offset": 0,
        "slot": "2",
        "type": "t_mapping(t_address,t_uint256)"
      }
    ],
    "types": {
      "t_address": {
        "encoding": "inplace",
        "label": "address",
        "numberOfBytes": "20"
      },
      "t_array(t_address)dyn_storage": {
        "base": "t_address",
        "encoding": "dynamic_array",
        "label": "address[]",
        "numberOfBytes": "32"
      },
      "t_mapping(t_address,t_array(t_address)dyn_storage)": {
        "encoding": "mapping",
        "key": "t_address",
        "label": "mapping(address => address[])",
        "numberOfBytes": "32",
        "value": "t_array(t_address)dyn_storage"
      },
      "t_mapping(t_address,t_uint256)": {
        "encoding": "mapping",
        "key": "t_address",
        "label": "mapping(address => uint256)",
        "numberOfBytes": "32",
        "value": "t_uint256"
      },
      "t_uint256": {
        "encoding": "inplace",
        "label": "uint256",
        "numberOfBytes": "32"
      }
    }
  }
}