{
  "address": "0xe7f1725E7734CE288F8367e1Bb143E90bb3F0512",
  "abi": [
    {
      "inputs": [],
      "stateMutability": "nonpayable",
      "type": "constructor"
    },
    {
      "anonymous": false,
      "inputs": [
        {
          "indexed": true,
          "internalType": "address",
          "name": "contractAddress",
          "type": "address"
        },
        {
          "indexed": true,
          "internalType": "address",
          "name": "owner",
          "type": "address"
        },
        {
          "indexed": false,
          "internalType": "string",
          "name": "symbol",
          "type": "string"
        }
      ],
      "name": "ERC721Create",
      "type": "event"
    },
    {
      "anonymous": false,
      "inputs": [
        {
          "indexed": true,
          "internalType": "address",
          "name": "previousOwner",
          "type": "address"
        },
        {
          "indexed": true,
          "internalType": "address",
          "name": "newOwner",
          "type": "address"
        }
      ],
      "name": "OwnershipTransferred",
      "type": "event"
    },
    {
      "inputs": [],
      "name": "balance",
      "outputs": [
        {
          "internalType": "uint256",
          "name": "",
          "type": "uint256"
        }
      ],
      "stateMutability": "view",
      "type": "function"
    },
    {
      "inputs": [
        {
          "internalType": "string",
          "name": "name",
          "type": "string"
        },
        {
          "internalType": "string",
          "name": "symbol",
          "type": "string"
        },
        {
          "internalType": "uint256",
          "name": "mintfee",
          "type": "uint256"
        },
        {
          "internalType": "string",
          "name": "url",
          "type": "string"
        }
      ],
      "name": "createERC721",
      "outputs": [
        {
          "internalType": "address",
          "name": "",
          "type": "address"
        }
      ],
      "stateMutability": "payable",
      "type": "function"
    },
    {
      "inputs": [
        {
          "internalType": "address",
          "name": "who",
          "type": "address"
        }
      ],
      "name": "getUserBalance",
      "outputs": [
        {
          "internalType": "uint256",
          "name": "",
          "type": "uint256"
        }
      ],
      "stateMutability": "view",
      "type": "function"
    },
    {
      "inputs": [
        {
          "internalType": "address",
          "name": "user",
          "type": "address"
        }
      ],
      "name": "getUserContracts",
      "outputs": [
        {
          "internalType": "address[]",
          "name": "",
          "type": "address[]"
        }
      ],
      "stateMutability": "view",
      "type": "function"
    },
    {
      "inputs": [],
      "name": "owner",
      "outputs": [
        {
          "internalType": "address",
          "name": "",
          "type": "address"
        }
      ],
      "stateMutability": "view",
      "type": "function"
    },
    {
      "inputs": [],
      "name": "renounceOwnership",
      "outputs": [],
      "stateMutability": "nonpayable",
      "type": "function"
    },
    {
      "inputs": [
        {
          "internalType": "uint256",
          "name": "index",
          "type": "uint256"
        },
        {
          "internalType": "uint256",
          "name": "feeAmount",
          "type": "uint256"
        }
      ],
      "name": "setFee",
      "outputs": [],
      "stateMutability": "nonpayable",
      "type": "function"
    },
    {
      "inputs": [
        {
          "internalType": "address",
          "name": "newOwner",
          "type": "address"
        }
      ],
      "name": "transferOwnership",
      "outputs": [],
      "stateMutability": "nonpayable",
      "type": "function"
    },
    {
      "inputs": [
        {
          "internalType": "uint256",
          "name": "amount",
          "type": "uint256"
        }
      ],
      "name": "withdraw",
      "outputs": [],
      "stateMutability": "payable",
      "type": "function"
    },
    {
      "stateMutability": "payable",
      "type": "receive"
    }
  ],
  "transactionHash": "0xea0fe6882738acb95fb2e286544f0dfde8e13e0ba5e3c0c16e7e0dc021362bbb",
  "args": [],
  "numDeployments": 1,
  "solcInputHash": "aebcd8aa1dc15f2af2c21ac7c34a7420",
  "bytecode": "0x608060405234801561001057600080fd5b5061002d61002261007360201b60201c565b61007b60201b60201c565b33600160006101000a81548173ffffffffffffffffffffffffffffffffffffffff021916908373ffffffffffffffffffffffffffffffffffffffff16021790555061013f565b600033905090565b60008060009054906101000a900473ffffffffffffffffffffffffffffffffffffffff169050816000806101000a81548173ffffffffffffffffffffffffffffffffffffffff021916908373ffffffffffffffffffffffffffffffffffffffff1602179055508173ffffffffffffffffffffffffffffffffffffffff168173ffffffffffffffffffffffffffffffffffffffff167f8be0079c531659141344cd1fd0a4f28419497f9722a3daafe3b4186f6b6457e060405160405180910390a35050565b6151b08061014e6000396000f3fe608060405260043610620000975760003560e01c806352f7c988116200006157806352f7c9881462000182578063715018a614620001b05780638da5cb5b14620001ca578063b69ef8a814620001fa578063f2fde38b146200022a576200009f565b80632c9623a914620000a45780632e1a7d4d14620000da57806334c925f014620000fa57806347734892146200013e576200009f565b366200009f57005b600080fd5b620000c26004803603810190620000bc9190620009d5565b62000258565b604051620000d1919062000aee565b60405180910390f35b620000f86004803603810190620000f2919062000b0b565b6200035d565b005b3480156200010757600080fd5b5062000126600480360381019062000120919062000b6e565b62000430565b60405162000135919062000c6e565b60405180910390f35b3480156200014b57600080fd5b506200016a600480360381019062000164919062000b6e565b620004ff565b60405162000179919062000ca3565b60405180910390f35b3480156200018f57600080fd5b50620001ae6004803603810190620001a8919062000cc0565b62000548565b005b348015620001bd57600080fd5b50620001c862000589565b005b348015620001d757600080fd5b50620001e2620005a1565b604051620001f1919062000aee565b60405180910390f35b3480156200020757600080fd5b5062000212620005ca565b60405162000221919062000ca3565b60405180910390f35b3480156200023757600080fd5b5062000256600480360381019062000250919062000b6e565b620005d2565b005b6000600254341015620002a2576040517f08c379a0000000000000000000000000000000000000000000000000000000008152600401620002999062000d68565b60405180910390fd5b6000868686338787604051620002b890620007ad565b620002c99695949392919062000e35565b604051809103906000f080158015620002e6573d6000803e3d6000fd5b5090503373ffffffffffffffffffffffffffffffffffffffff168173ffffffffffffffffffffffffffffffffffffffff167f885ff2ac72301279f7111fa8a37e1d3752db502e4301372f8b411cff87b406028860405162000348919062000ea9565b60405180910390a38091505095945050505050565b620003676200065c565b4781116200042d5760006200037b620006e1565b73ffffffffffffffffffffffffffffffffffffffff1682604051620003a09062000f02565b60006040518083038185875af1925050503d8060008114620003df576040519150601f19603f3d011682016040523d82523d6000602084013e620003e4565b606091505b50509050806200042b576040517f08c379a0000000000000000000000000000000000000000000000000000000008152600401620004229062000f69565b60405180910390fd5b505b50565b6060600660008373ffffffffffffffffffffffffffffffffffffffff1673ffffffffffffffffffffffffffffffffffffffff168152602001908152602001600020805480602002602001604051908101604052809291908181526020018280548015620004f357602002820191906000526020600020905b8160009054906101000a900473ffffffffffffffffffffffffffffffffffffffff1673ffffffffffffffffffffffffffffffffffffffff1681526020019060010190808311620004a8575b50505050509050919050565b6000600560008373ffffffffffffffffffffffffffffffffffffffff1673ffffffffffffffffffffffffffffffffffffffff168152602001908152602001600020549050919050565b620005526200065c565b600082036200056357806002819055505b600182036200057457806003819055505b600282036200058557806004819055505b5050565b620005936200065c565b6200059f6000620006e9565b565b60008060009054906101000a900473ffffffffffffffffffffffffffffffffffffffff16905090565b600047905090565b620005dc6200065c565b600073ffffffffffffffffffffffffffffffffffffffff168173ffffffffffffffffffffffffffffffffffffffff16036200064e576040517f08c379a0000000000000000000000000000000000000000000000000000000008152600401620006459062001001565b60405180910390fd5b6200065981620006e9565b50565b62000666620006e1565b73ffffffffffffffffffffffffffffffffffffffff1662000686620005a1565b73ffffffffffffffffffffffffffffffffffffffff1614620006df576040517f08c379a0000000000000000000000000000000000000000000000000000000008152600401620006d69062001073565b60405180910390fd5b565b600033905090565b60008060009054906101000a900473ffffffffffffffffffffffffffffffffffffffff169050816000806101000a81548173ffffffffffffffffffffffffffffffffffffffff021916908373ffffffffffffffffffffffffffffffffffffffff1602179055508173ffffffffffffffffffffffffffffffffffffffff168173ffffffffffffffffffffffffffffffffffffffff167f8be0079c531659141344cd1fd0a4f28419497f9722a3daafe3b4186f6b6457e060405160405180910390a35050565b6140e5806200109683390190565b6000604051905090565b600080fd5b600080fd5b600080fd5b600080fd5b6000601f19601f8301169050919050565b7f4e487b7100000000000000000000000000000000000000000000000000000000600052604160045260246000fd5b6200082482620007d9565b810181811067ffffffffffffffff82111715620008465762000845620007ea565b5b80604052505050565b60006200085b620007bb565b905062000869828262000819565b919050565b600067ffffffffffffffff8211156200088c576200088b620007ea565b5b6200089782620007d9565b9050602081019050919050565b82818337600083830152505050565b6000620008ca620008c4846200086e565b6200084f565b905082815260208101848484011115620008e957620008e8620007d4565b5b620008f6848285620008a4565b509392505050565b600082601f830112620009165762000915620007cf565b5b813562000928848260208601620008b3565b91505092915050565b6000819050919050565b620009468162000931565b81146200095257600080fd5b50565b60008135905062000966816200093b565b92915050565b600080fd5b600080fd5b60008083601f8401126200098f576200098e620007cf565b5b8235905067ffffffffffffffff811115620009af57620009ae6200096c565b5b602083019150836001820283011115620009ce57620009cd62000971565b5b9250929050565b600080600080600060808688031215620009f457620009f3620007c5565b5b600086013567ffffffffffffffff81111562000a155762000a14620007ca565b5b62000a2388828901620008fe565b955050602086013567ffffffffffffffff81111562000a475762000a46620007ca565b5b62000a5588828901620008fe565b945050604062000a688882890162000955565b935050606086013567ffffffffffffffff81111562000a8c5762000a8b620007ca565b5b62000a9a8882890162000976565b92509250509295509295909350565b600073ffffffffffffffffffffffffffffffffffffffff82169050919050565b600062000ad68262000aa9565b9050919050565b62000ae88162000ac9565b82525050565b600060208201905062000b05600083018462000add565b92915050565b60006020828403121562000b245762000b23620007c5565b5b600062000b348482850162000955565b91505092915050565b62000b488162000ac9565b811462000b5457600080fd5b50565b60008135905062000b688162000b3d565b92915050565b60006020828403121562000b875762000b86620007c5565b5b600062000b978482850162000b57565b91505092915050565b600081519050919050565b600082825260208201905092915050565b6000819050602082019050919050565b62000bd78162000ac9565b82525050565b600062000beb838362000bcc565b60208301905092915050565b6000602082019050919050565b600062000c118262000ba0565b62000c1d818562000bab565b935062000c2a8362000bbc565b8060005b8381101562000c6157815162000c45888262000bdd565b975062000c528362000bf7565b92505060018101905062000c2e565b5085935050505092915050565b6000602082019050818103600083015262000c8a818462000c04565b905092915050565b62000c9d8162000931565b82525050565b600060208201905062000cba600083018462000c92565b92915050565b6000806040838503121562000cda5762000cd9620007c5565b5b600062000cea8582860162000955565b925050602062000cfd8582860162000955565b9150509250929050565b600082825260208201905092915050565b7f6372656174652072657175697265732066656500000000000000000000000000600082015250565b600062000d5060138362000d07565b915062000d5d8262000d18565b602082019050919050565b6000602082019050818103600083015262000d838162000d41565b9050919050565b600081519050919050565b60005b8381101562000db557808201518184015260208101905062000d98565b60008484015250505050565b600062000dce8262000d8a565b62000dda818562000d07565b935062000dec81856020860162000d95565b62000df781620007d9565b840191505092915050565b600062000e10838562000d07565b935062000e1f838584620008a4565b62000e2a83620007d9565b840190509392505050565b600060a082019050818103600083015262000e51818962000dc1565b9050818103602083015262000e67818862000dc1565b905062000e78604083018762000c92565b62000e87606083018662000add565b818103608083015262000e9c81848662000e02565b9050979650505050505050565b6000602082019050818103600083015262000ec5818462000dc1565b905092915050565b600081905092915050565b50565b600062000eea60008362000ecd565b915062000ef78262000ed8565b600082019050919050565b600062000f0f8262000edb565b9150819050919050565b7f43616c6c206661696c6564000000000000000000000000000000000000000000600082015250565b600062000f51600b8362000d07565b915062000f5e8262000f19565b602082019050919050565b6000602082019050818103600083015262000f848162000f42565b9050919050565b7f4f776e61626c653a206e6577206f776e657220697320746865207a65726f206160008201527f6464726573730000000000000000000000000000000000000000000000000000602082015250565b600062000fe960268362000d07565b915062000ff68262000f8b565b604082019050919050565b600060208201905081810360008301526200101c8162000fda565b9050919050565b7f4f776e61626c653a2063616c6c6572206973206e6f7420746865206f776e6572600082015250565b60006200105b60208362000d07565b9150620010688262001023565b602082019050919050565b600060208201905081810360008301526200108e816200104c565b905091905056fe608060405260016009553480156200001657600080fd5b50604051620040e5380380620040e583398181016040528101906200003c91906200033d565b848481600090816200004f919062000663565b50806001908162000061919062000663565b50505082600a8190555081600860006101000a81548173ffffffffffffffffffffffffffffffffffffffff021916908373ffffffffffffffffffffffffffffffffffffffff1602179055508060079081620000bd919062000663565b5033600b60006101000a81548173ffffffffffffffffffffffffffffffffffffffff021916908373ffffffffffffffffffffffffffffffffffffffff16021790555050505050506200074a565b6000604051905090565b600080fd5b600080fd5b600080fd5b600080fd5b6000601f19601f8301169050919050565b7f4e487b7100000000000000000000000000000000000000000000000000000000600052604160045260246000fd5b620001738262000128565b810181811067ffffffffffffffff8211171562000195576200019462000139565b5b80604052505050565b6000620001aa6200010a565b9050620001b8828262000168565b919050565b600067ffffffffffffffff821115620001db57620001da62000139565b5b620001e68262000128565b9050602081019050919050565b60005b8381101562000213578082015181840152602081019050620001f6565b60008484015250505050565b6000620002366200023084620001bd565b6200019e565b90508281526020810184848401111562000255576200025462000123565b5b62000262848285620001f3565b509392505050565b600082601f8301126200028257620002816200011e565b5b8151620002948482602086016200021f565b91505092915050565b6000819050919050565b620002b2816200029d565b8114620002be57600080fd5b50565b600081519050620002d281620002a7565b92915050565b600073ffffffffffffffffffffffffffffffffffffffff82169050919050565b60006200030582620002d8565b9050919050565b6200031781620002f8565b81146200032357600080fd5b50565b60008151905062000337816200030c565b92915050565b600080600080600060a086880312156200035c576200035b62000114565b5b600086015167ffffffffffffffff8111156200037d576200037c62000119565b5b6200038b888289016200026a565b955050602086015167ffffffffffffffff811115620003af57620003ae62000119565b5b620003bd888289016200026a565b9450506040620003d088828901620002c1565b9350506060620003e38882890162000326565b925050608086015167ffffffffffffffff81111562000407576200040662000119565b5b62000415888289016200026a565b9150509295509295909350565b600081519050919050565b7f4e487b7100000000000000000000000000000000000000000000000000000000600052602260045260246000fd5b600060028204905060018216806200047557607f821691505b6020821081036200048b576200048a6200042d565b5b50919050565b60008190508160005260206000209050919050565b60006020601f8301049050919050565b600082821b905092915050565b600060088302620004f57fffffffffffffffffffffffffffffffffffffffffffffffffffffffffffffffff82620004b6565b620005018683620004b6565b95508019841693508086168417925050509392505050565b6000819050919050565b6000620005446200053e62000538846200029d565b62000519565b6200029d565b9050919050565b6000819050919050565b620005608362000523565b620005786200056f826200054b565b848454620004c3565b825550505050565b600090565b6200058f62000580565b6200059c81848462000555565b505050565b5b81811015620005c457620005b860008262000585565b600181019050620005a2565b5050565b601f8211156200061357620005dd8162000491565b620005e884620004a6565b81016020851015620005f8578190505b620006106200060785620004a6565b830182620005a1565b50505b505050565b600082821c905092915050565b6000620006386000198460080262000618565b1980831691505092915050565b600062000653838362000625565b9150826002028217905092915050565b6200066e8262000422565b67ffffffffffffffff8111156200068a576200068962000139565b5b6200069682546200045c565b620006a3828285620005c8565b600060209050601f831160018114620006db5760008415620006c6578287015190505b620006d2858262000645565b86555062000742565b601f198416620006eb8662000491565b60005b828110156200071557848901518255600182019150602085019450602081019050620006ee565b8683101562000735578489015162000731601f89168262000625565b8355505b6001600288020188555050505b505050505050565b61398b806200075a6000396000f3fe6080604052600436106101095760003560e01c80638340f54911610095578063a22cb46511610064578063a22cb46514610358578063b88d4fde14610381578063c87b56dd146103aa578063e985e9c5146103e7578063f3fef3a31461042457610109565b80638340f549146102d15780638f677db4146102fa57806395d89b411461031657806399d32fc41461034157610109565b806323b872dd116100dc57806323b872dd146101dc57806342842e0e1461020557806359cf31731461022e5780636352211e1461025757806370a082311461029457610109565b806301ffc9a71461010e57806306fdde031461014b578063081812fc14610176578063095ea7b3146101b3575b600080fd5b34801561011a57600080fd5b506101356004803603810190610130919061240b565b61044d565b6040516101429190612453565b60405180910390f35b34801561015757600080fd5b506101606104ae565b60405161016d91906124fe565b60405180910390f35b34801561018257600080fd5b5061019d60048036038101906101989190612556565b610540565b6040516101aa91906125c4565b60405180910390f35b3480156101bf57600080fd5b506101da60048036038101906101d5919061260b565b610586565b005b3480156101e857600080fd5b5061020360048036038101906101fe919061264b565b61069d565b005b34801561021157600080fd5b5061022c6004803603810190610227919061264b565b6106fd565b005b34801561023a57600080fd5b5061025560048036038101906102509190612556565b61071d565b005b34801561026357600080fd5b5061027e60048036038101906102799190612556565b6108dd565b60405161028b91906125c4565b60405180910390f35b3480156102a057600080fd5b506102bb60048036038101906102b6919061269e565b610963565b6040516102c891906126da565b60405180910390f35b3480156102dd57600080fd5b506102f860048036038101906102f3919061264b565b610a1a565b005b610314600480360381019061030f919061260b565b610acc565b005b34801561032257600080fd5b5061032b610d86565b60405161033891906124fe565b60405180910390f35b34801561034d57600080fd5b50610356610e18565b005b34801561036457600080fd5b5061037f600480360381019061037a9190612721565b610eaa565b005b34801561038d57600080fd5b506103a860048036038101906103a39190612896565b610ec0565b005b3480156103b657600080fd5b506103d160048036038101906103cc9190612556565b610f22565b6040516103de91906124fe565b60405180910390f35b3480156103f357600080fd5b5061040e60048036038101906104099190612919565b61100b565b60405161041b9190612453565b60405180910390f35b34801561043057600080fd5b5061044b6004803603810190610446919061260b565b61109f565b005b6000634906490660e01b7bffffffffffffffffffffffffffffffffffffffffffffffffffffffff1916827bffffffffffffffffffffffffffffffffffffffffffffffffffffffff191614806104a757506104a68261117b565b5b9050919050565b6060600080546104bd90612988565b80601f01602080910402602001604051908101604052809291908181526020018280546104e990612988565b80156105365780601f1061050b57610100808354040283529160200191610536565b820191906000526020600020905b81548152906001019060200180831161051957829003601f168201915b5050505050905090565b600061054b8261125d565b6004600083815260200190815260200160002060009054906101000a900473ffffffffffffffffffffffffffffffffffffffff169050919050565b6000610591826108dd565b90508073ffffffffffffffffffffffffffffffffffffffff168373ffffffffffffffffffffffffffffffffffffffff1603610601576040517f08c379a00000000000000000000000000000000000000000000000000000000081526004016105f890612a2b565b60405180910390fd5b8073ffffffffffffffffffffffffffffffffffffffff166106206112a8565b73ffffffffffffffffffffffffffffffffffffffff16148061064f575061064e816106496112a8565b61100b565b5b61068e576040517f08c379a000000000000000000000000000000000000000000000000000000000815260040161068590612abd565b60405180910390fd5b61069883836112b0565b505050565b6106ae6106a86112a8565b82611369565b6106ed576040517f08c379a00000000000000000000000000000000000000000000000000000000081526004016106e490612b4f565b60405180910390fd5b6106f88383836113fe565b505050565b61071883838360405180602001604052806000815250610ec0565b505050565b6107256112a8565b73ffffffffffffffffffffffffffffffffffffffff16610744826108dd565b73ffffffffffffffffffffffffffffffffffffffff161461079a576040517f08c379a000000000000000000000000000000000000000000000000000000000815260040161079190612bbb565b60405180910390fd5b6000600d600083815260200190815260200160002060000160009054906101000a900473ffffffffffffffffffffffffffffffffffffffff1690506000600d6000848152602001908152602001600020600101549050600d6000848152602001908152602001600020600080820160006101000a81549073ffffffffffffffffffffffffffffffffffffffff02191690556001820160009055505061083e836116f7565b80600e600061084b6112a8565b73ffffffffffffffffffffffffffffffffffffffff1673ffffffffffffffffffffffffffffffffffffffff16815260200190815260200160002060008473ffffffffffffffffffffffffffffffffffffffff1673ffffffffffffffffffffffffffffffffffffffff16815260200190815260200160002060008282546108d19190612c0a565b92505081905550505050565b6000806108e98361174a565b9050600073ffffffffffffffffffffffffffffffffffffffff168173ffffffffffffffffffffffffffffffffffffffff160361095a576040517f08c379a000000000000000000000000000000000000000000000000000000000815260040161095190612c8a565b60405180910390fd5b80915050919050565b60008073ffffffffffffffffffffffffffffffffffffffff168273ffffffffffffffffffffffffffffffffffffffff16036109d3576040517f08c379a00000000000000000000000000000000000000000000000000000000081526004016109ca90612d1c565b60405180910390fd5b600360008373ffffffffffffffffffffffffffffffffffffffff1673ffffffffffffffffffffffffffffffffffffffff168152602001908152602001600020549050919050565b610a2d83610a266112a8565b8484611787565b80600e6000610a3a6112a8565b73ffffffffffffffffffffffffffffffffffffffff1673ffffffffffffffffffffffffffffffffffffffff16815260200190815260200160002060008573ffffffffffffffffffffffffffffffffffffffff1673ffffffffffffffffffffffffffffffffffffffff1681526020019081526020016000206000828254610ac09190612c0a565b92505081905550505050565b600a54341015610b11576040517f08c379a0000000000000000000000000000000000000000000000000000000008152600401610b0890612d88565b60405180910390fd5b80600e6000610b1e6112a8565b73ffffffffffffffffffffffffffffffffffffffff1673ffffffffffffffffffffffffffffffffffffffff16815260200190815260200160002060008473ffffffffffffffffffffffffffffffffffffffff1673ffffffffffffffffffffffffffffffffffffffff168152602001908152602001600020541015610bd7576040517f08c379a0000000000000000000000000000000000000000000000000000000008152600401610bce90612df4565b60405180910390fd5b80600e6000610be46112a8565b73ffffffffffffffffffffffffffffffffffffffff1673ffffffffffffffffffffffffffffffffffffffff16815260200190815260200160002060008473ffffffffffffffffffffffffffffffffffffffff1673ffffffffffffffffffffffffffffffffffffffff1681526020019081526020016000206000828254610c6a9190612e14565b92505081905550610c84610c7c6112a8565b6009546118df565b60405180604001604052808373ffffffffffffffffffffffffffffffffffffffff16815260200182815250600d6000600954815260200190815260200160002060008201518160000160006101000a81548173ffffffffffffffffffffffffffffffffffffffff021916908373ffffffffffffffffffffffffffffffffffffffff1602179055506020820151816001015590505060096000815480929190610d2b90612e48565b91905055507ff11c3f740b1cd8d659c18edd03787ef5925d7bad08d8dda0cf79b1aec9b53fe4610d596112a8565b83836001600954610d6a9190612e14565b604051610d7a9493929190612e90565b60405180910390a15050565b606060018054610d9590612988565b80601f0160208091040260200160405190810160405280929190818152602001828054610dc190612988565b8015610e0e5780601f10610de357610100808354040283529160200191610e0e565b820191906000526020600020905b815481529060010190602001808311610df157829003601f168201915b5050505050905090565b600860009054906101000a900473ffffffffffffffffffffffffffffffffffffffff1673ffffffffffffffffffffffffffffffffffffffff163373ffffffffffffffffffffffffffffffffffffffff1614610ea8576040517f08c379a0000000000000000000000000000000000000000000000000000000008152600401610e9f90612f21565b60405180910390fd5b565b610ebc610eb56112a8565b8383611afc565b5050565b610ed1610ecb6112a8565b83611369565b610f10576040517f08c379a0000000000000000000000000000000000000000000000000000000008152600401610f0790612b4f565b60405180910390fd5b610f1c84848484611c68565b50505050565b6060610f2d82611cc4565b610f63576040517f6df5edae00000000000000000000000000000000000000000000000000000000815260040160405180910390fd5b610f6b611d05565b610fe4600d600085815260200190815260200160002060000160009054906101000a900473ffffffffffffffffffffffffffffffffffffffff16600d6000868152602001908152602001600020600101546007604051602001610fd0939291906131a3565b604051602081830303815290604052611d1c565b604051602001610ff5929190613239565b6040516020818303038152906040529050919050565b6000600560008473ffffffffffffffffffffffffffffffffffffffff1673ffffffffffffffffffffffffffffffffffffffff16815260200190815260200160002060008373ffffffffffffffffffffffffffffffffffffffff1673ffffffffffffffffffffffffffffffffffffffff16815260200190815260200160002060009054906101000a900460ff16905092915050565b80600e60006110ac6112a8565b73ffffffffffffffffffffffffffffffffffffffff1673ffffffffffffffffffffffffffffffffffffffff16815260200190815260200160002060008473ffffffffffffffffffffffffffffffffffffffff1673ffffffffffffffffffffffffffffffffffffffff168152602001908152602001600020541015611165576040517f08c379a000000000000000000000000000000000000000000000000000000000815260040161115c906132a9565b60405180910390fd5b611177826111716112a8565b83611e7f565b5050565b60007f80ac58cd000000000000000000000000000000000000000000000000000000007bffffffffffffffffffffffffffffffffffffffffffffffffffffffff1916827bffffffffffffffffffffffffffffffffffffffffffffffffffffffff1916148061124657507f5b5e139f000000000000000000000000000000000000000000000000000000007bffffffffffffffffffffffffffffffffffffffffffffffffffffffff1916827bffffffffffffffffffffffffffffffffffffffffffffffffffffffff1916145b80611256575061125582611fd4565b5b9050919050565b61126681611cc4565b6112a5576040517f08c379a000000000000000000000000000000000000000000000000000000000815260040161129c90612c8a565b60405180910390fd5b50565b600033905090565b816004600083815260200190815260200160002060006101000a81548173ffffffffffffffffffffffffffffffffffffffff021916908373ffffffffffffffffffffffffffffffffffffffff160217905550808273ffffffffffffffffffffffffffffffffffffffff16611323836108dd565b73ffffffffffffffffffffffffffffffffffffffff167f8c5be1e5ebec7d5bd14f71427d1e84f3dd0314c0f7b2291e5b200ac8c7c3b92560405160405180910390a45050565b600080611375836108dd565b90508073ffffffffffffffffffffffffffffffffffffffff168473ffffffffffffffffffffffffffffffffffffffff1614806113b757506113b6818561100b565b5b806113f557508373ffffffffffffffffffffffffffffffffffffffff166113dd84610540565b73ffffffffffffffffffffffffffffffffffffffff16145b91505092915050565b8273ffffffffffffffffffffffffffffffffffffffff1661141e826108dd565b73ffffffffffffffffffffffffffffffffffffffff1614611474576040517f08c379a000000000000000000000000000000000000000000000000000000000815260040161146b9061333b565b60405180910390fd5b600073ffffffffffffffffffffffffffffffffffffffff168273ffffffffffffffffffffffffffffffffffffffff16036114e3576040517f08c379a00000000000000000000000000000000000000000000000000000000081526004016114da906133cd565b60405180910390fd5b6114f0838383600161203e565b8273ffffffffffffffffffffffffffffffffffffffff16611510826108dd565b73ffffffffffffffffffffffffffffffffffffffff1614611566576040517f08c379a000000000000000000000000000000000000000000000000000000000815260040161155d9061333b565b60405180910390fd5b6004600082815260200190815260200160002060006101000a81549073ffffffffffffffffffffffffffffffffffffffff02191690556001600360008573ffffffffffffffffffffffffffffffffffffffff1673ffffffffffffffffffffffffffffffffffffffff168152602001908152602001600020600082825403925050819055506001600360008473ffffffffffffffffffffffffffffffffffffffff1673ffffffffffffffffffffffffffffffffffffffff16815260200190815260200160002060008282540192505081905550816002600083815260200190815260200160002060006101000a81548173ffffffffffffffffffffffffffffffffffffffff021916908373ffffffffffffffffffffffffffffffffffffffff160217905550808273ffffffffffffffffffffffffffffffffffffffff168473ffffffffffffffffffffffffffffffffffffffff167fddf252ad1be2c89b69c2b068fc378daa952ba7f163c4a11628f55a4df523b3ef60405160405180910390a46116f28383836001612044565b505050565b6117008161204a565b600060066000838152602001908152602001600020805461172090612988565b905014611747576006600082815260200190815260200160002060006117469190612342565b5b50565b60006002600083815260200190815260200160002060009054906101000a900473ffffffffffffffffffffffffffffffffffffffff169050919050565b6000808573ffffffffffffffffffffffffffffffffffffffff166323b872dd60e01b8686866040516024016117be939291906133ed565b604051602081830303815290604052907bffffffffffffffffffffffffffffffffffffffffffffffffffffffff19166020820180517bffffffffffffffffffffffffffffffffffffffffffffffffffffffff8381831617835250505050604051611828919061346b565b6000604051808303816000865af19150503d8060008114611865576040519150601f19603f3d011682016040523d82523d6000602084013e61186a565b606091505b509150915081801561189857506000815114806118975750808060200190518101906118969190613497565b5b5b6118d7576040517f08c379a00000000000000000000000000000000000000000000000000000000081526004016118ce90613510565b60405180910390fd5b505050505050565b600073ffffffffffffffffffffffffffffffffffffffff168273ffffffffffffffffffffffffffffffffffffffff160361194e576040517f08c379a00000000000000000000000000000000000000000000000000000000081526004016119459061357c565b60405180910390fd5b61195781611cc4565b15611997576040517f08c379a000000000000000000000000000000000000000000000000000000000815260040161198e906135e8565b60405180910390fd5b6119a560008383600161203e565b6119ae81611cc4565b156119ee576040517f08c379a00000000000000000000000000000000000000000000000000000000081526004016119e5906135e8565b60405180910390fd5b6001600360008473ffffffffffffffffffffffffffffffffffffffff1673ffffffffffffffffffffffffffffffffffffffff16815260200190815260200160002060008282540192505081905550816002600083815260200190815260200160002060006101000a81548173ffffffffffffffffffffffffffffffffffffffff021916908373ffffffffffffffffffffffffffffffffffffffff160217905550808273ffffffffffffffffffffffffffffffffffffffff16600073ffffffffffffffffffffffffffffffffffffffff167fddf252ad1be2c89b69c2b068fc378daa952ba7f163c4a11628f55a4df523b3ef60405160405180910390a4611af8600083836001612044565b5050565b8173ffffffffffffffffffffffffffffffffffffffff168373ffffffffffffffffffffffffffffffffffffffff1603611b6a576040517f08c379a0000000000000000000000000000000000000000000000000000000008152600401611b6190613654565b60405180910390fd5b80600560008573ffffffffffffffffffffffffffffffffffffffff1673ffffffffffffffffffffffffffffffffffffffff16815260200190815260200160002060008473ffffffffffffffffffffffffffffffffffffffff1673ffffffffffffffffffffffffffffffffffffffff16815260200190815260200160002060006101000a81548160ff0219169083151502179055508173ffffffffffffffffffffffffffffffffffffffff168373ffffffffffffffffffffffffffffffffffffffff167f17307eab39ab6107e8899845ad3d59bd9653f200f220920489ca2b5937696c3183604051611c5b9190612453565b60405180910390a3505050565b611c738484846113fe565b611c7f84848484612198565b611cbe576040517f08c379a0000000000000000000000000000000000000000000000000000000008152600401611cb5906136e6565b60405180910390fd5b50505050565b60008073ffffffffffffffffffffffffffffffffffffffff16611ce68361174a565b73ffffffffffffffffffffffffffffffffffffffff1614159050919050565b606060405180602001604052806000815250905090565b60606000825103611d3e57604051806020016040528060008152509050611e7a565b60006040518060600160405280604081526020016139166040913990506000600360028551611d6d9190612c0a565b611d779190613735565b6004611d839190613766565b67ffffffffffffffff811115611d9c57611d9b61276b565b5b6040519080825280601f01601f191660200182016040528015611dce5781602001600182028036833780820191505090505b509050600182016020820185865187015b80821015611e3a576003820191508151603f8160121c168501518453600184019350603f81600c1c168501518453600184019350603f8160061c168501518453600184019350603f8116850151845360018401935050611ddf565b5050600386510660018114611e565760028114611e6957611e71565b603d6001830353603d6002830353611e71565b603d60018303535b50505080925050505b919050565b6000808473ffffffffffffffffffffffffffffffffffffffff1663a9059cbb60e01b8585604051602401611eb49291906137a8565b604051602081830303815290604052907bffffffffffffffffffffffffffffffffffffffffffffffffffffffff19166020820180517bffffffffffffffffffffffffffffffffffffffffffffffffffffffff8381831617835250505050604051611f1e919061346b565b6000604051808303816000865af19150503d8060008114611f5b576040519150601f19603f3d011682016040523d82523d6000602084013e611f60565b606091505b5091509150818015611f8e5750600081511480611f8d575080806020019051810190611f8c9190613497565b5b5b611fcd576040517f08c379a0000000000000000000000000000000000000000000000000000000008152600401611fc49061381d565b60405180910390fd5b5050505050565b60007f01ffc9a7000000000000000000000000000000000000000000000000000000007bffffffffffffffffffffffffffffffffffffffffffffffffffffffff1916827bffffffffffffffffffffffffffffffffffffffffffffffffffffffff1916149050919050565b50505050565b50505050565b6000612055826108dd565b905061206581600084600161203e565b61206e826108dd565b90506004600083815260200190815260200160002060006101000a81549073ffffffffffffffffffffffffffffffffffffffff02191690556001600360008373ffffffffffffffffffffffffffffffffffffffff1673ffffffffffffffffffffffffffffffffffffffff168152602001908152602001600020600082825403925050819055506002600083815260200190815260200160002060006101000a81549073ffffffffffffffffffffffffffffffffffffffff021916905581600073ffffffffffffffffffffffffffffffffffffffff168273ffffffffffffffffffffffffffffffffffffffff167fddf252ad1be2c89b69c2b068fc378daa952ba7f163c4a11628f55a4df523b3ef60405160405180910390a4612194816000846001612044565b5050565b60006121b98473ffffffffffffffffffffffffffffffffffffffff1661231f565b15612312578373ffffffffffffffffffffffffffffffffffffffff1663150b7a026121e26112a8565b8786866040518563ffffffff1660e01b81526004016122049493929190613887565b6020604051808303816000875af192505050801561224057506040513d601f19601f8201168201806040525081019061223d91906138e8565b60015b6122c2573d8060008114612270576040519150601f19603f3d011682016040523d82523d6000602084013e612275565b606091505b5060008151036122ba576040517f08c379a00000000000000000000000000000000000000000000000000000000081526004016122b1906136e6565b60405180910390fd5b805181602001fd5b63150b7a0260e01b7bffffffffffffffffffffffffffffffffffffffffffffffffffffffff1916817bffffffffffffffffffffffffffffffffffffffffffffffffffffffff191614915050612317565b600190505b949350505050565b6000808273ffffffffffffffffffffffffffffffffffffffff163b119050919050565b50805461234e90612988565b6000825580601f10612360575061237f565b601f01602090049060005260206000209081019061237e9190612382565b5b50565b5b8082111561239b576000816000905550600101612383565b5090565b6000604051905090565b600080fd5b600080fd5b60007fffffffff0000000000000000000000000000000000000000000000000000000082169050919050565b6123e8816123b3565b81146123f357600080fd5b50565b600081359050612405816123df565b92915050565b600060208284031215612421576124206123a9565b5b600061242f848285016123f6565b91505092915050565b60008115159050919050565b61244d81612438565b82525050565b60006020820190506124686000830184612444565b92915050565b600081519050919050565b600082825260208201905092915050565b60005b838110156124a857808201518184015260208101905061248d565b60008484015250505050565b6000601f19601f8301169050919050565b60006124d08261246e565b6124da8185612479565b93506124ea81856020860161248a565b6124f3816124b4565b840191505092915050565b6000602082019050818103600083015261251881846124c5565b905092915050565b6000819050919050565b61253381612520565b811461253e57600080fd5b50565b6000813590506125508161252a565b92915050565b60006020828403121561256c5761256b6123a9565b5b600061257a84828501612541565b91505092915050565b600073ffffffffffffffffffffffffffffffffffffffff82169050919050565b60006125ae82612583565b9050919050565b6125be816125a3565b82525050565b60006020820190506125d960008301846125b5565b92915050565b6125e8816125a3565b81146125f357600080fd5b50565b600081359050612605816125df565b92915050565b60008060408385031215612622576126216123a9565b5b6000612630858286016125f6565b925050602061264185828601612541565b9150509250929050565b600080600060608486031215612664576126636123a9565b5b6000612672868287016125f6565b9350506020612683868287016125f6565b925050604061269486828701612541565b9150509250925092565b6000602082840312156126b4576126b36123a9565b5b60006126c2848285016125f6565b91505092915050565b6126d481612520565b82525050565b60006020820190506126ef60008301846126cb565b92915050565b6126fe81612438565b811461270957600080fd5b50565b60008135905061271b816126f5565b92915050565b60008060408385031215612738576127376123a9565b5b6000612746858286016125f6565b92505060206127578582860161270c565b9150509250929050565b600080fd5b600080fd5b7f4e487b7100000000000000000000000000000000000000000000000000000000600052604160045260246000fd5b6127a3826124b4565b810181811067ffffffffffffffff821117156127c2576127c161276b565b5b80604052505050565b60006127d561239f565b90506127e1828261279a565b919050565b600067ffffffffffffffff8211156128015761280061276b565b5b61280a826124b4565b9050602081019050919050565b82818337600083830152505050565b6000612839612834846127e6565b6127cb565b90508281526020810184848401111561285557612854612766565b5b612860848285612817565b509392505050565b600082601f83011261287d5761287c612761565b5b813561288d848260208601612826565b91505092915050565b600080600080608085870312156128b0576128af6123a9565b5b60006128be878288016125f6565b94505060206128cf878288016125f6565b93505060406128e087828801612541565b925050606085013567ffffffffffffffff811115612901576129006123ae565b5b61290d87828801612868565b91505092959194509250565b600080604083850312156129305761292f6123a9565b5b600061293e858286016125f6565b925050602061294f858286016125f6565b9150509250929050565b7f4e487b7100000000000000000000000000000000000000000000000000000000600052602260045260246000fd5b600060028204905060018216806129a057607f821691505b6020821081036129b3576129b2612959565b5b50919050565b7f4552433732313a20617070726f76616c20746f2063757272656e74206f776e6560008201527f7200000000000000000000000000000000000000000000000000000000000000602082015250565b6000612a15602183612479565b9150612a20826129b9565b604082019050919050565b60006020820190508181036000830152612a4481612a08565b9050919050565b7f4552433732313a20617070726f76652063616c6c6572206973206e6f7420746f60008201527f6b656e206f776e6572206f7220617070726f76656420666f7220616c6c000000602082015250565b6000612aa7603d83612479565b9150612ab282612a4b565b604082019050919050565b60006020820190508181036000830152612ad681612a9a565b9050919050565b7f4552433732313a2063616c6c6572206973206e6f7420746f6b656e206f776e6560008201527f72206f7220617070726f76656400000000000000000000000000000000000000602082015250565b6000612b39602d83612479565b9150612b4482612add565b604082019050919050565b60006020820190508181036000830152612b6881612b2c565b9050919050565b7f546f6b656e2062656c6f6e677320736f6d656f6e6520656c7365000000000000600082015250565b6000612ba5601a83612479565b9150612bb082612b6f565b602082019050919050565b60006020820190508181036000830152612bd481612b98565b9050919050565b7f4e487b7100000000000000000000000000000000000000000000000000000000600052601160045260246000fd5b6000612c1582612520565b9150612c2083612520565b9250828201905080821115612c3857612c37612bdb565b5b92915050565b7f4552433732313a20696e76616c696420746f6b656e2049440000000000000000600082015250565b6000612c74601883612479565b9150612c7f82612c3e565b602082019050919050565b60006020820190508181036000830152612ca381612c67565b9050919050565b7f4552433732313a2061646472657373207a65726f206973206e6f74206120766160008201527f6c6964206f776e65720000000000000000000000000000000000000000000000602082015250565b6000612d06602983612479565b9150612d1182612caa565b604082019050919050565b60006020820190508181036000830152612d3581612cf9565b9050919050565b7f5265717569726573206665650000000000000000000000000000000000000000600082015250565b6000612d72600c83612479565b9150612d7d82612d3c565b602082019050919050565b60006020820190508181036000830152612da181612d65565b9050919050565b7f496e73756666696369656e742066756e64000000000000000000000000000000600082015250565b6000612dde601183612479565b9150612de982612da8565b602082019050919050565b60006020820190508181036000830152612e0d81612dd1565b9050919050565b6000612e1f82612520565b9150612e2a83612520565b9250828203905081811115612e4257612e41612bdb565b5b92915050565b6000612e5382612520565b91507fffffffffffffffffffffffffffffffffffffffffffffffffffffffffffffffff8203612e8557612e84612bdb565b5b600182019050919050565b6000608082019050612ea560008301876125b5565b612eb260208301866125b5565b612ebf60408301856126cb565b612ecc60608301846126cb565b95945050505050565b7f4f6e6c79206f776e657200000000000000000000000000000000000000000000600082015250565b6000612f0b600a83612479565b9150612f1682612ed5565b602082019050919050565b60006020820190508181036000830152612f3a81612efe565b9050919050565b600081905092915050565b7f7b22746f6b656e2061646472657373223a220000000000000000000000000000600082015250565b6000612f82601283612f41565b9150612f8d82612f4c565b601282019050919050565b60008160601b9050919050565b6000612fb082612f98565b9050919050565b6000612fc282612fa5565b9050919050565b612fda612fd5826125a3565b612fb7565b82525050565b7f222c2022616d6f756e74223a2200000000000000000000000000000000000000600082015250565b6000613016600d83612f41565b915061302182612fe0565b600d82019050919050565b6000819050919050565b61304761304282612520565b61302c565b82525050565b7f222c226465736372697074696f6e223a20736f6d657468696e67202c2022696d60008201527f616765223a220000000000000000000000000000000000000000000000000000602082015250565b60006130a9602683612f41565b91506130b48261304d565b602682019050919050565b60008190508160005260206000209050919050565b600081546130e181612988565b6130eb8186612f41565b94506001821660008114613106576001811461311b5761314e565b60ff198316865281151582028601935061314e565b613124856130bf565b60005b8381101561314657815481890152600182019150602081019050613127565b838801955050505b50505092915050565b7f227d000000000000000000000000000000000000000000000000000000000000600082015250565b600061318d600283612f41565b915061319882613157565b600282019050919050565b60006131ae82612f75565b91506131ba8286612fc9565b6014820191506131c982613009565b91506131d58285613036565b6020820191506131e48261309c565b91506131f082846130d4565b91506131fb82613180565b9150819050949350505050565b60006132138261246e565b61321d8185612f41565b935061322d81856020860161248a565b80840191505092915050565b60006132458285613208565b91506132518284613208565b91508190509392505050565b7f496e73756666696369656e742062616c616e6365000000000000000000000000600082015250565b6000613293601483612479565b915061329e8261325d565b602082019050919050565b600060208201905081810360008301526132c281613286565b9050919050565b7f4552433732313a207472616e736665722066726f6d20696e636f72726563742060008201527f6f776e6572000000000000000000000000000000000000000000000000000000602082015250565b6000613325602583612479565b9150613330826132c9565b604082019050919050565b6000602082019050818103600083015261335481613318565b9050919050565b7f4552433732313a207472616e7366657220746f20746865207a65726f2061646460008201527f7265737300000000000000000000000000000000000000000000000000000000602082015250565b60006133b7602483612479565b91506133c28261335b565b604082019050919050565b600060208201905081810360008301526133e6816133aa565b9050919050565b600060608201905061340260008301866125b5565b61340f60208301856125b5565b61341c60408301846126cb565b949350505050565b600081519050919050565b600081905092915050565b600061344582613424565b61344f818561342f565b935061345f81856020860161248a565b80840191505092915050565b6000613477828461343a565b915081905092915050565b600081519050613491816126f5565b92915050565b6000602082840312156134ad576134ac6123a9565b5b60006134bb84828501613482565b91505092915050565b7f5354460000000000000000000000000000000000000000000000000000000000600082015250565b60006134fa600383612479565b9150613505826134c4565b602082019050919050565b60006020820190508181036000830152613529816134ed565b9050919050565b7f4552433732313a206d696e7420746f20746865207a65726f2061646472657373600082015250565b6000613566602083612479565b915061357182613530565b602082019050919050565b6000602082019050818103600083015261359581613559565b9050919050565b7f4552433732313a20746f6b656e20616c7265616479206d696e74656400000000600082015250565b60006135d2601c83612479565b91506135dd8261359c565b602082019050919050565b60006020820190508181036000830152613601816135c5565b9050919050565b7f4552433732313a20617070726f766520746f2063616c6c657200000000000000600082015250565b600061363e601983612479565b915061364982613608565b602082019050919050565b6000602082019050818103600083015261366d81613631565b9050919050565b7f4552433732313a207472616e7366657220746f206e6f6e20455243373231526560008201527f63656976657220696d706c656d656e7465720000000000000000000000000000602082015250565b60006136d0603283612479565b91506136db82613674565b604082019050919050565b600060208201905081810360008301526136ff816136c3565b9050919050565b7f4e487b7100000000000000000000000000000000000000000000000000000000600052601260045260246000fd5b600061374082612520565b915061374b83612520565b92508261375b5761375a613706565b5b828204905092915050565b600061377182612520565b915061377c83612520565b925082820261378a81612520565b915082820484148315176137a1576137a0612bdb565b5b5092915050565b60006040820190506137bd60008301856125b5565b6137ca60208301846126cb565b9392505050565b7f5354000000000000000000000000000000000000000000000000000000000000600082015250565b6000613807600283612479565b9150613812826137d1565b602082019050919050565b60006020820190508181036000830152613836816137fa565b9050919050565b600082825260208201905092915050565b600061385982613424565b613863818561383d565b935061387381856020860161248a565b61387c816124b4565b840191505092915050565b600060808201905061389c60008301876125b5565b6138a960208301866125b5565b6138b660408301856126cb565b81810360608301526138c8818461384e565b905095945050505050565b6000815190506138e2816123df565b92915050565b6000602082840312156138fe576138fd6123a9565b5b600061390c848285016138d3565b9150509291505056fe4142434445464748494a4b4c4d4e4f505152535455565758595a6162636465666768696a6b6c6d6e6f707172737475767778797a303132333435363738392b2fa264697066735822122055c3d42359ad968ec5a2c905d897553a02de73b4d1819ddc9d332bb70a889c1a64736f6c63430008110033a2646970667358221220cf8df4db78d23b1f821c7d56e155b9f4dc7c1b7d407a368af6bbe9b49035830064736f6c63430008110033",
  "devdoc": {
    "kind": "dev",
    "methods": {
      "owner()": {
        "details": "Returns the address of the current owner."
      },
      "renounceOwnership()": {
        "details": "Leaves the contract without owner. It will not be possible to call `onlyOwner` functions. Can only be called by the current owner. NOTE: Renouncing ownership will leave the contract without an owner, thereby disabling any functionality that is only available to the owner."
      },
      "transferOwnership(address)": {
        "details": "Transfers ownership of the contract to a new account (`newOwner`). Can only be called by the current owner."
      }
    },
    "version": 1
  },
  "userdoc": {
    "kind": "user",
    "methods": {},
    "version": 1
  },
  "storageLayout": {
    "storage": [
      {
        "astId": 53,
        "contract": "contracts/ERC721CollateralCreator.sol:ERC721CollateralCreator",
        "label": "_owner",
        "offset": 0,
        "slot": "0",
        "type": "t_address"
      },
      {
        "astId": 4560,
        "contract": "contracts/ERC721CollateralCreator.sol:ERC721CollateralCreator",
        "label": "s_owner",
        "offset": 0,
        "slot": "1",
        "type": "t_address"
      },
      {
        "astId": 4562,
        "contract": "contracts/ERC721CollateralCreator.sol:ERC721CollateralCreator",
        "label": "deployCost",
        "offset": 0,
        "slot": "2",
        "type": "t_uint256"
      },
      {
        "astId": 4564,
        "contract": "contracts/ERC721CollateralCreator.sol:ERC721CollateralCreator",
        "label": "mintFee",
        "offset": 0,
        "slot": "3",
        "type": "t_uint256"
      },
      {
        "astId": 4566,
        "contract": "contracts/ERC721CollateralCreator.sol:ERC721CollateralCreator",
        "label": "withdrawalFee",
        "offset": 0,
        "slot": "4",
        "type": "t_uint256"
      },
      {
        "astId": 4570,
        "contract": "contracts/ERC721CollateralCreator.sol:ERC721CollateralCreator",
        "label": "balances",
        "offset": 0,
        "slot": "5",
        "type": "t_mapping(t_address,t_uint256)"
      },
      {
        "astId": 4575,
        "contract": "contracts/ERC721CollateralCreator.sol:ERC721CollateralCreator",
        "label": "addressToContracts",
        "offset": 0,
        "slot": "6",
        "type": "t_mapping(t_address,t_array(t_address)dyn_storage)"
      }
    ],
    "types": {
      "t_address": {
        "encoding": "inplace",
        "label": "address",
        "numberOfBytes": "20"
      },
      "t_array(t_address)dyn_storage": {
        "base": "t_address",
        "encoding": "dynamic_array",
        "label": "address[]",
        "numberOfBytes": "32"
      },
      "t_mapping(t_address,t_array(t_address)dyn_storage)": {
        "encoding": "mapping",
        "key": "t_address",
        "label": "mapping(address => address[])",
        "numberOfBytes": "32",
        "value": "t_array(t_address)dyn_storage"
      },
      "t_mapping(t_address,t_uint256)": {
        "encoding": "mapping",
        "key": "t_address",
        "label": "mapping(address => uint256)",
        "numberOfBytes": "32",
        "value": "t_uint256"
      },
      "t_uint256": {
        "encoding": "inplace",
        "label": "uint256",
        "numberOfBytes": "32"
      }
    }
  }
}