{
  "address": "0xe7f1725E7734CE288F8367e1Bb143E90bb3F0512",
  "abi": [
    {
      "inputs": [
        {
          "internalType": "string",
          "name": "name",
          "type": "string"
        },
        {
          "internalType": "string",
          "name": "symbol",
          "type": "string"
        },
        {
          "internalType": "uint256",
          "name": "fee",
          "type": "uint256"
        },
        {
          "internalType": "uint256",
          "name": "maxSupply",
          "type": "uint256"
        },
        {
          "internalType": "address",
          "name": "owner",
          "type": "address"
        },
        {
          "internalType": "string",
          "name": "imgUrl",
          "type": "string"
        }
      ],
      "stateMutability": "nonpayable",
      "type": "constructor"
    },
    {
      "anonymous": false,
      "inputs": [
        {
          "indexed": true,
          "internalType": "address",
          "name": "owner",
          "type": "address"
        },
        {
          "indexed": true,
          "internalType": "address",
          "name": "approved",
          "type": "address"
        },
        {
          "indexed": true,
          "internalType": "uint256",
          "name": "tokenId",
          "type": "uint256"
        }
      ],
      "name": "Approval",
      "type": "event"
    },
    {
      "anonymous": false,
      "inputs": [
        {
          "indexed": true,
          "internalType": "address",
          "name": "owner",
          "type": "address"
        },
        {
          "indexed": true,
          "internalType": "address",
          "name": "operator",
          "type": "address"
        },
        {
          "indexed": false,
          "internalType": "bool",
          "name": "approved",
          "type": "bool"
        }
      ],
      "name": "ApprovalForAll",
      "type": "event"
    },
    {
      "anonymous": false,
      "inputs": [
        {
          "indexed": false,
          "internalType": "address",
          "name": "user",
          "type": "address"
        },
        {
          "indexed": false,
          "internalType": "address",
          "name": "nftContract",
          "type": "address"
        },
        {
          "indexed": false,
          "internalType": "uint256",
          "name": "tokenId",
          "type": "uint256"
        }
      ],
      "name": "Mint",
      "type": "event"
    },
    {
      "anonymous": false,
      "inputs": [
        {
          "indexed": true,
          "internalType": "address",
          "name": "from",
          "type": "address"
        },
        {
          "indexed": true,
          "internalType": "address",
          "name": "to",
          "type": "address"
        },
        {
          "indexed": true,
          "internalType": "uint256",
          "name": "tokenId",
          "type": "uint256"
        }
      ],
      "name": "Transfer",
      "type": "event"
    },
    {
      "anonymous": false,
      "inputs": [
        {
          "indexed": false,
          "internalType": "address",
          "name": "user",
          "type": "address"
        },
        {
          "indexed": false,
          "internalType": "address",
          "name": "contractAddress",
          "type": "address"
        },
        {
          "indexed": false,
          "internalType": "uint256",
          "name": "value",
          "type": "uint256"
        }
      ],
      "name": "Withdraw",
      "type": "event"
    },
    {
      "inputs": [
        {
          "internalType": "address",
          "name": "to",
          "type": "address"
        },
        {
          "internalType": "uint256",
          "name": "tokenId",
          "type": "uint256"
        }
      ],
      "name": "approve",
      "outputs": [],
      "stateMutability": "nonpayable",
      "type": "function"
    },
    {
      "inputs": [
        {
          "internalType": "address",
          "name": "owner",
          "type": "address"
        }
      ],
      "name": "balanceOf",
      "outputs": [
        {
          "internalType": "uint256",
          "name": "",
          "type": "uint256"
        }
      ],
      "stateMutability": "view",
      "type": "function"
    },
    {
      "inputs": [
        {
          "internalType": "uint256",
          "name": "newFee",
          "type": "uint256"
        }
      ],
      "name": "changeFee",
      "outputs": [],
      "stateMutability": "nonpayable",
      "type": "function"
    },
    {
      "inputs": [
        {
          "internalType": "uint256",
          "name": "tokenId",
          "type": "uint256"
        }
      ],
      "name": "getApproved",
      "outputs": [
        {
          "internalType": "address",
          "name": "",
          "type": "address"
        }
      ],
      "stateMutability": "view",
      "type": "function"
    },
    {
      "inputs": [],
      "name": "getBalance",
      "outputs": [
        {
          "internalType": "uint256",
          "name": "",
          "type": "uint256"
        }
      ],
      "stateMutability": "view",
      "type": "function"
    },
    {
      "inputs": [],
      "name": "getPrice",
      "outputs": [
        {
          "internalType": "uint256",
          "name": "",
          "type": "uint256"
        }
      ],
      "stateMutability": "view",
      "type": "function"
    },
    {
      "inputs": [
        {
          "internalType": "address",
          "name": "owner",
          "type": "address"
        },
        {
          "internalType": "address",
          "name": "operator",
          "type": "address"
        }
      ],
      "name": "isApprovedForAll",
      "outputs": [
        {
          "internalType": "bool",
          "name": "",
          "type": "bool"
        }
      ],
      "stateMutability": "view",
      "type": "function"
    },
    {
      "inputs": [],
      "name": "mint",
      "outputs": [],
      "stateMutability": "payable",
      "type": "function"
    },
    {
      "inputs": [],
      "name": "name",
      "outputs": [
        {
          "internalType": "string",
          "name": "",
          "type": "string"
        }
      ],
      "stateMutability": "view",
      "type": "function"
    },
    {
      "inputs": [
        {
          "internalType": "uint256",
          "name": "tokenId",
          "type": "uint256"
        }
      ],
      "name": "ownerOf",
      "outputs": [
        {
          "internalType": "address",
          "name": "",
          "type": "address"
        }
      ],
      "stateMutability": "view",
      "type": "function"
    },
    {
      "inputs": [
        {
          "internalType": "address",
          "name": "from",
          "type": "address"
        },
        {
          "internalType": "address",
          "name": "to",
          "type": "address"
        },
        {
          "internalType": "uint256",
          "name": "tokenId",
          "type": "uint256"
        }
      ],
      "name": "safeTransferFrom",
      "outputs": [],
      "stateMutability": "nonpayable",
      "type": "function"
    },
    {
      "inputs": [
        {
          "internalType": "address",
          "name": "from",
          "type": "address"
        },
        {
          "internalType": "address",
          "name": "to",
          "type": "address"
        },
        {
          "internalType": "uint256",
          "name": "tokenId",
          "type": "uint256"
        },
        {
          "internalType": "bytes",
          "name": "data",
          "type": "bytes"
        }
      ],
      "name": "safeTransferFrom",
      "outputs": [],
      "stateMutability": "nonpayable",
      "type": "function"
    },
    {
      "inputs": [
        {
          "internalType": "address",
          "name": "operator",
          "type": "address"
        },
        {
          "internalType": "bool",
          "name": "approved",
          "type": "bool"
        }
      ],
      "name": "setApprovalForAll",
      "outputs": [],
      "stateMutability": "nonpayable",
      "type": "function"
    },
    {
      "inputs": [
        {
          "internalType": "string",
          "name": "newUri",
          "type": "string"
        }
      ],
      "name": "setUri",
      "outputs": [],
      "stateMutability": "nonpayable",
      "type": "function"
    },
    {
      "inputs": [
        {
          "internalType": "bytes4",
          "name": "interfaceId",
          "type": "bytes4"
        }
      ],
      "name": "supportsInterface",
      "outputs": [
        {
          "internalType": "bool",
          "name": "",
          "type": "bool"
        }
      ],
      "stateMutability": "view",
      "type": "function"
    },
    {
      "inputs": [],
      "name": "symbol",
      "outputs": [
        {
          "internalType": "string",
          "name": "",
          "type": "string"
        }
      ],
      "stateMutability": "view",
      "type": "function"
    },
    {
      "inputs": [
        {
          "internalType": "uint256",
          "name": "tokenId",
          "type": "uint256"
        }
      ],
      "name": "tokenURI",
      "outputs": [
        {
          "internalType": "string",
          "name": "",
          "type": "string"
        }
      ],
      "stateMutability": "view",
      "type": "function"
    },
    {
      "inputs": [
        {
          "internalType": "address",
          "name": "from",
          "type": "address"
        },
        {
          "internalType": "address",
          "name": "to",
          "type": "address"
        },
        {
          "internalType": "uint256",
          "name": "tokenId",
          "type": "uint256"
        }
      ],
      "name": "transferFrom",
      "outputs": [],
      "stateMutability": "nonpayable",
      "type": "function"
    },
    {
      "inputs": [
        {
          "internalType": "address",
          "name": "newOwner",
          "type": "address"
        }
      ],
      "name": "transferOwnership",
      "outputs": [],
      "stateMutability": "nonpayable",
      "type": "function"
    },
    {
      "inputs": [],
      "name": "withdraw",
      "outputs": [],
      "stateMutability": "payable",
      "type": "function"
    }
  ],
  "transactionHash": "0x0d6b60ede41ef9b6f23ef407a60e78982461d1726a18f243468e643355df3a86",
  "args": [
    "test",
    "tst",
    1,
    1000,
    "0xf39Fd6e51aad88F6F4ce6aB8827279cffFb92266",
    "someURI"
  ],
  "numDeployments": 1,
  "solcInputHash": "c605f547c142f66c2e153c6208545656",
  "bytecode": "0x60a06040523480156200001157600080fd5b5060405162003be838038062003be8833981810160405281019062000037919062000489565b600680546200004690620005b1565b80601f01602080910402602001604051908101604052809291908181526020018280546200007490620005b1565b8015620000c55780601f106200009957610100808354040283529160200191620000c5565b820191906000526020600020905b815481529060010190602001808311620000a757829003601f168201915b505050505060078054620000d990620005b1565b80601f01602080910402602001604051908101604052809291908181526020018280546200010790620005b1565b8015620001585780601f106200012c5761010080835404028352916020019162000158565b820191906000526020600020905b8154815290600101906020018083116200013a57829003601f168201915b505050505081600090816200016e9190620007c3565b508060019081620001809190620007c3565b5050508560069081620001949190620007c3565b508460079081620001a69190620007c3565b5083600b81905550826080818152505081600960006101000a81548173ffffffffffffffffffffffffffffffffffffffff021916908373ffffffffffffffffffffffffffffffffffffffff1602179055508060089081620002089190620007c3565b5033600c60006101000a81548173ffffffffffffffffffffffffffffffffffffffff021916908373ffffffffffffffffffffffffffffffffffffffff160217905550505050505050620008aa565b6000604051905090565b600080fd5b600080fd5b600080fd5b600080fd5b6000601f19601f8301169050919050565b7f4e487b7100000000000000000000000000000000000000000000000000000000600052604160045260246000fd5b620002bf8262000274565b810181811067ffffffffffffffff82111715620002e157620002e062000285565b5b80604052505050565b6000620002f662000256565b9050620003048282620002b4565b919050565b600067ffffffffffffffff82111562000327576200032662000285565b5b620003328262000274565b9050602081019050919050565b60005b838110156200035f57808201518184015260208101905062000342565b60008484015250505050565b6000620003826200037c8462000309565b620002ea565b905082815260208101848484011115620003a157620003a06200026f565b5b620003ae8482856200033f565b509392505050565b600082601f830112620003ce57620003cd6200026a565b5b8151620003e08482602086016200036b565b91505092915050565b6000819050919050565b620003fe81620003e9565b81146200040a57600080fd5b50565b6000815190506200041e81620003f3565b92915050565b600073ffffffffffffffffffffffffffffffffffffffff82169050919050565b6000620004518262000424565b9050919050565b620004638162000444565b81146200046f57600080fd5b50565b600081519050620004838162000458565b92915050565b60008060008060008060c08789031215620004a957620004a862000260565b5b600087015167ffffffffffffffff811115620004ca57620004c962000265565b5b620004d889828a01620003b6565b965050602087015167ffffffffffffffff811115620004fc57620004fb62000265565b5b6200050a89828a01620003b6565b95505060406200051d89828a016200040d565b94505060606200053089828a016200040d565b93505060806200054389828a0162000472565b92505060a087015167ffffffffffffffff81111562000567576200056662000265565b5b6200057589828a01620003b6565b9150509295509295509295565b7f4e487b7100000000000000000000000000000000000000000000000000000000600052602260045260246000fd5b60006002820490506001821680620005ca57607f821691505b602082108103620005e057620005df62000582565b5b50919050565b600081519050919050565b60008190508160005260206000209050919050565b60006020601f8301049050919050565b600082821b905092915050565b600060088302620006557fffffffffffffffffffffffffffffffffffffffffffffffffffffffffffffffff8262000616565b62000661868362000616565b95508019841693508086168417925050509392505050565b6000819050919050565b6000620006a46200069e6200069884620003e9565b62000679565b620003e9565b9050919050565b6000819050919050565b620006c08362000683565b620006d8620006cf82620006ab565b84845462000623565b825550505050565b600090565b620006ef620006e0565b620006fc818484620006b5565b505050565b5b81811015620007245762000718600082620006e5565b60018101905062000702565b5050565b601f82111562000773576200073d81620005f1565b620007488462000606565b8101602085101562000758578190505b62000770620007678562000606565b83018262000701565b50505b505050565b600082821c905092915050565b6000620007986000198460080262000778565b1980831691505092915050565b6000620007b3838362000785565b9150826002028217905092915050565b620007ce82620005e6565b67ffffffffffffffff811115620007ea57620007e962000285565b5b620007f68254620005b1565b6200080382828562000728565b600060209050601f8311600181146200083b576000841562000826578287015190505b620008328582620007a5565b865550620008a2565b601f1984166200084b86620005f1565b60005b8281101562000875578489015182556001820191506020850194506020810190506200084e565b8683101562000895578489015162000891601f89168262000785565b8355505b6001600288020188555050505b505050505050565b60805161331b620008cd600039600081816107ba01526111e3015261331b6000f3fe60806040526004361061011f5760003560e01c80636a1db1bf116100a0578063a22cb46511610064578063a22cb465146103a5578063b88d4fde146103ce578063c87b56dd146103f7578063e985e9c514610434578063f2fde38b146104715761011f565b80636a1db1bf146102c057806370a08231146102e957806395d89b411461032657806398d5fdca146103515780639b642de11461037c5761011f565b80631249c58b116100e75780631249c58b1461021d57806323b872dd146102275780633ccfd60b1461025057806342842e0e1461025a5780636352211e146102835761011f565b806301ffc9a71461012457806306fdde0314610161578063081812fc1461018c578063095ea7b3146101c957806312065fe0146101f2575b600080fd5b34801561013057600080fd5b5061014b60048036038101906101469190611f72565b61049a565b6040516101589190611fba565b60405180910390f35b34801561016d57600080fd5b5061017661057c565b6040516101839190612065565b60405180910390f35b34801561019857600080fd5b506101b360048036038101906101ae91906120bd565b61060e565b6040516101c0919061212b565b60405180910390f35b3480156101d557600080fd5b506101f060048036038101906101eb9190612172565b610654565b005b3480156101fe57600080fd5b5061020761076b565b60405161021491906121c1565b60405180910390f35b610225610773565b005b34801561023357600080fd5b5061024e600480360381019061024991906121dc565b610924565b005b610258610984565b005b34801561026657600080fd5b50610281600480360381019061027c91906121dc565b610a35565b005b34801561028f57600080fd5b506102aa60048036038101906102a591906120bd565b610a55565b6040516102b7919061212b565b60405180910390f35b3480156102cc57600080fd5b506102e760048036038101906102e291906120bd565b610adb565b005b3480156102f557600080fd5b50610310600480360381019061030b919061222f565b610b75565b60405161031d91906121c1565b60405180910390f35b34801561033257600080fd5b5061033b610c2c565b6040516103489190612065565b60405180910390f35b34801561035d57600080fd5b50610366610cbe565b60405161037391906121c1565b60405180910390f35b34801561038857600080fd5b506103a3600480360381019061039e9190612391565b610cc8565b005b3480156103b157600080fd5b506103cc60048036038101906103c79190612406565b610d6b565b005b3480156103da57600080fd5b506103f560048036038101906103f091906124e7565b610d81565b005b34801561040357600080fd5b5061041e600480360381019061041991906120bd565b610de3565b60405161042b9190612065565b60405180910390f35b34801561044057600080fd5b5061045b6004803603810190610456919061256a565b610e4b565b6040516104689190611fba565b60405180910390f35b34801561047d57600080fd5b506104986004803603810190610493919061222f565b610edf565b005b60007f80ac58cd000000000000000000000000000000000000000000000000000000007bffffffffffffffffffffffffffffffffffffffffffffffffffffffff1916827bffffffffffffffffffffffffffffffffffffffffffffffffffffffff1916148061056557507f5b5e139f000000000000000000000000000000000000000000000000000000007bffffffffffffffffffffffffffffffffffffffffffffffffffffffff1916827bffffffffffffffffffffffffffffffffffffffffffffffffffffffff1916145b80610575575061057482610fb3565b5b9050919050565b60606000805461058b906125d9565b80601f01602080910402602001604051908101604052809291908181526020018280546105b7906125d9565b80156106045780601f106105d957610100808354040283529160200191610604565b820191906000526020600020905b8154815290600101906020018083116105e757829003601f168201915b5050505050905090565b60006106198261101d565b6004600083815260200190815260200160002060009054906101000a900473ffffffffffffffffffffffffffffffffffffffff169050919050565b600061065f82610a55565b90508073ffffffffffffffffffffffffffffffffffffffff168373ffffffffffffffffffffffffffffffffffffffff16036106cf576040517f08c379a00000000000000000000000000000000000000000000000000000000081526004016106c69061267c565b60405180910390fd5b8073ffffffffffffffffffffffffffffffffffffffff166106ee611068565b73ffffffffffffffffffffffffffffffffffffffff16148061071d575061071c81610717611068565b610e4b565b5b61075c576040517f08c379a00000000000000000000000000000000000000000000000000000000081526004016107539061270e565b60405180910390fd5b6107668383611070565b505050565b600047905090565b600b543410156107b8576040517f08c379a00000000000000000000000000000000000000000000000000000000081526004016107af9061277a565b60405180910390fd5b7f0000000000000000000000000000000000000000000000000000000000000000600a54111561081d576040517f08c379a0000000000000000000000000000000000000000000000000000000008152600401610814906127e6565b60405180910390fd5b6000600c60009054906101000a900473ffffffffffffffffffffffffffffffffffffffff1673ffffffffffffffffffffffffffffffffffffffff166064600b546108679190612864565b604051610873906128c6565b60006040518083038185875af1925050503d80600081146108b0576040519150601f19603f3d011682016040523d82523d6000602084013e6108b5565b606091505b5050905080156108e4576108cb33600a54611129565b600a60008154809291906108de906128db565b91905055505b7fab8530f87dc9b59234c4623bf917212bb2536d647574c8e7e5da92c2ede0c9f83330600a5460405161091993929190612923565b60405180910390a150565b61093561092f611068565b826113a9565b610974576040517f08c379a000000000000000000000000000000000000000000000000000000000815260040161096b906129cc565b60405180910390fd5b61097f83838361143e565b505050565b60003373ffffffffffffffffffffffffffffffffffffffff16476040516109aa906128c6565b60006040518083038185875af1925050503d80600081146109e7576040519150601f19603f3d011682016040523d82523d6000602084013e6109ec565b606091505b505090508015610a32577f9b1bfa7fa9ee420a16e124f794c35ac9f90472acc99140eb2f6447c714cad8eb333047604051610a2993929190612923565b60405180910390a15b50565b610a5083838360405180602001604052806000815250610d81565b505050565b600080610a6183611737565b9050600073ffffffffffffffffffffffffffffffffffffffff168173ffffffffffffffffffffffffffffffffffffffff1603610ad2576040517f08c379a0000000000000000000000000000000000000000000000000000000008152600401610ac990612a38565b60405180910390fd5b80915050919050565b600960009054906101000a900473ffffffffffffffffffffffffffffffffffffffff1673ffffffffffffffffffffffffffffffffffffffff163373ffffffffffffffffffffffffffffffffffffffff1614610b6b576040517f08c379a0000000000000000000000000000000000000000000000000000000008152600401610b6290612aa4565b60405180910390fd5b80600b8190555050565b60008073ffffffffffffffffffffffffffffffffffffffff168273ffffffffffffffffffffffffffffffffffffffff1603610be5576040517f08c379a0000000000000000000000000000000000000000000000000000000008152600401610bdc90612b36565b60405180910390fd5b600360008373ffffffffffffffffffffffffffffffffffffffff1673ffffffffffffffffffffffffffffffffffffffff168152602001908152602001600020549050919050565b606060018054610c3b906125d9565b80601f0160208091040260200160405190810160405280929190818152602001828054610c67906125d9565b8015610cb45780601f10610c8957610100808354040283529160200191610cb4565b820191906000526020600020905b815481529060010190602001808311610c9757829003601f168201915b5050505050905090565b6000600b54905090565b600960009054906101000a900473ffffffffffffffffffffffffffffffffffffffff1673ffffffffffffffffffffffffffffffffffffffff163373ffffffffffffffffffffffffffffffffffffffff1614610d58576040517f08c379a0000000000000000000000000000000000000000000000000000000008152600401610d4f90612aa4565b60405180910390fd5b8060089081610d679190612d02565b5050565b610d7d610d76611068565b8383611774565b5050565b610d92610d8c611068565b836113a9565b610dd1576040517f08c379a0000000000000000000000000000000000000000000000000000000008152600401610dc8906129cc565b60405180910390fd5b610ddd848484846118e0565b50505050565b6060610dee8261101d565b6000610df861193c565b90506000815111610e185760405180602001604052806000815250610e43565b80610e22846119ce565b604051602001610e33929190612e10565b6040516020818303038152906040525b915050919050565b6000600560008473ffffffffffffffffffffffffffffffffffffffff1673ffffffffffffffffffffffffffffffffffffffff16815260200190815260200160002060008373ffffffffffffffffffffffffffffffffffffffff1673ffffffffffffffffffffffffffffffffffffffff16815260200190815260200160002060009054906101000a900460ff16905092915050565b600960009054906101000a900473ffffffffffffffffffffffffffffffffffffffff1673ffffffffffffffffffffffffffffffffffffffff163373ffffffffffffffffffffffffffffffffffffffff1614610f6f576040517f08c379a0000000000000000000000000000000000000000000000000000000008152600401610f6690612aa4565b60405180910390fd5b80600960006101000a81548173ffffffffffffffffffffffffffffffffffffffff021916908373ffffffffffffffffffffffffffffffffffffffff16021790555050565b60007f01ffc9a7000000000000000000000000000000000000000000000000000000007bffffffffffffffffffffffffffffffffffffffffffffffffffffffff1916827bffffffffffffffffffffffffffffffffffffffffffffffffffffffff1916149050919050565b61102681611a9c565b611065576040517f08c379a000000000000000000000000000000000000000000000000000000000815260040161105c90612a38565b60405180910390fd5b50565b600033905090565b816004600083815260200190815260200160002060006101000a81548173ffffffffffffffffffffffffffffffffffffffff021916908373ffffffffffffffffffffffffffffffffffffffff160217905550808273ffffffffffffffffffffffffffffffffffffffff166110e383610a55565b73ffffffffffffffffffffffffffffffffffffffff167f8c5be1e5ebec7d5bd14f71427d1e84f3dd0314c0f7b2291e5b200ac8c7c3b92560405160405180910390a45050565b600073ffffffffffffffffffffffffffffffffffffffff168273ffffffffffffffffffffffffffffffffffffffff1603611198576040517f08c379a000000000000000000000000000000000000000000000000000000000815260040161118f90612e80565b60405180910390fd5b6111a181611a9c565b156111e1576040517f08c379a00000000000000000000000000000000000000000000000000000000081526004016111d890612eec565b60405180910390fd5b7f0000000000000000000000000000000000000000000000000000000000000000811115611244576040517f08c379a000000000000000000000000000000000000000000000000000000000815260040161123b90612f58565b60405180910390fd5b611252600083836001611add565b61125b81611a9c565b1561129b576040517f08c379a000000000000000000000000000000000000000000000000000000000815260040161129290612eec565b60405180910390fd5b6001600e60008473ffffffffffffffffffffffffffffffffffffffff1673ffffffffffffffffffffffffffffffffffffffff1681526020019081526020016000206000828254019250508190555081600d600083815260200190815260200160002060006101000a81548173ffffffffffffffffffffffffffffffffffffffff021916908373ffffffffffffffffffffffffffffffffffffffff160217905550808273ffffffffffffffffffffffffffffffffffffffff16600073ffffffffffffffffffffffffffffffffffffffff167fddf252ad1be2c89b69c2b068fc378daa952ba7f163c4a11628f55a4df523b3ef60405160405180910390a46113a5600083836001611c03565b5050565b6000806113b583610a55565b90508073ffffffffffffffffffffffffffffffffffffffff168473ffffffffffffffffffffffffffffffffffffffff1614806113f757506113f68185610e4b565b5b8061143557508373ffffffffffffffffffffffffffffffffffffffff1661141d8461060e565b73ffffffffffffffffffffffffffffffffffffffff16145b91505092915050565b8273ffffffffffffffffffffffffffffffffffffffff1661145e82610a55565b73ffffffffffffffffffffffffffffffffffffffff16146114b4576040517f08c379a00000000000000000000000000000000000000000000000000000000081526004016114ab90612fea565b60405180910390fd5b600073ffffffffffffffffffffffffffffffffffffffff168273ffffffffffffffffffffffffffffffffffffffff1603611523576040517f08c379a000000000000000000000000000000000000000000000000000000000815260040161151a9061307c565b60405180910390fd5b6115308383836001611add565b8273ffffffffffffffffffffffffffffffffffffffff1661155082610a55565b73ffffffffffffffffffffffffffffffffffffffff16146115a6576040517f08c379a000000000000000000000000000000000000000000000000000000000815260040161159d90612fea565b60405180910390fd5b6004600082815260200190815260200160002060006101000a81549073ffffffffffffffffffffffffffffffffffffffff02191690556001600360008573ffffffffffffffffffffffffffffffffffffffff1673ffffffffffffffffffffffffffffffffffffffff168152602001908152602001600020600082825403925050819055506001600360008473ffffffffffffffffffffffffffffffffffffffff1673ffffffffffffffffffffffffffffffffffffffff16815260200190815260200160002060008282540192505081905550816002600083815260200190815260200160002060006101000a81548173ffffffffffffffffffffffffffffffffffffffff021916908373ffffffffffffffffffffffffffffffffffffffff160217905550808273ffffffffffffffffffffffffffffffffffffffff168473ffffffffffffffffffffffffffffffffffffffff167fddf252ad1be2c89b69c2b068fc378daa952ba7f163c4a11628f55a4df523b3ef60405160405180910390a46117328383836001611c03565b505050565b60006002600083815260200190815260200160002060009054906101000a900473ffffffffffffffffffffffffffffffffffffffff169050919050565b8173ffffffffffffffffffffffffffffffffffffffff168373ffffffffffffffffffffffffffffffffffffffff16036117e2576040517f08c379a00000000000000000000000000000000000000000000000000000000081526004016117d9906130e8565b60405180910390fd5b80600560008573ffffffffffffffffffffffffffffffffffffffff1673ffffffffffffffffffffffffffffffffffffffff16815260200190815260200160002060008473ffffffffffffffffffffffffffffffffffffffff1673ffffffffffffffffffffffffffffffffffffffff16815260200190815260200160002060006101000a81548160ff0219169083151502179055508173ffffffffffffffffffffffffffffffffffffffff168373ffffffffffffffffffffffffffffffffffffffff167f17307eab39ab6107e8899845ad3d59bd9653f200f220920489ca2b5937696c31836040516118d39190611fba565b60405180910390a3505050565b6118eb84848461143e565b6118f784848484611c09565b611936576040517f08c379a000000000000000000000000000000000000000000000000000000000815260040161192d9061317a565b60405180910390fd5b50505050565b60606008805461194b906125d9565b80601f0160208091040260200160405190810160405280929190818152602001828054611977906125d9565b80156119c45780601f10611999576101008083540402835291602001916119c4565b820191906000526020600020905b8154815290600101906020018083116119a757829003601f168201915b5050505050905090565b6060600060016119dd84611d90565b01905060008167ffffffffffffffff8111156119fc576119fb612266565b5b6040519080825280601f01601f191660200182016040528015611a2e5781602001600182028036833780820191505090505b509050600082602001820190505b600115611a91578080600190039150507f3031323334353637383961626364656600000000000000000000000000000000600a86061a8153600a8581611a8557611a84612806565b5b04945060008503611a3c575b819350505050919050565b60008073ffffffffffffffffffffffffffffffffffffffff16611abe83611737565b73ffffffffffffffffffffffffffffffffffffffff1614159050919050565b6001811115611bfd57600073ffffffffffffffffffffffffffffffffffffffff168473ffffffffffffffffffffffffffffffffffffffff1614611b715780600360008673ffffffffffffffffffffffffffffffffffffffff1673ffffffffffffffffffffffffffffffffffffffff1681526020019081526020016000206000828254611b69919061319a565b925050819055505b600073ffffffffffffffffffffffffffffffffffffffff168373ffffffffffffffffffffffffffffffffffffffff1614611bfc5780600360008573ffffffffffffffffffffffffffffffffffffffff1673ffffffffffffffffffffffffffffffffffffffff1681526020019081526020016000206000828254611bf491906131ce565b925050819055505b5b50505050565b50505050565b6000611c2a8473ffffffffffffffffffffffffffffffffffffffff16611ee3565b15611d83578373ffffffffffffffffffffffffffffffffffffffff1663150b7a02611c53611068565b8786866040518563ffffffff1660e01b8152600401611c759493929190613257565b6020604051808303816000875af1925050508015611cb157506040513d601f19601f82011682018060405250810190611cae91906132b8565b60015b611d33573d8060008114611ce1576040519150601f19603f3d011682016040523d82523d6000602084013e611ce6565b606091505b506000815103611d2b576040517f08c379a0000000000000000000000000000000000000000000000000000000008152600401611d229061317a565b60405180910390fd5b805181602001fd5b63150b7a0260e01b7bffffffffffffffffffffffffffffffffffffffffffffffffffffffff1916817bffffffffffffffffffffffffffffffffffffffffffffffffffffffff191614915050611d88565b600190505b949350505050565b600080600090507a184f03e93ff9f4daa797ed6e38ed64bf6a1f0100000000000000008310611dee577a184f03e93ff9f4daa797ed6e38ed64bf6a1f0100000000000000008381611de457611de3612806565b5b0492506040810190505b6d04ee2d6d415b85acef81000000008310611e2b576d04ee2d6d415b85acef81000000008381611e2157611e20612806565b5b0492506020810190505b662386f26fc100008310611e5a57662386f26fc100008381611e5057611e4f612806565b5b0492506010810190505b6305f5e1008310611e83576305f5e1008381611e7957611e78612806565b5b0492506008810190505b6127108310611ea8576127108381611e9e57611e9d612806565b5b0492506004810190505b60648310611ecb5760648381611ec157611ec0612806565b5b0492506002810190505b600a8310611eda576001810190505b80915050919050565b6000808273ffffffffffffffffffffffffffffffffffffffff163b119050919050565b6000604051905090565b600080fd5b600080fd5b60007fffffffff0000000000000000000000000000000000000000000000000000000082169050919050565b611f4f81611f1a565b8114611f5a57600080fd5b50565b600081359050611f6c81611f46565b92915050565b600060208284031215611f8857611f87611f10565b5b6000611f9684828501611f5d565b91505092915050565b60008115159050919050565b611fb481611f9f565b82525050565b6000602082019050611fcf6000830184611fab565b92915050565b600081519050919050565b600082825260208201905092915050565b60005b8381101561200f578082015181840152602081019050611ff4565b60008484015250505050565b6000601f19601f8301169050919050565b600061203782611fd5565b6120418185611fe0565b9350612051818560208601611ff1565b61205a8161201b565b840191505092915050565b6000602082019050818103600083015261207f818461202c565b905092915050565b6000819050919050565b61209a81612087565b81146120a557600080fd5b50565b6000813590506120b781612091565b92915050565b6000602082840312156120d3576120d2611f10565b5b60006120e1848285016120a8565b91505092915050565b600073ffffffffffffffffffffffffffffffffffffffff82169050919050565b6000612115826120ea565b9050919050565b6121258161210a565b82525050565b6000602082019050612140600083018461211c565b92915050565b61214f8161210a565b811461215a57600080fd5b50565b60008135905061216c81612146565b92915050565b6000806040838503121561218957612188611f10565b5b60006121978582860161215d565b92505060206121a8858286016120a8565b9150509250929050565b6121bb81612087565b82525050565b60006020820190506121d660008301846121b2565b92915050565b6000806000606084860312156121f5576121f4611f10565b5b60006122038682870161215d565b93505060206122148682870161215d565b9250506040612225868287016120a8565b9150509250925092565b60006020828403121561224557612244611f10565b5b60006122538482850161215d565b91505092915050565b600080fd5b600080fd5b7f4e487b7100000000000000000000000000000000000000000000000000000000600052604160045260246000fd5b61229e8261201b565b810181811067ffffffffffffffff821117156122bd576122bc612266565b5b80604052505050565b60006122d0611f06565b90506122dc8282612295565b919050565b600067ffffffffffffffff8211156122fc576122fb612266565b5b6123058261201b565b9050602081019050919050565b82818337600083830152505050565b600061233461232f846122e1565b6122c6565b9050828152602081018484840111156123505761234f612261565b5b61235b848285612312565b509392505050565b600082601f8301126123785761237761225c565b5b8135612388848260208601612321565b91505092915050565b6000602082840312156123a7576123a6611f10565b5b600082013567ffffffffffffffff8111156123c5576123c4611f15565b5b6123d184828501612363565b91505092915050565b6123e381611f9f565b81146123ee57600080fd5b50565b600081359050612400816123da565b92915050565b6000806040838503121561241d5761241c611f10565b5b600061242b8582860161215d565b925050602061243c858286016123f1565b9150509250929050565b600067ffffffffffffffff82111561246157612460612266565b5b61246a8261201b565b9050602081019050919050565b600061248a61248584612446565b6122c6565b9050828152602081018484840111156124a6576124a5612261565b5b6124b1848285612312565b509392505050565b600082601f8301126124ce576124cd61225c565b5b81356124de848260208601612477565b91505092915050565b6000806000806080858703121561250157612500611f10565b5b600061250f8782880161215d565b94505060206125208782880161215d565b9350506040612531878288016120a8565b925050606085013567ffffffffffffffff81111561255257612551611f15565b5b61255e878288016124b9565b91505092959194509250565b6000806040838503121561258157612580611f10565b5b600061258f8582860161215d565b92505060206125a08582860161215d565b9150509250929050565b7f4e487b7100000000000000000000000000000000000000000000000000000000600052602260045260246000fd5b600060028204905060018216806125f157607f821691505b602082108103612604576126036125aa565b5b50919050565b7f4552433732313a20617070726f76616c20746f2063757272656e74206f776e6560008201527f7200000000000000000000000000000000000000000000000000000000000000602082015250565b6000612666602183611fe0565b91506126718261260a565b604082019050919050565b6000602082019050818103600083015261269581612659565b9050919050565b7f4552433732313a20617070726f76652063616c6c6572206973206e6f7420746f60008201527f6b656e206f776e6572206f7220617070726f76656420666f7220616c6c000000602082015250565b60006126f8603d83611fe0565b91506127038261269c565b604082019050919050565b60006020820190508181036000830152612727816126eb565b9050919050565b7f4d73672e76616c7565206c657373207468616e204e4654207072696365000000600082015250565b6000612764601d83611fe0565b915061276f8261272e565b602082019050919050565b6000602082019050818103600083015261279381612757565b9050919050565b7f4d6178696d756e206e756d62657220776173206d696e74656400000000000000600082015250565b60006127d0601983611fe0565b91506127db8261279a565b602082019050919050565b600060208201905081810360008301526127ff816127c3565b9050919050565b7f4e487b7100000000000000000000000000000000000000000000000000000000600052601260045260246000fd5b7f4e487b7100000000000000000000000000000000000000000000000000000000600052601160045260246000fd5b600061286f82612087565b915061287a83612087565b92508261288a57612889612806565b5b828204905092915050565b600081905092915050565b50565b60006128b0600083612895565b91506128bb826128a0565b600082019050919050565b60006128d1826128a3565b9150819050919050565b60006128e682612087565b91507fffffffffffffffffffffffffffffffffffffffffffffffffffffffffffffffff820361291857612917612835565b5b600182019050919050565b6000606082019050612938600083018661211c565b612945602083018561211c565b61295260408301846121b2565b949350505050565b7f4552433732313a2063616c6c6572206973206e6f7420746f6b656e206f776e6560008201527f72206f7220617070726f76656400000000000000000000000000000000000000602082015250565b60006129b6602d83611fe0565b91506129c18261295a565b604082019050919050565b600060208201905081810360008301526129e5816129a9565b9050919050565b7f4552433732313a20696e76616c696420746f6b656e2049440000000000000000600082015250565b6000612a22601883611fe0565b9150612a2d826129ec565b602082019050919050565b60006020820190508181036000830152612a5181612a15565b9050919050565b7f4f6e6c79206f776e657200000000000000000000000000000000000000000000600082015250565b6000612a8e600a83611fe0565b9150612a9982612a58565b602082019050919050565b60006020820190508181036000830152612abd81612a81565b9050919050565b7f4552433732313a2061646472657373207a65726f206973206e6f74206120766160008201527f6c6964206f776e65720000000000000000000000000000000000000000000000602082015250565b6000612b20602983611fe0565b9150612b2b82612ac4565b604082019050919050565b60006020820190508181036000830152612b4f81612b13565b9050919050565b60008190508160005260206000209050919050565b60006020601f8301049050919050565b600082821b905092915050565b600060088302612bb87fffffffffffffffffffffffffffffffffffffffffffffffffffffffffffffffff82612b7b565b612bc28683612b7b565b95508019841693508086168417925050509392505050565b6000819050919050565b6000612bff612bfa612bf584612087565b612bda565b612087565b9050919050565b6000819050919050565b612c1983612be4565b612c2d612c2582612c06565b848454612b88565b825550505050565b600090565b612c42612c35565b612c4d818484612c10565b505050565b5b81811015612c7157612c66600082612c3a565b600181019050612c53565b5050565b601f821115612cb657612c8781612b56565b612c9084612b6b565b81016020851015612c9f578190505b612cb3612cab85612b6b565b830182612c52565b50505b505050565b600082821c905092915050565b6000612cd960001984600802612cbb565b1980831691505092915050565b6000612cf28383612cc8565b9150826002028217905092915050565b612d0b82611fd5565b67ffffffffffffffff811115612d2457612d23612266565b5b612d2e82546125d9565b612d39828285612c75565b600060209050601f831160018114612d6c5760008415612d5a578287015190505b612d648582612ce6565b865550612dcc565b601f198416612d7a86612b56565b60005b82811015612da257848901518255600182019150602085019450602081019050612d7d565b86831015612dbf5784890151612dbb601f891682612cc8565b8355505b6001600288020188555050505b505050505050565b600081905092915050565b6000612dea82611fd5565b612df48185612dd4565b9350612e04818560208601611ff1565b80840191505092915050565b6000612e1c8285612ddf565b9150612e288284612ddf565b91508190509392505050565b7f4552433732313a206d696e7420746f20746865207a65726f2061646472657373600082015250565b6000612e6a602083611fe0565b9150612e7582612e34565b602082019050919050565b60006020820190508181036000830152612e9981612e5d565b9050919050565b7f4552433732313a20746f6b656e20616c7265616479206d696e74656400000000600082015250565b6000612ed6601c83611fe0565b9150612ee182612ea0565b602082019050919050565b60006020820190508181036000830152612f0581612ec9565b9050919050565b7f4d6178206e756d626572206d696e746564000000000000000000000000000000600082015250565b6000612f42601183611fe0565b9150612f4d82612f0c565b602082019050919050565b60006020820190508181036000830152612f7181612f35565b9050919050565b7f4552433732313a207472616e736665722066726f6d20696e636f72726563742060008201527f6f776e6572000000000000000000000000000000000000000000000000000000602082015250565b6000612fd4602583611fe0565b9150612fdf82612f78565b604082019050919050565b6000602082019050818103600083015261300381612fc7565b9050919050565b7f4552433732313a207472616e7366657220746f20746865207a65726f2061646460008201527f7265737300000000000000000000000000000000000000000000000000000000602082015250565b6000613066602483611fe0565b91506130718261300a565b604082019050919050565b6000602082019050818103600083015261309581613059565b9050919050565b7f4552433732313a20617070726f766520746f2063616c6c657200000000000000600082015250565b60006130d2601983611fe0565b91506130dd8261309c565b602082019050919050565b60006020820190508181036000830152613101816130c5565b9050919050565b7f4552433732313a207472616e7366657220746f206e6f6e20455243373231526560008201527f63656976657220696d706c656d656e7465720000000000000000000000000000602082015250565b6000613164603283611fe0565b915061316f82613108565b604082019050919050565b6000602082019050818103600083015261319381613157565b9050919050565b60006131a582612087565b91506131b083612087565b92508282039050818111156131c8576131c7612835565b5b92915050565b60006131d982612087565b91506131e483612087565b92508282019050808211156131fc576131fb612835565b5b92915050565b600081519050919050565b600082825260208201905092915050565b600061322982613202565b613233818561320d565b9350613243818560208601611ff1565b61324c8161201b565b840191505092915050565b600060808201905061326c600083018761211c565b613279602083018661211c565b61328660408301856121b2565b8181036060830152613298818461321e565b905095945050505050565b6000815190506132b281611f46565b92915050565b6000602082840312156132ce576132cd611f10565b5b60006132dc848285016132a3565b9150509291505056fea2646970667358221220618bf422ff441a82174ef83a23fb74c35d9cd69f2ddf5f6131d340e2d45577e064736f6c63430008110033",
  "devdoc": {
    "kind": "dev",
    "methods": {
      "approve(address,uint256)": {
        "details": "See {IERC721-approve}."
      },
      "balanceOf(address)": {
        "details": "See {IERC721-balanceOf}."
      },
      "getApproved(uint256)": {
        "details": "See {IERC721-getApproved}."
      },
      "isApprovedForAll(address,address)": {
        "details": "See {IERC721-isApprovedForAll}."
      },
      "name()": {
        "details": "See {IERC721Metadata-name}."
      },
      "ownerOf(uint256)": {
        "details": "See {IERC721-ownerOf}."
      },
      "safeTransferFrom(address,address,uint256)": {
        "details": "See {IERC721-safeTransferFrom}."
      },
      "safeTransferFrom(address,address,uint256,bytes)": {
        "details": "See {IERC721-safeTransferFrom}."
      },
      "setApprovalForAll(address,bool)": {
        "details": "See {IERC721-setApprovalForAll}."
      },
      "supportsInterface(bytes4)": {
        "details": "See {IERC165-supportsInterface}."
      },
      "symbol()": {
        "details": "See {IERC721Metadata-symbol}."
      },
      "tokenURI(uint256)": {
        "details": "See {IERC721Metadata-tokenURI}."
      },
      "transferFrom(address,address,uint256)": {
        "details": "See {IERC721-transferFrom}."
      }
    },
    "version": 1
  },
  "userdoc": {
    "kind": "user",
    "methods": {},
    "version": 1
  },
  "storageLayout": {
    "storage": [
      {
        "astId": 138,
        "contract": "contracts/ERC721V1.sol:ERC721V1",
        "label": "_name",
        "offset": 0,
        "slot": "0",
        "type": "t_string_storage"
      },
      {
        "astId": 140,
        "contract": "contracts/ERC721V1.sol:ERC721V1",
        "label": "_symbol",
        "offset": 0,
        "slot": "1",
        "type": "t_string_storage"
      },
      {
        "astId": 144,
        "contract": "contracts/ERC721V1.sol:ERC721V1",
        "label": "_owners",
        "offset": 0,
        "slot": "2",
        "type": "t_mapping(t_uint256,t_address)"
      },
      {
        "astId": 148,
        "contract": "contracts/ERC721V1.sol:ERC721V1",
        "label": "_balances",
        "offset": 0,
        "slot": "3",
        "type": "t_mapping(t_address,t_uint256)"
      },
      {
        "astId": 152,
        "contract": "contracts/ERC721V1.sol:ERC721V1",
        "label": "_tokenApprovals",
        "offset": 0,
        "slot": "4",
        "type": "t_mapping(t_uint256,t_address)"
      },
      {
        "astId": 158,
        "contract": "contracts/ERC721V1.sol:ERC721V1",
        "label": "_operatorApprovals",
        "offset": 0,
        "slot": "5",
        "type": "t_mapping(t_address,t_mapping(t_address,t_bool))"
      },
      {
        "astId": 2836,
        "contract": "contracts/ERC721V1.sol:ERC721V1",
        "label": "s_name",
        "offset": 0,
        "slot": "6",
        "type": "t_string_storage"
      },
      {
        "astId": 2838,
        "contract": "contracts/ERC721V1.sol:ERC721V1",
        "label": "s_symbol",
        "offset": 0,
        "slot": "7",
        "type": "t_string_storage"
      },
      {
        "astId": 2840,
        "contract": "contracts/ERC721V1.sol:ERC721V1",
        "label": "s_url",
        "offset": 0,
        "slot": "8",
        "type": "t_string_storage"
      },
      {
        "astId": 2842,
        "contract": "contracts/ERC721V1.sol:ERC721V1",
        "label": "_owner",
        "offset": 0,
        "slot": "9",
        "type": "t_address"
      },
      {
        "astId": 2844,
        "contract": "contracts/ERC721V1.sol:ERC721V1",
        "label": "counterTokenID",
        "offset": 0,
        "slot": "10",
        "type": "t_uint256"
      },
      {
        "astId": 2846,
        "contract": "contracts/ERC721V1.sol:ERC721V1",
        "label": "s_fee",
        "offset": 0,
        "slot": "11",
        "type": "t_uint256"
      },
      {
        "astId": 2850,
        "contract": "contracts/ERC721V1.sol:ERC721V1",
        "label": "parentContract",
        "offset": 0,
        "slot": "12",
        "type": "t_address_payable"
      },
      {
        "astId": 2854,
        "contract": "contracts/ERC721V1.sol:ERC721V1",
        "label": "_owners",
        "offset": 0,
        "slot": "13",
        "type": "t_mapping(t_uint256,t_address)"
      },
      {
        "astId": 2858,
        "contract": "contracts/ERC721V1.sol:ERC721V1",
        "label": "_balances",
        "offset": 0,
        "slot": "14",
        "type": "t_mapping(t_address,t_uint256)"
      }
    ],
    "types": {
      "t_address": {
        "encoding": "inplace",
        "label": "address",
        "numberOfBytes": "20"
      },
      "t_address_payable": {
        "encoding": "inplace",
        "label": "address payable",
        "numberOfBytes": "20"
      },
      "t_bool": {
        "encoding": "inplace",
        "label": "bool",
        "numberOfBytes": "1"
      },
      "t_mapping(t_address,t_bool)": {
        "encoding": "mapping",
        "key": "t_address",
        "label": "mapping(address => bool)",
        "numberOfBytes": "32",
        "value": "t_bool"
      },
      "t_mapping(t_address,t_mapping(t_address,t_bool))": {
        "encoding": "mapping",
        "key": "t_address",
        "label": "mapping(address => mapping(address => bool))",
        "numberOfBytes": "32",
        "value": "t_mapping(t_address,t_bool)"
      },
      "t_mapping(t_address,t_uint256)": {
        "encoding": "mapping",
        "key": "t_address",
        "label": "mapping(address => uint256)",
        "numberOfBytes": "32",
        "value": "t_uint256"
      },
      "t_mapping(t_uint256,t_address)": {
        "encoding": "mapping",
        "key": "t_uint256",
        "label": "mapping(uint256 => address)",
        "numberOfBytes": "32",
        "value": "t_address"
      },
      "t_string_storage": {
        "encoding": "bytes",
        "label": "string",
        "numberOfBytes": "32"
      },
      "t_uint256": {
        "encoding": "inplace",
        "label": "uint256",
        "numberOfBytes": "32"
      }
    }
  }
}