{
  "address": "0xe7f1725E7734CE288F8367e1Bb143E90bb3F0512",
  "abi": [
    {
      "inputs": [
        {
          "internalType": "string",
          "name": "name",
          "type": "string"
        },
        {
          "internalType": "string",
          "name": "symbol",
          "type": "string"
        },
        {
          "internalType": "uint256",
          "name": "fee",
          "type": "uint256"
        },
        {
          "internalType": "uint256",
          "name": "maxSupply",
          "type": "uint256"
        },
        {
          "internalType": "address",
          "name": "owner",
          "type": "address"
        },
        {
          "internalType": "string",
          "name": "imgUrl",
          "type": "string"
        }
      ],
      "stateMutability": "nonpayable",
      "type": "constructor"
    },
    {
      "anonymous": false,
      "inputs": [
        {
          "indexed": true,
          "internalType": "address",
          "name": "owner",
          "type": "address"
        },
        {
          "indexed": true,
          "internalType": "address",
          "name": "approved",
          "type": "address"
        },
        {
          "indexed": true,
          "internalType": "uint256",
          "name": "tokenId",
          "type": "uint256"
        }
      ],
      "name": "Approval",
      "type": "event"
    },
    {
      "anonymous": false,
      "inputs": [
        {
          "indexed": true,
          "internalType": "address",
          "name": "owner",
          "type": "address"
        },
        {
          "indexed": true,
          "internalType": "address",
          "name": "operator",
          "type": "address"
        },
        {
          "indexed": false,
          "internalType": "bool",
          "name": "approved",
          "type": "bool"
        }
      ],
      "name": "ApprovalForAll",
      "type": "event"
    },
    {
      "anonymous": false,
      "inputs": [
        {
          "indexed": false,
          "internalType": "address",
          "name": "user",
          "type": "address"
        },
        {
          "indexed": false,
          "internalType": "address",
          "name": "nftContract",
          "type": "address"
        },
        {
          "indexed": false,
          "internalType": "uint256",
          "name": "tokenId",
          "type": "uint256"
        }
      ],
      "name": "Mint",
      "type": "event"
    },
    {
      "anonymous": false,
      "inputs": [
        {
          "indexed": true,
          "internalType": "address",
          "name": "from",
          "type": "address"
        },
        {
          "indexed": true,
          "internalType": "address",
          "name": "to",
          "type": "address"
        },
        {
          "indexed": true,
          "internalType": "uint256",
          "name": "tokenId",
          "type": "uint256"
        }
      ],
      "name": "Transfer",
      "type": "event"
    },
    {
      "anonymous": false,
      "inputs": [
        {
          "indexed": false,
          "internalType": "address",
          "name": "user",
          "type": "address"
        },
        {
          "indexed": false,
          "internalType": "address",
          "name": "contractAddress",
          "type": "address"
        },
        {
          "indexed": false,
          "internalType": "uint256",
          "name": "value",
          "type": "uint256"
        }
      ],
      "name": "Withdraw",
      "type": "event"
    },
    {
      "inputs": [
        {
          "internalType": "address",
          "name": "to",
          "type": "address"
        },
        {
          "internalType": "uint256",
          "name": "tokenId",
          "type": "uint256"
        }
      ],
      "name": "approve",
      "outputs": [],
      "stateMutability": "nonpayable",
      "type": "function"
    },
    {
      "inputs": [
        {
          "internalType": "address",
          "name": "owner",
          "type": "address"
        }
      ],
      "name": "balanceOf",
      "outputs": [
        {
          "internalType": "uint256",
          "name": "",
          "type": "uint256"
        }
      ],
      "stateMutability": "view",
      "type": "function"
    },
    {
      "inputs": [
        {
          "internalType": "uint256",
          "name": "newFee",
          "type": "uint256"
        }
      ],
      "name": "changeFee",
      "outputs": [],
      "stateMutability": "nonpayable",
      "type": "function"
    },
    {
      "inputs": [
        {
          "internalType": "uint256",
          "name": "tokenId",
          "type": "uint256"
        }
      ],
      "name": "getApproved",
      "outputs": [
        {
          "internalType": "address",
          "name": "",
          "type": "address"
        }
      ],
      "stateMutability": "view",
      "type": "function"
    },
    {
      "inputs": [],
      "name": "getBalance",
      "outputs": [
        {
          "internalType": "uint256",
          "name": "",
          "type": "uint256"
        }
      ],
      "stateMutability": "view",
      "type": "function"
    },
    {
      "inputs": [],
      "name": "getOwner",
      "outputs": [
        {
          "internalType": "address",
          "name": "",
          "type": "address"
        }
      ],
      "stateMutability": "view",
      "type": "function"
    },
    {
      "inputs": [],
      "name": "getPrice",
      "outputs": [
        {
          "internalType": "uint256",
          "name": "",
          "type": "uint256"
        }
      ],
      "stateMutability": "view",
      "type": "function"
    },
    {
      "inputs": [
        {
          "internalType": "address",
          "name": "owner",
          "type": "address"
        },
        {
          "internalType": "address",
          "name": "operator",
          "type": "address"
        }
      ],
      "name": "isApprovedForAll",
      "outputs": [
        {
          "internalType": "bool",
          "name": "",
          "type": "bool"
        }
      ],
      "stateMutability": "view",
      "type": "function"
    },
    {
      "inputs": [],
      "name": "mint",
      "outputs": [],
      "stateMutability": "payable",
      "type": "function"
    },
    {
      "inputs": [],
      "name": "mintDirectly",
      "outputs": [],
      "stateMutability": "payable",
      "type": "function"
    },
    {
      "inputs": [],
      "name": "name",
      "outputs": [
        {
          "internalType": "string",
          "name": "",
          "type": "string"
        }
      ],
      "stateMutability": "view",
      "type": "function"
    },
    {
      "inputs": [
        {
          "internalType": "uint256",
          "name": "tokenId",
          "type": "uint256"
        }
      ],
      "name": "ownerOf",
      "outputs": [
        {
          "internalType": "address",
          "name": "",
          "type": "address"
        }
      ],
      "stateMutability": "view",
      "type": "function"
    },
    {
      "inputs": [
        {
          "internalType": "address",
          "name": "from",
          "type": "address"
        },
        {
          "internalType": "address",
          "name": "to",
          "type": "address"
        },
        {
          "internalType": "uint256",
          "name": "tokenId",
          "type": "uint256"
        }
      ],
      "name": "safeTransferFrom",
      "outputs": [],
      "stateMutability": "nonpayable",
      "type": "function"
    },
    {
      "inputs": [
        {
          "internalType": "address",
          "name": "from",
          "type": "address"
        },
        {
          "internalType": "address",
          "name": "to",
          "type": "address"
        },
        {
          "internalType": "uint256",
          "name": "tokenId",
          "type": "uint256"
        },
        {
          "internalType": "bytes",
          "name": "data",
          "type": "bytes"
        }
      ],
      "name": "safeTransferFrom",
      "outputs": [],
      "stateMutability": "nonpayable",
      "type": "function"
    },
    {
      "inputs": [
        {
          "internalType": "address",
          "name": "operator",
          "type": "address"
        },
        {
          "internalType": "bool",
          "name": "approved",
          "type": "bool"
        }
      ],
      "name": "setApprovalForAll",
      "outputs": [],
      "stateMutability": "nonpayable",
      "type": "function"
    },
    {
      "inputs": [
        {
          "internalType": "string",
          "name": "newUri",
          "type": "string"
        }
      ],
      "name": "setUri",
      "outputs": [],
      "stateMutability": "nonpayable",
      "type": "function"
    },
    {
      "inputs": [
        {
          "internalType": "bytes4",
          "name": "interfaceId",
          "type": "bytes4"
        }
      ],
      "name": "supportsInterface",
      "outputs": [
        {
          "internalType": "bool",
          "name": "",
          "type": "bool"
        }
      ],
      "stateMutability": "view",
      "type": "function"
    },
    {
      "inputs": [],
      "name": "symbol",
      "outputs": [
        {
          "internalType": "string",
          "name": "",
          "type": "string"
        }
      ],
      "stateMutability": "view",
      "type": "function"
    },
    {
      "inputs": [
        {
          "internalType": "uint256",
          "name": "tokenId",
          "type": "uint256"
        }
      ],
      "name": "tokenURI",
      "outputs": [
        {
          "internalType": "string",
          "name": "",
          "type": "string"
        }
      ],
      "stateMutability": "view",
      "type": "function"
    },
    {
      "inputs": [
        {
          "internalType": "address",
          "name": "from",
          "type": "address"
        },
        {
          "internalType": "address",
          "name": "to",
          "type": "address"
        },
        {
          "internalType": "uint256",
          "name": "tokenId",
          "type": "uint256"
        }
      ],
      "name": "transferFrom",
      "outputs": [],
      "stateMutability": "nonpayable",
      "type": "function"
    },
    {
      "inputs": [
        {
          "internalType": "address",
          "name": "newOwner",
          "type": "address"
        }
      ],
      "name": "transferOwnership",
      "outputs": [],
      "stateMutability": "nonpayable",
      "type": "function"
    },
    {
      "inputs": [],
      "name": "withdraw",
      "outputs": [],
      "stateMutability": "payable",
      "type": "function"
    }
  ],
  "transactionHash": "0x76ac6b82d0f9cee5b1c35b67b9ebec027654a350860e062c40120954916f167e",
  "args": [
    "test",
    "tst",
    1,
    1000,
    "0xf39Fd6e51aad88F6F4ce6aB8827279cffFb92266",
    "someURI"
  ],
  "numDeployments": 1,
  "solcInputHash": "8512f1593ae9c357f186aa6bf785f85f",
  "bytecode": "0x60a06040523480156200001157600080fd5b5060405162003c4838038062003c48833981810160405281019062000037919062000489565b600680546200004690620005b1565b80601f01602080910402602001604051908101604052809291908181526020018280546200007490620005b1565b8015620000c55780601f106200009957610100808354040283529160200191620000c5565b820191906000526020600020905b815481529060010190602001808311620000a757829003601f168201915b505050505060078054620000d990620005b1565b80601f01602080910402602001604051908101604052809291908181526020018280546200010790620005b1565b8015620001585780601f106200012c5761010080835404028352916020019162000158565b820191906000526020600020905b8154815290600101906020018083116200013a57829003601f168201915b505050505081600090816200016e9190620007c3565b508060019081620001809190620007c3565b5050508560069081620001949190620007c3565b508460079081620001a69190620007c3565b5083600b81905550826080818152505081600960006101000a81548173ffffffffffffffffffffffffffffffffffffffff021916908373ffffffffffffffffffffffffffffffffffffffff1602179055508060089081620002089190620007c3565b5033600c60006101000a81548173ffffffffffffffffffffffffffffffffffffffff021916908373ffffffffffffffffffffffffffffffffffffffff160217905550505050505050620008aa565b6000604051905090565b600080fd5b600080fd5b600080fd5b600080fd5b6000601f19601f8301169050919050565b7f4e487b7100000000000000000000000000000000000000000000000000000000600052604160045260246000fd5b620002bf8262000274565b810181811067ffffffffffffffff82111715620002e157620002e062000285565b5b80604052505050565b6000620002f662000256565b9050620003048282620002b4565b919050565b600067ffffffffffffffff82111562000327576200032662000285565b5b620003328262000274565b9050602081019050919050565b60005b838110156200035f57808201518184015260208101905062000342565b60008484015250505050565b6000620003826200037c8462000309565b620002ea565b905082815260208101848484011115620003a157620003a06200026f565b5b620003ae8482856200033f565b509392505050565b600082601f830112620003ce57620003cd6200026a565b5b8151620003e08482602086016200036b565b91505092915050565b6000819050919050565b620003fe81620003e9565b81146200040a57600080fd5b50565b6000815190506200041e81620003f3565b92915050565b600073ffffffffffffffffffffffffffffffffffffffff82169050919050565b6000620004518262000424565b9050919050565b620004638162000444565b81146200046f57600080fd5b50565b600081519050620004838162000458565b92915050565b60008060008060008060c08789031215620004a957620004a862000260565b5b600087015167ffffffffffffffff811115620004ca57620004c962000265565b5b620004d889828a01620003b6565b965050602087015167ffffffffffffffff811115620004fc57620004fb62000265565b5b6200050a89828a01620003b6565b95505060406200051d89828a016200040d565b94505060606200053089828a016200040d565b93505060806200054389828a0162000472565b92505060a087015167ffffffffffffffff81111562000567576200056662000265565b5b6200057589828a01620003b6565b9150509295509295509295565b7f4e487b7100000000000000000000000000000000000000000000000000000000600052602260045260246000fd5b60006002820490506001821680620005ca57607f821691505b602082108103620005e057620005df62000582565b5b50919050565b600081519050919050565b60008190508160005260206000209050919050565b60006020601f8301049050919050565b600082821b905092915050565b600060088302620006557fffffffffffffffffffffffffffffffffffffffffffffffffffffffffffffffff8262000616565b62000661868362000616565b95508019841693508086168417925050509392505050565b6000819050919050565b6000620006a46200069e6200069884620003e9565b62000679565b620003e9565b9050919050565b6000819050919050565b620006c08362000683565b620006d8620006cf82620006ab565b84845462000623565b825550505050565b600090565b620006ef620006e0565b620006fc818484620006b5565b505050565b5b81811015620007245762000718600082620006e5565b60018101905062000702565b5050565b601f82111562000773576200073d81620005f1565b620007488462000606565b8101602085101562000758578190505b62000770620007678562000606565b83018262000701565b50505b505050565b600082821c905092915050565b6000620007986000198460080262000778565b1980831691505092915050565b6000620007b3838362000785565b9150826002028217905092915050565b620007ce82620005e6565b67ffffffffffffffff811115620007ea57620007e962000285565b5b620007f68254620005b1565b6200080382828562000728565b600060209050601f8311600181146200083b576000841562000826578287015190505b620008328582620007a5565b865550620008a2565b601f1984166200084b86620005f1565b60005b8281101562000875578489015182556001820191506020850194506020810190506200084e565b8683101562000895578489015162000891601f89168262000785565b8355505b6001600288020188555050505b505050505050565b608051613374620008d4600039600081816107c001528181610e6d01526112a801526133746000f3fe6080604052600436106101355760003560e01c806370a08231116100ab578063a22cb4651161006f578063a22cb465146103e6578063b88d4fde1461040f578063c87b56dd14610438578063e985e9c514610475578063eab7611e146104b2578063f2fde38b146104bc57610135565b806370a08231146102ff578063893d20e81461033c57806395d89b411461036757806398d5fdca146103925780639b642de1146103bd57610135565b80631249c58b116100fd5780631249c58b1461023357806323b872dd1461023d5780633ccfd60b1461026657806342842e0e146102705780636352211e146102995780636a1db1bf146102d657610135565b806301ffc9a71461013a57806306fdde0314610177578063081812fc146101a2578063095ea7b3146101df57806312065fe014610208575b600080fd5b34801561014657600080fd5b50610161600480360381019061015c9190612037565b6104e5565b60405161016e919061207f565b60405180910390f35b34801561018357600080fd5b5061018c6105c7565b604051610199919061212a565b60405180910390f35b3480156101ae57600080fd5b506101c960048036038101906101c49190612182565b610659565b6040516101d691906121f0565b60405180910390f35b3480156101eb57600080fd5b5061020660048036038101906102019190612237565b61069f565b005b34801561021457600080fd5b5061021d6107b6565b60405161022a9190612286565b60405180910390f35b61023b6107be565b005b34801561024957600080fd5b50610264600480360381019061025f91906122a1565b610886565b005b61026e6108e6565b005b34801561027c57600080fd5b50610297600480360381019061029291906122a1565b610997565b005b3480156102a557600080fd5b506102c060048036038101906102bb9190612182565b6109b7565b6040516102cd91906121f0565b60405180910390f35b3480156102e257600080fd5b506102fd60048036038101906102f89190612182565b610a3d565b005b34801561030b57600080fd5b50610326600480360381019061032191906122f4565b610ad7565b6040516103339190612286565b60405180910390f35b34801561034857600080fd5b50610351610b8e565b60405161035e91906121f0565b60405180910390f35b34801561037357600080fd5b5061037c610bb8565b604051610389919061212a565b60405180910390f35b34801561039e57600080fd5b506103a7610c4a565b6040516103b49190612286565b60405180910390f35b3480156103c957600080fd5b506103e460048036038101906103df9190612456565b610c54565b005b3480156103f257600080fd5b5061040d600480360381019061040891906124cb565b610cf7565b005b34801561041b57600080fd5b50610436600480360381019061043191906125ac565b610d0d565b005b34801561044457600080fd5b5061045f600480360381019061045a9190612182565b610d6f565b60405161046c919061212a565b60405180910390f35b34801561048157600080fd5b5061049c6004803603810190610497919061262f565b610dd7565b6040516104a9919061207f565b60405180910390f35b6104ba610e6b565b005b3480156104c857600080fd5b506104e360048036038101906104de91906122f4565b610fa4565b005b60007f80ac58cd000000000000000000000000000000000000000000000000000000007bffffffffffffffffffffffffffffffffffffffffffffffffffffffff1916827bffffffffffffffffffffffffffffffffffffffffffffffffffffffff191614806105b057507f5b5e139f000000000000000000000000000000000000000000000000000000007bffffffffffffffffffffffffffffffffffffffffffffffffffffffff1916827bffffffffffffffffffffffffffffffffffffffffffffffffffffffff1916145b806105c057506105bf82611078565b5b9050919050565b6060600080546105d69061269e565b80601f01602080910402602001604051908101604052809291908181526020018280546106029061269e565b801561064f5780601f106106245761010080835404028352916020019161064f565b820191906000526020600020905b81548152906001019060200180831161063257829003601f168201915b5050505050905090565b6000610664826110e2565b6004600083815260200190815260200160002060009054906101000a900473ffffffffffffffffffffffffffffffffffffffff169050919050565b60006106aa826109b7565b90508073ffffffffffffffffffffffffffffffffffffffff168373ffffffffffffffffffffffffffffffffffffffff160361071a576040517f08c379a000000000000000000000000000000000000000000000000000000000815260040161071190612741565b60405180910390fd5b8073ffffffffffffffffffffffffffffffffffffffff1661073961112d565b73ffffffffffffffffffffffffffffffffffffffff16148061076857506107678161076261112d565b610dd7565b5b6107a7576040517f08c379a000000000000000000000000000000000000000000000000000000000815260040161079e906127d3565b60405180910390fd5b6107b18383611135565b505050565b600047905090565b7f0000000000000000000000000000000000000000000000000000000000000000600a541115610823576040517f08c379a000000000000000000000000000000000000000000000000000000000815260040161081a9061283f565b60405180910390fd5b61082f33600a546111ee565b600a60008154809291906108429061288e565b91905055507fab8530f87dc9b59234c4623bf917212bb2536d647574c8e7e5da92c2ede0c9f83330600a5460405161087c939291906128d6565b60405180910390a1565b61089761089161112d565b8261146e565b6108d6576040517f08c379a00000000000000000000000000000000000000000000000000000000081526004016108cd9061297f565b60405180910390fd5b6108e1838383611503565b505050565b60003373ffffffffffffffffffffffffffffffffffffffff164760405161090c906129d0565b60006040518083038185875af1925050503d8060008114610949576040519150601f19603f3d011682016040523d82523d6000602084013e61094e565b606091505b505090508015610994577f9b1bfa7fa9ee420a16e124f794c35ac9f90472acc99140eb2f6447c714cad8eb33304760405161098b939291906128d6565b60405180910390a15b50565b6109b283838360405180602001604052806000815250610d0d565b505050565b6000806109c3836117fc565b9050600073ffffffffffffffffffffffffffffffffffffffff168173ffffffffffffffffffffffffffffffffffffffff1603610a34576040517f08c379a0000000000000000000000000000000000000000000000000000000008152600401610a2b90612a31565b60405180910390fd5b80915050919050565b600960009054906101000a900473ffffffffffffffffffffffffffffffffffffffff1673ffffffffffffffffffffffffffffffffffffffff163373ffffffffffffffffffffffffffffffffffffffff1614610acd576040517f08c379a0000000000000000000000000000000000000000000000000000000008152600401610ac490612a9d565b60405180910390fd5b80600b8190555050565b60008073ffffffffffffffffffffffffffffffffffffffff168273ffffffffffffffffffffffffffffffffffffffff1603610b47576040517f08c379a0000000000000000000000000000000000000000000000000000000008152600401610b3e90612b2f565b60405180910390fd5b600360008373ffffffffffffffffffffffffffffffffffffffff1673ffffffffffffffffffffffffffffffffffffffff168152602001908152602001600020549050919050565b6000600960009054906101000a900473ffffffffffffffffffffffffffffffffffffffff16905090565b606060018054610bc79061269e565b80601f0160208091040260200160405190810160405280929190818152602001828054610bf39061269e565b8015610c405780601f10610c1557610100808354040283529160200191610c40565b820191906000526020600020905b815481529060010190602001808311610c2357829003601f168201915b5050505050905090565b6000600b54905090565b600960009054906101000a900473ffffffffffffffffffffffffffffffffffffffff1673ffffffffffffffffffffffffffffffffffffffff163373ffffffffffffffffffffffffffffffffffffffff1614610ce4576040517f08c379a0000000000000000000000000000000000000000000000000000000008152600401610cdb90612a9d565b60405180910390fd5b8060089081610cf39190612cfb565b5050565b610d09610d0261112d565b8383611839565b5050565b610d1e610d1861112d565b8361146e565b610d5d576040517f08c379a0000000000000000000000000000000000000000000000000000000008152600401610d549061297f565b60405180910390fd5b610d69848484846119a5565b50505050565b6060610d7a826110e2565b6000610d84611a01565b90506000815111610da45760405180602001604052806000815250610dcf565b80610dae84611a93565b604051602001610dbf929190612e09565b6040516020818303038152906040525b915050919050565b6000600560008473ffffffffffffffffffffffffffffffffffffffff1673ffffffffffffffffffffffffffffffffffffffff16815260200190815260200160002060008373ffffffffffffffffffffffffffffffffffffffff1673ffffffffffffffffffffffffffffffffffffffff16815260200190815260200160002060009054906101000a900460ff16905092915050565b7f0000000000000000000000000000000000000000000000000000000000000000600a541115610ed0576040517f08c379a0000000000000000000000000000000000000000000000000000000008152600401610ec79061283f565b60405180910390fd5b6000600c60009054906101000a900473ffffffffffffffffffffffffffffffffffffffff1673ffffffffffffffffffffffffffffffffffffffff166108fc6064600b54610f1d9190612e5c565b9081150290604051600060405180830381858888f1935050505090508015610f6457610f4b33600a546111ee565b600a6000815480929190610f5e9061288e565b91905055505b7fab8530f87dc9b59234c4623bf917212bb2536d647574c8e7e5da92c2ede0c9f83330600a54604051610f99939291906128d6565b60405180910390a150565b600960009054906101000a900473ffffffffffffffffffffffffffffffffffffffff1673ffffffffffffffffffffffffffffffffffffffff163373ffffffffffffffffffffffffffffffffffffffff1614611034576040517f08c379a000000000000000000000000000000000000000000000000000000000815260040161102b90612a9d565b60405180910390fd5b80600960006101000a81548173ffffffffffffffffffffffffffffffffffffffff021916908373ffffffffffffffffffffffffffffffffffffffff16021790555050565b60007f01ffc9a7000000000000000000000000000000000000000000000000000000007bffffffffffffffffffffffffffffffffffffffffffffffffffffffff1916827bffffffffffffffffffffffffffffffffffffffffffffffffffffffff1916149050919050565b6110eb81611b61565b61112a576040517f08c379a000000000000000000000000000000000000000000000000000000000815260040161112190612a31565b60405180910390fd5b50565b600033905090565b816004600083815260200190815260200160002060006101000a81548173ffffffffffffffffffffffffffffffffffffffff021916908373ffffffffffffffffffffffffffffffffffffffff160217905550808273ffffffffffffffffffffffffffffffffffffffff166111a8836109b7565b73ffffffffffffffffffffffffffffffffffffffff167f8c5be1e5ebec7d5bd14f71427d1e84f3dd0314c0f7b2291e5b200ac8c7c3b92560405160405180910390a45050565b600073ffffffffffffffffffffffffffffffffffffffff168273ffffffffffffffffffffffffffffffffffffffff160361125d576040517f08c379a000000000000000000000000000000000000000000000000000000000815260040161125490612ed9565b60405180910390fd5b61126681611b61565b156112a6576040517f08c379a000000000000000000000000000000000000000000000000000000000815260040161129d90612f45565b60405180910390fd5b7f0000000000000000000000000000000000000000000000000000000000000000811115611309576040517f08c379a000000000000000000000000000000000000000000000000000000000815260040161130090612fb1565b60405180910390fd5b611317600083836001611ba2565b61132081611b61565b15611360576040517f08c379a000000000000000000000000000000000000000000000000000000000815260040161135790612f45565b60405180910390fd5b6001600e60008473ffffffffffffffffffffffffffffffffffffffff1673ffffffffffffffffffffffffffffffffffffffff1681526020019081526020016000206000828254019250508190555081600d600083815260200190815260200160002060006101000a81548173ffffffffffffffffffffffffffffffffffffffff021916908373ffffffffffffffffffffffffffffffffffffffff160217905550808273ffffffffffffffffffffffffffffffffffffffff16600073ffffffffffffffffffffffffffffffffffffffff167fddf252ad1be2c89b69c2b068fc378daa952ba7f163c4a11628f55a4df523b3ef60405160405180910390a461146a600083836001611cc8565b5050565b60008061147a836109b7565b90508073ffffffffffffffffffffffffffffffffffffffff168473ffffffffffffffffffffffffffffffffffffffff1614806114bc57506114bb8185610dd7565b5b806114fa57508373ffffffffffffffffffffffffffffffffffffffff166114e284610659565b73ffffffffffffffffffffffffffffffffffffffff16145b91505092915050565b8273ffffffffffffffffffffffffffffffffffffffff16611523826109b7565b73ffffffffffffffffffffffffffffffffffffffff1614611579576040517f08c379a000000000000000000000000000000000000000000000000000000000815260040161157090613043565b60405180910390fd5b600073ffffffffffffffffffffffffffffffffffffffff168273ffffffffffffffffffffffffffffffffffffffff16036115e8576040517f08c379a00000000000000000000000000000000000000000000000000000000081526004016115df906130d5565b60405180910390fd5b6115f58383836001611ba2565b8273ffffffffffffffffffffffffffffffffffffffff16611615826109b7565b73ffffffffffffffffffffffffffffffffffffffff161461166b576040517f08c379a000000000000000000000000000000000000000000000000000000000815260040161166290613043565b60405180910390fd5b6004600082815260200190815260200160002060006101000a81549073ffffffffffffffffffffffffffffffffffffffff02191690556001600360008573ffffffffffffffffffffffffffffffffffffffff1673ffffffffffffffffffffffffffffffffffffffff168152602001908152602001600020600082825403925050819055506001600360008473ffffffffffffffffffffffffffffffffffffffff1673ffffffffffffffffffffffffffffffffffffffff16815260200190815260200160002060008282540192505081905550816002600083815260200190815260200160002060006101000a81548173ffffffffffffffffffffffffffffffffffffffff021916908373ffffffffffffffffffffffffffffffffffffffff160217905550808273ffffffffffffffffffffffffffffffffffffffff168473ffffffffffffffffffffffffffffffffffffffff167fddf252ad1be2c89b69c2b068fc378daa952ba7f163c4a11628f55a4df523b3ef60405160405180910390a46117f78383836001611cc8565b505050565b60006002600083815260200190815260200160002060009054906101000a900473ffffffffffffffffffffffffffffffffffffffff169050919050565b8173ffffffffffffffffffffffffffffffffffffffff168373ffffffffffffffffffffffffffffffffffffffff16036118a7576040517f08c379a000000000000000000000000000000000000000000000000000000000815260040161189e90613141565b60405180910390fd5b80600560008573ffffffffffffffffffffffffffffffffffffffff1673ffffffffffffffffffffffffffffffffffffffff16815260200190815260200160002060008473ffffffffffffffffffffffffffffffffffffffff1673ffffffffffffffffffffffffffffffffffffffff16815260200190815260200160002060006101000a81548160ff0219169083151502179055508173ffffffffffffffffffffffffffffffffffffffff168373ffffffffffffffffffffffffffffffffffffffff167f17307eab39ab6107e8899845ad3d59bd9653f200f220920489ca2b5937696c3183604051611998919061207f565b60405180910390a3505050565b6119b0848484611503565b6119bc84848484611cce565b6119fb576040517f08c379a00000000000000000000000000000000000000000000000000000000081526004016119f2906131d3565b60405180910390fd5b50505050565b606060088054611a109061269e565b80601f0160208091040260200160405190810160405280929190818152602001828054611a3c9061269e565b8015611a895780601f10611a5e57610100808354040283529160200191611a89565b820191906000526020600020905b815481529060010190602001808311611a6c57829003601f168201915b5050505050905090565b606060006001611aa284611e55565b01905060008167ffffffffffffffff811115611ac157611ac061232b565b5b6040519080825280601f01601f191660200182016040528015611af35781602001600182028036833780820191505090505b509050600082602001820190505b600115611b56578080600190039150507f3031323334353637383961626364656600000000000000000000000000000000600a86061a8153600a8581611b4a57611b49612e2d565b5b04945060008503611b01575b819350505050919050565b60008073ffffffffffffffffffffffffffffffffffffffff16611b83836117fc565b73ffffffffffffffffffffffffffffffffffffffff1614159050919050565b6001811115611cc257600073ffffffffffffffffffffffffffffffffffffffff168473ffffffffffffffffffffffffffffffffffffffff1614611c365780600360008673ffffffffffffffffffffffffffffffffffffffff1673ffffffffffffffffffffffffffffffffffffffff1681526020019081526020016000206000828254611c2e91906131f3565b925050819055505b600073ffffffffffffffffffffffffffffffffffffffff168373ffffffffffffffffffffffffffffffffffffffff1614611cc15780600360008573ffffffffffffffffffffffffffffffffffffffff1673ffffffffffffffffffffffffffffffffffffffff1681526020019081526020016000206000828254611cb99190613227565b925050819055505b5b50505050565b50505050565b6000611cef8473ffffffffffffffffffffffffffffffffffffffff16611fa8565b15611e48578373ffffffffffffffffffffffffffffffffffffffff1663150b7a02611d1861112d565b8786866040518563ffffffff1660e01b8152600401611d3a94939291906132b0565b6020604051808303816000875af1925050508015611d7657506040513d601f19601f82011682018060405250810190611d739190613311565b60015b611df8573d8060008114611da6576040519150601f19603f3d011682016040523d82523d6000602084013e611dab565b606091505b506000815103611df0576040517f08c379a0000000000000000000000000000000000000000000000000000000008152600401611de7906131d3565b60405180910390fd5b805181602001fd5b63150b7a0260e01b7bffffffffffffffffffffffffffffffffffffffffffffffffffffffff1916817bffffffffffffffffffffffffffffffffffffffffffffffffffffffff191614915050611e4d565b600190505b949350505050565b600080600090507a184f03e93ff9f4daa797ed6e38ed64bf6a1f0100000000000000008310611eb3577a184f03e93ff9f4daa797ed6e38ed64bf6a1f0100000000000000008381611ea957611ea8612e2d565b5b0492506040810190505b6d04ee2d6d415b85acef81000000008310611ef0576d04ee2d6d415b85acef81000000008381611ee657611ee5612e2d565b5b0492506020810190505b662386f26fc100008310611f1f57662386f26fc100008381611f1557611f14612e2d565b5b0492506010810190505b6305f5e1008310611f48576305f5e1008381611f3e57611f3d612e2d565b5b0492506008810190505b6127108310611f6d576127108381611f6357611f62612e2d565b5b0492506004810190505b60648310611f905760648381611f8657611f85612e2d565b5b0492506002810190505b600a8310611f9f576001810190505b80915050919050565b6000808273ffffffffffffffffffffffffffffffffffffffff163b119050919050565b6000604051905090565b600080fd5b600080fd5b60007fffffffff0000000000000000000000000000000000000000000000000000000082169050919050565b61201481611fdf565b811461201f57600080fd5b50565b6000813590506120318161200b565b92915050565b60006020828403121561204d5761204c611fd5565b5b600061205b84828501612022565b91505092915050565b60008115159050919050565b61207981612064565b82525050565b60006020820190506120946000830184612070565b92915050565b600081519050919050565b600082825260208201905092915050565b60005b838110156120d45780820151818401526020810190506120b9565b60008484015250505050565b6000601f19601f8301169050919050565b60006120fc8261209a565b61210681856120a5565b93506121168185602086016120b6565b61211f816120e0565b840191505092915050565b6000602082019050818103600083015261214481846120f1565b905092915050565b6000819050919050565b61215f8161214c565b811461216a57600080fd5b50565b60008135905061217c81612156565b92915050565b60006020828403121561219857612197611fd5565b5b60006121a68482850161216d565b91505092915050565b600073ffffffffffffffffffffffffffffffffffffffff82169050919050565b60006121da826121af565b9050919050565b6121ea816121cf565b82525050565b600060208201905061220560008301846121e1565b92915050565b612214816121cf565b811461221f57600080fd5b50565b6000813590506122318161220b565b92915050565b6000806040838503121561224e5761224d611fd5565b5b600061225c85828601612222565b925050602061226d8582860161216d565b9150509250929050565b6122808161214c565b82525050565b600060208201905061229b6000830184612277565b92915050565b6000806000606084860312156122ba576122b9611fd5565b5b60006122c886828701612222565b93505060206122d986828701612222565b92505060406122ea8682870161216d565b9150509250925092565b60006020828403121561230a57612309611fd5565b5b600061231884828501612222565b91505092915050565b600080fd5b600080fd5b7f4e487b7100000000000000000000000000000000000000000000000000000000600052604160045260246000fd5b612363826120e0565b810181811067ffffffffffffffff821117156123825761238161232b565b5b80604052505050565b6000612395611fcb565b90506123a1828261235a565b919050565b600067ffffffffffffffff8211156123c1576123c061232b565b5b6123ca826120e0565b9050602081019050919050565b82818337600083830152505050565b60006123f96123f4846123a6565b61238b565b90508281526020810184848401111561241557612414612326565b5b6124208482856123d7565b509392505050565b600082601f83011261243d5761243c612321565b5b813561244d8482602086016123e6565b91505092915050565b60006020828403121561246c5761246b611fd5565b5b600082013567ffffffffffffffff81111561248a57612489611fda565b5b61249684828501612428565b91505092915050565b6124a881612064565b81146124b357600080fd5b50565b6000813590506124c58161249f565b92915050565b600080604083850312156124e2576124e1611fd5565b5b60006124f085828601612222565b9250506020612501858286016124b6565b9150509250929050565b600067ffffffffffffffff8211156125265761252561232b565b5b61252f826120e0565b9050602081019050919050565b600061254f61254a8461250b565b61238b565b90508281526020810184848401111561256b5761256a612326565b5b6125768482856123d7565b509392505050565b600082601f83011261259357612592612321565b5b81356125a384826020860161253c565b91505092915050565b600080600080608085870312156125c6576125c5611fd5565b5b60006125d487828801612222565b94505060206125e587828801612222565b93505060406125f68782880161216d565b925050606085013567ffffffffffffffff81111561261757612616611fda565b5b6126238782880161257e565b91505092959194509250565b6000806040838503121561264657612645611fd5565b5b600061265485828601612222565b925050602061266585828601612222565b9150509250929050565b7f4e487b7100000000000000000000000000000000000000000000000000000000600052602260045260246000fd5b600060028204905060018216806126b657607f821691505b6020821081036126c9576126c861266f565b5b50919050565b7f4552433732313a20617070726f76616c20746f2063757272656e74206f776e6560008201527f7200000000000000000000000000000000000000000000000000000000000000602082015250565b600061272b6021836120a5565b9150612736826126cf565b604082019050919050565b6000602082019050818103600083015261275a8161271e565b9050919050565b7f4552433732313a20617070726f76652063616c6c6572206973206e6f7420746f60008201527f6b656e206f776e6572206f7220617070726f76656420666f7220616c6c000000602082015250565b60006127bd603d836120a5565b91506127c882612761565b604082019050919050565b600060208201905081810360008301526127ec816127b0565b9050919050565b7f4d6178696d756e206e756d62657220776173206d696e74656400000000000000600082015250565b60006128296019836120a5565b9150612834826127f3565b602082019050919050565b600060208201905081810360008301526128588161281c565b9050919050565b7f4e487b7100000000000000000000000000000000000000000000000000000000600052601160045260246000fd5b60006128998261214c565b91507fffffffffffffffffffffffffffffffffffffffffffffffffffffffffffffffff82036128cb576128ca61285f565b5b600182019050919050565b60006060820190506128eb60008301866121e1565b6128f860208301856121e1565b6129056040830184612277565b949350505050565b7f4552433732313a2063616c6c6572206973206e6f7420746f6b656e206f776e6560008201527f72206f7220617070726f76656400000000000000000000000000000000000000602082015250565b6000612969602d836120a5565b91506129748261290d565b604082019050919050565b600060208201905081810360008301526129988161295c565b9050919050565b600081905092915050565b50565b60006129ba60008361299f565b91506129c5826129aa565b600082019050919050565b60006129db826129ad565b9150819050919050565b7f4552433732313a20696e76616c696420746f6b656e2049440000000000000000600082015250565b6000612a1b6018836120a5565b9150612a26826129e5565b602082019050919050565b60006020820190508181036000830152612a4a81612a0e565b9050919050565b7f4f6e6c79206f776e657200000000000000000000000000000000000000000000600082015250565b6000612a87600a836120a5565b9150612a9282612a51565b602082019050919050565b60006020820190508181036000830152612ab681612a7a565b9050919050565b7f4552433732313a2061646472657373207a65726f206973206e6f74206120766160008201527f6c6964206f776e65720000000000000000000000000000000000000000000000602082015250565b6000612b196029836120a5565b9150612b2482612abd565b604082019050919050565b60006020820190508181036000830152612b4881612b0c565b9050919050565b60008190508160005260206000209050919050565b60006020601f8301049050919050565b600082821b905092915050565b600060088302612bb17fffffffffffffffffffffffffffffffffffffffffffffffffffffffffffffffff82612b74565b612bbb8683612b74565b95508019841693508086168417925050509392505050565b6000819050919050565b6000612bf8612bf3612bee8461214c565b612bd3565b61214c565b9050919050565b6000819050919050565b612c1283612bdd565b612c26612c1e82612bff565b848454612b81565b825550505050565b600090565b612c3b612c2e565b612c46818484612c09565b505050565b5b81811015612c6a57612c5f600082612c33565b600181019050612c4c565b5050565b601f821115612caf57612c8081612b4f565b612c8984612b64565b81016020851015612c98578190505b612cac612ca485612b64565b830182612c4b565b50505b505050565b600082821c905092915050565b6000612cd260001984600802612cb4565b1980831691505092915050565b6000612ceb8383612cc1565b9150826002028217905092915050565b612d048261209a565b67ffffffffffffffff811115612d1d57612d1c61232b565b5b612d27825461269e565b612d32828285612c6e565b600060209050601f831160018114612d655760008415612d53578287015190505b612d5d8582612cdf565b865550612dc5565b601f198416612d7386612b4f565b60005b82811015612d9b57848901518255600182019150602085019450602081019050612d76565b86831015612db85784890151612db4601f891682612cc1565b8355505b6001600288020188555050505b505050505050565b600081905092915050565b6000612de38261209a565b612ded8185612dcd565b9350612dfd8185602086016120b6565b80840191505092915050565b6000612e158285612dd8565b9150612e218284612dd8565b91508190509392505050565b7f4e487b7100000000000000000000000000000000000000000000000000000000600052601260045260246000fd5b6000612e678261214c565b9150612e728361214c565b925082612e8257612e81612e2d565b5b828204905092915050565b7f4552433732313a206d696e7420746f20746865207a65726f2061646472657373600082015250565b6000612ec36020836120a5565b9150612ece82612e8d565b602082019050919050565b60006020820190508181036000830152612ef281612eb6565b9050919050565b7f4552433732313a20746f6b656e20616c7265616479206d696e74656400000000600082015250565b6000612f2f601c836120a5565b9150612f3a82612ef9565b602082019050919050565b60006020820190508181036000830152612f5e81612f22565b9050919050565b7f4d6178206e756d626572206d696e746564000000000000000000000000000000600082015250565b6000612f9b6011836120a5565b9150612fa682612f65565b602082019050919050565b60006020820190508181036000830152612fca81612f8e565b9050919050565b7f4552433732313a207472616e736665722066726f6d20696e636f72726563742060008201527f6f776e6572000000000000000000000000000000000000000000000000000000602082015250565b600061302d6025836120a5565b915061303882612fd1565b604082019050919050565b6000602082019050818103600083015261305c81613020565b9050919050565b7f4552433732313a207472616e7366657220746f20746865207a65726f2061646460008201527f7265737300000000000000000000000000000000000000000000000000000000602082015250565b60006130bf6024836120a5565b91506130ca82613063565b604082019050919050565b600060208201905081810360008301526130ee816130b2565b9050919050565b7f4552433732313a20617070726f766520746f2063616c6c657200000000000000600082015250565b600061312b6019836120a5565b9150613136826130f5565b602082019050919050565b6000602082019050818103600083015261315a8161311e565b9050919050565b7f4552433732313a207472616e7366657220746f206e6f6e20455243373231526560008201527f63656976657220696d706c656d656e7465720000000000000000000000000000602082015250565b60006131bd6032836120a5565b91506131c882613161565b604082019050919050565b600060208201905081810360008301526131ec816131b0565b9050919050565b60006131fe8261214c565b91506132098361214c565b92508282039050818111156132215761322061285f565b5b92915050565b60006132328261214c565b915061323d8361214c565b92508282019050808211156132555761325461285f565b5b92915050565b600081519050919050565b600082825260208201905092915050565b60006132828261325b565b61328c8185613266565b935061329c8185602086016120b6565b6132a5816120e0565b840191505092915050565b60006080820190506132c560008301876121e1565b6132d260208301866121e1565b6132df6040830185612277565b81810360608301526132f18184613277565b905095945050505050565b60008151905061330b8161200b565b92915050565b60006020828403121561332757613326611fd5565b5b6000613335848285016132fc565b9150509291505056fea2646970667358221220c7b114dd73a5cccd832aca0413ef35cc69c7870587fdf819f2fa58d3a7e8709a64736f6c63430008110033",
  "devdoc": {
    "kind": "dev",
    "methods": {
      "approve(address,uint256)": {
        "details": "See {IERC721-approve}."
      },
      "balanceOf(address)": {
        "details": "See {IERC721-balanceOf}."
      },
      "getApproved(uint256)": {
        "details": "See {IERC721-getApproved}."
      },
      "isApprovedForAll(address,address)": {
        "details": "See {IERC721-isApprovedForAll}."
      },
      "name()": {
        "details": "See {IERC721Metadata-name}."
      },
      "ownerOf(uint256)": {
        "details": "See {IERC721-ownerOf}."
      },
      "safeTransferFrom(address,address,uint256)": {
        "details": "See {IERC721-safeTransferFrom}."
      },
      "safeTransferFrom(address,address,uint256,bytes)": {
        "details": "See {IERC721-safeTransferFrom}."
      },
      "setApprovalForAll(address,bool)": {
        "details": "See {IERC721-setApprovalForAll}."
      },
      "supportsInterface(bytes4)": {
        "details": "See {IERC165-supportsInterface}."
      },
      "symbol()": {
        "details": "See {IERC721Metadata-symbol}."
      },
      "tokenURI(uint256)": {
        "details": "See {IERC721Metadata-tokenURI}."
      },
      "transferFrom(address,address,uint256)": {
        "details": "See {IERC721-transferFrom}."
      }
    },
    "version": 1
  },
  "userdoc": {
    "kind": "user",
    "methods": {},
    "version": 1
  },
  "storageLayout": {
    "storage": [
      {
        "astId": 138,
        "contract": "contracts/ERC721V1.sol:ERC721V1",
        "label": "_name",
        "offset": 0,
        "slot": "0",
        "type": "t_string_storage"
      },
      {
        "astId": 140,
        "contract": "contracts/ERC721V1.sol:ERC721V1",
        "label": "_symbol",
        "offset": 0,
        "slot": "1",
        "type": "t_string_storage"
      },
      {
        "astId": 144,
        "contract": "contracts/ERC721V1.sol:ERC721V1",
        "label": "_owners",
        "offset": 0,
        "slot": "2",
        "type": "t_mapping(t_uint256,t_address)"
      },
      {
        "astId": 148,
        "contract": "contracts/ERC721V1.sol:ERC721V1",
        "label": "_balances",
        "offset": 0,
        "slot": "3",
        "type": "t_mapping(t_address,t_uint256)"
      },
      {
        "astId": 152,
        "contract": "contracts/ERC721V1.sol:ERC721V1",
        "label": "_tokenApprovals",
        "offset": 0,
        "slot": "4",
        "type": "t_mapping(t_uint256,t_address)"
      },
      {
        "astId": 158,
        "contract": "contracts/ERC721V1.sol:ERC721V1",
        "label": "_operatorApprovals",
        "offset": 0,
        "slot": "5",
        "type": "t_mapping(t_address,t_mapping(t_address,t_bool))"
      },
      {
        "astId": 2843,
        "contract": "contracts/ERC721V1.sol:ERC721V1",
        "label": "s_name",
        "offset": 0,
        "slot": "6",
        "type": "t_string_storage"
      },
      {
        "astId": 2845,
        "contract": "contracts/ERC721V1.sol:ERC721V1",
        "label": "s_symbol",
        "offset": 0,
        "slot": "7",
        "type": "t_string_storage"
      },
      {
        "astId": 2847,
        "contract": "contracts/ERC721V1.sol:ERC721V1",
        "label": "s_url",
        "offset": 0,
        "slot": "8",
        "type": "t_string_storage"
      },
      {
        "astId": 2849,
        "contract": "contracts/ERC721V1.sol:ERC721V1",
        "label": "_owner",
        "offset": 0,
        "slot": "9",
        "type": "t_address"
      },
      {
        "astId": 2851,
        "contract": "contracts/ERC721V1.sol:ERC721V1",
        "label": "counterTokenID",
        "offset": 0,
        "slot": "10",
        "type": "t_uint256"
      },
      {
        "astId": 2853,
        "contract": "contracts/ERC721V1.sol:ERC721V1",
        "label": "s_fee",
        "offset": 0,
        "slot": "11",
        "type": "t_uint256"
      },
      {
        "astId": 2857,
        "contract": "contracts/ERC721V1.sol:ERC721V1",
        "label": "parentContract",
        "offset": 0,
        "slot": "12",
        "type": "t_address_payable"
      },
      {
        "astId": 2861,
        "contract": "contracts/ERC721V1.sol:ERC721V1",
        "label": "_owners",
        "offset": 0,
        "slot": "13",
        "type": "t_mapping(t_uint256,t_address)"
      },
      {
        "astId": 2865,
        "contract": "contracts/ERC721V1.sol:ERC721V1",
        "label": "_balances",
        "offset": 0,
        "slot": "14",
        "type": "t_mapping(t_address,t_uint256)"
      }
    ],
    "types": {
      "t_address": {
        "encoding": "inplace",
        "label": "address",
        "numberOfBytes": "20"
      },
      "t_address_payable": {
        "encoding": "inplace",
        "label": "address payable",
        "numberOfBytes": "20"
      },
      "t_bool": {
        "encoding": "inplace",
        "label": "bool",
        "numberOfBytes": "1"
      },
      "t_mapping(t_address,t_bool)": {
        "encoding": "mapping",
        "key": "t_address",
        "label": "mapping(address => bool)",
        "numberOfBytes": "32",
        "value": "t_bool"
      },
      "t_mapping(t_address,t_mapping(t_address,t_bool))": {
        "encoding": "mapping",
        "key": "t_address",
        "label": "mapping(address => mapping(address => bool))",
        "numberOfBytes": "32",
        "value": "t_mapping(t_address,t_bool)"
      },
      "t_mapping(t_address,t_uint256)": {
        "encoding": "mapping",
        "key": "t_address",
        "label": "mapping(address => uint256)",
        "numberOfBytes": "32",
        "value": "t_uint256"
      },
      "t_mapping(t_uint256,t_address)": {
        "encoding": "mapping",
        "key": "t_uint256",
        "label": "mapping(uint256 => address)",
        "numberOfBytes": "32",
        "value": "t_address"
      },
      "t_string_storage": {
        "encoding": "bytes",
        "label": "string",
        "numberOfBytes": "32"
      },
      "t_uint256": {
        "encoding": "inplace",
        "label": "uint256",
        "numberOfBytes": "32"
      }
    }
  }
}