{
  "address": "0x9fE46736679d2D9a65F0992F2272dE9f3c7fa6e0",
  "abi": [
    {
      "inputs": [],
      "stateMutability": "nonpayable",
      "type": "constructor"
    },
    {
      "anonymous": false,
      "inputs": [
        {
          "indexed": true,
          "internalType": "address",
          "name": "contractAddress",
          "type": "address"
        },
        {
          "indexed": true,
          "internalType": "address",
          "name": "owner",
          "type": "address"
        },
        {
          "indexed": false,
          "internalType": "string",
          "name": "symbol",
          "type": "string"
        }
      ],
      "name": "ERC721Create",
      "type": "event"
    },
    {
      "anonymous": false,
      "inputs": [
        {
          "indexed": true,
          "internalType": "address",
          "name": "previousOwner",
          "type": "address"
        },
        {
          "indexed": true,
          "internalType": "address",
          "name": "newOwner",
          "type": "address"
        }
      ],
      "name": "OwnershipTransferred",
      "type": "event"
    },
    {
      "inputs": [],
      "name": "balance",
      "outputs": [
        {
          "internalType": "uint256",
          "name": "",
          "type": "uint256"
        }
      ],
      "stateMutability": "view",
      "type": "function"
    },
    {
      "inputs": [
        {
          "internalType": "string",
          "name": "name",
          "type": "string"
        },
        {
          "internalType": "string",
          "name": "symbol",
          "type": "string"
        }
      ],
      "name": "createERC721",
      "outputs": [
        {
          "internalType": "address",
          "name": "",
          "type": "address"
        }
      ],
      "stateMutability": "payable",
      "type": "function"
    },
    {
      "inputs": [
        {
          "internalType": "address",
          "name": "who",
          "type": "address"
        }
      ],
      "name": "getUserBalance",
      "outputs": [
        {
          "internalType": "uint256",
          "name": "",
          "type": "uint256"
        }
      ],
      "stateMutability": "view",
      "type": "function"
    },
    {
      "inputs": [
        {
          "internalType": "address",
          "name": "user",
          "type": "address"
        }
      ],
      "name": "getUserContracts",
      "outputs": [
        {
          "internalType": "address[]",
          "name": "",
          "type": "address[]"
        }
      ],
      "stateMutability": "view",
      "type": "function"
    },
    {
      "inputs": [],
      "name": "owner",
      "outputs": [
        {
          "internalType": "address",
          "name": "",
          "type": "address"
        }
      ],
      "stateMutability": "view",
      "type": "function"
    },
    {
      "inputs": [],
      "name": "renounceOwnership",
      "outputs": [],
      "stateMutability": "nonpayable",
      "type": "function"
    },
    {
      "inputs": [
        {
          "internalType": "uint256",
          "name": "index",
          "type": "uint256"
        },
        {
          "internalType": "uint256",
          "name": "feeAmount",
          "type": "uint256"
        }
      ],
      "name": "setFee",
      "outputs": [],
      "stateMutability": "nonpayable",
      "type": "function"
    },
    {
      "inputs": [
        {
          "internalType": "address",
          "name": "newOwner",
          "type": "address"
        }
      ],
      "name": "transferOwnership",
      "outputs": [],
      "stateMutability": "nonpayable",
      "type": "function"
    },
    {
      "inputs": [
        {
          "internalType": "uint256",
          "name": "amount",
          "type": "uint256"
        }
      ],
      "name": "withdraw",
      "outputs": [],
      "stateMutability": "payable",
      "type": "function"
    },
    {
      "stateMutability": "payable",
      "type": "receive"
    }
  ],
  "transactionHash": "0x4b08de520c45ebe7d4ef0bed9b81e274b0d97202947fbeb5f7dd8a9d7725eeab",
  "args": [],
  "numDeployments": 1,
  "solcInputHash": "aebcd8aa1dc15f2af2c21ac7c34a7420",
  "bytecode": "0x608060405234801561001057600080fd5b5061002d61002261007360201b60201c565b61007b60201b60201c565b33600160006101000a81548173ffffffffffffffffffffffffffffffffffffffff021916908373ffffffffffffffffffffffffffffffffffffffff16021790555061013f565b600033905090565b60008060009054906101000a900473ffffffffffffffffffffffffffffffffffffffff169050816000806101000a81548173ffffffffffffffffffffffffffffffffffffffff021916908373ffffffffffffffffffffffffffffffffffffffff1602179055508173ffffffffffffffffffffffffffffffffffffffff168173ffffffffffffffffffffffffffffffffffffffff167f8be0079c531659141344cd1fd0a4f28419497f9722a3daafe3b4186f6b6457e060405160405180910390a35050565b6149ea8061014e6000396000f3fe608060405260043610620000975760003560e01c8063586fd0c51162000061578063586fd0c5146200017a578063715018a614620001b05780638da5cb5b14620001ca578063b69ef8a814620001fa578063f2fde38b146200022a576200009f565b80632e1a7d4d14620000a457806334c925f014620000c457806347734892146200010857806352f7c988146200014c576200009f565b366200009f57005b600080fd5b620000c26004803603810190620000bc919062000801565b62000258565b005b348015620000d157600080fd5b50620000f06004803603810190620000ea919062000898565b6200032b565b604051620000ff919062000998565b60405180910390f35b3480156200011557600080fd5b506200013460048036038101906200012e919062000898565b620003fa565b604051620001439190620009cd565b60405180910390f35b3480156200015957600080fd5b50620001786004803603810190620001729190620009ea565b62000443565b005b62000198600480360381019062000192919062000b93565b62000484565b604051620001a7919062000c29565b60405180910390f35b348015620001bd57600080fd5b50620001c862000580565b005b348015620001d757600080fd5b50620001e262000598565b604051620001f1919062000c29565b60405180910390f35b3480156200020757600080fd5b5062000212620005c1565b604051620002219190620009cd565b60405180910390f35b3480156200023757600080fd5b5062000256600480360381019062000250919062000898565b620005c9565b005b6200026262000653565b4781116200032857600062000276620006d8565b73ffffffffffffffffffffffffffffffffffffffff16826040516200029b9062000c7b565b60006040518083038185875af1925050503d8060008114620002da576040519150601f19603f3d011682016040523d82523d6000602084013e620002df565b606091505b505090508062000326576040517f08c379a00000000000000000000000000000000000000000000000000000000081526004016200031d9062000cf3565b60405180910390fd5b505b50565b6060600660008373ffffffffffffffffffffffffffffffffffffffff1673ffffffffffffffffffffffffffffffffffffffff168152602001908152602001600020805480602002602001604051908101604052809291908181526020018280548015620003ee57602002820191906000526020600020905b8160009054906101000a900473ffffffffffffffffffffffffffffffffffffffff1673ffffffffffffffffffffffffffffffffffffffff1681526020019060010190808311620003a3575b50505050509050919050565b6000600560008373ffffffffffffffffffffffffffffffffffffffff1673ffffffffffffffffffffffffffffffffffffffff168152602001908152602001600020549050919050565b6200044d62000653565b600082036200045e57806002819055505b600182036200046f57806003819055505b600282036200048057806004819055505b5050565b6000600254341015620004ce576040517f08c379a0000000000000000000000000000000000000000000000000000000008152600401620004c59062000d65565b60405180910390fd5b6000838333604051620004e190620007a4565b620004ef9392919062000dff565b604051809103906000f0801580156200050c573d6000803e3d6000fd5b5090503373ffffffffffffffffffffffffffffffffffffffff168173ffffffffffffffffffffffffffffffffffffffff167f885ff2ac72301279f7111fa8a37e1d3752db502e4301372f8b411cff87b40602856040516200056e919062000e4a565b60405180910390a38091505092915050565b6200058a62000653565b620005966000620006e0565b565b60008060009054906101000a900473ffffffffffffffffffffffffffffffffffffffff16905090565b600047905090565b620005d362000653565b600073ffffffffffffffffffffffffffffffffffffffff168173ffffffffffffffffffffffffffffffffffffffff160362000645576040517f08c379a00000000000000000000000000000000000000000000000000000000081526004016200063c9062000ee4565b60405180910390fd5b6200065081620006e0565b50565b6200065d620006d8565b73ffffffffffffffffffffffffffffffffffffffff166200067d62000598565b73ffffffffffffffffffffffffffffffffffffffff1614620006d6576040517f08c379a0000000000000000000000000000000000000000000000000000000008152600401620006cd9062000f56565b60405180910390fd5b565b600033905090565b60008060009054906101000a900473ffffffffffffffffffffffffffffffffffffffff169050816000806101000a81548173ffffffffffffffffffffffffffffffffffffffff021916908373ffffffffffffffffffffffffffffffffffffffff1602179055508173ffffffffffffffffffffffffffffffffffffffff168173ffffffffffffffffffffffffffffffffffffffff167f8be0079c531659141344cd1fd0a4f28419497f9722a3daafe3b4186f6b6457e060405160405180910390a35050565b613a3c8062000f7983390190565b6000604051905090565b600080fd5b600080fd5b6000819050919050565b620007db81620007c6565b8114620007e757600080fd5b50565b600081359050620007fb81620007d0565b92915050565b6000602082840312156200081a5762000819620007bc565b5b60006200082a84828501620007ea565b91505092915050565b600073ffffffffffffffffffffffffffffffffffffffff82169050919050565b6000620008608262000833565b9050919050565b620008728162000853565b81146200087e57600080fd5b50565b600081359050620008928162000867565b92915050565b600060208284031215620008b157620008b0620007bc565b5b6000620008c18482850162000881565b91505092915050565b600081519050919050565b600082825260208201905092915050565b6000819050602082019050919050565b620009018162000853565b82525050565b6000620009158383620008f6565b60208301905092915050565b6000602082019050919050565b60006200093b82620008ca565b620009478185620008d5565b93506200095483620008e6565b8060005b838110156200098b5781516200096f888262000907565b97506200097c8362000921565b92505060018101905062000958565b5085935050505092915050565b60006020820190508181036000830152620009b481846200092e565b905092915050565b620009c781620007c6565b82525050565b6000602082019050620009e46000830184620009bc565b92915050565b6000806040838503121562000a045762000a03620007bc565b5b600062000a1485828601620007ea565b925050602062000a2785828601620007ea565b9150509250929050565b600080fd5b600080fd5b6000601f19601f8301169050919050565b7f4e487b7100000000000000000000000000000000000000000000000000000000600052604160045260246000fd5b62000a868262000a3b565b810181811067ffffffffffffffff8211171562000aa85762000aa762000a4c565b5b80604052505050565b600062000abd620007b2565b905062000acb828262000a7b565b919050565b600067ffffffffffffffff82111562000aee5762000aed62000a4c565b5b62000af98262000a3b565b9050602081019050919050565b82818337600083830152505050565b600062000b2c62000b268462000ad0565b62000ab1565b90508281526020810184848401111562000b4b5762000b4a62000a36565b5b62000b5884828562000b06565b509392505050565b600082601f83011262000b785762000b7762000a31565b5b813562000b8a84826020860162000b15565b91505092915050565b6000806040838503121562000bad5762000bac620007bc565b5b600083013567ffffffffffffffff81111562000bce5762000bcd620007c1565b5b62000bdc8582860162000b60565b925050602083013567ffffffffffffffff81111562000c005762000bff620007c1565b5b62000c0e8582860162000b60565b9150509250929050565b62000c238162000853565b82525050565b600060208201905062000c40600083018462000c18565b92915050565b600081905092915050565b50565b600062000c6360008362000c46565b915062000c708262000c51565b600082019050919050565b600062000c888262000c54565b9150819050919050565b600082825260208201905092915050565b7f43616c6c206661696c6564000000000000000000000000000000000000000000600082015250565b600062000cdb600b8362000c92565b915062000ce88262000ca3565b602082019050919050565b6000602082019050818103600083015262000d0e8162000ccc565b9050919050565b7f6372656174652072657175697265732066656500000000000000000000000000600082015250565b600062000d4d60138362000c92565b915062000d5a8262000d15565b602082019050919050565b6000602082019050818103600083015262000d808162000d3e565b9050919050565b600081519050919050565b60005b8381101562000db257808201518184015260208101905062000d95565b60008484015250505050565b600062000dcb8262000d87565b62000dd7818562000c92565b935062000de981856020860162000d92565b62000df48162000a3b565b840191505092915050565b6000606082019050818103600083015262000e1b818662000dbe565b9050818103602083015262000e31818562000dbe565b905062000e42604083018462000c18565b949350505050565b6000602082019050818103600083015262000e66818462000dbe565b905092915050565b7f4f776e61626c653a206e6577206f776e657220697320746865207a65726f206160008201527f6464726573730000000000000000000000000000000000000000000000000000602082015250565b600062000ecc60268362000c92565b915062000ed98262000e6e565b604082019050919050565b6000602082019050818103600083015262000eff8162000ebd565b9050919050565b7f4f776e61626c653a2063616c6c6572206973206e6f7420746865206f776e6572600082015250565b600062000f3e60208362000c92565b915062000f4b8262000f06565b602082019050919050565b6000602082019050818103600083015262000f718162000f2f565b905091905056fe6080604052600160085560016009553480156200001b57600080fd5b5060405162003a3c38038062003a3c8339818101604052810190620000419190620002ec565b82828160009081620000549190620005d1565b508060019081620000669190620005d1565b50505080600760006101000a81548173ffffffffffffffffffffffffffffffffffffffff021916908373ffffffffffffffffffffffffffffffffffffffff16021790555033600a60006101000a81548173ffffffffffffffffffffffffffffffffffffffff021916908373ffffffffffffffffffffffffffffffffffffffff160217905550505050620006b8565b6000604051905090565b600080fd5b600080fd5b600080fd5b600080fd5b6000601f19601f8301169050919050565b7f4e487b7100000000000000000000000000000000000000000000000000000000600052604160045260246000fd5b6200015d8262000112565b810181811067ffffffffffffffff821117156200017f576200017e62000123565b5b80604052505050565b600062000194620000f4565b9050620001a2828262000152565b919050565b600067ffffffffffffffff821115620001c557620001c462000123565b5b620001d08262000112565b9050602081019050919050565b60005b83811015620001fd578082015181840152602081019050620001e0565b60008484015250505050565b6000620002206200021a84620001a7565b62000188565b9050828152602081018484840111156200023f576200023e6200010d565b5b6200024c848285620001dd565b509392505050565b600082601f8301126200026c576200026b62000108565b5b81516200027e84826020860162000209565b91505092915050565b600073ffffffffffffffffffffffffffffffffffffffff82169050919050565b6000620002b48262000287565b9050919050565b620002c681620002a7565b8114620002d257600080fd5b50565b600081519050620002e681620002bb565b92915050565b600080600060608486031215620003085762000307620000fe565b5b600084015167ffffffffffffffff81111562000329576200032862000103565b5b620003378682870162000254565b935050602084015167ffffffffffffffff8111156200035b576200035a62000103565b5b620003698682870162000254565b92505060406200037c86828701620002d5565b9150509250925092565b600081519050919050565b7f4e487b7100000000000000000000000000000000000000000000000000000000600052602260045260246000fd5b60006002820490506001821680620003d957607f821691505b602082108103620003ef57620003ee62000391565b5b50919050565b60008190508160005260206000209050919050565b60006020601f8301049050919050565b600082821b905092915050565b600060088302620004597fffffffffffffffffffffffffffffffffffffffffffffffffffffffffffffffff826200041a565b6200046586836200041a565b95508019841693508086168417925050509392505050565b6000819050919050565b6000819050919050565b6000620004b2620004ac620004a6846200047d565b62000487565b6200047d565b9050919050565b6000819050919050565b620004ce8362000491565b620004e6620004dd82620004b9565b84845462000427565b825550505050565b600090565b620004fd620004ee565b6200050a818484620004c3565b505050565b5b81811015620005325762000526600082620004f3565b60018101905062000510565b5050565b601f82111562000581576200054b81620003f5565b62000556846200040a565b8101602085101562000566578190505b6200057e62000575856200040a565b8301826200050f565b50505b505050565b600082821c905092915050565b6000620005a66000198460080262000586565b1980831691505092915050565b6000620005c1838362000593565b9150826002028217905092915050565b620005dc8262000386565b67ffffffffffffffff811115620005f857620005f762000123565b5b620006048254620003c0565b6200061182828562000536565b600060209050601f83116001811462000649576000841562000634578287015190505b620006408582620005b3565b865550620006b0565b601f1984166200065986620003f5565b60005b8281101562000683578489015182556001820191506020850194506020810190506200065c565b86831015620006a357848901516200069f601f89168262000593565b8355505b6001600288020188555050505b505050505050565b61337480620006c86000396000f3fe6080604052600436106100f35760003560e01c806370a082311161008a578063b88d4fde11610059578063b88d4fde14610326578063c87b56dd1461034f578063e985e9c51461038c578063efef39a1146103c9576100f3565b806370a082311461027e57806395d89b41146102bb57806399d32fc4146102e6578063a22cb465146102fd576100f3565b8063095ea7b3116100c6578063095ea7b3146101c657806323b872dd146101ef57806342842e0e146102185780636352211e14610241576100f3565b806301cecd14146100f857806301ffc9a71461012157806306fdde031461015e578063081812fc14610189575b600080fd5b34801561010457600080fd5b5061011f600480360381019061011a9190611f86565b6103e5565b005b34801561012d57600080fd5b506101486004803603810190610143919061207d565b61059c565b60405161015591906120c5565b60405180910390f35b34801561016a57600080fd5b506101736105fd565b604051610180919061215f565b60405180910390f35b34801561019557600080fd5b506101b060048036038101906101ab9190612181565b61068f565b6040516101bd91906121ef565b60405180910390f35b3480156101d257600080fd5b506101ed60048036038101906101e89190612236565b6106d5565b005b3480156101fb57600080fd5b5061021660048036038101906102119190612276565b6107ec565b005b34801561022457600080fd5b5061023f600480360381019061023a9190612276565b61084c565b005b34801561024d57600080fd5b5061026860048036038101906102639190612181565b61086c565b60405161027591906121ef565b60405180910390f35b34801561028a57600080fd5b506102a560048036038101906102a091906122c9565b6108f2565b6040516102b29190612305565b60405180910390f35b3480156102c757600080fd5b506102d06109a9565b6040516102dd919061215f565b60405180910390f35b3480156102f257600080fd5b506102fb610a3b565b005b34801561030957600080fd5b50610324600480360381019061031f919061234c565b610acd565b005b34801561033257600080fd5b5061034d6004803603810190610348919061242d565b610ae3565b005b34801561035b57600080fd5b5061037660048036038101906103719190612181565b610b45565b604051610383919061215f565b60405180910390f35b34801561039857600080fd5b506103b360048036038101906103ae91906124b0565b610d4e565b6040516103c091906120c5565b60405180910390f35b6103e360048036038101906103de9190612181565b610de2565b005b600760009054906101000a900473ffffffffffffffffffffffffffffffffffffffff1673ffffffffffffffffffffffffffffffffffffffff163373ffffffffffffffffffffffffffffffffffffffff1614610475576040517f08c379a000000000000000000000000000000000000000000000000000000000815260040161046c9061253c565b60405180910390fd5b600a60009054906101000a900473ffffffffffffffffffffffffffffffffffffffff1673ffffffffffffffffffffffffffffffffffffffff163373ffffffffffffffffffffffffffffffffffffffff1614610505576040517f08c379a00000000000000000000000000000000000000000000000000000000081526004016104fc9061253c565b60405180910390fd5b604051806080016040528085815260200183815260200184815260200182815250600c6000600954815260200190815260200160002060008201518160000190816105509190612768565b506020820151816001015560408201518160020190816105709190612768565b50606082015181600301559050506009600081548092919061059190612869565b919050555050505050565b6000634906490660e01b7bffffffffffffffffffffffffffffffffffffffffffffffffffffffff1916827bffffffffffffffffffffffffffffffffffffffffffffffffffffffff191614806105f657506105f582611004565b5b9050919050565b60606000805461060c9061258b565b80601f01602080910402602001604051908101604052809291908181526020018280546106389061258b565b80156106855780601f1061065a57610100808354040283529160200191610685565b820191906000526020600020905b81548152906001019060200180831161066857829003601f168201915b5050505050905090565b600061069a826110e6565b6004600083815260200190815260200160002060009054906101000a900473ffffffffffffffffffffffffffffffffffffffff169050919050565b60006106e08261086c565b90508073ffffffffffffffffffffffffffffffffffffffff168373ffffffffffffffffffffffffffffffffffffffff1603610750576040517f08c379a000000000000000000000000000000000000000000000000000000000815260040161074790612923565b60405180910390fd5b8073ffffffffffffffffffffffffffffffffffffffff1661076f611131565b73ffffffffffffffffffffffffffffffffffffffff16148061079e575061079d81610798611131565b610d4e565b5b6107dd576040517f08c379a00000000000000000000000000000000000000000000000000000000081526004016107d4906129b5565b60405180910390fd5b6107e78383611139565b505050565b6107fd6107f7611131565b826111f2565b61083c576040517f08c379a000000000000000000000000000000000000000000000000000000000815260040161083390612a47565b60405180910390fd5b610847838383611287565b505050565b61086783838360405180602001604052806000815250610ae3565b505050565b60008061087883611580565b9050600073ffffffffffffffffffffffffffffffffffffffff168173ffffffffffffffffffffffffffffffffffffffff16036108e9576040517f08c379a00000000000000000000000000000000000000000000000000000000081526004016108e090612ab3565b60405180910390fd5b80915050919050565b60008073ffffffffffffffffffffffffffffffffffffffff168273ffffffffffffffffffffffffffffffffffffffff1603610962576040517f08c379a000000000000000000000000000000000000000000000000000000000815260040161095990612b45565b60405180910390fd5b600360008373ffffffffffffffffffffffffffffffffffffffff1673ffffffffffffffffffffffffffffffffffffffff168152602001908152602001600020549050919050565b6060600180546109b89061258b565b80601f01602080910402602001604051908101604052809291908181526020018280546109e49061258b565b8015610a315780601f10610a0657610100808354040283529160200191610a31565b820191906000526020600020905b815481529060010190602001808311610a1457829003601f168201915b5050505050905090565b600760009054906101000a900473ffffffffffffffffffffffffffffffffffffffff1673ffffffffffffffffffffffffffffffffffffffff163373ffffffffffffffffffffffffffffffffffffffff1614610acb576040517f08c379a0000000000000000000000000000000000000000000000000000000008152600401610ac29061253c565b60405180910390fd5b565b610adf610ad8611131565b83836115bd565b5050565b610af4610aee611131565b836111f2565b610b33576040517f08c379a0000000000000000000000000000000000000000000000000000000008152600401610b2a90612a47565b60405180910390fd5b610b3f84848484611729565b50505050565b6060610b5082611785565b610b86576040517f6df5edae00000000000000000000000000000000000000000000000000000000815260040160405180910390fd5b6000600c6000848152602001908152602001600020604051806080016040529081600082018054610bb69061258b565b80601f0160208091040260200160405190810160405280929190818152602001828054610be29061258b565b8015610c2f5780601f10610c0457610100808354040283529160200191610c2f565b820191906000526020600020905b815481529060010190602001808311610c1257829003601f168201915b5050505050815260200160018201548152602001600282018054610c529061258b565b80601f0160208091040260200160405190810160405280929190818152602001828054610c7e9061258b565b8015610ccb5780601f10610ca057610100808354040283529160200191610ccb565b820191906000526020600020905b815481529060010190602001808311610cae57829003601f168201915b505050505081526020016003820154815250509050610ce86117c6565b610d268260000151836040015184606001518560200151604051602001610d129493929190612d3e565b6040516020818303038152906040526117dd565b604051602001610d37929190612dbb565b604051602081830303815290604052915050919050565b6000600560008473ffffffffffffffffffffffffffffffffffffffff1673ffffffffffffffffffffffffffffffffffffffff16815260200190815260200160002060008373ffffffffffffffffffffffffffffffffffffffff1673ffffffffffffffffffffffffffffffffffffffff16815260200190815260200160002060009054906101000a900460ff16905092915050565b6000600c6000838152602001908152602001600020604051806080016040529081600082018054610e129061258b565b80601f0160208091040260200160405190810160405280929190818152602001828054610e3e9061258b565b8015610e8b5780601f10610e6057610100808354040283529160200191610e8b565b820191906000526020600020905b815481529060010190602001808311610e6e57829003601f168201915b5050505050815260200160018201548152602001600282018054610eae9061258b565b80601f0160208091040260200160405190810160405280929190818152602001828054610eda9061258b565b8015610f275780601f10610efc57610100808354040283529160200191610f27565b820191906000526020600020905b815481529060010190602001808311610f0a57829003601f168201915b5050505050815260200160038201548152505090503481602001511115610f83576040517f08c379a0000000000000000000000000000000000000000000000000000000008152600401610f7a90612e2b565b60405180910390fd5b610f8f33600854611940565b80600d600060085481526020019081526020016000206000820151816000019081610fba9190612768565b50602082015181600101556040820151816002019081610fda9190612768565b506060820151816003015590505060086000815480929190610ffb90612869565b91905055505050565b60007f80ac58cd000000000000000000000000000000000000000000000000000000007bffffffffffffffffffffffffffffffffffffffffffffffffffffffff1916827bffffffffffffffffffffffffffffffffffffffffffffffffffffffff191614806110cf57507f5b5e139f000000000000000000000000000000000000000000000000000000007bffffffffffffffffffffffffffffffffffffffffffffffffffffffff1916827bffffffffffffffffffffffffffffffffffffffffffffffffffffffff1916145b806110df57506110de8261195e565b5b9050919050565b6110ef81611785565b61112e576040517f08c379a000000000000000000000000000000000000000000000000000000000815260040161112590612ab3565b60405180910390fd5b50565b600033905090565b816004600083815260200190815260200160002060006101000a81548173ffffffffffffffffffffffffffffffffffffffff021916908373ffffffffffffffffffffffffffffffffffffffff160217905550808273ffffffffffffffffffffffffffffffffffffffff166111ac8361086c565b73ffffffffffffffffffffffffffffffffffffffff167f8c5be1e5ebec7d5bd14f71427d1e84f3dd0314c0f7b2291e5b200ac8c7c3b92560405160405180910390a45050565b6000806111fe8361086c565b90508073ffffffffffffffffffffffffffffffffffffffff168473ffffffffffffffffffffffffffffffffffffffff161480611240575061123f8185610d4e565b5b8061127e57508373ffffffffffffffffffffffffffffffffffffffff166112668461068f565b73ffffffffffffffffffffffffffffffffffffffff16145b91505092915050565b8273ffffffffffffffffffffffffffffffffffffffff166112a78261086c565b73ffffffffffffffffffffffffffffffffffffffff16146112fd576040517f08c379a00000000000000000000000000000000000000000000000000000000081526004016112f490612ebd565b60405180910390fd5b600073ffffffffffffffffffffffffffffffffffffffff168273ffffffffffffffffffffffffffffffffffffffff160361136c576040517f08c379a000000000000000000000000000000000000000000000000000000000815260040161136390612f4f565b60405180910390fd5b61137983838360016119c8565b8273ffffffffffffffffffffffffffffffffffffffff166113998261086c565b73ffffffffffffffffffffffffffffffffffffffff16146113ef576040517f08c379a00000000000000000000000000000000000000000000000000000000081526004016113e690612ebd565b60405180910390fd5b6004600082815260200190815260200160002060006101000a81549073ffffffffffffffffffffffffffffffffffffffff02191690556001600360008573ffffffffffffffffffffffffffffffffffffffff1673ffffffffffffffffffffffffffffffffffffffff168152602001908152602001600020600082825403925050819055506001600360008473ffffffffffffffffffffffffffffffffffffffff1673ffffffffffffffffffffffffffffffffffffffff16815260200190815260200160002060008282540192505081905550816002600083815260200190815260200160002060006101000a81548173ffffffffffffffffffffffffffffffffffffffff021916908373ffffffffffffffffffffffffffffffffffffffff160217905550808273ffffffffffffffffffffffffffffffffffffffff168473ffffffffffffffffffffffffffffffffffffffff167fddf252ad1be2c89b69c2b068fc378daa952ba7f163c4a11628f55a4df523b3ef60405160405180910390a461157b83838360016119ce565b505050565b60006002600083815260200190815260200160002060009054906101000a900473ffffffffffffffffffffffffffffffffffffffff169050919050565b8173ffffffffffffffffffffffffffffffffffffffff168373ffffffffffffffffffffffffffffffffffffffff160361162b576040517f08c379a000000000000000000000000000000000000000000000000000000000815260040161162290612fbb565b60405180910390fd5b80600560008573ffffffffffffffffffffffffffffffffffffffff1673ffffffffffffffffffffffffffffffffffffffff16815260200190815260200160002060008473ffffffffffffffffffffffffffffffffffffffff1673ffffffffffffffffffffffffffffffffffffffff16815260200190815260200160002060006101000a81548160ff0219169083151502179055508173ffffffffffffffffffffffffffffffffffffffff168373ffffffffffffffffffffffffffffffffffffffff167f17307eab39ab6107e8899845ad3d59bd9653f200f220920489ca2b5937696c318360405161171c91906120c5565b60405180910390a3505050565b611734848484611287565b611740848484846119d4565b61177f576040517f08c379a00000000000000000000000000000000000000000000000000000000081526004016117769061304d565b60405180910390fd5b50505050565b60008073ffffffffffffffffffffffffffffffffffffffff166117a783611580565b73ffffffffffffffffffffffffffffffffffffffff1614159050919050565b606060405180602001604052806000815250905090565b606060008251036117ff5760405180602001604052806000815250905061193b565b60006040518060600160405280604081526020016132ff604091399050600060036002855161182e919061306d565b61183891906130d0565b60046118449190613101565b67ffffffffffffffff81111561185d5761185c611e25565b5b6040519080825280601f01601f19166020018201604052801561188f5781602001600182028036833780820191505090505b509050600182016020820185865187015b808210156118fb576003820191508151603f8160121c168501518453600184019350603f81600c1c168501518453600184019350603f8160061c168501518453600184019350603f81168501518453600184019350506118a0565b5050600386510660018114611917576002811461192a57611932565b603d6001830353603d6002830353611932565b603d60018303535b50505080925050505b919050565b61195a828260405180602001604052806000815250611b5b565b5050565b60007f01ffc9a7000000000000000000000000000000000000000000000000000000007bffffffffffffffffffffffffffffffffffffffffffffffffffffffff1916827bffffffffffffffffffffffffffffffffffffffffffffffffffffffff1916149050919050565b50505050565b50505050565b60006119f58473ffffffffffffffffffffffffffffffffffffffff16611bb6565b15611b4e578373ffffffffffffffffffffffffffffffffffffffff1663150b7a02611a1e611131565b8786866040518563ffffffff1660e01b8152600401611a409493929190613198565b6020604051808303816000875af1925050508015611a7c57506040513d601f19601f82011682018060405250810190611a7991906131f9565b60015b611afe573d8060008114611aac576040519150601f19603f3d011682016040523d82523d6000602084013e611ab1565b606091505b506000815103611af6576040517f08c379a0000000000000000000000000000000000000000000000000000000008152600401611aed9061304d565b60405180910390fd5b805181602001fd5b63150b7a0260e01b7bffffffffffffffffffffffffffffffffffffffffffffffffffffffff1916817bffffffffffffffffffffffffffffffffffffffffffffffffffffffff191614915050611b53565b600190505b949350505050565b611b658383611bd9565b611b7260008484846119d4565b611bb1576040517f08c379a0000000000000000000000000000000000000000000000000000000008152600401611ba89061304d565b60405180910390fd5b505050565b6000808273ffffffffffffffffffffffffffffffffffffffff163b119050919050565b600073ffffffffffffffffffffffffffffffffffffffff168273ffffffffffffffffffffffffffffffffffffffff1603611c48576040517f08c379a0000000000000000000000000000000000000000000000000000000008152600401611c3f90613272565b60405180910390fd5b611c5181611785565b15611c91576040517f08c379a0000000000000000000000000000000000000000000000000000000008152600401611c88906132de565b60405180910390fd5b611c9f6000838360016119c8565b611ca881611785565b15611ce8576040517f08c379a0000000000000000000000000000000000000000000000000000000008152600401611cdf906132de565b60405180910390fd5b6001600360008473ffffffffffffffffffffffffffffffffffffffff1673ffffffffffffffffffffffffffffffffffffffff16815260200190815260200160002060008282540192505081905550816002600083815260200190815260200160002060006101000a81548173ffffffffffffffffffffffffffffffffffffffff021916908373ffffffffffffffffffffffffffffffffffffffff160217905550808273ffffffffffffffffffffffffffffffffffffffff16600073ffffffffffffffffffffffffffffffffffffffff167fddf252ad1be2c89b69c2b068fc378daa952ba7f163c4a11628f55a4df523b3ef60405160405180910390a4611df26000838360016119ce565b5050565b6000604051905090565b600080fd5b600080fd5b600080fd5b600080fd5b6000601f19601f8301169050919050565b7f4e487b7100000000000000000000000000000000000000000000000000000000600052604160045260246000fd5b611e5d82611e14565b810181811067ffffffffffffffff82111715611e7c57611e7b611e25565b5b80604052505050565b6000611e8f611df6565b9050611e9b8282611e54565b919050565b600067ffffffffffffffff821115611ebb57611eba611e25565b5b611ec482611e14565b9050602081019050919050565b82818337600083830152505050565b6000611ef3611eee84611ea0565b611e85565b905082815260208101848484011115611f0f57611f0e611e0f565b5b611f1a848285611ed1565b509392505050565b600082601f830112611f3757611f36611e0a565b5b8135611f47848260208601611ee0565b91505092915050565b6000819050919050565b611f6381611f50565b8114611f6e57600080fd5b50565b600081359050611f8081611f5a565b92915050565b60008060008060808587031215611fa057611f9f611e00565b5b600085013567ffffffffffffffff811115611fbe57611fbd611e05565b5b611fca87828801611f22565b945050602085013567ffffffffffffffff811115611feb57611fea611e05565b5b611ff787828801611f22565b935050604061200887828801611f71565b925050606061201987828801611f71565b91505092959194509250565b60007fffffffff0000000000000000000000000000000000000000000000000000000082169050919050565b61205a81612025565b811461206557600080fd5b50565b60008135905061207781612051565b92915050565b60006020828403121561209357612092611e00565b5b60006120a184828501612068565b91505092915050565b60008115159050919050565b6120bf816120aa565b82525050565b60006020820190506120da60008301846120b6565b92915050565b600081519050919050565b600082825260208201905092915050565b60005b8381101561211a5780820151818401526020810190506120ff565b60008484015250505050565b6000612131826120e0565b61213b81856120eb565b935061214b8185602086016120fc565b61215481611e14565b840191505092915050565b600060208201905081810360008301526121798184612126565b905092915050565b60006020828403121561219757612196611e00565b5b60006121a584828501611f71565b91505092915050565b600073ffffffffffffffffffffffffffffffffffffffff82169050919050565b60006121d9826121ae565b9050919050565b6121e9816121ce565b82525050565b600060208201905061220460008301846121e0565b92915050565b612213816121ce565b811461221e57600080fd5b50565b6000813590506122308161220a565b92915050565b6000806040838503121561224d5761224c611e00565b5b600061225b85828601612221565b925050602061226c85828601611f71565b9150509250929050565b60008060006060848603121561228f5761228e611e00565b5b600061229d86828701612221565b93505060206122ae86828701612221565b92505060406122bf86828701611f71565b9150509250925092565b6000602082840312156122df576122de611e00565b5b60006122ed84828501612221565b91505092915050565b6122ff81611f50565b82525050565b600060208201905061231a60008301846122f6565b92915050565b612329816120aa565b811461233457600080fd5b50565b60008135905061234681612320565b92915050565b6000806040838503121561236357612362611e00565b5b600061237185828601612221565b925050602061238285828601612337565b9150509250929050565b600067ffffffffffffffff8211156123a7576123a6611e25565b5b6123b082611e14565b9050602081019050919050565b60006123d06123cb8461238c565b611e85565b9050828152602081018484840111156123ec576123eb611e0f565b5b6123f7848285611ed1565b509392505050565b600082601f83011261241457612413611e0a565b5b81356124248482602086016123bd565b91505092915050565b6000806000806080858703121561244757612446611e00565b5b600061245587828801612221565b945050602061246687828801612221565b935050604061247787828801611f71565b925050606085013567ffffffffffffffff81111561249857612497611e05565b5b6124a4878288016123ff565b91505092959194509250565b600080604083850312156124c7576124c6611e00565b5b60006124d585828601612221565b92505060206124e685828601612221565b9150509250929050565b7f4f6e6c79206f776e657200000000000000000000000000000000000000000000600082015250565b6000612526600a836120eb565b9150612531826124f0565b602082019050919050565b6000602082019050818103600083015261255581612519565b9050919050565b7f4e487b7100000000000000000000000000000000000000000000000000000000600052602260045260246000fd5b600060028204905060018216806125a357607f821691505b6020821081036125b6576125b561255c565b5b50919050565b60008190508160005260206000209050919050565b60006020601f8301049050919050565b600082821b905092915050565b60006008830261261e7fffffffffffffffffffffffffffffffffffffffffffffffffffffffffffffffff826125e1565b61262886836125e1565b95508019841693508086168417925050509392505050565b6000819050919050565b600061266561266061265b84611f50565b612640565b611f50565b9050919050565b6000819050919050565b61267f8361264a565b61269361268b8261266c565b8484546125ee565b825550505050565b600090565b6126a861269b565b6126b3818484612676565b505050565b5b818110156126d7576126cc6000826126a0565b6001810190506126b9565b5050565b601f82111561271c576126ed816125bc565b6126f6846125d1565b81016020851015612705578190505b612719612711856125d1565b8301826126b8565b50505b505050565b600082821c905092915050565b600061273f60001984600802612721565b1980831691505092915050565b6000612758838361272e565b9150826002028217905092915050565b612771826120e0565b67ffffffffffffffff81111561278a57612789611e25565b5b612794825461258b565b61279f8282856126db565b600060209050601f8311600181146127d257600084156127c0578287015190505b6127ca858261274c565b865550612832565b601f1984166127e0866125bc565b60005b82811015612808578489015182556001820191506020850194506020810190506127e3565b868310156128255784890151612821601f89168261272e565b8355505b6001600288020188555050505b505050505050565b7f4e487b7100000000000000000000000000000000000000000000000000000000600052601160045260246000fd5b600061287482611f50565b91507fffffffffffffffffffffffffffffffffffffffffffffffffffffffffffffffff82036128a6576128a561283a565b5b600182019050919050565b7f4552433732313a20617070726f76616c20746f2063757272656e74206f776e6560008201527f7200000000000000000000000000000000000000000000000000000000000000602082015250565b600061290d6021836120eb565b9150612918826128b1565b604082019050919050565b6000602082019050818103600083015261293c81612900565b9050919050565b7f4552433732313a20617070726f76652063616c6c6572206973206e6f7420746f60008201527f6b656e206f776e6572206f7220617070726f76656420666f7220616c6c000000602082015250565b600061299f603d836120eb565b91506129aa82612943565b604082019050919050565b600060208201905081810360008301526129ce81612992565b9050919050565b7f4552433732313a2063616c6c6572206973206e6f7420746f6b656e206f776e6560008201527f72206f7220617070726f76656400000000000000000000000000000000000000602082015250565b6000612a31602d836120eb565b9150612a3c826129d5565b604082019050919050565b60006020820190508181036000830152612a6081612a24565b9050919050565b7f4552433732313a20696e76616c696420746f6b656e2049440000000000000000600082015250565b6000612a9d6018836120eb565b9150612aa882612a67565b602082019050919050565b60006020820190508181036000830152612acc81612a90565b9050919050565b7f4552433732313a2061646472657373207a65726f206973206e6f74206120766160008201527f6c6964206f776e65720000000000000000000000000000000000000000000000602082015250565b6000612b2f6029836120eb565b9150612b3a82612ad3565b604082019050919050565b60006020820190508181036000830152612b5e81612b22565b9050919050565b600081905092915050565b7f7b22746f6b656e206e616d65223a220000000000000000000000000000000000600082015250565b6000612ba6600f83612b65565b9150612bb182612b70565b600f82019050919050565b6000612bc7826120e0565b612bd18185612b65565b9350612be18185602086016120fc565b80840191505092915050565b7f222c2022696d6167652055524c223a2200000000000000000000000000000000600082015250565b6000612c23601083612b65565b9150612c2e82612bed565b601082019050919050565b7f222c20226d617820737570706c79223a22000000000000000000000000000000600082015250565b6000612c6f601183612b65565b9150612c7a82612c39565b601182019050919050565b6000819050919050565b612ca0612c9b82611f50565b612c85565b82525050565b7f222c20227072696365223a220000000000000000000000000000000000000000600082015250565b6000612cdc600c83612b65565b9150612ce782612ca6565b600c82019050919050565b7f222c226465736372697074696f6e223a20736f6d657468696e67227d00000000600082015250565b6000612d28601c83612b65565b9150612d3382612cf2565b601c82019050919050565b6000612d4982612b99565b9150612d558287612bbc565b9150612d6082612c16565b9150612d6c8286612bbc565b9150612d7782612c62565b9150612d838285612c8f565b602082019150612d9282612ccf565b9150612d9e8284612c8f565b602082019150612dad82612d1b565b915081905095945050505050565b6000612dc78285612bbc565b9150612dd38284612bbc565b91508190509392505050565b7f496e73756666696369656e742076616c75650000000000000000000000000000600082015250565b6000612e156012836120eb565b9150612e2082612ddf565b602082019050919050565b60006020820190508181036000830152612e4481612e08565b9050919050565b7f4552433732313a207472616e736665722066726f6d20696e636f72726563742060008201527f6f776e6572000000000000000000000000000000000000000000000000000000602082015250565b6000612ea76025836120eb565b9150612eb282612e4b565b604082019050919050565b60006020820190508181036000830152612ed681612e9a565b9050919050565b7f4552433732313a207472616e7366657220746f20746865207a65726f2061646460008201527f7265737300000000000000000000000000000000000000000000000000000000602082015250565b6000612f396024836120eb565b9150612f4482612edd565b604082019050919050565b60006020820190508181036000830152612f6881612f2c565b9050919050565b7f4552433732313a20617070726f766520746f2063616c6c657200000000000000600082015250565b6000612fa56019836120eb565b9150612fb082612f6f565b602082019050919050565b60006020820190508181036000830152612fd481612f98565b9050919050565b7f4552433732313a207472616e7366657220746f206e6f6e20455243373231526560008201527f63656976657220696d706c656d656e7465720000000000000000000000000000602082015250565b60006130376032836120eb565b915061304282612fdb565b604082019050919050565b600060208201905081810360008301526130668161302a565b9050919050565b600061307882611f50565b915061308383611f50565b925082820190508082111561309b5761309a61283a565b5b92915050565b7f4e487b7100000000000000000000000000000000000000000000000000000000600052601260045260246000fd5b60006130db82611f50565b91506130e683611f50565b9250826130f6576130f56130a1565b5b828204905092915050565b600061310c82611f50565b915061311783611f50565b925082820261312581611f50565b9150828204841483151761313c5761313b61283a565b5b5092915050565b600081519050919050565b600082825260208201905092915050565b600061316a82613143565b613174818561314e565b93506131848185602086016120fc565b61318d81611e14565b840191505092915050565b60006080820190506131ad60008301876121e0565b6131ba60208301866121e0565b6131c760408301856122f6565b81810360608301526131d9818461315f565b905095945050505050565b6000815190506131f381612051565b92915050565b60006020828403121561320f5761320e611e00565b5b600061321d848285016131e4565b91505092915050565b7f4552433732313a206d696e7420746f20746865207a65726f2061646472657373600082015250565b600061325c6020836120eb565b915061326782613226565b602082019050919050565b6000602082019050818103600083015261328b8161324f565b9050919050565b7f4552433732313a20746f6b656e20616c7265616479206d696e74656400000000600082015250565b60006132c8601c836120eb565b91506132d382613292565b602082019050919050565b600060208201905081810360008301526132f7816132bb565b905091905056fe4142434445464748494a4b4c4d4e4f505152535455565758595a6162636465666768696a6b6c6d6e6f707172737475767778797a303132333435363738392b2fa26469706673582212205f5d065df3019dcc1d113f3fc9a1b83390a98f5e302f847606b3da100bcd7c0664736f6c63430008110033a2646970667358221220c858022ba02f71186335539f768fb980ad9654e0e8674a7c1a1d0f831086cbf364736f6c63430008110033",
  "devdoc": {
    "kind": "dev",
    "methods": {
      "owner()": {
        "details": "Returns the address of the current owner."
      },
      "renounceOwnership()": {
        "details": "Leaves the contract without owner. It will not be possible to call `onlyOwner` functions. Can only be called by the current owner. NOTE: Renouncing ownership will leave the contract without an owner, thereby disabling any functionality that is only available to the owner."
      },
      "transferOwnership(address)": {
        "details": "Transfers ownership of the contract to a new account (`newOwner`). Can only be called by the current owner."
      }
    },
    "version": 1
  },
  "userdoc": {
    "kind": "user",
    "methods": {},
    "version": 1
  },
  "storageLayout": {
    "storage": [
      {
        "astId": 53,
        "contract": "contracts/ERC721ProductCreator.sol:ERC721ProductCreator",
        "label": "_owner",
        "offset": 0,
        "slot": "0",
        "type": "t_address"
      },
      {
        "astId": 5002,
        "contract": "contracts/ERC721ProductCreator.sol:ERC721ProductCreator",
        "label": "s_owner",
        "offset": 0,
        "slot": "1",
        "type": "t_address"
      },
      {
        "astId": 5004,
        "contract": "contracts/ERC721ProductCreator.sol:ERC721ProductCreator",
        "label": "deployCost",
        "offset": 0,
        "slot": "2",
        "type": "t_uint256"
      },
      {
        "astId": 5006,
        "contract": "contracts/ERC721ProductCreator.sol:ERC721ProductCreator",
        "label": "mintFee",
        "offset": 0,
        "slot": "3",
        "type": "t_uint256"
      },
      {
        "astId": 5008,
        "contract": "contracts/ERC721ProductCreator.sol:ERC721ProductCreator",
        "label": "withdrawalFee",
        "offset": 0,
        "slot": "4",
        "type": "t_uint256"
      },
      {
        "astId": 5012,
        "contract": "contracts/ERC721ProductCreator.sol:ERC721ProductCreator",
        "label": "balances",
        "offset": 0,
        "slot": "5",
        "type": "t_mapping(t_address,t_uint256)"
      },
      {
        "astId": 5017,
        "contract": "contracts/ERC721ProductCreator.sol:ERC721ProductCreator",
        "label": "addressToContracts",
        "offset": 0,
        "slot": "6",
        "type": "t_mapping(t_address,t_array(t_address)dyn_storage)"
      }
    ],
    "types": {
      "t_address": {
        "encoding": "inplace",
        "label": "address",
        "numberOfBytes": "20"
      },
      "t_array(t_address)dyn_storage": {
        "base": "t_address",
        "encoding": "dynamic_array",
        "label": "address[]",
        "numberOfBytes": "32"
      },
      "t_mapping(t_address,t_array(t_address)dyn_storage)": {
        "encoding": "mapping",
        "key": "t_address",
        "label": "mapping(address => address[])",
        "numberOfBytes": "32",
        "value": "t_array(t_address)dyn_storage"
      },
      "t_mapping(t_address,t_uint256)": {
        "encoding": "mapping",
        "key": "t_address",
        "label": "mapping(address => uint256)",
        "numberOfBytes": "32",
        "value": "t_uint256"
      },
      "t_uint256": {
        "encoding": "inplace",
        "label": "uint256",
        "numberOfBytes": "32"
      }
    }
  }
}