{
  "address": "0xCf7Ed3AccA5a467e9e704C703E8D87F634fB0Fc9",
  "abi": [
    {
      "inputs": [],
      "name": "SafeTreasury__AddressNotFound",
      "type": "error"
    },
    {
      "inputs": [],
      "name": "SafeTreasury__InsufficientBalance",
      "type": "error"
    },
    {
      "inputs": [],
      "name": "SafeTreasury__NotAuthorized",
      "type": "error"
    },
    {
      "inputs": [],
      "name": "SafeTreasury__TransactionFailed",
      "type": "error"
    },
    {
      "anonymous": false,
      "inputs": [
        {
          "indexed": true,
          "internalType": "address",
          "name": "previousOwner",
          "type": "address"
        },
        {
          "indexed": true,
          "internalType": "address",
          "name": "newOwner",
          "type": "address"
        }
      ],
      "name": "OwnershipTransferred",
      "type": "event"
    },
    {
      "inputs": [
        {
          "internalType": "address",
          "name": "authorizedAddress",
          "type": "address"
        }
      ],
      "name": "authorize",
      "outputs": [],
      "stateMutability": "nonpayable",
      "type": "function"
    },
    {
      "inputs": [
        {
          "internalType": "address",
          "name": "tokenAddress",
          "type": "address"
        },
        {
          "internalType": "address",
          "name": "userAddress",
          "type": "address"
        }
      ],
      "name": "balance",
      "outputs": [
        {
          "internalType": "uint256",
          "name": "",
          "type": "uint256"
        }
      ],
      "stateMutability": "view",
      "type": "function"
    },
    {
      "inputs": [
        {
          "internalType": "address",
          "name": "tokenAddress",
          "type": "address"
        },
        {
          "internalType": "uint256",
          "name": "amount",
          "type": "uint256"
        }
      ],
      "name": "deposit",
      "outputs": [],
      "stateMutability": "nonpayable",
      "type": "function"
    },
    {
      "inputs": [],
      "name": "depositNT",
      "outputs": [],
      "stateMutability": "payable",
      "type": "function"
    },
    {
      "inputs": [
        {
          "internalType": "address",
          "name": "tokenAddress",
          "type": "address"
        },
        {
          "internalType": "address",
          "name": "to",
          "type": "address"
        },
        {
          "internalType": "uint256",
          "name": "amount",
          "type": "uint256"
        }
      ],
      "name": "externalTransfer",
      "outputs": [],
      "stateMutability": "nonpayable",
      "type": "function"
    },
    {
      "inputs": [
        {
          "internalType": "address",
          "name": "from",
          "type": "address"
        }
      ],
      "name": "getAuthorized",
      "outputs": [
        {
          "internalType": "address",
          "name": "",
          "type": "address"
        }
      ],
      "stateMutability": "view",
      "type": "function"
    },
    {
      "inputs": [
        {
          "internalType": "address",
          "name": "tokenAddress",
          "type": "address"
        },
        {
          "internalType": "address",
          "name": "to",
          "type": "address"
        },
        {
          "internalType": "uint256",
          "name": "amount",
          "type": "uint256"
        }
      ],
      "name": "internalTransfer",
      "outputs": [],
      "stateMutability": "nonpayable",
      "type": "function"
    },
    {
      "inputs": [],
      "name": "owner",
      "outputs": [
        {
          "internalType": "address",
          "name": "",
          "type": "address"
        }
      ],
      "stateMutability": "view",
      "type": "function"
    },
    {
      "inputs": [
        {
          "internalType": "address",
          "name": "authorizedAddress",
          "type": "address"
        }
      ],
      "name": "removeAuthorize",
      "outputs": [],
      "stateMutability": "nonpayable",
      "type": "function"
    },
    {
      "inputs": [],
      "name": "renounceOwnership",
      "outputs": [],
      "stateMutability": "nonpayable",
      "type": "function"
    },
    {
      "inputs": [
        {
          "internalType": "address",
          "name": "newOwner",
          "type": "address"
        }
      ],
      "name": "transferOwnership",
      "outputs": [],
      "stateMutability": "nonpayable",
      "type": "function"
    },
    {
      "inputs": [
        {
          "internalType": "address",
          "name": "tokenAddress",
          "type": "address"
        },
        {
          "internalType": "uint256",
          "name": "amount",
          "type": "uint256"
        }
      ],
      "name": "withdraw",
      "outputs": [],
      "stateMutability": "nonpayable",
      "type": "function"
    },
    {
      "inputs": [
        {
          "internalType": "address",
          "name": "tokenAddress",
          "type": "address"
        },
        {
          "internalType": "uint256",
          "name": "amount",
          "type": "uint256"
        }
      ],
      "name": "withdrawByAA",
      "outputs": [],
      "stateMutability": "nonpayable",
      "type": "function"
    },
    {
      "inputs": [
        {
          "internalType": "uint256",
          "name": "amount",
          "type": "uint256"
        }
      ],
      "name": "withdrawNT",
      "outputs": [],
      "stateMutability": "payable",
      "type": "function"
    },
    {
      "inputs": [
        {
          "internalType": "uint256",
          "name": "amount",
          "type": "uint256"
        }
      ],
      "name": "withdrawNTByAA",
      "outputs": [],
      "stateMutability": "nonpayable",
      "type": "function"
    }
  ],
  "transactionHash": "0x778354de7d47b0cdfb34c071899c44195d3bd98b62593f44364fca5a2216209f",
  "args": [],
  "numDeployments": 1,
  "solcInputHash": "1afbedb37c93eae6ef2191a802bb50e4",
  "bytecode": "0x608060405234801561001057600080fd5b5061002d61002261003960201b60201c565b61004160201b60201c565b60018081905550610105565b600033905090565b60008060009054906101000a900473ffffffffffffffffffffffffffffffffffffffff169050816000806101000a81548173ffffffffffffffffffffffffffffffffffffffff021916908373ffffffffffffffffffffffffffffffffffffffff1602179055508173ffffffffffffffffffffffffffffffffffffffff168173ffffffffffffffffffffffffffffffffffffffff167f8be0079c531659141344cd1fd0a4f28419497f9722a3daafe3b4186f6b6457e060405160405180910390a35050565b611cf3806101146000396000f3fe6080604052600436106100e85760003560e01c8063b203bb991161008a578063cb57e3f611610059578063cb57e3f6146102bb578063f2fde38b146102c5578063f3fef3a3146102ee578063f71c559c14610317576100e8565b8063b203bb99146101ef578063b6a5d7de1461022c578063bee69a5f14610255578063c731fc7b1461027e576100e8565b80636a6ed3a1116100c65780636a6ed3a11461015b578063715018a6146101845780637c989f171461019b5780638da5cb5b146101c4576100e8565b806347e7ef24146100ed57806359e026f71461011657806362ab58161461013f575b600080fd5b3480156100f957600080fd5b50610114600480360381019061010f919061177d565b610340565b005b34801561012257600080fd5b5061013d600480360381019061013891906117bd565b610493565b005b61015960048036038101906101549190611810565b6105d8565b005b34801561016757600080fd5b50610182600480360381019061017d9190611810565b6107d8565b005b34801561019057600080fd5b50610199610a6c565b005b3480156101a757600080fd5b506101c260048036038101906101bd919061177d565b610a80565b005b3480156101d057600080fd5b506101d9610d11565b6040516101e6919061184c565b60405180910390f35b3480156101fb57600080fd5b5061021660048036038101906102119190611867565b610d3a565b60405161022391906118b6565b60405180910390f35b34801561023857600080fd5b50610253600480360381019061024e91906118d1565b610dc1565b005b34801561026157600080fd5b5061027c600480360381019061027791906118d1565b610e42565b005b34801561028a57600080fd5b506102a560048036038101906102a091906118d1565b610f88565b6040516102b2919061184c565b60405180910390f35b6102c3610ff1565b005b3480156102d157600080fd5b506102ec60048036038101906102e791906118d1565b611086565b005b3480156102fa57600080fd5b506103156004803603810190610310919061177d565b611109565b005b34801561032357600080fd5b5061033e600480360381019061033991906117bd565b611310565b005b60008273ffffffffffffffffffffffffffffffffffffffff166323b872dd3330856040518463ffffffff1660e01b815260040161037f939291906118fe565b6020604051808303816000875af115801561039e573d6000803e3d6000fd5b505050506040513d601f19601f820116820180604052508101906103c2919061196d565b9050806103fb576040517fdd06abf200000000000000000000000000000000000000000000000000000000815260040160405180910390fd5b81600360008573ffffffffffffffffffffffffffffffffffffffff1673ffffffffffffffffffffffffffffffffffffffff16815260200190815260200160002060003373ffffffffffffffffffffffffffffffffffffffff1673ffffffffffffffffffffffffffffffffffffffff168152602001908152602001600020600082825461048791906119c9565b92505081905550505050565b80600360008573ffffffffffffffffffffffffffffffffffffffff1673ffffffffffffffffffffffffffffffffffffffff16815260200190815260200160002060003373ffffffffffffffffffffffffffffffffffffffff1673ffffffffffffffffffffffffffffffffffffffff168152602001908152602001600020600082825461051f91906119fd565b925050819055506103e86103e3826105379190611a31565b6105419190611aa2565b600360008573ffffffffffffffffffffffffffffffffffffffff1673ffffffffffffffffffffffffffffffffffffffff16815260200190815260200160002060008473ffffffffffffffffffffffffffffffffffffffff1673ffffffffffffffffffffffffffffffffffffffff16815260200190815260200160002060008282546105cc91906119c9565b92505081905550505050565b6105e0611542565b80600360008073ffffffffffffffffffffffffffffffffffffffff1673ffffffffffffffffffffffffffffffffffffffff16815260200190815260200160002060003373ffffffffffffffffffffffffffffffffffffffff1673ffffffffffffffffffffffffffffffffffffffff168152602001908152602001600020541015610696576040517fc95a75f400000000000000000000000000000000000000000000000000000000815260040160405180910390fd5b80600360008073ffffffffffffffffffffffffffffffffffffffff1673ffffffffffffffffffffffffffffffffffffffff16815260200190815260200160002060003373ffffffffffffffffffffffffffffffffffffffff1673ffffffffffffffffffffffffffffffffffffffff168152602001908152602001600020600082825461072291906119fd565b9250508190555060003373ffffffffffffffffffffffffffffffffffffffff168260405161074f90611b04565b60006040518083038185875af1925050503d806000811461078c576040519150601f19603f3d011682016040523d82523d6000602084013e610791565b606091505b50509050806107cc576040517fdd06abf200000000000000000000000000000000000000000000000000000000815260040160405180910390fd5b506107d5611591565b50565b6107e0611542565b60006107eb33610f88565b9050600073ffffffffffffffffffffffffffffffffffffffff168173ffffffffffffffffffffffffffffffffffffffff1603610853576040517f3eeac52b00000000000000000000000000000000000000000000000000000000815260040160405180910390fd5b6000600360008073ffffffffffffffffffffffffffffffffffffffff1673ffffffffffffffffffffffffffffffffffffffff16815260200190815260200160002060008373ffffffffffffffffffffffffffffffffffffffff1673ffffffffffffffffffffffffffffffffffffffff1681526020019081526020016000205490508281101561090e576040517fc95a75f400000000000000000000000000000000000000000000000000000000815260040160405180910390fd5b82600360008073ffffffffffffffffffffffffffffffffffffffff1673ffffffffffffffffffffffffffffffffffffffff16815260200190815260200160002060008473ffffffffffffffffffffffffffffffffffffffff1673ffffffffffffffffffffffffffffffffffffffff168152602001908152602001600020600082825461099a91906119fd565b9250508190555060003373ffffffffffffffffffffffffffffffffffffffff166103e86103e3866109cb9190611a31565b6109d59190611aa2565b6040516109e190611b04565b60006040518083038185875af1925050503d8060008114610a1e576040519150601f19603f3d011682016040523d82523d6000602084013e610a23565b606091505b5050905080610a5e576040517fdd06abf200000000000000000000000000000000000000000000000000000000815260040160405180910390fd5b505050610a69611591565b50565b610a7461159a565b610a7e6000611618565b565b610a88611542565b6000610a9333610f88565b9050600073ffffffffffffffffffffffffffffffffffffffff168173ffffffffffffffffffffffffffffffffffffffff1603610afb576040517f3eeac52b00000000000000000000000000000000000000000000000000000000815260040160405180910390fd5b6000600360008573ffffffffffffffffffffffffffffffffffffffff1673ffffffffffffffffffffffffffffffffffffffff16815260200190815260200160002060008373ffffffffffffffffffffffffffffffffffffffff1673ffffffffffffffffffffffffffffffffffffffff16815260200190815260200160002054905082811015610bb6576040517fc95a75f400000000000000000000000000000000000000000000000000000000815260040160405180910390fd5b82600360008673ffffffffffffffffffffffffffffffffffffffff1673ffffffffffffffffffffffffffffffffffffffff16815260200190815260200160002060008473ffffffffffffffffffffffffffffffffffffffff1673ffffffffffffffffffffffffffffffffffffffff1681526020019081526020016000206000828254610c4291906119fd565b9250508190555060008473ffffffffffffffffffffffffffffffffffffffff1663a9059cbb33866040518363ffffffff1660e01b8152600401610c86929190611b19565b6020604051808303816000875af1158015610ca5573d6000803e3d6000fd5b505050506040513d601f19601f82011682018060405250810190610cc9919061196d565b905080610d02576040517fdd06abf200000000000000000000000000000000000000000000000000000000815260040160405180910390fd5b505050610d0d611591565b5050565b60008060009054906101000a900473ffffffffffffffffffffffffffffffffffffffff16905090565b6000600360008473ffffffffffffffffffffffffffffffffffffffff1673ffffffffffffffffffffffffffffffffffffffff16815260200190815260200160002060008373ffffffffffffffffffffffffffffffffffffffff1673ffffffffffffffffffffffffffffffffffffffff16815260200190815260200160002054905092915050565b33600260008373ffffffffffffffffffffffffffffffffffffffff1673ffffffffffffffffffffffffffffffffffffffff16815260200190815260200160002060006101000a81548173ffffffffffffffffffffffffffffffffffffffff021916908373ffffffffffffffffffffffffffffffffffffffff16021790555050565b3373ffffffffffffffffffffffffffffffffffffffff16600260008373ffffffffffffffffffffffffffffffffffffffff1673ffffffffffffffffffffffffffffffffffffffff16815260200190815260200160002060009054906101000a900473ffffffffffffffffffffffffffffffffffffffff1673ffffffffffffffffffffffffffffffffffffffff1614610f06576040517fa946b20a00000000000000000000000000000000000000000000000000000000815260040160405180910390fd5b6000600260008373ffffffffffffffffffffffffffffffffffffffff1673ffffffffffffffffffffffffffffffffffffffff16815260200190815260200160002060006101000a81548173ffffffffffffffffffffffffffffffffffffffff021916908373ffffffffffffffffffffffffffffffffffffffff16021790555050565b6000600260008373ffffffffffffffffffffffffffffffffffffffff1673ffffffffffffffffffffffffffffffffffffffff16815260200190815260200160002060009054906101000a900473ffffffffffffffffffffffffffffffffffffffff169050919050565b34600360008073ffffffffffffffffffffffffffffffffffffffff1673ffffffffffffffffffffffffffffffffffffffff16815260200190815260200160002060003373ffffffffffffffffffffffffffffffffffffffff1673ffffffffffffffffffffffffffffffffffffffff168152602001908152602001600020600082825461107d91906119c9565b92505081905550565b61108e61159a565b600073ffffffffffffffffffffffffffffffffffffffff168173ffffffffffffffffffffffffffffffffffffffff16036110fd576040517f08c379a00000000000000000000000000000000000000000000000000000000081526004016110f490611bc5565b60405180910390fd5b61110681611618565b50565b80600360008473ffffffffffffffffffffffffffffffffffffffff1673ffffffffffffffffffffffffffffffffffffffff16815260200190815260200160002060003373ffffffffffffffffffffffffffffffffffffffff1673ffffffffffffffffffffffffffffffffffffffff1681526020019081526020016000205410156111bf576040517fc95a75f400000000000000000000000000000000000000000000000000000000815260040160405180910390fd5b80600360008473ffffffffffffffffffffffffffffffffffffffff1673ffffffffffffffffffffffffffffffffffffffff16815260200190815260200160002060003373ffffffffffffffffffffffffffffffffffffffff1673ffffffffffffffffffffffffffffffffffffffff168152602001908152602001600020600082825461124b91906119fd565b9250508190555060008273ffffffffffffffffffffffffffffffffffffffff1663a9059cbb33846040518363ffffffff1660e01b815260040161128f929190611b19565b6020604051808303816000875af11580156112ae573d6000803e3d6000fd5b505050506040513d601f19601f820116820180604052508101906112d2919061196d565b90508061130b576040517fdd06abf200000000000000000000000000000000000000000000000000000000815260040160405180910390fd5b505050565b611318611542565b80600360008573ffffffffffffffffffffffffffffffffffffffff1673ffffffffffffffffffffffffffffffffffffffff16815260200190815260200160002060003373ffffffffffffffffffffffffffffffffffffffff1673ffffffffffffffffffffffffffffffffffffffff1681526020019081526020016000205410156113ce576040517fc95a75f400000000000000000000000000000000000000000000000000000000815260040160405180910390fd5b80600360008573ffffffffffffffffffffffffffffffffffffffff1673ffffffffffffffffffffffffffffffffffffffff16815260200190815260200160002060003373ffffffffffffffffffffffffffffffffffffffff1673ffffffffffffffffffffffffffffffffffffffff168152602001908152602001600020600082825461145a91906119fd565b9250508190555060008373ffffffffffffffffffffffffffffffffffffffff1663a9059cbb846103e86103e3866114919190611a31565b61149b9190611aa2565b6040518363ffffffff1660e01b81526004016114b8929190611b19565b6020604051808303816000875af11580156114d7573d6000803e3d6000fd5b505050506040513d601f19601f820116820180604052508101906114fb919061196d565b905080611534576040517fdd06abf200000000000000000000000000000000000000000000000000000000815260040160405180910390fd5b5061153d611591565b505050565b600260015403611587576040517f08c379a000000000000000000000000000000000000000000000000000000000815260040161157e90611c31565b60405180910390fd5b6002600181905550565b60018081905550565b6115a26116dc565b73ffffffffffffffffffffffffffffffffffffffff166115c0610d11565b73ffffffffffffffffffffffffffffffffffffffff1614611616576040517f08c379a000000000000000000000000000000000000000000000000000000000815260040161160d90611c9d565b60405180910390fd5b565b60008060009054906101000a900473ffffffffffffffffffffffffffffffffffffffff169050816000806101000a81548173ffffffffffffffffffffffffffffffffffffffff021916908373ffffffffffffffffffffffffffffffffffffffff1602179055508173ffffffffffffffffffffffffffffffffffffffff168173ffffffffffffffffffffffffffffffffffffffff167f8be0079c531659141344cd1fd0a4f28419497f9722a3daafe3b4186f6b6457e060405160405180910390a35050565b600033905090565b600080fd5b600073ffffffffffffffffffffffffffffffffffffffff82169050919050565b6000611714826116e9565b9050919050565b61172481611709565b811461172f57600080fd5b50565b6000813590506117418161171b565b92915050565b6000819050919050565b61175a81611747565b811461176557600080fd5b50565b60008135905061177781611751565b92915050565b60008060408385031215611794576117936116e4565b5b60006117a285828601611732565b92505060206117b385828601611768565b9150509250929050565b6000806000606084860312156117d6576117d56116e4565b5b60006117e486828701611732565b93505060206117f586828701611732565b925050604061180686828701611768565b9150509250925092565b600060208284031215611826576118256116e4565b5b600061183484828501611768565b91505092915050565b61184681611709565b82525050565b6000602082019050611861600083018461183d565b92915050565b6000806040838503121561187e5761187d6116e4565b5b600061188c85828601611732565b925050602061189d85828601611732565b9150509250929050565b6118b081611747565b82525050565b60006020820190506118cb60008301846118a7565b92915050565b6000602082840312156118e7576118e66116e4565b5b60006118f584828501611732565b91505092915050565b6000606082019050611913600083018661183d565b611920602083018561183d565b61192d60408301846118a7565b949350505050565b60008115159050919050565b61194a81611935565b811461195557600080fd5b50565b60008151905061196781611941565b92915050565b600060208284031215611983576119826116e4565b5b600061199184828501611958565b91505092915050565b7f4e487b7100000000000000000000000000000000000000000000000000000000600052601160045260246000fd5b60006119d482611747565b91506119df83611747565b92508282019050808211156119f7576119f661199a565b5b92915050565b6000611a0882611747565b9150611a1383611747565b9250828203905081811115611a2b57611a2a61199a565b5b92915050565b6000611a3c82611747565b9150611a4783611747565b9250828202611a5581611747565b91508282048414831517611a6c57611a6b61199a565b5b5092915050565b7f4e487b7100000000000000000000000000000000000000000000000000000000600052601260045260246000fd5b6000611aad82611747565b9150611ab883611747565b925082611ac857611ac7611a73565b5b828204905092915050565b600081905092915050565b50565b6000611aee600083611ad3565b9150611af982611ade565b600082019050919050565b6000611b0f82611ae1565b9150819050919050565b6000604082019050611b2e600083018561183d565b611b3b60208301846118a7565b9392505050565b600082825260208201905092915050565b7f4f776e61626c653a206e6577206f776e657220697320746865207a65726f206160008201527f6464726573730000000000000000000000000000000000000000000000000000602082015250565b6000611baf602683611b42565b9150611bba82611b53565b604082019050919050565b60006020820190508181036000830152611bde81611ba2565b9050919050565b7f5265656e7472616e637947756172643a207265656e7472616e742063616c6c00600082015250565b6000611c1b601f83611b42565b9150611c2682611be5565b602082019050919050565b60006020820190508181036000830152611c4a81611c0e565b9050919050565b7f4f776e61626c653a2063616c6c6572206973206e6f7420746865206f776e6572600082015250565b6000611c87602083611b42565b9150611c9282611c51565b602082019050919050565b60006020820190508181036000830152611cb681611c7a565b905091905056fea264697066735822122083c0cfec031ab6a4e7e9e39c0382efa3a540eb4b94b9a93e88ac0eca8947441364736f6c63430008110033",
  "devdoc": {
    "author": "Alireza Haghshenas Github: alireza1691",
    "kind": "dev",
    "methods": {
      "deposit(address,uint256)": {
        "details": "Before calling this function, to transfer ERC20 token in smart contract we need to approve the amount that smart contract can spend token."
      },
      "owner()": {
        "details": "Returns the address of the current owner."
      },
      "renounceOwnership()": {
        "details": "Leaves the contract without owner. It will not be possible to call `onlyOwner` functions. Can only be called by the current owner. NOTE: Renouncing ownership will leave the contract without an owner, thereby disabling any functionality that is only available to the owner."
      },
      "transferOwnership(address)": {
        "details": "Transfers ownership of the contract to a new account (`newOwner`). Can only be called by the current owner."
      }
    },
    "title": "A smart contract that works as a treasury to keep user assets safe.",
    "version": 1
  },
  "userdoc": {
    "kind": "user",
    "methods": {},
    "notice": "This smart contract was written as a first version to test and develop and its not recommended to deploy on mainnet chains.",
    "version": 1
  },
  "storageLayout": {
    "storage": [
      {
        "astId": 7,
        "contract": "contracts/SafeTreasury.sol:SafeTreasury",
        "label": "_owner",
        "offset": 0,
        "slot": "0",
        "type": "t_address"
      },
      {
        "astId": 126,
        "contract": "contracts/SafeTreasury.sol:SafeTreasury",
        "label": "_status",
        "offset": 0,
        "slot": "1",
        "type": "t_uint256"
      },
      {
        "astId": 302,
        "contract": "contracts/SafeTreasury.sol:SafeTreasury",
        "label": "authorizedAddressesToMainAddress",
        "offset": 0,
        "slot": "2",
        "type": "t_mapping(t_address,t_address)"
      },
      {
        "astId": 308,
        "contract": "contracts/SafeTreasury.sol:SafeTreasury",
        "label": "tokenAddressToOwnerToBalance",
        "offset": 0,
        "slot": "3",
        "type": "t_mapping(t_address,t_mapping(t_address,t_uint256))"
      }
    ],
    "types": {
      "t_address": {
        "encoding": "inplace",
        "label": "address",
        "numberOfBytes": "20"
      },
      "t_mapping(t_address,t_address)": {
        "encoding": "mapping",
        "key": "t_address",
        "label": "mapping(address => address)",
        "numberOfBytes": "32",
        "value": "t_address"
      },
      "t_mapping(t_address,t_mapping(t_address,t_uint256))": {
        "encoding": "mapping",
        "key": "t_address",
        "label": "mapping(address => mapping(address => uint256))",
        "numberOfBytes": "32",
        "value": "t_mapping(t_address,t_uint256)"
      },
      "t_mapping(t_address,t_uint256)": {
        "encoding": "mapping",
        "key": "t_address",
        "label": "mapping(address => uint256)",
        "numberOfBytes": "32",
        "value": "t_uint256"
      },
      "t_uint256": {
        "encoding": "inplace",
        "label": "uint256",
        "numberOfBytes": "32"
      }
    }
  }
}